:020000040800F2
:1000000000000220391E0308750403087904030860
:100010007D04030881040308850403080000000030
:100020000000000000000000000000008904030838
:100030008D040308000000009104030895040308E0
:10004000891E0308891E0308891E0308891E0308E8
:10005000891E0308891E0308B1040308891E0308CA
:10006000891E0308891E0308891E0308891E0308C8
:10007000891E0308891E0308E91D0008891E03085C
:10008000891E0308891E0308891E0308891E0308A8
:10009000891E0308891E0308891E0308891E030898
:1000A000891E0308891E0308891E0308891E030888
:1000B000891E0308B9040308891E0308891E030862
:1000C000891E0308891E0308891E0308D10403083A
:1000D000891E0308891E0308891E0308891E030858
:1000E000891E0308891E0308891E0308891E030848
:1000F000891E0308891E0308891E0308DD1D0008E8
:10010000891E0308891E0308891E0308891E030827
:10011000891E0308891E0308891E0308891E030817
:10012000891E0308891E0308891E0308DD040308CD
:10013000891E0308891E0308891E0308891E0308F7
:10014000891E0308891E0308891E0308C5040308C5
:10015000891E0308891E0308891E0308891E0308D7
:10016000891E0308891E0308891E0308891E0308C7
:10017000891E0308891E0308891E03080000000069
:08018000891E0308891E030813
:1001880010F8012B11F8013B012A28BF9A42F7D039
:10019800D01A7047034613F8012B002AFBD1181A0E
:1001A8000138704770B54FF0FF0C4CF4E06C1CEA56
:1001B80011541DBF1CEA135594EA0C0F95EA0C0F55
:1001C80000F0DEF82C4481EA030621EA4C5123EAC8
:1001D8004C5350EA013518BF52EA033541F48011F7
:1001E80043F4801338D0A0FB02CE4FF00005E1FBAA
:1001F80002E506F00042E0FB03E54FF00006E1FBF4
:1002080003569CF0000F18BF4EF0010EA4F1FF0436
:10021800B6F5007F64F5407404D25FEA4E0E6D4176
:1002280046EB060642EAC62141EA55514FEAC52087
:1002380040EA5E504FEACE2EB4F1FD0C88BFBCF503
:10024800E06F1ED8BEF1004F08BF5FEA500E50F1B4
:10025800000041EB045170BD06F0004646EA01017A
:1002680040EA020081EA0301B4EB5C04C2BFD4EBAC
:100278000C0541EA045170BD41F480114FF0000EA5
:10028800013C00F3AB8014F1360FDEBF002001F013
:10029800004170BDC4F10004203C35DA0C341BDC8D
:1002A80004F11404C4F1200500FA05F320FA04F05F
:1002B80001FA05F240EA020001F0004221F0004193
:1002C80010EBD37021FA04F642EB06015EEA430E06
:1002D80008BF20EAD37070BDC4F10C04C4F1200536
:1002E80000FA04F320FA05F001FA04F240EA0200E9
:1002F80001F0004110EBD37041F100015EEA430EBA
:1003080008BF20EAD37070BDC4F1200500FA05F2D9
:100318004EEA020E20FA04F301FA05F243EA020358
:1003280021FA04F001F0004121FA04F220EA020067
:1003380000EBD3705EEA430E08BF20EAD37070BDAD
:1003480094F0000F0FD101F00046400041EB01018D
:1003580011F4801F08BF013CF7D041EA060195F06F
:10036800000F18BF704703F00046520043EB030329
:1003780013F4801F08BF013DF7D043EA0603704716
:1003880094EA0C0F0CEA135518BF95EA0C0F0CD021
:1003980050EA410618BF52EA4306D1D181EA030167
:1003A80001F000414FF0000070BD50EA410606BF61
:1003B8001046194652EA430619D094EA0C0F02D1A6
:1003C80050EA013613D195EA0C0F05D152EA0336EB
:1003D8001CBF104619460AD181EA030101F0004109
:1003E80041F0FE4141F470014FF0000070BD41F052
:1003F800FE4141F4780170BD81F0004102E000BF88
:1004080083F0004330B54FEA41044FEA430594EACC
:10041800050F08BF90EA020F1FBF54EA000C55EA07
:10042800020C7FEA645C7FEA655C00F0E2804FEAD8
:100438005454D4EB5555B8BF6D420CDD2C4480EABA
:10044800020281EA030382EA000083EA010180EAEA
:10045800020281EA0303362D88BF30BD11F0004F38
:100468004FEA01314FF4801C4CEA113102D040426E
:1004780061EB410113F0004F4FEA03334CEA1333A9
:1004880002D0524263EB430394EA050F00F0A780C1
:10049800A4F10104D5F1200E0DDB02FA0EFC22FABC
:1004A80005F2801841F1000103FA0EF2801843FAB0
:1004B80005F359410EE0A5F120050EF1200E012AA1
:1004C80003FA0EFC28BF4CF0020C43FA05F3C018DF
:1004D80051EBE37101F0004507D54FF0000EDCF158
:1004E800000C7EEB00006EEB0101B1F5801F1BD301
:1004F800B1F5001F0CD349085FEA30004FEA3C0C05
:1005080004F101044FEA445212F5800F80F09A80FA
:10051800BCF1004F08BF5FEA500C50F1000041EBFE
:10052800045141EA050130BD5FEA4C0C404141EB02
:100538000101013C28BFB1F5801FE9D291F0000FFD
:1005480004BF01460020B1FA81F308BF2033A3F1AC
:100558000B03B3F120020CDA0C3208DD02F1140CA3
:10056800C2F10C0201FA0CF021FA02F10CE002F1DE
:100578001402D8BFC2F1200C01FA02F120FA0CFCD7
:10058800DCBF41EA0C019040E41AA2BF01EB045120
:10059800294330BD6FEA04041F3C1CDA0C340EDC1E
:1005A80004F11404C4F1200220FA04F001FA02F361
:1005B80040EA030021FA04F345EA030130BDC4F11F
:1005C8000C04C4F1200220FA02F001FA04F340EA14
:1005D8000300294630BD21FA04F0294630BD94F0C5
:1005E800000F83F4801306BF81F480110134013DAC
:1005F8004EE77FEA645C18BF7FEA655C29D094EA1D
:10060800050F08BF90EA020F05D054EA000C04BF9A
:100618001946104630BD91EA030F1EBF0021002085
:1006280030BD5FEA545C05D14000494128BF41F024
:10063800004130BD14F580043CBF01F5801130BD88
:1006480001F0004545F0FE4141F470014FF0000013
:1006580030BD7FEA645C1ABF194610467FEA655CC4
:100668001CBF0B46024650EA013406BF52EA033566
:1006780091EA030F41F4002130BD00BF90F0000F54
:1006880004BF0021704730B54FF4806404F1320490
:100698004FF000054FF0000150E700BF90F0000F49
:1006A80004BF0021704730B54FF4806404F1320470
:1006B80010F0004548BF40424FF000013EE700BF40
:1006C80042004FEAE2014FEA31014FEA02701FBFD0
:1006D80012F07F4393F07F4F81F06051704732F002
:1006E8007F4208BF704793F07F4F04BF41F4002159
:1006F800704730B54FF4607401F0004521F00041B7
:100708001CE700BF50EA010208BF704730B54FF040
:1007180000050AE050EA010208BF704730B511F041
:10072800004502D5404261EB41014FF4806404F179
:1007380032045FEA915C3FF4D8AE4FF003025FEAFF
:10074800DC0C18BF03325FEADC0C18BF033202EB83
:10075800DC02C2F1200300FA03FC20FA02F001FADD
:1007680003FE40EA0E0021FA02F11444BDE600BF80
:100778004FF0FF3C06E000BF4FF0010C02E000BF65
:100788004FF0010C4DF804CD4FEA410C7FEA6C5C48
:100798004FEA430C18BF7FEA6C5C1BD001B050EAEB
:1007A800410C0CBF52EA430C91EA030F02BF90EAD6
:1007B800020F0020704710F1000F91EA030F58BF95
:1007C800994208BF90422CBFD8176FEAE37040F0F7
:1007D800010070474FEA410C7FEA6C5C02D150EA95
:1007E800013C07D14FEA430C7FEA6C5CD6D152EA50
:1007F800033CD3D05DF8040B704700BF8446104615
:1008080062468C461946634600E000BF01B5FFF713
:10081800B7FF002848BF10F1000F01BD4DF808EDE3
:10082800FFF7F4FF0CBF012000205DF808FB00BFB4
:100838004DF808EDFFF7EAFF34BF012000205DF80E
:1008480008FB00BF4DF808EDFFF7E0FF94BF01205B
:1008580000205DF808FB00BF4DF808EDFFF7CEFF5C
:1008680094BF012000205DF808FB00BF4DF808ED9B
:10087800FFF7C4FF34BF012000205DF808FB00BF6C
:100888004FEA4102B2F1E04324BFB3F5001CDCF1AA
:10089800FE5C0DD901F0004C4FEAC0024CEA5070E2
:1008A800B2F1004F40EB830008BF20F00100704711
:1008B80011F0804F21D113F13872BCBF01F0004014
:1008C800704741F480114FEA5252C2F11802C2F146
:1008D800200C10FA0CF320FA02F018BF40F00100C7
:1008E8004FEAC1234FEAD32303FA0CFC40EA0C0079
:1008F80023FA02F34FEA4303CCE77FEA625307D1B6
:1009080050EA01331EBF4FF0FE4040F440007047EC
:1009180001F0004040F0FE4040F40000704700BF86
:1009280053B94AB9002908BF00281CBF4FF0FF314E
:100938004FF0FF3000F00CB8ADF1080C6DE904CEB3
:1009480031F024FCDDF804E0DDE9022304B070474F
:10095800704700BF10B5054C237833B9044B13B169
:100968000448AFF300800123237010BD58210020F4
:10097800000000005024030808B5034B1BB10349CD
:100988000348AFF3008008BD000000005C21002090
:100998005024030838B5044604252DED068B384845
:1009A800384BA560384D394A606000213848E3600B
:1009B8004FF080436261A361206121604FF4806041
:1009C80029469FED340ADFED34AADFED349A9FED16
:1009D80034AA01F037FD2946B0EE408A4FF4806012
:1009E800B0EE6A0A01F02EFD9FED2E7A94ED049A7E
:1009F80038EE408AF7EE008AC8EE077A29464FF4A7
:100A0800806094ED050A77EEA87A20EE290AC4EDF5
:100A1800077A01F017FD4FF48060B0EE408A29464E
:100A2800B0EE690A01F00EFD29EE0A9A38EE408A06
:100A38002946C8EE097A4FF48060B0EE6A0A77EE6C
:100A4800A87AD4ED05AAC4ED087A94ED069A01F0C7
:100A5800F9FC4FF48060B0EE408A29462AEEA90AD4
:100A680001F0F0FC29EE0A9A38EE408AC8EE097ABD
:100A780077EEA87ABDEC068BC4ED097A38BD00BFC5
:100A88006666A63F6F12833A80240308CDCCCC3D1E
:100A9800000040406666A64417B7D13D0000804478
:100AA80000442C4767663042034A02604FF07E518B
:100AB800002341608360704717B7D13800220323B1
:100AC80042608360704700BF10B5144C2DED048B55
:100AD800DFED139AB0EE409A214620EEA90A4FF4B2
:100AE8008060B0EE418A01F0ADFC4FF48060F0EE1A
:100AF800408A214629EE290A01F0A4FCDFED097A93
:100B080078EEC08A28EE278AF7EE007A88EE880AFF
:100B1800BDEC048B30EE270A10BD00BF802403080B
:100B28000000804400442C4710B58368012B2DED4C
:100B3800028B044690ED008A2FD0032B18D03BBBC4
:100B480090ED077A28EE078AF7EE007AB4EEE78A86
:100B5800F1EE10FA1ADBB0EE678AB0EE480ABDEC87
:100B6800028B4269C0ED007A01234260836010BDA8
:100B7800D0ED097A28EE278A18EE100AFFF7A0FDB3
:100B88001AA3D3E90023FFF75DFEF0B984ED008ACC
:100B9800B0EE480ABDEC028B10BD90ED087AD0ED9E
:100BA800057A28EE078AB4EEE78AF1EE10FA80EDAE
:100BB800008AEDD8B0EE678AB0EE480ABDEC028B29
:100BC8000223C0ED007A836010BDDFED077AB0EE36
:100BD800678AB0EE480ABDEC028B0423C4ED007AA4
:100BE800A36010BDAFF30080000000002D431CEB94
:100BF800E2361A3F2DE9F041B1F90440B1F9065047
:100C0800B1F90080B1F90270ABB21646B9B2A2B21E
:100C18001FFA88F02BF09EFA1148002204212CF0CC
:100C2800F5FD0F48012202212CF0F0FDED1BA4EB8D
:100C38000803013301350B4C13FB05F35B00314608
:100C48009AB220462FF088F8A16C91F83530012B24
:100C5800DAB2FAD1BDE8F041014804212CF0D6BD42
:100C6800000002404888002038B50C4D0C4C2BF091
:100C7800A7FA0C4A0C494FF44863284614F050FD73
:100C8800204614F029FD094B094A22602046636179
:100C9800E560BDE8384014F051BD00BF7453002032
:100CA8009053002074210020743A0020FD0B0008A6
:100CB8004001F000014814F019BE00BF9053002015
:100CC80010B50B4C2378022B09D0042B00D010BD93
:100CD80000232370BDE81040064830F047B90649A4
:100CE8000448402230F066F90323237010BD00BF8A
:100CF800AA540020AC540020E05300202DE9F04114
:100D0800154830F049F9032823D9144CDFF85080EE
:100D1800C0F38F00013880B2271D07EB800707E07A
:100D280066F307052846043400F02AF8BC4210D0C0
:100D38002288A37814F8016C62F3172563F31F6502
:100D4800002EEDD001224FF4004140462CF05EFD0C
:100D5800E6E7BDE8F08100BFAC540020E153002075
:100D6800000C024008B5FFF7C9FFBDE8084002497A
:100D78000248402230F01EB9E0530020AC54002055
:100D880038B5C0F30742C0F30763010EC0F307206C
:100D980000F0F0009028144621D0E0281AD08028CE
:100DA80017D1344D344A29780139002349B2994280
:100DB800135529704BDD314D2978A14209D102E044
:100DC8000133802B04D012F8011B0129F8D1D8B2C5
:100DD800287038BD2A4A04EBC113138038BD29484E
:100DE8000370C9B9234D244A13552B78013B5BB2D4
:100DF800002B2B702BDD214D2B78A342E9D1134614
:100E08000A4602E00132802A04D013F8011B0129A6
:100E1800F8D1D2B22A7038BD18481B4902701B4855
:100E28000B70FFF741FE1A48FFF73EFE1948FFF71F
:100E38003BFE194801224FF480412CF0E7FC0D4A93
:100E48000D491378012003440855137038BD0F4825
:100E5800FFF734FE0E48FFF731FE0E48FFF72EFE6F
:100E680000222A70BDE838400B484FF480412CF02E
:100E7800CDBC00BF2054002024540020A6540020DC
:100E8800A8540020A5540020A454002050000010AD
:100E98002800001000000010000C0240042917D0A0
:100EA800052910B50B4602D0022919D010BD174BE1
:100EB8001748042400224FF480511C702CF0A6FC23
:100EC800BDE81040124800224FF400412CF09EBCAF
:100ED8000E4B0F4801224FF400411A702CF096BCBB
:100EE8000A4C0B48237001224FF480512CF08EFCE1
:100EF800074800224FF400412CF088FCBDE8104060
:100F0800034800224FF480412CF080BCAA540020F2
:100F1800000C02402DE9F8430F4CDFF84C90DFF845
:100F28004C800E4F04F18006002504F8015F484606
:100F3800FFF7C4FD4046FFF7C1FD3846FFF7BEFD89
:100F4800B442F1D1064B07481D702A464FF4804140
:100F5800BDE8F8432CF05ABC2354002000000010D0
:100F680020540020000C02405000001028000010FF
:100F78002DE9F041D0E902850446A8EB0507406851
:100F880097422844154408D83A460E46A5EB08056A
:100F980031F096F860682A46F11931F091F8BFF3FC
:100FA8005F8FE560BDE8F0812DE9F8430646D0E99A
:100FB8000204894617464FF0000833699C4203F142
:100FC800FF3228BF03F1FF33A0EB04052ABF1B182B
:100FD800131B1B1BBD4228BF3D469D42706828BF9E
:100FE8001D4649462A46204431F06AF8B0682C4428
:100FF800A844A9447F1BA04208BF0024BFF35F8F09
:10100800F460002FD9D14046BDE8F88310B5154CDF
:10101800A8220021204631F00DF803212161124A4F
:1010280061611248A2614FF48061E061002321628E
:101038000F48A36210216362E36222666066A166BC
:101048002367E3666367BFF35F8F0A4BA3F1100C56
:101058001846C21A13F8011DA1546345F9D1BFF30C
:101068005F8F10BDD85E002084340308D85A002052
:10107800C85A0020683A030838B5214B00EB4004F1
:1010880003EBC40E0130DEF82C4000EB4000012CCD
:101098008C46154603EBC00015D0022C0FD034BB8C
:1010A800DEF82830DEF8242093429CBFDEF82010BA
:1010B8005B18013B9A1A95421CD9204638BDBDE8F9
:1010C8003840FFF771BFDEF82830DEF82440A3422D
:1010D8009CBFDEF820105B18013B1C1B944228BF04
:1010E800144622466146FFF743FF204638BD0024D8
:1010F800204638BD2A466146FFF73AFF2C46DCE712
:10110800D85E0020F8B5054608460C46FFF742F8B9
:101118000A4B1B7806466BB1EFF311874FF020019D
:1011280081F31188324621462846FFF7A5FF87F349
:101138001188F8BDFFF76AFFEEE700BFD85E002010
:101148002DE9F041194D1E462B780446884617466E
:101158002BB3022C26D8EFF3118C4FF0200181F32A
:10116800118854B92246131905EBC305069BEB6297
:101178008CF311880020BDE8F081601C00EB400072
:10118800C00004EB440345F8008005EBC303284482
:101198000021476062001E6299625962E3E7FFF727
:1011A80035FFD6E74FF0FF30E5E700BFD85E0020F7
:1011B8002DE9F04383B014F061FB08F023FB16F02F
:1011C8001FFE6D496D4E6E4D044616F025FE2046F5
:1011D8006C4900221EF0F0FB2046002202211EF07E
:1011E800F1FB0A230022022120461AF043FD14F0E5
:1011F80045FB08F007FB16F003FE634C63492060CB
:1012080016F00AFE2068624900221EF0D5FB20680D
:10121800002202211EF0D6FB28230022022120688A
:101228005C4C1AF027FD14F029FB08F0EBFA01F0EA
:101238004DFF4822114630601AF052FC6FF0090346
:101248006FF05902092130681AF014FD14F016FBEA
:1012580008F0D8FA01F03AFF4822114628601AF03F
:101268003FFC6FF009035A22092128681AF002FD91
:1012780014F004FB08F0C6FA01F028FF48221146D2
:1012880020601AF02DFC41232068002209211AF061
:10129800F1FC3068872102F0ABFC30684FF48772AC
:1012A800002102F099FC2868872102F0A1FC286837
:1012B8004FF48772002102F08FFC2068872102F02A
:1012C80097FC20684FF48772002102F085FC306893
:1012D8004FF4403200211DF047FF3068022119F019
:1012E800DDFD28684FF4403200211DF03DFF2868DD
:1012F800022119F0D3FD4FF44032206800211DF07F
:1013080033FF0221206819F0C9FD14F0B7FA08F07C
:1013180079FA16F075FD2049814616F0E3FD14F0C0
:10132800ADFA08F06FFA16F06BFD1C49804616F00E
:10133800D9FD14F0A3FA08F065FA16F061FD184912
:10134800074616F0CFFD31680F2648460096002361
:1013580005221BF01FFE296800964046002305223F
:101368001BF018FE216800960023052238461BF062
:1013780011FE03B0BDE8F083903403088C5F0020B1
:10138800885F002040B40308805F0020A034030871
:1013980024760308845F0020B0340308B8340308B7
:1013A800C034030808B514F069FA08F02BFA0022D3
:1013B8004CF601211EF0D2FA14F060FA08F022FA75
:1013C80000224FF0FF311EF0E3FABDE80840FFF7B6
:1013D800EFBE00BF08B5234B2DED028BD3ED007A8D
:1013E8009FED218A214B67EE887A1868FCEEE77A30
:1013F800002117EE903A9AB202F042FB1C4A1D4BAC
:10140800D2ED007A186867EE887A0021FCEEE77A58
:1014180017EE903A9AB202F033FB174A174BD2ED07
:10142800007A186867EE887A0021FCEEE77A17EEF2
:10143800903A9AB202F024FB114B1B8813F0010F6B
:10144800104B07D1BDEC028B18680F49BDE8084066
:1014580016F0E2BCBDEC028B18680C49BDE80840E8
:1014680016F0DABCA05F0020000087438C5F0020E4
:101478009C5F0020885F0020985F0020845F002028
:10148800925F0020805F0020A0340308C83403085E
:1014980038B5474C474D2DED028B20462BF0E6FB27
:1014A8004FF0FF3120462BF065FC20462BF0BAFCAC
:1014B800414B9FED428A024620461A802BF0B2FC2F
:1014C80000EE100AF0EE480A3D483E4CB8EE400ADD
:1014D80000F0A6FEFCEEC07A17EE900AC0F38D006D
:1014E800FFF7DCF830A3D3E90023FEF75BFEFFF734
:1014F800C7F9286020462BF0B9FB4FF0FF31204692
:101508002BF038FC20462BF08DFC2F4B2F4D02463C
:1015180020461A802BF086FC00EE100AF0EE480AEE
:101528002B482C4CB8EE400A00F07AFEFCEEC07A4C
:1015380017EE900AC0F38D00FFF7B0F81AA3D3E9AD
:101548000023FEF72FFEFFF79BF9286020462BF0BB
:101558008DFB4FF0FF3120462BF00CFC20462BF082
:1015680061FC1D4B024620461A802BF05BFC00EE06
:10157800100AF0EE480A1948194CB8EE400A00F073
:101588004FFEFCEEC07A17EE900AC0F38D00FFF70D
:1015980085F805A3D3E90023FEF704FEFFF770F9E9
:1015A800BDEC028B206038BDBE963C000104503F64
:1015B80040600020A05F0020A85F002048E17A3F3B
:1015C800A4620020F85F0020A65F00209C5F002036
:1015D800A0620020B05F0020A45F00209C62002071
:1015E800985F0020064B074A5B6A11880648C3F3D8
:1015F8008F039942038002D0044913800B807047FF
:1016080000040040965F0020945F0020925F002055
:1016180008B5802108482CF0F3F8084A08491388CF
:101628000880984218BFB3FA83F30649108014BFA4
:101638005B0900230B7008BD000402400200002073
:1016480000000020905F002000B51F481F499FED53
:101658001A7B4FF4803285B00023C0E900120122C2
:10166800CDE90033CDE9023380ED0A7B8360036165
:10167800037680F82030C360C26180F83030426160
:101688002BF048FA68B99FED0E7B00230E480293B1
:1016980069468DED007B2BF0C9FB28B905B05DF8D4
:1016A80004FB2AF0D1FAEEE72AF0CEFA05B05DF88D
:1016B80004FB00BFAFF300800100000F0000000032
:1016C8000E000000010000004060002000200140E2
:1016D80000B51F481F499FED1A7B4FF4803285B033
:1016E8000023C0E900120122CDE90033CDE902331D
:1016F80080ED0A7B83600361037680F82030C36045
:10170800C26180F8303042612BF004FA68B99FED6D
:101718000E7B00230E48029369468DED007B2BF06B
:1017280085FB28B905B05DF804FB2AF08DFAEEE7D1
:101738002AF08AFA05B05DF804FB00BFAFF3008019
:101748000100000F000000000F0000000100000071
:10175800F85F00200021014000B51F481F499FED98
:101768001A7B4FF4803285B00023C0E900120122B1
:10177800CDE90033CDE9023380ED0A7B8360036154
:10178800037680F82030C360C26180F8303042614F
:101798002BF0C0F968B99FED0E7B00230E48029329
:1017A80069468DED007B2BF041FB28B905B05DF84B
:1017B80004FB2AF049FAEEE72AF046FA05B05DF88C
:1017C80004FB00BFAFF300800100000F0000000021
:1017D8000C00000001000000B05F00200022014062
:1017E80000B5026840498DB000238A42CDE906332E
:1017F800CDE908330A9308D03C498A4225D03C49B0
:101808008A4242D00DB05DF804FB3A4A0093506C0E
:1018180040F480705064506C00F480700090009820
:101828000193136B344843F004031363136B9FED68
:10183800287B03F00403019306A98DED067B019B29
:101848002BF008FE0DB05DF804FB2A4A0293506C99
:1018580040F400705064506C00F4007002900298DC
:101868000393136B244843F004031363136B9FED36
:101878001A7B03F00403039306A98DED067B039BF3
:101888002BF0E8FD0DB05DF804FB1A4A0493506C88
:1018980040F480605064506C00F4806004900498B8
:1018A8000593136B144843F004031363136B9FED04
:1018B8000C7B03F00403059306A98DED067B059BBD
:1018C8002BF0C8FD0DB05DF804FB00BFAFF300803E
:1018D80010000000030000002000000003000000CA
:1018E8000400000003000000002001400021014026
:1018F80000220140003802400008024008B54AF6BC
:1019080044422DED048B5A2102202BF01DF89FED47
:101918002F8A9FED2F9A2F48DFED2F8A4FF4007101
:101928002AF02AFFB6EE002AF0EE481AB0EE481A5E
:10193800F0EE490AB0EE420A28482AF087F9B6EED6
:10194800002AB0EE481AF0EE680AB0EE420ADFED5F
:10195800241A24482AF07AF9B6EE002AF0EE481A3A
:10196800B0EE481AF0EE490AB0EE420A1E482AF0D4
:101978006DF9B6EE002AF0EE481AB0EE481AF0EE0D
:10198800680AB0EE420A19482AF060F9B6EE002A51
:10199800F0EE481AB0EE481AF0EE680AB0EE420AC5
:1019A80013482AF053F91348FEF7F4FF1248FEF7DC
:1019B800F1FF1248FEF7EEFF114800F05DFEBDECA6
:1019C800048BBDE808402AF0FDBC00BF0000000001
:1019D80000007A44986000200000DC4304010010F5
:1019E800F4FDB43FE8000010CC000010B000001077
:1019F8009400001050000010280000100000001093
:101A08007063002000000000CD4ACE4BD2ED007A72
:101A18001B882DE9F04F27EEA77A2DED088B27EECE
:101A2800277A83B067EE277A03F00103044617EE9E
:101A3800900A00930F460191FEF742FEBCA3D3E93A
:101A48000023FEF7DFFCC04BC04EC14D0022FEF75D
:101A5800A9FBFEF715FFD6ED050A306101EE100A65
:101A6800B7EE000A2861FFF72FF895ED041AD5EDB7
:101A7800050AF0EE407AB7EE000AC6ED087AFFF7DD
:101A880023F885ED080A002F00F04A81B14EDFEDFA
:101A9800B2AADFEDB29A9FEDB29ADFEDB28ADFF813
:101AA8000CA3DFF8E492B04FDFF80483DFF804B347
:101AB8009FEDAEAA0234002556E0F0EE086AB4EEB7
:101AC800E67AF1EE10FA00F30281F3EE0B6AF2EE19
:101AD800025A67EE255AF0EE664AE7EE074AE7EE45
:101AE800256A27EE247AB0EE666AC7EE066A9FED8D
:101AF800A05A26EE857ABDEEC77A17EE103A1AB2CA
:101B0800B8EE087AF4EEC77AF1EE10FA00F1DD804B
:101B1800B0EE087AF4EEC77AF1EE10FA00F3DA8044
:101B2800B3EE0B7AB2EE026A27EE866AB0EE475A37
:101B3800A7EEA75AA7EE867A67EE857AF0EE476A8F
:101B480087EEA67ADFED8A5A67EE257AFDEEE77A08
:101B580017EE903A1BB224F8022C24F8043B019BA0
:101B680001359D4200F0DC8097ED007A814B27EE2D
:101B78002A7AF7EE007A83ED017A7F4B1B7806EB21
:101B8800830292ED007A7D4A8AED007A77EE276A21
:101B980077EE677A66EEAA6A67EEAA7AC2ED016AFC
:101BA800774AC2ED017A06EB8302D2ED077A754ACD
:101BB80067EEAA7A27EE2A6AC2ED017A009A89EDC1
:101BC800016A002A40F089800C2B8ABF06EB830348
:101BD8001AEE103A53F8303C6B483B602AF0BAF8DA
:101BE8006648B0EE408A2AF0B5F8654838EE008AB3
:101BF8002AF0B0F8634838EE008A2AF0ABF85D485E
:101C080038EE008A2AF002F938EE008AF5EE007AFA
:101C180028EE278A4D48FEF787FF98ED007A9FED5A
:101C28004F1A67EE297AF3EE040A67EE877A67EEB1
:101C3800877A67EE877AE0EE097AB0EE670A00F0F5
:101C48001BFC524BF0EE407A1846B0EE480AC3ED42
:101C5800007A00F01DFD4E48B0EE40BAFEF764FF72
:101C6800DBED007A4B4BDFED4C0AC3ED007AB0EEAA
:101C7800408AB5EE000A37EE800AB0EE681A00F026
:101C8800FBFB28EE0B8A454B45494648F0EE407A67
:101C9800B0EE480AC3ED007A2AF0BEFB414B93ED43
:101CA800007A3F4BF8EE086AB4EEE67AF1EE10FAE5
:101CB800D3ED007A7FF501AFB8EE087AF4EEC77A73
:101CC800F1EE10FA384A7FF523AF374B43E747F672
:101CD800FF7215E747F6FF733DE71D48FEF724FF3F
:101CE80098ED007A67EE077AF0EE406A67EE877A39
:101CF8009AED000A67EE877A67EEA67AC9ED037A4D
:101D080029F0F4FF10EE100AFEF7DAFC0AA3D3E973
:101D18000023FEF747FAFEF7B3FD08EE100A79E74D
:101D280003B0BDEC088BBDE8F08F00BFAFF30080B7
:101D3800FCA9F1D24D62803F9A9999999999E93F06
:101D48009C5F0020925F00200000244028000010C3
:101D5800000000106C3A03088D3B803F0044AC46FD
:101D680000C0DA45CDCC8C3F9060002013D00241F2
:101D780000FEFF4694000010A6540020E800001062
:101D8800CC000010B00000100401001070630020A7
:101D980050000010CC20002000000000D0200020BF
:101DA800886000208C6000200180FFFF9460002084
:101DB800A05F0020985F002001484021FFF724BE63
:101DC8009860002001484021FFF71EBE986100205E
:101DD800FEE700BF014B986B2BF066BA48E2012082
:101DE800014BD86B2BF060BA00E20120002070474D
:101DF80000207047642938B5C5B213D80A4CC1EB26
:101E08000121A4FB013464091934E4B222462846AE
:101E180020212AF061FC2846224621212AF05CFC78
:101E2800002038BD1824F1E71F85EB51F8B50646A8
:101E3800F4B20D4617462AF00FFC02210122204673
:101E48002AF04AFC691E032965D8DFE801F06048DA
:101E58000264334BAA221A701A78042120462AF009
:101E68003BFC8122052120462AF036FC042206216B
:101E780020462AF031FC39463046FFF7BBFF0622E0
:101E88000F21054620462AF027FC0022242120465F
:101E98002AF022FC0022252120462AF01DFC20469B
:101EA80000220A212AF018FC204604220E212AF0DA
:101EB80013FC2046002227212AF00EFC20460F2280
:101EC8001F212AF009FC20460A221A212AF004FCC4
:101ED80020460A221B212AF0FFFB2846F8BD104B9A
:101EE800AF221A701A78042120462AF0F5FB8122C5
:101EF800052120462AF0F0FB0422062120462AF07C
:101F0800EBFB39463046FFF775FF0546C7E7044B3C
:101F1800FA221A70A0E7024B05221A709CE700BF4C
:101F280098620020013908B5C0B203291ED8DFE83D
:101F380001F0140B021DAA2204212AF0CDFB104B3C
:101F4800AA221A70002008BDAF2204212AF0C4FB7F
:101F58000B4BAF221A70002008BDFA2204212AF088
:101F6800BBFB074BFA221A70002008BD052204218A
:101F78002AF0B2FB024B05221A70002008BD00BFF0
:101F8800986200202AF0A6BB10B504462AF064FB2C
:101F98000121E0B22AF0C6FB00F0F80010BD00BF36
:101FA800012938B5C4B211D02046002222212AF0D6
:101FB80093FB2046002223212AF08EFB0C4B20465F
:101FC8001A7804212AF088FB002038BD0D462046E7
:101FD800FF2204212AF080FB2A46204622212AF0EB
:101FE8007BFB20462A4623212AF076FB002038BDB9
:101FF8009862002010B5C4B22046FF2204212AF0BE
:102008006BFB2046012222212AF066FB2046012292
:1020180023212AF061FB2046012202212AF05CFBE1
:10202800002010BD10B5C4B22046FF2204212AF0BA
:1020380053FB2046012222212AF04EFB2046012292
:1020480023212AF049FB204604220E212AF044FBD2
:1020580020469F2202212AF03FFB024B01221A70E0
:10206800002010BD0400002070B5002582B0C4B265
:102078002A4622212046124E01952AF02DFB2A4697
:10208800232120462AF028FB3278042120462AF012
:1020980023FB0195019BFE2B05D8019B013301937E
:1020A800019BFE2BF9D93278204604212AF014FB33
:1020B80020469E2202212AF00FFB002002B070BDAC
:1020C8009862002038B5124D2B78012B01D00020E2
:1020D80038BDC4B2204606220E212AF0FDFA204659
:1020E800002222212AF0F8FA2046002223212AF091
:1020F800F3FA084B20461A7804212AF0EDFA204614
:102108009E2202212AF0E8FA00232B70002038BD15
:10211800040000209862002000B583B000220A4B1A
:102128000192196B41F4800119631B6B03F480035E
:10213800019311463B20019B2AF032FF3B2003B05C
:102148005DF804EB2AF068BF003802400023034919
:10215800034A036043608160C26070476666263F39
:10216800000096440000000010B504462DED028BD7
:10217800C068B0EE408AFEF7A3FA25A3D3E900238E
:10218800FEF710F824A3D3E90023FEF70BF81E4B43
:102198000022FEF707F8FEF773FB1C4900EE100A51
:1021A8004FF4006000F04EF994ED026A94ED007A65
:1021B80036EE066AF7EE006AA6EE478AE6EE006A91
:1021C800F0EE407AA7EE678A94ED010AC4ED047A2E
:1021D800E7EEA76A38EE408A88EE266ABDEC028BE5
:1021E800A6EE277AA7EE270AF0EE475AF0EE406AE5
:1021F800E6EE275AE7EE276AC4ED005AC4ED016AF5
:1022080010BD00BFAFF300800000A04038000020E0
:10221800EA2E4454FB210940000000C0F8C6F73EEE
:10222800F7EE007A77EEE07A90ED007A27EE800AF2
:10223800A7EE200A80ED000A704700BF2DE9F04F95
:1022480000248DB0CDE90644CDE90844784B0094CC
:102258000A941A6B774FDFF8E481DFF8E491764E41
:1022680042F010021A631A6B02F010020092009AF0
:1022780001941A6B42F004021A631A6B02F004020A
:102288000192019A02941A6B42F080021A631A6B47
:1022980002F080020292029A03941A6B42F0010241
:1022A8001A631A6B02F001020392039A04941A6BE0
:1022B80042F002021A631A6B02F002020492049AB4
:1022C80005941A6B42F008021A631B6B03F00803AB
:1022D8000593224638460821059B2BF097FA0122E0
:1022E800114640462BF092FA224648464FF210011A
:1022F8002BF08CFA224638460A212BF087FA012265
:10230800304604212BF082FA01250A2306A930461B
:10231800CDE90635CDE908442BF09CF8042306A93D
:10232800304606934FF0080ACDE9075409942BF07C
:1023380091F806A93846CDF818A0CDE907540994B4
:102348002BF088F806A940464FF0020BCDE9065558
:10235800CDE908442BF07EF8CDF818A040464FF0A0
:10236800050A06A9A8F58068CDE90844CDF81CB08F
:10237800CDF828A02BF06EF806A9304601224FF4BC
:102388009013CDE9062308942BF064F8042206A9DB
:1023980040460023CDE9062308942BF05BF84FF460
:1023A800806306A940460693CDE90844CDF81CB0E1
:1023B800CDF828A02BF04EF84FF2100306A9484696
:1023C8000693CDE9075409942BF044F8484606A92A
:1023D80020220023CDE9062308942BF03BF8384649
:1023E80006A902224FF49013CDE9062308942BF096
:1023F80031F8304606A901224FF48813CDE90623A7
:1024080008942BF027F8002306A940468022CDE93E
:10241800062308952BF01EF82246214606202AF0AE
:10242800BFFD06202AF0F8FD0DB0BDE8F08F00BF13
:10243800003802400010024000000240000802403C
:10244800000C0240FCEEC07A17EE903AF8EE677A7C
:10245800834270EE677A02D91B1A8342FCD8013393
:1024680001EB830111ED010A91ED007A37EE407A14
:10247800A7EE870A704700BFB4EE410AF1EE10FAE2
:1024880048BFB0EE401AB4EE601AF1EE10FA4CBF35
:10249800B0EE600AB0EE410A704700BF10B50B48B5
:1024A8000B4C0C4900234FF48042C0E90041C0E9BD
:1024B8000233C0E90423C0E9063303622CF0E0F8D4
:1024C80000B910BDBDE8104029F0BEBBD0620020A5
:1024D80000540040A086010030B5184B026889B04E
:1024E80000249A42CDE90244CDE90444069401D07F
:1024F80009B030BD124D00942B6B43F002032B63DF
:102508002B6B03F0020300934FF410721223CDE9F2
:10251800022300980B480122042302A9069304927F
:102528002AF098FF01942B6C43F400132B642B6C56
:1025380003F400130193019B09B030BD005400401F
:10254800003802400004024008B50268094B9A426C
:1025580000D008BD084A0948136C23F40013402131
:1025680013642BF093F8BDE8084004484FF4007159
:102578002BF08CB8005400400038024000040240A0
:1025880010B50C480C4C00234FF400724BF6803108
:10259800C0E90042C0E90233C0E90421C0E90633BA
:1025A80003622CF073FB00B910BDBDE8104029F0A0
:1025B8004BBB00BF28630020003C004070B52A4A8E
:1025C80001688EB000239142CDE90933CDE90B3380
:1025D8000D93079301D00EB070BD0124CB250223C3
:1025E80004A8CDE9044506932DF022F9002838D136
:1025F8001E4B1F48002401941A6C42F400421A64CE
:102608001A6C02F400420192019A02941A6B42F089
:1026180001021A631A6B02F001020292029A0394F1
:102628001A6B42F004021A631B6B102103F00403B7
:10263800099103930226062509A9039BCDE90A649B
:10264800CDE90C452AF006FF4FF4A4530948099335
:1026580009A9CDE90A64CDE90C452AF0FBFE0EB0C4
:1026680070BD29F0F1FAC3E7003C00400038024091
:1026780000000240000802400023044A0260436050
:102688008360C36003614361704700BF0000C842B4
:1026980010B504462DED028B0068B0EE408AFEF7B7
:1026A8000FF861A3D3E90023FDF77CFD60A3D3E90C
:1026B8000023FDF777FD5A4B0022FDF773FDFEF767
:1026C800DFF8584900EE100A4FF40060FFF7BAFE31
:1026D800F7EE006A70EE267A94ED036AD4ED044AA8
:1026E80094ED017A94ED054AC6EEA73AD4ED027A44
:1026F80020EE235AF8EE081AE6EE054A25EE053ACA
:10270800B4EEE18AE3EE274A23EE052AF1EE10FA49
:1027180062EE052AE2EE074A22EE883AB0EE662A11
:10272800A4EE222AA4EEA33AF0EE405A83EE020A5F
:1027380072D4F0EE084AB4EEE48AF1EE10FA55DDF0
:1027480064EE004AB8EE084AF4EEC44AF1EE10FA14
:102758005FD4B0EE084AF4EEC44AF1EE10FA42DC57
:10276800B3EE0B4AF2EE022A64EEA22AB0EE442A35
:10277800A4EEA42AA4EEA24A64EE824AB0EE443A39
:1027880084EE834ABDEC028B76EEC46A27EE237A88
:1027980067EEA37AA5EE267A26EE236AE5EE077A97
:1027A80076EEC76AF0EE474AE6EEA54AF0EE466ACC
:1027B800E5EE276A37EE677AB0EE676A77EEE67A73
:1027C800A7EE256A36EEC07AE7EEA56AF0EE407A03
:1027D800E7EE257AC4ED014A84ED026AC4ED036A86
:1027E800C4ED047A10BDB7EE004ACBE7F3EE0B6AEE
:1027F800B2EE023A28EE033AF0EE662AE8EE082A2C
:10280800E8EE036A28EE228AF0EE664AC8EE246AE9
:1028180096E7BFEE004AB5E7FFEE006A90E700BF13
:102828000000A04038000020EA2E4454FB21F93F64
:10283800000000C0F8C6F73E10B582B04FF48061C2
:10284800C26A0091044600231946006B16F002FB89
:10285800226AA36A9B1A03FB00F002EBA02002B0D5
:1028680010BD00BF2DE9F047DFF8ACA1664EDAF8DD
:10287800000013F075F83378074683F001036348C6
:10288800337016F0EFF900283AD0614DDFF87C91EB
:1028980004464FF0000894F84230327885F80080FA
:1028A800C3F38001914232D062F38203216B84F832
:1028B8004230D8B21B0701EB070201D400292EDDF4
:1028C800002A226314DBE16AE3699142A8BF11463A
:1028D800216320469847636A834205D06368606233
:1028E80013B1014620689847D4E90B23934231DAA3
:1028F8002B7863B1484616F0B5F90446002CCAD1C6
:1029080013F020F8CAF80000BDE8F08722632146DA
:10291800484616F0AFF90446002CBCD1F0E7002A6F
:10292800F4DBC30709D463693BB120469847236A9F
:1029380003442362A36A0344A362A3680BB120463D
:10294800984794F84230226B43F0080384F84230E9
:102958003A44B5E794F84210B4F8403011F0020157
:102968001DD0002B43D12948214616F03FF90123F9
:1029780026482B7016F076F9002840D0254B1868A9
:1029880028F03AF9E3680BB12046984723690BB160
:1029980020469847204616F0A3FA2B78A9E7A06BA3
:1029A800A3B90028DFD0636B5B42236394F84230FD
:1029B800A263B1FA81F1490961F34103A26A84F87B
:1029C8004230236AE0622262A36291E74FF6FF7CFD
:1029D800634505D0013B9BB2A4F84030002BE0D002
:1029E800E36B5B4223632B78002882D0DBE7E36B41
:1029F800A06B5B4223632B780028D7D179E7054B7E
:102A0800186828F0F3F8BDE78C630020B066002052
:102A18008D630020886300209063002038B50F483C
:102A28000F4D104C442116F08FF800220E48322129
:102A380028F0BCF80123024608482A60237016F0E3
:102A480011F928B1286828F0D7F80023237038BD79
:102A5800286828F0CBF80023237038BDB066002022
:102A6800886300208D6300206D28000810B5044697
:102A7800442116F099FC94F84230084AE26100219A
:102A8800642021624FF4FA71C4E90A0143F001039A
:102A98000121A4F8401084F8423010BD41280008F4
:102AA8002DE9F84F054624480F4616F0DBF8044692
:102AB80000283DD0204EDFF88880DFF880A04FF056
:102AC8000009A3462146304616F0D4F8DBF800305A
:102AD800AB42044605D025B1002CF2D14846BDE8EA
:102AE800F88FDBF80430BB4201D0002FF4D15946EF
:102AF800304616F07BF8DBF810300BB15846984793
:102B0800584616F0EDF90123304688F8003016F0E3
:102B1800A9F840B1DAF8000028F06EF84FF0010982
:102B2800002CCED1DAE7054B186828F05FF8F5E7F6
:102B380081464846BDE8F88FB066002088630020CB
:102B48008D630020416838B5054611B10068FFF76C
:102B5800A7FF224816F0A4F8002835D11F4815F021
:102B6800FBFF044600282ED04422294616F09EFA80
:102B78002B681B4AAB42127894F8423008BF246095
:102B880062F3820384F84230DB070FD563693BB1F7
:102B980020469847226AA36A024403442262A36239
:102BA80063681BB1206808B1216A98470D4B0B4830
:102BB80001221A7016F056F80B4B50B1186828F01D
:102BC8001BF8204638BDFEE712F0BCFE074B186024
:102BD800C4E7186828F00AF8204638BDB066002017
:102BE8008C6300208D6300208863002090630020A0
:102BF80070B504460D480D4616F034F890B10B4EEA
:102C0800034603E016F036F8034658B11A68A242A4
:102C180019463046F6D15A68AA4201D0002DF1D1A2
:102C2800184670BD0023184670BD00BFB06600206E
:102C3800891A0029B8BF49424FF47A72034602FB49
:102C480001F19942B1FBF0F038BF0130704700BF85
:102C580030B583B04FF48065C26A009500230446FE
:102C68001946006B16F0F6F840F2B6334FF461726D
:102C78000095002116F05AF8226AA36A9B1A03FBF2
:102C880000F002EBA02003B030BD00BF30B583B028
:102C98004FF48065C26A0095002304461946006B0C
:102CA80016F0D8F84FF46E7332220095002116F012
:102CB8003DF8226AA36A9B1A03FB00F002EBA020EE
:102CC80003B030BDD0E90B329A42ACBF806A006ACB
:102CD800704700BF90F83430828C13F0060304D19B
:102CE800038D13449AB210B27047042B21D0022BE3
:102CF800F9D1818D438DB0F828C0C08C99423CBF72
:102D080001F5B47189B209B284450B4400B503EBEF
:102D1800D3733ABF0CF5B47E1FFA8EFEE646B0EBCD
:102D2800630F4FEA630109DA104482B210B25DF80A
:102D380004FBC38C13449AB210B270470FFA8EFE8C
:102D48008E45CBBF944489181FFA8CF28AB2EDE7FE
:102D58002DE9F04F904683B012220F460021044619
:102D68001BF0C4FE13220546002120461BF0BEFEC0
:102D780010220FFA80FA002120461BF0B7FE11221C
:102D88000021064620461BF0B1FE0FFA80F92046C6
:102D980018F0FAFF0FFA85FBA0EB0B02A2EB0A0270
:102DA8002046019218F0F6FF33B2019AC01AA0EB40
:102DB8000900824218DA204618F0E6FFA0EB0B0360
:102DC800A3EB0A0303EBD37343F34F03A28A15441F
:102DD800E28A16449AB2154432443D807A80A8F8B3
:102DE800003003B0BDE8F08F2046019318F0D2FF01
:102DF800019BC31AA3EB090303EBD37343F34F03FC
:102E0800E4E700BF70B540224FF4403105461BF09F
:102E18006DFE432204464FF4403128461BF066FEFF
:102E2800412204444FF4403128461BF05FFE00B2B3
:102E38000028A4B24FF041024FF4403128462BDD60
:102E48001BF054FE00B2044442224FF4403128469D
:102E58001BF04CFE00B20028A4B24FF042024FF41F
:102E6800403128461DDD1BF041FE06B235224FF4E5
:102E7800403128461BF03AFE382203464FF44031D1
:102E880028461D461BF032FE3444431924B218B2BA
:102E9800A042B8BF204670BD1BF028FE00B24042D9
:102EA800D1E71BF023FE06B27642DFE72DE9F04FAB
:102EB80083B01546019150224FF400319B460746D6
:102EC8001BF014FEC0F3C03202FA80F0C0F34F04C6
:102ED8003846FFF7FFFE06465A3000B215F0ECFE02
:102EE8008246304615F0E8FE122281464FF4403102
:102EF80038461BF0FBFD132206464FF44031384696
:102F08001BF0F4FD102280464FF4403138461BF088
:102F1800EDFD112200904FF4403138461BF0E6FDDC
:102F2800019B00991A885B882D1B2DB205FB09F9B6
:102F380005FB0AFA03EBE9332044214402EBEA32A9
:102F48009BB2A044591A2644034492B20020961B0F
:102F58000446424462F30F0466F30F0061F31F4016
:102F680063F31F44CBF80000CBF8044003B0BDE87E
:102F7800F08F00BF91F834301748184A10B50C4646
:102F880023F00F034FF40701C4E90A0243F00803D2
:102F980061624FF434724FF4C801216384F834300D
:102FA800A26312F0CFFC94F83430228DE06323F052
:102FB8001003A4F8402084F834302046022117F08A
:102FC80021FF20464FF4447117F068FF20460D2179
:102FD800BDE8104019F0AEBB0E0187002D0000803F
:102FE80010B584B004460DF1020201A9FFF7B0FE46
:102FF800BDF9022002AB01A92046FFF757FF204682
:10300800FFF700FF021E03DD114602A800F024FEB0
:1030180002A9204619F0F0F804B010BD2DE9F041DE
:1030280088B006460C4615461F4619F05FFB002877
:1030380048D0AC4246D0B4F5B47FB38C84BFA4F575
:10304800B474A4B2B5F5B47F1C4488BFA5F5B475B3
:10305800A4B288BFADB21D44B4F5B47FADB284BF8D
:10306800A4F5B474A4B2B5F5B47F88BFA5F5B4755A
:103078000DF1120205A9304688BFADB2FFF768FE10
:103088005022394630461BF031FD39460FFA80F898
:10309800512230461BF02AFD003818BF0120234674
:1030A80006ACBDF916100290BDF81220BDF9140047
:1030B800CDF804800095039406F00AFC21463046BA
:1030C80019F09AF808B0BDE8F08100BF10B50146C4
:1030D800034817F09FFF044618F00EF8204610BD6D
:1030E8006C3C0308B1F5B47F38B50D46038D88BF35
:1030F800A1F5B475C18CA3EB010288BFADB204463B
:1031080010B2002892B2A3EB05031FFA83FCB8BFE4
:1031180002F5B4721BB2B8BF10B2002BBCBF0CF5DD
:10312800B47C0FFA8CF31A1A002AB8BF5242B42A98
:1031380012DC984209DC13DB2046FFF751FFE584D7
:103148002046BDE83840FFF74BBF4FF400332A460E
:103158002046FFF763FFEFE7204619F06BF8EBE72F
:103168000A464FF4003329462046FFF757FFE3E7A6
:10317800B1F5B47F38B50D46C38C88BFA1F5B475D9
:10318800018DA1EB030288BFADB2044610B200283E
:1031980092B2A5EB03031FFA83FCB8BF02F5B47221
:1031A8001BB2B8BF10B2002BBCBF0CF5B47C0FFA31
:1031B8008CF31A1A002AB8BF5242B42A13DC984278
:1031C80009DC14DB2046FFF70BFF25852046BDE808
:1031D8003840FFF705BF0A464FF40033294620461A
:1031E800FFF71CFFEEE7204619F024F8EAE74FF452
:1031F80000332A462046FFF711FFE3E7F0B50446FF
:10320800B0F92E0010F5004F83B025D0A18D638D45
:1032180094F83420994238BF01F5B471C2F34102E1
:1032280038BF89B2012A0DB22BD0022A16D09AB91A
:10323800B4F932200095B4F9301015F00BFE668D04
:1032480081B205462046FFF793FF314620462DB24E
:10325800FFF748FFA4F8405003B0F0BDB4F932209E
:103268000093B4F930102B4615F0F4FDA18D0646F5
:103278002046FFF77DFFB1B2204635B2FFF732FF97
:10328800E8E7B4F93010B4F9322001EB020C0CEB8A
:10329800DC7C4CF34F075E1906EBD676B84246F352
:1032A8004F0E4FEA6C0CC6F34F060FDACDF800E06C
:1032B800624615F0CFFD81B205462046FFF712FFA2
:1032C800314620462DB2FFF753FFC3E7614600950C
:1032D800734615F0BFFD314607462046FFF702FF4B
:1032E800B9B220463DB2FFF743FFB3E72DE9F047F7
:1032F8008048AAB00C460FF04BFF012802D02AB034
:10330800BDE8F087204610F043F80546204610F047
:103318003BF80646204610F037F8AB1E0746132B3D
:10332800EDD801A252F823F04D3600088133000889
:10333800073300080733000807330008073300087D
:1033480081330008073300080733000807330008F3
:1033580007330008B93300080733000807330008AB
:1033680007330008D733000807330008453400083E
:10337800073300080135000890F8343023F00103C2
:1033880087F83430304617F0EBFD054612F09EF909
:10339800044613F081FC13F085FC0428AFD1002CFF
:1033A800ADD0002128462AB0BDE8F04712F06AB92E
:1033B80020460FF0F1FF0378B7F92E40113B032B9D
:1033C8009DD8DFE813F077025502770255022046B0
:1033D8000FF0E2FF06AA05460AA93046FFF7B8FC37
:1033E800B76807B1BF8A5022002130461BF07EFB28
:1033F800BDF81820BDF828103C18A4B2131BA21A57
:1034080090B2BDF82A209BB29E18ADF8183002443D
:103418000B4436B2014412B209B218A800961BB286
:1034280000F0EAFB296847F6FF7218A800F070FD63
:10343800002800F0438200232B7160E7122200214C
:1034480030461BF053FB132205B2002130461BF017
:103458004DFB102207B2002130461BF047FB11221A
:103468000FFA80F8002130461BF040FBAF42B8BF8E
:103478002F464745B8BF474600B28742B8BF074600
:1034880012224FF4403130461BF030FB132205B2B4
:103498004FF4403130461BF029FB10220FFA80F917
:1034A8004FF4403130461BF021FB11220FFA80F80F
:1034B8004FF4403130461BF019FB4D45B8BF4D461F
:1034C8004545B8BF454600B28542B8BF05463046B7
:1034D800FFF798FC064620460FF05EFF0235ED1B0D
:1034E800ADB2B0F9003035442DB29D42B8BF1D468B
:1034F800058004E76C3C030820460FF045FF0546AD
:1035080020460FF09BFF0DF10A02064603A9284644
:10351800FFF71EFC314618A818F0BAF9BDF90A7071
:10352800002F00F3D981DFF8508512224FF40031C3
:1035380028461BF0DBFA132204B24FF40031284668
:103548001BF0D4FA10220FFA80FA4FF40031284603
:103558001BF0CCFA11220FFA80F94FF400312846FB
:103568001BF0C4FA5445B8BF54464C45B8BF4C4646
:1035780000B28442ACBF3B1B3B1A1CB2002C37DDA7
:103588000DF11809484606F081F94A464FF4003112
:10359800284618F0C3F803ABCDE920934FF4003365
:1035A800259318AA01231A2128461A93ADF89C409E
:1035B800CDF864800FF0C8FEBDF99C30BDF91A2023
:1035C800288D9A42AA8CC8BFADF81A30104480B230
:1035D8000190E88C024492B249460092304603AA10
:1035E8009BB206F05FF918AA1B2128460FF0ACFE23
:1035F8003A4604AF3B460AAC03A92846FFF756FCF7
:10360800204608F08BFB224628464FF4403117F03D
:10361800FDFD4FF44033259318AA02231A212846AA
:103628001A93CDE91B74CDF864800FF08DFE3A46ED
:103638002146304608F09AFB18AA1B2128460FF0AD
:1036480083FE5CE613F028FB044600283FF457AEDF
:1036580013F028FB01287FF452AE20460AA913F084
:103668008BFB18A9304606AAFFF772FBBDF8281095
:10367800BDF86030BDF82A00C91ABDF86230C01A1A
:1036880097F8343009B200B2DC07ADF82810ADF86D
:103698002A0040F1518151EA00033FF430AEBD8D5C
:1036A8007B8DAB4284BF05F5B475ADB215F068FBF0
:1036B800BB8C7A8DBDF918801344C41AA3B224B206
:1036C800002CB8BF03F5B4734FF00000B8BF1CB2AC
:1036D80012F0FEF84FF0320A4FF0500900FB0A933F
:1036E800B3F5A07F80F062814FF4B47C718DB08D0A
:1036F80097F834208142C2F3C00280F052818C4294
:1037080002D3844240F28681DFF870E34FF41D73E0
:1037180018FB03F3AEFB03E35B09BCFBF3F38B423B
:1037280000F07281C3F5B47C00D98C44644503D39E
:10373800B4F5B47F40F293810344B3F5B47F00F24B
:103748007181214488423FF6DAAD8B42FFF4D7AD50
:1037580000231946DB0043EA011396F8341021F0E0
:1037680018010B4386F83430B7F82AC0B7F8403050
:1037780097F834E0ACEB030189B2A3EB0C031FFA12
:1037880083F80B191BB2002BB8BF5B429BB2A5EBA9
:103798000C00B3F58C7F00B240F216811EF0080FC2
:1037A80040F053811AB11EF0180F08BF00200144E1
:1037B800F86B8CB212F0D4F8BA6BAD4B02FB00F088
:1037C800A3FB0030C0F38F1322B29A42184605DCDF
:1037D8005B429A42BABF184680B22046798DB7F943
:1037E80030302AB2B7F93250541A8844A5EB030C8A
:1037F800E40094FBFCF4043408EB24142044B7F9E7
:103808002E80009500B215F025FBB6F92E3004B2D3
:10381800A34220D012F096F8B6F92E10F8638C4225
:103828000FD0B6F93220B6F93030A242A8BF2246EE
:103838009342B8BF1346994203D0F3853046FFF749
:10384800DDFCA04507D000221C2130460FF07CFD8E
:1038580001287FF454ADB7F93030A34204D0B7F94A
:103868003230A3427FF44BAD12F06CF8F86346E5B2
:10387800B6F92E104B1EB6F932201BB29342A8BFE0
:103888001346B6F930209342B8BF134699423FF425
:1038980036ADF3853046FFF7B1FCB7F92E309C42C0
:1038A8003FF42DAD00221C2130462AB0BDE8F04778
:1038B8000FF04ABDB6F92E104B1CDCE7E21912B224
:1038C800114618A800F0C8F9296847F6FF7218A829
:1038D80000F01EFB287112E506AC204605F0D6FF65
:1038E80022462846002117F019FF03AB219318AA96
:1038F8000023DFF8848125931A2128461A93ADF80E
:103908009C702094CDF864800FF01EFDAB8CAA8DBE
:103918001A4492B201926A8D13449BB221460093D5
:1039280003AA3046BDF89C3005F0BCFF18AA1B213D
:1039380028460FF009FDF8E54FF4003150223046D3
:103948001BF0D4F8BDF818401FFA80F80546A4EB20
:1039580008044FF480313046A4B217F0F3FA002877
:1039680046D0A4EB08031BB2BDF92A10BDF92820E4
:10397800002BD8BF012301FB01F1CCBF03FB03F0EF
:10398800184602FB02128242ADF8183053DC97F851
:103998003430D8077FF5B3ACBDF92810BDF92A003B
:1039A80079E6C1F5B47108440021AAE6002011F0B7
:1039B8008FFF304A00FB0A93A2FB0323DB094FF475
:1039C800B47202FB03FC91E61EF0100F07D11EF043
:1039D800080F3FF4ECAEACEB050C0FFA8CF40EF0CC
:1039E800180E002A36D1BEF1080F18BF2046DEE6B1
:1039F80023B2002BB8BF03339A102DB2AA42ACBF32
:103A0800A31A631B1BB2AFE7B0F5B47F1FD0012325
:103A180019469FE6411AB4EB510F94BF01230023C6
:103A2800012197E6A3F5B4739C423FF668AC844243
:103A38007FF665AC8CE697F8343043F0010387F8DD
:103A4800343011F07FFFF863A1E70024C7E7C1F520
:103A5800B47C6BE6BEF1000F04D02046A7E6012334
:103A6800002177E6B3F58C7F94BF204600209EE6C0
:103A7800D34D6210CDCCCCCC6C3C03081F85EB51E8
:103A880038B50D4604461146FFF772FB2946204615
:103A9800BDE83840FFF726BBB1F5B47F38B50C4612
:103AA800838D88BFA1F5B474418DA3EB010288BF53
:103AB800A4B2054610B2002892B2A3EB04031FFA81
:103AC80083FCB8BF02F5B4721BB2B8BF10B2002BAA
:103AD800BCBF0CF5B47C0FFA8CF31A1A002AB8BFD5
:103AE8005242B42A13DC984206DC19DB6C8528465E
:103AF800BDE83840FFF782BB284600232246FFF77F
:103B08008DFA6C852846BDE83840FFF777BB284614
:103B180018F090FB6C852846BDE83840FFF76EBB6F
:103B2800284600230A462146FFF778FA6C8528467E
:103B3800BDE83840FFF762BBB1F5B47F38B50C4635
:103B4800438D88BFA1F5B474818DA1EB030288BFB2
:103B5800A4B2054610B2002892B2A4EB03031FFAE0
:103B680083FCB8BF02F5B4721BB2B8BF10B2002B09
:103B7800BCBF0CF5B47C0FFA8CF31A1A002AB8BF34
:103B88005242B42A14DC984206DC1ADBAC8528467B
:103B9800BDE83840FFF732BB284600230A462146D5
:103BA800FFF73CFAAC852846BDE83840FFF726BB4E
:103BB800284618F03FFBAC852846BDE83840FFF79B
:103BC8001DBB284600232246FFF728FAAC85284665
:103BD800BDE83840FFF712BB38B50D46044611461C
:103BE800FFF7AAFF29462046BDE83840FFF754BF33
:103BF800818418F01FBB00BF10B54FF0000CE646DB
:103C0800BDF9084063F30F0E61F30F0C62F31F4C0C
:103C180064F31F4EC0F800C0C0F804E010BD00BF38
:103C28000388013919448180704700BF43880139EE
:103C38001944C180704700BFB0F90630B0F902C01E
:103C4800B0F90420B0F90010A3EB0C03521A581C69
:103C580002FB0000704700BF00B5B0F800E089B271
:103C6800AEEB010E00239C466EF30F03B0F804E0A0
:103C7800714461F30F0CC18892B2114461F31F4C77
:103C88004188C0F804C08A1A62F31F4303605DF8D4
:103C980004FB00BF00B5B0F800E089B28E440023F1
:103CA8009C466EF30F03B0F804E0714461F30F0C07
:103CB800C18892B2114461F31F4C4188C0F804C016
:103CC8000A4462F31F4303605DF804FBB1F9003056
:103CD800B2F904C010B5B2F900E0B2F906409E4549
:103CE800B8BF9E46B2F90230B1F904206245A8BFB8
:103CF8006246B1F902C0B1F906106345B8BF634620
:103D08008C42A8BF0C460021A4460C4662F30F045F
:103D18006EF30F0163F31F416CF31F449645016076
:103D2800446004DC6345CCBF0020012010BD0020A6
:103D380010BD00BF2DE9F04FB1F900C0B2F9047011
:103D4800BC4528DCB1F90430B2F90080434522DBD8
:103D5800B1F90260B2F90640A6421CDC4FF0000936
:103D6800B1F906508646B2F90200CB4663F30F0B51
:103D78006CF30F09854266F31F4960F31F4B0ADB9A
:103D8800C4450CDB86420ADB9F4208DBAC4206DBFB
:103D98000020BDE8F08F4FF0FF30BDE8F08F1FFA2C
:103DA80086F8A0EB080000B200289BB21FFA8CFA34
:103DB800AFB261DDCEF80090CEF804B0B1F9026080
:103DC800B2F90640B1F90650B1F900C01FFA86F9F8
:103DD8000120A7EB08074F44BFB2A7EB04080FFA6E
:103DE80088F8B8F1000F01DDAC4248DBB2F9027087
:103DF800B2F90080AC42A8BF2C46BE421FFA8CF52F
:103E0800B8BF3E46A8EB05073FB2002F15DDA71B3C
:103E18003FB2002F11DD00252F466CF30F0566F326
:103E28001F454EF8305068F30F070EEBC00564F3DA
:103E38001F476F6001300D8840B2B2F904108AB292
:103E48009B1AA3EB0A031D442BB2002BADB2A4DDD1
:103E580000232A441D4661F30F0362F30F0566F33E
:103E68001F430EEBC0024EF8303064F31F4501309B
:103E7800556040B2BDE8F08FC1460020A9E7B1F80F
:103E8800048000252E466CF30F0564F31F4568F384
:103E98000F060EEBC0044EF8305067F31F466660FD
:103EA8000130B1F90260B1F90650B2F90640B1F932
:103EB80000C040B29AE700BF10B5B2F900E0B1F90E
:103EC8000040A645A8BFA6460023B1F904409C4679
:103ED8006EF30F03B2F904E0A645B8BFA6466EF329
:103EE8000F0CB1F90240B2F902E0B1F90610B2F9CB
:103EF8000620A645A8BFA6466EF31F438A42036064
:103F08001346B8BF0B4663F31F4CC0F804C010BD7E
:103F18002DE9F04FB0F90070B1F90050BD4289B0F9
:103F28005EDBB0F90440A5425ADCB1F90280B0F971
:103F38000290C84554DBB0F906C0E04550DC002AC1
:103F48007EDDA3B218461FFA87FB0130A0EB0B00F9
:103F580002931FFA8CF31FFA89FAC0F3C03603F1F3
:103F6800010EAEEB0A0E06FA80F04610CEF3C03012
:103F780000FA8EFE4FEA6E008642A8BF06469642B9
:103F8800A8BF1646B6B206EB0B0002B280B201908B
:103F980006EB0A0000B29542ADF81870ADF81C2087
:103FA800039021DC80451FDC019B33441BB2DB1BE3
:103FB80003EBD3735810A5EB0B05C3F34F03A8EB22
:103FC8000A0AAAEB030AED1A2BB21AFB0AFA00FB3B
:103FD80000F003FB03A3984234BF0020012000E057
:103FE800002009B0BDE8F08F9A1BADF81A2006A88A
:103FF800002205930491ADF81EC0FFF789FFDDE9A3
:104008000413F8B1019A324412B2D21BA8EB030888
:1040180002EBD272A5EB0B0308EB46085010C2F373
:104028004F029B1AA8EB02021BB212FB02F200FB22
:1040380000F003FB0323984234BF00200120D0E79F
:104048000120CEE70493029B01919F1B0246BFB259
:1040580006A8ADF81C40ADF81870FFF759FF019994
:10406800F0B1029BBA1BED1A12B2049BA21A71009E
:1040780002EBD272A8EB030389B24C191944C2F3BC
:104088004F035010E21ACB1A12B213FB03F300FBD2
:1040980000F002FB0232904234BF00200120A0E76A
:1040A800039BADF81A90024606A8ADF81E30FFF73C
:1040B8002FFF0028C4D0B91B09B2029B601A00EB7D
:1040C800D070EB1AC0F34F01A8EB0A0203EB4603CA
:1040D8005B1A521A4010A7E7B0F90020B1F9043072
:1040E8009A4214DCB0F90420B1F900309A420EDB90
:1040F800B0F90220B1F906309A4208DCB0F906009E
:10410800B1F902309842B4BF002001207047002066
:10411800704700BF2DE9F041B1F90030B0F90060F7
:10412800B34282B01DDCB0F902300C46B1F902107E
:10413800994216DCB0F90470B4F90410B94210DBE6
:10414800B0F90680B4F9061041450ADB154662B19C
:1041580001A92046ADF80630ADF80460FFF7D8FE97
:1041680028B9002002B0BDE8F0810120FAE72A460C
:1041780001A92046ADF80470FFF7CAFE0028F0D068
:104188002A4601A92046ADF80460ADF80680FFF77D
:10419800BFFE0028E5D02A4601A92046ADF80470E4
:1041A800FFF7B6FEDEE700BF2DE9F041B1F90030B8
:1041B800B0F90460B34282B021DCB0F90670B1F9FD
:1041C8000230BB420C461ADCB0F90080B1F9043069
:1041D800434514DBB0F90230B1F9061099420EDB01
:1041E800154642B101A92046ADF80630ADF8048065
:1041F800FFF78EFE38B1002002B0BDE8F081012043
:1042080002B0BDE8F0812A4601A92046ADF8046055
:10421800FFF77EFE0028EED12A4601A92046ADF818
:104228000480ADF80670FFF773FE0028E3D12A4634
:1042380001A92046ADF80460FFF76AFE80F001008E
:10424800C0B2DDE72DE9F04F044683B016461D469F
:10425800D9B9B2F5807F15D01B8802886988D21A2F
:1042680043885B1A12B21BB243800280698828888F
:1042780006FB02F206FB03F300EB222201EB2323E9
:104288002280638003B0BDE8F08F1B8800886788B0
:10429800414AC01A6B88FF1A136800B23FB28B42BA
:1042A800208067804DD0B1F5616F71DC0029B4BF03
:1042B80001F561698946DFF8EC80019188FB097393
:1042C8004FEAE970C0EBA30A6FF0090000FB0A99F6
:1042D8000FFA8AF014F0F0FC0AF10107834638B2AD
:1042E80014F0EAFC07460AF15A0000B214F0E4FCA4
:1042F80000900AF15B0000B214F0DEFC264A019936
:10430800116009FB07F309FB00F1009AB4F9027088
:10431800C9F10A0909FB0B3309FB021188FB0302E7
:10432800DB17C3EBA20388FB01281C4AB4F9000081
:10433800C9175B111360C1EBA801194A4911116033
:1043480003E0174B1968154B1B6801FB00F2B6F523
:10435800807F07FB01F103FB001103FB172228886C
:104368006B880CD006FB02F206FB01F100EBA240C1
:1043780003EBA1432080638003B0BDE8F08F00EB1E
:10438800A22003EBA1232080638003B0BDE8F08F57
:10439800A1F561698FE700BF3C20002098630020E9
:1043A800946300206766666683880288581C801AB2
:1043B80000B27047C3884288581C801A00B2704700
:1043C8002DE9F04FBFB005460EF0DEFF0446284643
:1043D8000FF034F80CA90290204617F07BFC6922F4
:1043E800002120461AF082FB6A2205460021204659
:1043F8001AF07CFBBDF83460BDF830E0BDF832C07F
:10440800ABB2BDF8365081B21E440027B6B20D4497
:104418003A46ADB266F30F0265F31F42AEEB0300F6
:1044280001331E440D924B1C94F85C2060F30F0777
:104438001D44ACEB0100D4E90A3102F00302A6EBFB
:104448000E0660F31F47A5EB0C05012A36B20C9740
:104458002DB2A1EB030A00F0448200230993122233
:10446800002120461AF042FB1322814600212046F3
:104478001AF03CFB10228046002120461AF036FB39
:1044880011220746002120461AF030FBBDF83010F3
:104498001FFA89F319440393BDF834301FFA88F2E0
:1044A8009B1A0492BDF83220BFB23A440597BDF872
:1044B800367080B23F1A069089B2002084469BB2BB
:1044C80092B261F30F0062F31F40BFB263F30F0CA7
:1044D800606367F31F4C04F13400B542C4F838C078
:1044E800019040F3B38101335B1A1BB2032B0A938B
:1044F80040F30482A16DBD4B0B930137BF1A3FB245
:104508004A1CA06A079704F1360304F13A0B00F03D
:10451800BD81226DA2EB0008626D121A07FB08F834
:1045280007FB02F298FBFAF892FBFAF20FFA88FC02
:1045380012B2A2EB0C0201FB02F2002AA16CB8BF76
:10454800FF3208EB22284A1C1FFA88F800F0AB81DA
:10455800226CA2EB0009626C121A07FB09F907FB2F
:1045680002F299FBFAF992FBFAF20FFA89F012B209
:10457800121A01FB02F2002AB8BFFF3209EB222906
:104588001FFA89F916220021204608931AF0AEFA7C
:10459800B542089B40F32E81BBF8002009990132EF
:1045A800A2EB09021A80BBF80020A2EB080292B223
:1045B800ABF80020C9B1A16A494207FB01F191FBA0
:1045C800FAF1C1F101010A44B3F9001012B29142A3
:1045D80000F3AE81ABF800101A80BBF900109142CD
:1045E80009DA1980ABF8002005E001980B9B984781
:1045F800012840F3A7811EAF384607F08FFB3A46E3
:104608004FF40031204616F001FE02992CA817F04D
:104618003FF9019B2F93764B2D934FF000084FF4F1
:1046280000332CAA1A2120463993CDF8B880309748
:104638000EF08AFE41460B2220461AF057FA079BD5
:104648000A9A9342A8BF1346BDF9782043F34F0353
:104658009342A8BF1346B542A846A8BFB04600B2C9
:104668004FEA68088045A8BF8046B54240F39B8062
:10467800628FE18E0132521A12B2B2EB430F00F38D
:104688009B8004990598B4F816C0039BB4F814E00D
:104698004246B4F818808444A8EB0108608B069958
:1046A8009E440023401A194668F30F016EF30F0366
:1046B8006CF31F4360F31F41CDE90E3112A80023AC
:1046C8000EA907F0BFF812AA0021104606F0C8FE8E
:1046D800039B04999DF89A908046BDF830001844D1
:1046E800BDF834305B1A9AB2BDF83210059B4FF012
:1046F800000C194480B2E6461FFA81FABDF836303C
:1047080006998DF8AEC060F30F0E6AF31F4E5B1A60
:10471800CDF840E0E6469BB262F30F0E63F31F4EFE
:10472800B542CDF844E08DF89AC040F3C680531CDA
:104738001B1A1BB2032B40F3EE80DDF804A0BDF971
:1047480078200023514618A807F07CF8002118A803
:1047580006F086FE029E054610AA3946304607F046
:1047680005FB00235246394630468DF87B308DF8DC
:1047780092308DF8AE308DF89A9007F0F7FA18A8B5
:1047880006F0D8FE12A806F0D5FE284606F0AAFEC6
:10479800404606F0A7FE2CAA1B2120460EF0D4FDA9
:1047A8003FB0BDE8F08F228FA18E0132521A12B2AB
:1047B800B2EB430F7FF765AF00239DF87BB09DF800
:1047C80092A09DF89A90019A02988DF87B3039460C
:1047D8008DF892308DF89A3007F0C8FA8DF87BB0D2
:1047E8008DF892A08DF89A904BE700BFBD43000862
:1047F800883C0308C0B201280AD11A46C9F1000949
:10480800C8F100085B461FFA89F91FFA88F8934631
:104818001A889144ABF800901A889044099A1FFAB4
:1048280088F8A3F80080002A3FF4DFAEA26A52425B
:1048380007FB02F292FBFAF29044BBF900200FFA50
:1048480088F842457ADDA3F80080D4E60137BF1A1C
:104858003AB2032A07920BDCE28A05EBD57002EB29
:10486800600292B2901E023262870522E0860792A9
:1048780001335B1AA16DA06A1FB24A1C3D4B0B9312
:1048880004F1380B019B0A977FF443AE226BA16CAD
:10489800A2EB00084A1C07FB08F898FBFAF81FFA75
:1048A80088F87FF455AE626AA2EB000907FB09F9A4
:1048B80099FBFAF91FFA89F964E60133A3EB0A03B5
:1048C8001BB2032B3FF739AFE38A05EBD57503EB32
:1048D80065039BB29A1E0233ADF84220ADF846300C
:1048E8002BE7002BBFF6B9AD00297FF7B6AD226BD9
:1048F800D31AB3FA83F35B090993B0E5A38A06EBED
:10490800D67103EB61039BB2991E023323870523FB
:10491800A1860A93EEE5A38A06EBD67603EB660337
:104928009BB29A1E0233ADF84020ADF8443004E73C
:10493800ABF800201146B3F9002050E61A80ABF816
:10494800008058E602992CA816F0A2FF0A4A4FF4F4
:10495800003339930023CDE92D231A21019B2F938E
:104968002CAA20460EF0F0FC2CAA1B2120460EF0A3
:10497800EBFC15E7B1430008883C030810B50C466A
:1049880004F13C000021FEF78BF804F14C000021F3
:10499800BDE81040FEF784B8036818684FF0FF328E
:1049A800DA6000F13C02934207D000F14C029342D6
:1049B80004BF9B68036317F03DBC9B68436217F014
:1049C80039BC00BF03460068D96017F033BC00BF8C
:1049D8002DE9F04143480D460EF0DAFB012801D0DD
:1049E800BDE8F08128460EF0D3FC044628460EF0B8
:1049F800CBFC631E0646142BF2D801A252F823F012
:104A08005D4A0008E9490008E9490008E949000841
:104A1800E9490008E9490008E94900085D4A000831
:104A2800E9490008E9490008E9490008E949000896
:104A3800E9490008E9490008E9490008E949000886
:104A4800E9490008E9490008734A0008E9490008EB
:104A5800694A0008BDE8F04100F1340117F0CCBB09
:104A68002846BDE8F041FFF7ABBC4FF4003116F023
:104A7800A5FE044628460EF08FFC0546B0F9000056
:104A8800A042B8BF204612222880002130461AF0E2
:104A98002DF8132204B2002130461AF027F810220C
:104AA8000FFA80F8002130461AF020F8112207B2D8
:104AB800002130461AF01AF844452346A8BF434659
:104AC800BB42A8BF3B4602B29342A8BF1346002B85
:104AD80086DAB5F900205B429342B8BF13462B80B3
:104AE8007EE700BF883C030830B51C460B46E168EA
:104AF80001310CBF1168A16893B00546C4E90113E0
:104B0800204613600021FDF7CBFF6846FDF7AEFF96
:104B18000B4B4FF48071CDE900436522094B0A9194
:104B280028460021002400250393CDE9084519F003
:104B3800DDFF034668460B93FEF704F813B030BD5B
:104B4800CD490008A1490008F8B591F85C30C9635F
:104B580000250C46642265F301034FF0FF37C1E9D5
:104B68000A5281F85C30C1E90D55C1E91055C1E917
:104B780014550D634D628F64C9648F652046082102
:104B880016F08CF91021204616F088F9626AC2B135
:104B9800A66A236B9E42B8BF1E46E36A03EAE37324
:104BA8009E42B8BF1E46B2420BD0294604F13C00D3
:104BB800FDF776FFA76466622046BDE8F84017F067
:104BC80039BBF8BD70B5466A8E4219D00B46C16A2A
:104BD800856A8B42A8BF0B46016B8D42B8BF0D4654
:104BE8009D42B8BF1D46AE42044609D000F13C03C1
:104BF8003AB1294600F12402BDE87040FFF774BFBE
:104C080070BD18461146FDF74BFF4FF0FF33A36404
:104C180065622046BDE8704017F00CBB90F85C3028
:104C280003F00303022B00D07047C36A9942A8BF60
:104C38001946836A9942B8BF1946436A994270B5C2
:104C48000D46A8BF1D46036BAB42044609D000F1D0
:104C58004C033AB1294600F13002BDE87040FFF735
:104C680043BF70BD18461146FDF71AFF4FF0FF33DA
:104C7800A36525632046BDE8704017F0DBBA00BF86
:104C8800836C013314BF406C406A704790F85C3005
:104C980003F00303022B01D0806A7047836D013350
:104CA80014BF406D006B704790F85C0000F0030083
:104CB800704700BF10B50C462046102116F0EEF8DC
:104CC80020464FF48061BDE8104016F09BB800BF45
:104CD80010B50146034816F09DF9044616F00CFA83
:104CE800204610BDA43C03082DE9F04F8BB00B46BD
:104CF800054606A9009316F0EDFF284617F044F87C
:104D08000646284617F046F812220021044628468F
:104D180019F0ECFE1322002107B2284619F0E6FE2E
:104D280010220FFA80FB0021284619F0DFFE11221D
:104D38000FFA80F80021284619F0D8FE14220FFA3D
:104D480080F90021284619F0D1FE1522824600215B
:104D5800284619F0CBFE5B460D2BA8BF0D23039305
:104D6800B8F10D0F4B46A8BF4FF00D080D2BA8BF8B
:104D78000D230AF001090493CAF3C03303FA8AFA2F
:104D880009F1010909EB6A09C0F3C03300F0010A0F
:104D98000AF1010A03FA80F00FFA89F90AEB600AAE
:104DA800B9F10D0F0FFA8AFA2B8EA8BF4FF00D0933
:104DB800BAF10D0FA8BF4FF00D0A002B7AD0039B54
:104DC800F61A049B0D2FA4EB0304A4F102033A4640
:104DD800A6F102064FF00004A8BF0D220193059228
:104DE8002346029636E0059EA3EB060E96440FFA7C
:104DF8008EF2E045ADF82020BDF81AE01FFA8CF2DB
:104E080046DBAEEB080C94440FFA8CF2029EADF828
:104E18002220B04282B2AABF039853441B181344FD
:104E2800019A9142A8BF049A1BB2ACBF9644CE44E3
:104E3800ADF824308BB273441BB20099ADF826301C
:104E4800002208A8FFF764F838BB2A8E0134A3B201
:104E5800934229D2A96A31F934E001EBC4027745BB
:104E6800B2F902C0B2F90400B2F906109B461FFA63
:104E78008EF2BDF81830B6DAA3EB0A0E724412B2FD
:104E8800E045ADF82020BDF81AE01FFA8CF2B8DA38
:104E9800AEEB090C624412B2B8E72A8E934509D0EA
:104EA80058460BB0BDE8F08F0BF1010B1FFA8BFBD6
:104EB8009345F5D14FF6FF7B58460BB0BDE8F08F10
:104EC8002DE9F04FD3B004460EF05EFA038E13B905
:104ED80053B0BDE8F08F824620460EF0AFFA9AF83C
:104EE8002230059043F0080312A905468AF82230BB
:104EF800504616F0EFFEDAF82020AB4BBAF8204007
:104F08000694134043F40023CAF8203032A806F070
:104F180005FF1CA805F0E6F832AA4FF4A021504678
:104F280016F074F91CAA4FF4A021504616F0ECFABA
:104F38009AF82230AAF8204023F008038AF8223091
:104F480010220021504619F0D1FD112203B2002190
:104F58005046099319F0CAFD122203B200215046A7
:104F68000A9319F0C3FD132203B2002150460B9394
:104F780019F0BCFD294603B240A80C9316F088FC32
:104F88008A4BBAF83020419324A94FF4A0234D93BB
:104F98004491002314A942934591002A00F0FA8015
:104FA8009B461C46069B03F020030D935D46DAF8EA
:104FB800240050F824100B780A3B08BF4B784FEABE
:104FC80084080134A4B2002BF3D0DAF82C3033F87B
:104FD8001530DE064FEA450900F1D7805806C3F3BD
:104FE800002640F14D8146F08006DAF82820BDF809
:104FF800481032F835C002EBC5038C449A885F88A4
:10500800DB881144BDF84A2017441A440023184687
:1050180061F30F006CF30F0367F31F4362F31F4044
:10502800CDE91030002E40F00781382232A924A89B
:1050380014F03CF820221CA914A814F037F8DAF868
:105048002C3033F809209DF86D304E9517054CBF6C
:1050580043F0010303F0FE038DF86D3040AA10AB56
:105068001A21504643930EF06FF99DF8B330C3F3FD
:1050780044020F2A00F29C80BDF94230BDF9467007
:1050880001379AB2B9B216F020060892079109D0F2
:10509800DAF82C3033F80930580544BFC1EB420325
:1050A800ADF84230059810AA24A906F05FFEDAF898
:1050B8002420BDF84C3052F80880BDF84820013350
:1050C8009B1A1BB201939DF86D300293BDF96230B3
:1050D800149A00934146BDF964300FA826F086FB68
:1050E800BDF84420BDF84630BDF840B0BDF8427068
:1050F800BDF93CC0BDF93E0001320133A2EB0B0201
:10510800DB1B12B21BB2A2EB0C021B1A02EBD2720F
:1051180003EBD3730BEB620207EB6303002192B23C
:105128009BB28E461844944462F30F016CF30F0E41
:1051380080B263F31F4160F31F4E1091CDF844E035
:10514800A6B1DAF82C2032F8092052050ED5DDE98F
:105158000721571AC7F3C03202FA87F7C7F34F027D
:105168009B1A801AADF84230ADF846000022059827
:105178000092434610AA14A904F0CCFF40AA1B21B0
:1051880050460EF0E1F8BAF830200135ABB29A4239
:105198003FF60DAF9AF8223023F008038AF8223040
:1051A80053B0BDE8F08F00BF0000F7FFC03C030814
:1051B800BAF914100B9A1144BDF940208A4214BF61
:1051C8000F220B2262F345038DF8B3300C99BAF91C
:1051D80018305B1ABDF94410994207D19DF8B330D5
:1051E80002F0170262F345038DF8B330099BBAF950
:1051F80016201A44BDF94230934209D19DF8B320D4
:10520800C2F3440101F01D0161F345028DF8B3209A
:10521800BAF91A200A99BDF94670521A97427FF4D2
:105228002FAF9DF8B320C2F3440101F01E0161F3D2
:1052380045028DF8B32023E79AF82230AAF82060B7
:1052480043F008038AF8223024A806F067FD14A862
:1052580004F048FF24AA4FF4A021504615F0D6FFC9
:1052680014AA4FF4A021504616F04EF9069BAAF84E
:1052780020309AF8223023F008038AF82230DEE63C
:10528800BAF83420ABB29A427FF4AFAE0D9B0BB1A3
:1052980046F02006069B9907069B48BF46F0020683
:1052A8005A07069B48BF46F004061B0748BF46F04E
:1052B80008069AE610B50C46886A13F011FEE06AF3
:1052C80013F00EFE0023C4E90A3310BDF0B5836A5B
:1052D80085B003EBC10253F831300093044653689C
:1052E80001930D4602A916F0F5FC14220021204670
:1052F80019F0FCFB1522002107B2204619F0F6FB35
:1053080006B220461AF078FB10F0E2FA224ABDF8FD
:10531800001082FB0032C317C3EBA2031BB29E42EC
:10532800B8BF1E469F42B8BF1F46BDF80A00BDF869
:105338000220B3B2BDF8066002443044D21A0344D6
:10534800BDF80800BFB20144C91BADF80010BDF894
:1053580004100844A18E92B29BB20744A942ADF84A
:105368000220ADF80630ADF8047005D06946204635
:1053780016F042FF05B0F0BDE06A30F8111049059B
:10538800F4D5DB4303EB420369462046ADF802300F
:1053980016F032FF05B0F0BD676666662DE9F04F7E
:1053A8000A68012395B08946824643861446D2B1DD
:1053B80000231C460BE0527872B9BAF83220013348
:1053C8009BB20132AAF8322059F823205AB1117839
:1053D800601C41B10A29EED001339BB284B259F85E
:1053E8002320002AF3D1BAF83030A3422BD0DAF8C0
:1053F800280020B113F074FD0023CAF82830DAF829
:105408002C0020B113F06CFD0023CAF82C30E0000A
:1054180013F048FDCAF82800002800F096806500BF
:10542800284613F03FFDCAF82C00002800F09780AA
:10543800DAF82830002B0ABF00242946002113F08F
:10544800B3FFAAF8304016220021CAF8249050462B
:1054580019F04CFB1222C3B200215046079319F0F1
:1054680045FB102212900021504619F03FFB1422F0
:1054780000210546504619F039FB152280460021C7
:10548800504619F033FB03461BB211905046139354
:1054980016F086FC0446504616F0A0FCBAF83260B6
:1054A800731E13FB08F3C31A1BB20FFA88F70A938B
:1054B800002E4BD04A46BBB2A8B215680B93002702
:1054C800A3B2012184460893BE460846002D39D070
:1054D80000231C46194612E02D78F5B1DAF82C1095
:1054E8001FFA8BF331F8191052F8235001F00F010D
:1054F80001292CBF64180134A4B219466DB195F87E
:105508000080B8F10A0F01EB0E0903F1010BE3D19A
:1055180095F80180B8F1000FDED14D1CAD0009955A
:10552800F3B9099B1A440A9BFB180B9986426144FC
:105538001F461FFA81FC00F1010307D915681846B8
:10554800002DC5D104230993EBE7FEE7504616F07A
:10555800A7F9504615B0BDE8F04F16F06BBEFEE750
:10556800119D013B13FB05F3089DEB1A1BB223EABF
:10557800E3790A9BFB18B7FBF6F767440CF1FF3594
:105588003FB20397B3FBF6F72F443DB204950029C9
:105598004BD04FEA4E078E44CDE90CECBDF84C10C9
:1055A8000691CDE90E0200264FEA4E01BDF848B03B
:1055B8000591B04635461093DAF82C30B5FBF4F176
:1055C800DB5B039A03F00F03012B2CBF984408F10F
:1055D8000108701E09FB08F5B5FBF4F303440798AE
:1055E8003144012889B29BB205D10898C01A089B9A
:1055F8005B1A9BB281B204980090DAF828005B44E9
:1056080059441BB200EB870009B2FEF7F5FA069B76
:105618001E44059B02379F42B6B2CDD1DDE90CECA2
:10562800DDE90E02109BBAF8326009990A447CE75A
:1056380091F83620084600234FF6FF7C63F30002FA
:10564800C0E90A3304490363A0F834C0436280F810
:105658003620FFF7A3BE00BF4020002090F8363068
:105668002DE9F0410D46D9070446174602F0100807
:1056780001D5FA0539D4B8F1000F12D0208E0128CF
:105688002ED9002301219AB2954206D0E26A32F857
:10569800132012F0100F08BF002101339842F2D1F5
:1056A800F1B9E26A32F815303B4322F815304FF66B
:1056B800FF739D4202D0238EAB4203D87B0507D4EB
:1056C800BDE8F08129462046FFF700FE7B05F7D5A7
:1056D8002046BDE8F04116F0E3B8B8F1000FE0D07D
:1056E8000121204615F08EFBDBE7038E002BF4D05A
:1056F80000263146E26A32F8163023F4807322F825
:105708001630238E9942204602D2FFF7DFFD238E02
:105718000136B1B29942EDD3B8F1000FAED1C0E76E
:10572800F8B5038E994205460E4625D2C26A32F86C
:105738001170C7F300270024214600E0EA6A32F816
:10574800143023F4807322F814302B8E99422846A3
:1057580002D2FFF7BBFD2B8E0134A1B29942EDD3E3
:105768004FB19E4207D2314628464FF48072BDE8B9
:10577800F840FFF773BFF8BD002BFCD0C26A0027C2
:10578800D9E700BF2DE9F047BD4882B00E460DF0BD
:10579800FFFC012802D002B0BDE8F08730460DF0CA
:1057A800F7FD054630460DF0EFFD132D04466AD08F
:1057B800013D292DEFD801A353F825F09959000888
:1057C800F35900086D5800089F5700089F570008B4
:1057D800075900089F5700088D5A00089F5700086E
:1057E8009F5700089F5700089F570008095B00084B
:1057F8002F5900086D5800086D5800089F57000879
:105808009F5700089F5700089F570008FB5800083B
:105818009F5700089F5700089F5700089F57000888
:105828009F5700089F5700089F5700089F57000878
:105838009F5700089F5700089F5700089F57000868
:105848009F5700089F5700089F5700089F57000858
:105858009F5700089F5700089F5700087F58000867
:105868007F580008818E4FF6FF7399423BD14FF65F
:10587800FF73A3868FE7416A00298CD002B0BDE888
:10588800F047FFF78BBD438E002B84D0456A2A680A
:10589800002A80D00023184604E055F82320002A67
:1058A8003FF479AF117801330A299BB203D15178BB
:1058B80000293FF470AF1278002A3FF46CAFE26A17
:1058C80032F8102051051846E7D5204616F086FA1A
:1058D800638E0146304691FBF3F109B202B0BDE890
:1058E800F0470DF0B3BD038E8B42C0D9FFF7EEFC35
:1058F800BDE7304602B0BDE8F047FFF7E1BA838E56
:105908004FF6FF7293423FF446AFC26A32F8132053
:1059180002F07002002A7FF43EAF01AA1C21019315
:105928000DF012FD37E7038E002B3FF434AF3046FD
:105938000DF032FD054611F0B5F90646002D00F0D0
:10594800FC81204615F00CFB0FF0C0FEA28E4FF62E
:10595800FF739A427FF41FAF022E05D0042E7FF406
:105968001AAF00283FF417AF94F83630E26A13F004
:105978000103118800F01782023A002300E0013386
:1059880032F8021F11F0500FF9D1CD05F7D570E7A5
:1059980030460DF001FDA18E4FF6FF739942054682
:1059A80005D0238E8B4202D92046FFF78FFC11F0D9
:1059B80073F911F077F900F0FD03012B00F08E81E7
:1059C800A58E4FF6FF739D423FF4E5AEE36A33F8C8
:1059D800153003F4CA63002B7FF4DDAE01AA1C2145
:1059E800204601950DF0B0FCD5E630460DF0D4FC0C
:1059F800064611F051F9054611F054F904283FF410
:105A0800CAAE02283FF4C7AE2846694611F0B4F979
:105A180069462046FFF768F9A18E814205463FF4A2
:105A2800BAAE4FF6FF73994205D0238E8B4202D946
:105A38002046FFF74BFCA586304611F08FF94FF64C
:105A4800FF739D423FF4A7AEE36A33F8152002F0D6
:105A58005002002A7FF49FAE228EAA4204D929461A
:105A68002046FFF733FCE36A33F8152092053FF52B
:105A780092AEA28E33F812305B053FF58CAEADE7DF
:105A8800C03C0308838E4FF6FF72934219463FF4D9
:105A980082AEC06A30F81320170600EB430540F1C8
:105AA8000F81560600F10C81D30540F1388194F836
:105AB8003630DF0700F1338122F4807292B22A80F7
:105AC80094F83630DE0700F16881A38E30F8132091
