:020000040800F2
:1000000000000220757F0308852600088926000865
:100010008D260008912600089526000800000000A3
:100020000000000000000000000000009926000809
:100030009D26000800000000A1260008A526000853
:10004000C57F0308C57F0308C57F0308C57F030874
:10005000C57F0308C57F0308C57F0308C57F030864
:10006000C57F0308C57F0308C57F0308C57F030854
:10007000C57F0308C57F0308CD180008C57F0308A6
:10008000C57F0308C57F0308C57F0308C57F030834
:10009000C57F0308C57F0308C57F0308C57F030824
:1000A000C57F0308C57F0308C57F0308C57F030814
:1000B000C57F0308C57F0308C57F0308C57F030804
:1000C000C57F0308C57F0308C57F0308C526000850
:1000D000C57F0308C57F0308C57F0308C57F0308E4
:1000E000C57F0308C57F0308C57F0308C57F0308D4
:1000F000C57F0308C57F0308C57F0308C118000832
:10010000C57F0308C57F0308C57F0308C57F0308B3
:10011000C57F0308C57F0308C57F0308C57F0308A3
:10012000C57F0308C57F0308C57F0308D1260008E3
:10013000C57F0308C57F0308C57F0308C57F030883
:10014000C57F0308C57F0308C57F0308B9260008DB
:10015000C57F0308C57F0308C57F0308C57F030863
:10016000C57F0308C57F0308C57F0308C57F030853
:10017000C57F0308C57F0308C57F03080000000092
:08018000C57F0308C57F0308D9
:1001880010F8012B11F8013B012A28BF9A42F7D039
:10019800D01A7047034613F8012B002AFBD1181A0E
:1001A8000138704770B54FF0FF0C4CF4E06C1CEA56
:1001B80011541DBF1CEA135594EA0C0F95EA0C0F55
:1001C80000F0DEF82C4481EA030621EA4C5123EAC8
:1001D8004C5350EA013518BF52EA033541F48011F7
:1001E80043F4801338D0A0FB02CE4FF00005E1FBAA
:1001F80002E506F00042E0FB03E54FF00006E1FBF4
:1002080003569CF0000F18BF4EF0010EA4F1FF0436
:10021800B6F5007F64F5407404D25FEA4E0E6D4176
:1002280046EB060642EAC62141EA55514FEAC52087
:1002380040EA5E504FEACE2EB4F1FD0C88BFBCF503
:10024800E06F1ED8BEF1004F08BF5FEA500E50F1B4
:10025800000041EB045170BD06F0004646EA01017A
:1002680040EA020081EA0301B4EB5C04C2BFD4EBAC
:100278000C0541EA045170BD41F480114FF0000EA5
:10028800013C00F3AB8014F1360FDEBF002001F013
:10029800004170BDC4F10004203C35DA0C341BDC8D
:1002A80004F11404C4F1200500FA05F320FA04F05F
:1002B80001FA05F240EA020001F0004221F0004193
:1002C80010EBD37021FA04F642EB06015EEA430E06
:1002D80008BF20EAD37070BDC4F10C04C4F1200536
:1002E80000FA04F320FA05F001FA04F240EA0200E9
:1002F80001F0004110EBD37041F100015EEA430EBA
:1003080008BF20EAD37070BDC4F1200500FA05F2D9
:100318004EEA020E20FA04F301FA05F243EA020358
:1003280021FA04F001F0004121FA04F220EA020067
:1003380000EBD3705EEA430E08BF20EAD37070BDAD
:1003480094F0000F0FD101F00046400041EB01018D
:1003580011F4801F08BF013CF7D041EA060195F06F
:10036800000F18BF704703F00046520043EB030329
:1003780013F4801F08BF013DF7D043EA0603704716
:1003880094EA0C0F0CEA135518BF95EA0C0F0CD021
:1003980050EA410618BF52EA4306D1D181EA030167
:1003A80001F000414FF0000070BD50EA410606BF61
:1003B8001046194652EA430619D094EA0C0F02D1A6
:1003C80050EA013613D195EA0C0F05D152EA0336EB
:1003D8001CBF104619460AD181EA030101F0004109
:1003E80041F0FE4141F470014FF0000070BD41F052
:1003F800FE4141F4780170BD81F0004102E000BF88
:1004080083F0004330B54FEA41044FEA430594EACC
:10041800050F08BF90EA020F1FBF54EA000C55EA07
:10042800020C7FEA645C7FEA655C00F0E2804FEAD8
:100438005454D4EB5555B8BF6D420CDD2C4480EABA
:10044800020281EA030382EA000083EA010180EAEA
:10045800020281EA0303362D88BF30BD11F0004F38
:100468004FEA01314FF4801C4CEA113102D040426E
:1004780061EB410113F0004F4FEA03334CEA1333A9
:1004880002D0524263EB430394EA050F00F0A780C1
:10049800A4F10104D5F1200E0DDB02FA0EFC22FABC
:1004A80005F2801841F1000103FA0EF2801843FAB0
:1004B80005F359410EE0A5F120050EF1200E012AA1
:1004C80003FA0EFC28BF4CF0020C43FA05F3C018DF
:1004D80051EBE37101F0004507D54FF0000EDCF158
:1004E800000C7EEB00006EEB0101B1F5801F1BD301
:1004F800B1F5001F0CD349085FEA30004FEA3C0C05
:1005080004F101044FEA445212F5800F80F09A80FA
:10051800BCF1004F08BF5FEA500C50F1000041EBFE
:10052800045141EA050130BD5FEA4C0C404141EB02
:100538000101013C28BFB1F5801FE9D291F0000FFD
:1005480004BF01460020B1FA81F308BF2033A3F1AC
:100558000B03B3F120020CDA0C3208DD02F1140CA3
:10056800C2F10C0201FA0CF021FA02F10CE002F1DE
:100578001402D8BFC2F1200C01FA02F120FA0CFCD7
:10058800DCBF41EA0C019040E41AA2BF01EB045120
:10059800294330BD6FEA04041F3C1CDA0C340EDC1E
:1005A80004F11404C4F1200220FA04F001FA02F361
:1005B80040EA030021FA04F345EA030130BDC4F11F
:1005C8000C04C4F1200220FA02F001FA04F340EA14
:1005D8000300294630BD21FA04F0294630BD94F0C5
:1005E800000F83F4801306BF81F480110134013DAC
:1005F8004EE77FEA645C18BF7FEA655C29D094EA1D
:10060800050F08BF90EA020F05D054EA000C04BF9A
:100618001946104630BD91EA030F1EBF0021002085
:1006280030BD5FEA545C05D14000494128BF41F024
:10063800004130BD14F580043CBF01F5801130BD88
:1006480001F0004545F0FE4141F470014FF0000013
:1006580030BD7FEA645C1ABF194610467FEA655CC4
:100668001CBF0B46024650EA013406BF52EA033566
:1006780091EA030F41F4002130BD00BF90F0000F54
:1006880004BF0021704730B54FF4806404F1320490
:100698004FF000054FF0000150E700BF90F0000F49
:1006A80004BF0021704730B54FF4806404F1320470
:1006B80010F0004548BF40424FF000013EE700BF40
:1006C80042004FEAE2014FEA31014FEA02701FBFD0
:1006D80012F07F4393F07F4F81F06051704732F002
:1006E8007F4208BF704793F07F4F04BF41F4002159
:1006F800704730B54FF4607401F0004521F00041B7
:100708001CE700BF50EA010208BF704730B54FF040
:1007180000050AE050EA010208BF704730B511F041
:10072800004502D5404261EB41014FF4806404F179
:1007380032045FEA915C3FF4D8AE4FF003025FEAFF
:10074800DC0C18BF03325FEADC0C18BF033202EB83
:10075800DC02C2F1200300FA03FC20FA02F001FADD
:1007680003FE40EA0E0021FA02F11444BDE600BF80
:100778004FF0FF3C06E000BF4FF0010C02E000BF65
:100788004FF0010C4DF804CD4FEA410C7FEA6C5C48
:100798004FEA430C18BF7FEA6C5C1BD001B050EAEB
:1007A800410C0CBF52EA430C91EA030F02BF90EAD6
:1007B800020F0020704710F1000F91EA030F58BF95
:1007C800994208BF90422CBFD8176FEAE37040F0F7
:1007D800010070474FEA410C7FEA6C5C02D150EA95
:1007E800013C07D14FEA430C7FEA6C5CD6D152EA50
:1007F800033CD3D05DF8040B704700BF8446104615
:1008080062468C461946634600E000BF01B5FFF713
:10081800B7FF002848BF10F1000F01BD4DF808EDE3
:10082800FFF7F4FF0CBF012000205DF808FB00BFB4
:100838004DF808EDFFF7EAFF34BF012000205DF80E
:1008480008FB00BF4DF808EDFFF7E0FF94BF01205B
:1008580000205DF808FB00BF4DF808EDFFF7CEFF5C
:1008680094BF012000205DF808FB00BF4DF808ED9B
:10087800FFF7C4FF34BF012000205DF808FB00BF6C
:100888004FEA4102B2F1E04324BFB3F5001CDCF1AA
:10089800FE5C0DD901F0004C4FEAC0024CEA5070E2
:1008A800B2F1004F40EB830008BF20F00100704711
:1008B80011F0804F21D113F13872BCBF01F0004014
:1008C800704741F480114FEA5252C2F11802C2F146
:1008D800200C10FA0CF320FA02F018BF40F00100C7
:1008E8004FEAC1234FEAD32303FA0CFC40EA0C0079
:1008F80023FA02F34FEA4303CCE77FEA625307D1B6
:1009080050EA01331EBF4FF0FE4040F440007047EC
:1009180001F0004040F0FE4040F40000704700BF86
:1009280053B94AB9002908BF00281CBF4FF0FF314E
:100938004FF0FF3000F00CB8ADF1080C6DE904CEB3
:1009480037F0AAFCDDF804E0DDE9022304B07047C3
:10095800704700BF10B5054C237833B9044B13B169
:100968000448AFF300800123237010BD68210020E4
:10097800000000006885030808B5034B1BB1034954
:100988000348AFF3008008BD000000006C21002080
:100998006885030838B50446384A394B39499FED0C
:1009A8003A0A2DED088B0020F7EE008A6260E360BA
:1009B800364A62614FF080430425A3612060C4ED8C
:1009C800048A4FF48060A56001F0FCF8DFED30AADE
:1009D8002C49DFED309A9FED30AAB0EE408A4FF4F3
:1009E8008060B0EE6A0A01F0EDF89FED2C7A254997
:1009F80094ED049A38EE400A4FF48060C0EE077A0E
:100A080094ED050A77EEA87A20EE290AC4ED077A54
:100A180001F0D8F81B49B0EE408A4FF48060B0EE80
:100A2800690A01F0CFF829EE0A9A38EE400A15490A
:100A380094ED05BAC0EE097A4FF48060B0EE6A0A08
:100A480077EEA87A94ED069AC4ED087A01F0BAF820
:100A58000C49B0EE408A4FF480602BEE290A01F071
:100A6800B1F829EE0A9A38EE400AC0EE097A77EE14
:100A7800A87ABDEC088BC4ED097A38BD6666A63F36
:100A88006F12833A988503086666A6449A99993E38
:100A980017B7D13D0000804400442C4767663042B8
:100AA800034A02604FF07E51002341608360704723
:100AB80017B7D1380022032342608360704700BF14
:100AC80010B58368012B2DED028B044690ED008A4A
:100AD80007D0032B35D0E3B1B0EE480ABDEC028B4A
:100AE80010BD90ED087AD0ED057A28EE078AB4EEAD
:100AF800E78AF1EE10FA80ED008AEDD8B0EE678A49
:100B0800B0EE480ABDEC028B0223C0ED007A836088
:100B180010BD90ED077A28EE078AF7EE007AB4EE5A
:100B2800E78AF1EE10FA1ADBB0EE678AB0EE480AEF
:100B3800BDEC028B4269C0ED007A012342608360FC
:100B480010BDD0ED097A28EE278A18EE100AFFF7B3
:100B5800B7FD0EA3D3E90023FFF774FE30B9B0EE5A
:100B6800480A84ED008ABDEC028B10BDDFED067AE1
:100B7800B0EE678AB0EE480ABDEC028B0423C4EDE0
:100B8800007AA36010BD00BF000000002D431CEBDD
:100B9800E2361A3F2DE9F041B1F90440B1F90650A7
:100BA800B1F90080B1F90270ABB21646B9B2A2B27F
:100BB8001FFA88F002F05CFC11480022042104F0BE
:100BC800A1FB0F480122022104F09CFBED1BA4EBC2
:100BD8000803013301350B4C13FB05F35B00314669
:100BE8009AB2204606F0E4FEA16C91F83530012B4C
:100BF800DAB2FAD1BDE8F0410148042104F082BB21
:100C0800000002407C63002038B50C4D0C4C02F00B
:100C1800D1FC0C4A0C494FF44863284627F02CFCB9
:100C2800204627F005FC094B094A226020466361EB
:100C3800E560BDE8384027F02DBC00BFD453002044
:100C480084530020843A0020842100209D0B000852
:100C58004001F000014827F0F3BC00BF8453002096
:100C680010B50B4C2378022B09D0042B00D010BDF3
:100C7800002323700748BDE8104001F0DDBD064998
:100C88000448402201F0FCFD0323237010BD00BF7F
:100C98003054002034540020F0530020F8B51A488E
:100CA80001F0E0FD032819D9184C194FC0F38F0043
:100CB800013880B2261D06EB80062188A27814F838
:100CC800013C61F3172562F31F6573B963F30705E8
:100CD8002846043400F020F8B442EED1BDE8F840CC
:100CE8000C490948402201F0CBBD63F307050122F6
:100CF8004FF40041384604F005FB0434284600F060
:100D08000BF8B442D9D1E9E734540020F15300205C
:100D1800000C0240F0530020F8B5C0F30743C0F3BD
:100D28000766040EC0F3072000F0F00090281D4667
:100D380025D0E0281ED0802800D0F8BD3D4E3E4B7F
:100D48003278013A002452B2A2425C5532704EDD2C
:100D58003A4E3278AA42F0D11A46234601E0802B57
:100D680062D012F8011B0129D8B203F10103F6D1B0
:100D78003070F8BD324B05EBC4121A80F8BD314A09
:100D88001670CCB92B4F2C4B3A785E55013A52B2BB
:100D9800002A3A7036DD294E3278AA42CDD1224651
:100DA80001E0802A43D013F8011B0129D0B202F1D7
:100DB8000102F6D13070DCE72049234A23480B7042
:100DC8001670FFF76DFE2248FFF76AFE2148FFF70D
:100DD80067FE214801224FF4804104F093FA154A36
:100DE800154913780120034448551370F8BD174876
:100DF800FFF760FE1648FFF75DFE1648FFF75AFE3C
:100E08003470F8BD1148FFF755FE1148FFF752FE40
:100E18001048FFF74FFE22463E700F48BDE8F840E5
:100E28004FF4804104F06EBA18463070A1E71046BE
:100E380030709EE7515A0020545A00203154002047
:100E4800D45A0020D65A0020505A002050000010D2
:100E58002800001000000010000C0240042906D0F1
:100E6800052910B50B4620D0022908D010BD174B14
:100E7800174801224FF400411A7004F043BA134C8A
:100E88001348237001224FF4805104F03BFA1048B4
:100E980000224FF4004104F035FABDE810400C4838
:100EA80000224FF4804104F02DBA084B0848002274
:100EB8004FF4805104241C7004F024FABDE810405B
:100EC800034800224FF4004104F01CBA30540020BB
:100ED800000C02402DE9F04F9A4E83B004460846B4
:100EE8008B46FFF757F9327881460AB3EFF311833F
:100EF8004FF0200181F3118804EB440706EBC70784
:100F08000093D7F82C80B8F1010F4FEA440500F0A0
:100F1800B080B8F1020F6CD0B8F1000F42D04FF09A
:100F28000008009B83F31188404603B0BDE8F08FAA
:100F380002F0FF052946782206F1300037F09CF8C8
:100F480003213161804A71614FF480607F49B26149
:100F5800F16130627E49B5627562F56232661022CF
:100F68007166B2663567F5667567BFF35F8F4520B2
:100F780047274FF0530C86F800C052217070542256
:100F8800B770F770307120207171B071F1713272E1
:100F98007272B572F57235737573B573F573BFF305
:100FA8005F8FA3E7BA6AD7F824A052459CBF396A75
:100FB8005218013AA2EB0A029145B2D8254406EB31
:100FC800C50501342F6AA7EB0A08C14504EB4404A0
:100FD80080F0A18006EBC402594650684A46504446
:100FE80037F022F8BFF35F8F09EB0A036B62C8463C
:100FF80097E7013404EB44047D6A4FEAC40A4FF0D2
:101008000008BB6AAB4203F1FF3225D93C6A531B87
:101018004B4506EB0A02A4EB050428BF4B469C424D
:10102800506828BF1C4628445946224636F0FCFF23
:101038003B6A25449D42A044A344A9EB040910D06F
:10104800BFF35F8F7D62B9F1000F3FF46AAFBB6AEF
:10105800AB4203F1FF32D9D83C6A2344013B5B1B06
:10106800D6E7BFF35F8F00257D62B9F1000FC8D1C5
:1010780057E7BA6AD7F824A052451FD902F1FF38BA
:10108800A8EB0A083F6AC84528BFC846A7EB0A026A
:10109800904521D2631C03EB430306EBC303594677
:1010A80058684246504436F0BFFFBFF35F8F25446F
:1010B80006EBC5050AEB08036B6232E73F6A02EBF1
:1010C800070808F1FF38A8EB0A08C84528BFC84632
:1010D800A7EB0A029045DDD304F1010909EB4909A0
:1010E80006EBC9095946D9F804000192504436F074
:1010F8009BFFA8EB0707019AD9F8040057440BEBAC
:1011080002013A4636F090FFBFF35F8F254406EBA5
:10111800C5056F6205E706EBC406AAEB070470680D
:101128004246594650444C4436F07EFF70680BEBFB
:101138000801224636F078FFBFF35F8F6C62C8461D
:10114800EFE600BFD85A00209C950308905B00206A
:10115800805B00202DE9F843354C1F46237805466F
:101168008946904633B3022D5ED8EFF311864FF0CF
:10117800200181F3118855B92A46531904EBC30499
:10118800089BE36286F311880020BDE8F883681C99
:1011980000EB4000C00005EB450344F8009004EB69
:1011A800C30320440021C0F804806A001F629962CA
:1011B8005962E2E703F0FF063146782204F1300075
:1011C80036F05AFF032222611A4B62614FF48061A4
:1011D800194AA361E2612162184AA6626662E66260
:1011E800236610236266A3662667E6666667BFF312
:1011F8005F8F452147204FF0530C84F800C05222DE
:1012080061705423A070E070217120216271A17176
:10121800E27123726372A672E67226736673A6730E
:10122800E673BFF35F8F9EE74FF0FF30ADE700BF77
:10123800D85A00209C950308905B0020805B002012
:1012480030B5314CDFED310A314D83B02046CDED5C
:10125800010A03F063FA4FF0FF31204603F0F2FA77
:10126800204603F049FB2B4B024620461A8003F028
:1012780043FB00EE100ADDED010A2748274CB8EEC3
:10128800400A00F0A9FBFCEEC07A17EE900AC0F302
:101298008D00FFF703FA1AA3D3E90023FEF782FFB4
:1012A800FFF7EEFA2860204603F038FA4FF0FF31D6
:1012B800204603F0C7FA204603F01EFB184B0246EF
:1012C80020461A8003F018FB00EE100ADDED010A33
:1012D8001448154CB8EE400A00F07EFBFCEEC07ACC
:1012E80017EE900AC0F38D00FFF7D8F904A3D3E9ED
:1012F8000023FEF757FFFFF7C3FA206003B030BDA5
:10130800BE963C000104503FA05F002048E17A3FB0
:10131800905F0020985F002060620020E85F002056
:101328009A5F002064620020945F002000000000A3
:1013380000B59FED1B7B1E481E494FF480320023E9
:1013480085B0C0E9001280ED0A7B0122CDE90033A7
:10135800CDE9023383600361037680F82030C360EF
:10136800C26180F83030426103F02CF968B99FED12
:101378000E7B00230E48029369468DED007B03F037
:10138800BFFA28B905B05DF804FB00F0D3FEEEE71C
:1013980000F0D0FE05B05DF804FB00BFAFF300809D
:1013A8000100000F000000000B0000000100000019
:1013B800A05F00200020014000B59FED1B7B1E4868
:1013C8001E494FF48032002385B0C0E9001280ED39
:1013D8000A7B0122CDE90033CDE902338360036142
:1013E800037680F82030C360C26180F830304261F3
:1013F80003F0E8F868B99FED0E7B00230E480293CE
:1014080069468DED007B03F07BFA28B905B05DF8DD
:1014180004FB00F08FFEEEE700F08CFE05B05DF8EF
:1014280004FB00BFAFF300800100000F00000000C4
:101438000C00000001000000E85F002000210140CE
:1014480000B502682C498BB000238A42CDE90433E9
:10145800CDE90633089305D028498A4222D00BB03B
:101468005DF804FB264A0093506C40F48070506489
:10147800506C00F48070009000980193136B214821
:1014880043F004031363136B9FED177B03F004030E
:10149800019304A98DED047B019B03F057FD0BB06C
:1014A8005DF804FB164A0293506C40F400705064D7
:1014B800506C00F40070029002980393136B11486B
:1014C80043F004031363136B9FED097B03F00403DC
:1014D800039304A98DED047B039B03F037FD0BB048
:1014E8005DF804FBAFF30080060000000300000075
:1014F800040000000300000000200140002101401A
:1015080000380240000802402DE9F84F8E4FDFF8FE
:1015180080A28E4EDFF87C922DED088B8046DFEDA1
:101528008C8ADFED8CAADFED8C9A9FED8C9A9FED6B
:101538008CAA002400F1020B51E0F0EE086AB4EE28
:10154800E67AF1EE10FA00F3F480F3EE0B6AF2EEAD
:10155800025A67EE255AB0EE665AA7EE075AE7EE2A
:10156800256A27EE057AB0EE666AC7EE066A26EEA9
:101578008A7ABDEEC77A17EE103A1AB2B8EE087A30
:10158800F4EEC77AF1EE10FA00F1C680B0EE087AF0
:10159800F4EEC77AF1EE10FA00F3CE80B3EE0B7AD0
:1015A800B2EE026A27EE866AF0EE475AE7EEA75ACD
:1015B800A7EE867A67EEA57AF0EE476A87EEA67AF6
:1015C80067EE0A7AFDEEE77A17EE903A1BB228F832
:1015D80024202BF824300134402C00F0A680614BE5
:1015E8001D7807EB850393ED008A5F4B68EE287A38
:1015F80018EE100AC3ED017A5C4BC3ED017AFFF7D0
:101608005FF84FA3D3E90023FEF7FAFEFFF738F996
:1016180007EE900AB6EE007A0C2D67EEA87A38EE3F
:10162800078A534B5048C3ED017A84BF07EB850501
:1016380055ED0C7A4F4B28EE288A88BF67EEA87ABA
:1016480083ED018A4C4B98BFF0EE6A7AC3ED017ABC
:1016580000F086FD4548B0EE408A00F081FD444820
:1016680038EE008A00F07CFD424838EE008A00F02F
:1016780077FD414838EE008A00F0CEFD3F48B0EED5
:1016880040BAFFF71DFA9AED007A9FED331A67EE1C
:10169800297AF3EE040A67EE877A67EE877A67EEAF
:1016A800877AE0EE097AB0EE670A00F0A5FAD9ED7C
:1016B800007A86ED000AB1EE027A38EE0B0A67EE80
:1016C800877AB6EE007A20EE070A2048C6ED057A3A
:1016D80000F09EFB2A48B0EE408AFFF7F1F929494D
:1016E800294828EE000A00F0E7FE274B93ED007A20
:1016F800244BF8EE086AB4EEE67AF1EE10FAD3ED70
:10170800007A7FF51AAFB8EE087AF4EEC77AF1EEF0
:1017180010FA1E4A7FF53AAF1C4B28F824202BF804
:1017280024300134402C7FF45AAFBDEC088BBDE85F
:10173800F88F47F6FF7221E747F6FF7347E700BFC8
:101748009A9999999999C93FA89503080463002023
:101758008D3B803FEF0C03410044AC4600007A44C7
:1017680000FEFF463154002078000010940000105D
:1017780004010010E8000010CC0000102800001040
:101788005000001034620020306200200180FFFF0A
:10179800905F0020945F002008B54AF644422DED82
:1017A800048B5521022001F0DFFD9FED2F8A9FED6C
:1017B8002F9A2F48DFED2F8A4FF4007101F0C6FCF5
:1017C800B6EE002AF0EE481AB0EE481AF0EE490AD2
:1017D800B0EE420A284800F0AFFCB6EE002AB0EEA0
:1017E800481AF0EE680AB0EE420A2448F0EE001AF1
:1017F80000F0A2FCB6EE002AF0EE481AB0EE481A45
:10180800F0EE490AB0EE420A1D4800F095FCB6EE2B
:10181800002AF0EE481AB0EE481AF0EE680AB0EE68
:10182800420A184800F088FCB6EE002AF0EE481A82
:10183800B0EE481AF0EE680AB0EE420A124800F01C
:101848007BFC1248FFF7A6F81148FFF7A3F81148E8
:10185800FFF7A0F8104800F0CDFABDEC048BBDE806
:10186800084000F0FFBD00BF0000000000007A44FF
:10187800306000200000DC43780000109400001065
:1018880004010010E8000010CC0000105000001007
:101898002800001000000010046300200148FFF732
:1018A80033BE00BF306000200148FFF72DBE00BFE7
:1018B80030610020FEE700BF014B986B03F070BA5F
:1018C8001CA00120014BD86B03F06ABAD49F0120F9
:1018D80000B583B000220A4B0192196B41F48001D4
:1018E80019631B6B03F4800301933B201146019B92
:1018F80003F0C6F83B2003B05DF804EB03F0FEB834
:101908000038024000230349034A036043608160B2
:10191800C26070476666263F0000964400000000DB
:1019280010B504462DED028BC068B0EE408AFEF774
:10193800C7FE25A3D3E90023FEF734FC24A3D3E98B
:101948000023FEF72FFC1E4B0022FEF72BFCFEF7B0
:1019580097FF1C4900EE100A4FF4006000F032F9BE
:1019680094ED026A94ED007A36EE066AF7EE006AA4
:10197800A6EE478AE6EE006AF0EE407AA7EE678A9E
:1019880094ED010AC4ED047AE7EEA76A38EE408ABE
:1019980088EE266ABDEC028BA6EE277AA7EE270A08
:1019A800F0EE475AF0EE406AE6EE275AE7EE276A6D
:1019B800C4ED005AC4ED016A10BD00BFAFF300804A
:1019C8000000A04000000020EA2E4454FB210940FA
:1019D800000000C0F8C6F73EF7EE007A77EEE07A2E
:1019E80090ED007A27EE800AA7EE200A80ED000A23
:1019F800704700BF2DE9F04F00248DB0CDE90644B3
:101A0800CDE908446A4B00940A941A6B694EDFF8D2
:101A1800AC91DFF8AC81684F42F010021A631A6B80
:101A280002F010020092009A01941A6B42F004022C
:101A38001A631A6B02F004020192019A02941A6B5B
:101A480042F080021A631A6B02F080020292029A34
:101A580003941A6B42F001021A631A6B02F0010236
:101A68000392039A04941A6B42F002021A631A6BE7
:101A780002F002020492049A05941A6B42F00802DA
:101A88001A631B6B03F008030593224630460821AE
:101A9800059B03F037FC01221146484603F032FC4F
:101AA800404622464FF2100103F02CFC22463046F5
:101AB8000A2103F027FC01223846042103F022FC06
:101AC800012506A938460A230693CDE90844079557
:101AD80003F03CFA042306A9384606934FF0080A97
:101AE800CDE90754099403F031FA06A93046CDF838
:101AF80018A0CDE90754099403F028FA06A9484626
:101B08004FF0020BCDE90655CDE9084403F01EFA63
:101B1800CDF818A048464FF0050A06A9A9F580692E
:101B2800CDE90844CDF81CB0CDF828A003F00EFA92
:101B3800384606A901224FF49013CDE906230894EC
:101B480003F004FA042206A948460023CDE9062337
:101B5800089403F0FBF9484606A94FF480630693FE
:101B6800CDE90844CDF81CB0CDF828A003F0EEF973
:101B780006A940464FF210030693CDE9084407959D
:101B880003F0E4F9404606A920220023CDE9062304
:101B9800089403F0DBF902224FF4901306A93046AB
:101BA800CDE90623089403F0D1F90DB0BDE8F08F14
:101BB80000380240001002400000024000080240C5
:101BC800000C0240FCEEC07A17EE903AF8EE677A05
:101BD800834270EE677A02D91B1A8342FCD801331C
:101BE80001EB830111ED010A91ED007A37EE407A9D
:101BF800A7EE870A704700BFB4EEC10AF1EE10FAEB
:101C080058BFB0EE410AB4EEE00AF1EE10FA48BF50
:101C1800B0EE600A704700BF10B50B480B4C0C497A
:101C280000234FF48042C0E90041C0E90233C0E913
:101C38000423C0E90633036204F0C2FA00B910BDF8
:101C4800BDE8104000F076BA6862002000540040F9
:101C5800A086010030B5184B026889B000249A426A
:101C6800CDE90244CDE90444069401D009B030BD61
:101C7800124D00942B6B124843F002032B632B6B1D
:101C880003F0020300934FF410721223CDE90223EC
:101C98000123049302A904230693009A03F056F93A
:101CA80001942B6C43F400132B642B6C03F4001386
:101CB8000193019B09B030BD005400400038024038
:101CC8000004024008B50268094B9A4200D008BDDA
:101CD800084A0948136C23F400134021136403F0E5
:101CE80057FABDE8084004484FF4007103F050BAB1
:101CF80000540040003802400004024010B50C486F
:101D08000C4C00234FF400724BF68031C0E90042BE
:101D1800C0E90233C0E90421C0E90633036204F0D4
:101D2800D5FD00B910BDBDE8104000F003BA00BFF2
:101D3800BC620020003C004070B52A4A01688EB0A1
:101D480000239142CDE90933CDE90B330D93079375
:101D580001D00EB070BD0124CB25022304A8CDE923
:101D68000445069305F064FB002838D11E4B1F4834
:101D7800002401941A6C42F400421A641A6C02F4AA
:101D880000420192019A02941A6B42F001021A630E
:101D98001A6B02F001020292029A03941A6B42F043
:101DA80004021A631B6B03F004030393022506263F
:101DB80009A910230993CDE90B44039B0A950D96B5
:101DC80003F0C4F84FF4A4530948099309A9CDE9CD
:101DD8000A54CDE90C4603F0B9F80EB070BD00F016
:101DE800A9F9C3E7003C0040003802400000024067
:101DF800000802400023044A026043608360C36015
:101E080003614361704700BF0000C8420000000042
:101E180010B504462DED028B0068B0EE408AFEF73F
:101E28004FFC61A3D3E90023FEF7BCF960A3D3E913
:101E38000023FEF7B7F95A4B0022FEF7B3F9FEF775
:101E48001FFD584900EE100A4FF40060FFF7BAFE74
:101E5800F7EE006A70EE267A94ED036AD4ED044A30
:101E680094ED017A94ED054AC6EEA73AD4ED027ACC
:101E780020EE235AF8EE081AE6EE054A25EE053A52
:101E8800B4EEE18AE3EE274A23EE052AF1EE10FAD2
:101E980062EE052AE2EE074A22EE883AB0EE662A9A
:101EA800A4EE222AA4EEA33AF0EE405A83EE020AE8
:101EB80072D4F0EE084AB4EEE48AF1EE10FA55DD79
:101EC80064EE004AB8EE084AF4EEC44AF1EE10FA9D
:101ED8005FD4B0EE084AF4EEC44AF1EE10FA42DCE0
:101EE800B3EE0B4AF2EE022A64EEA22AB0EE442ABE
:101EF800A4EEA42AA4EEA24A64EE824AB0EE443AC2
:101F080084EE834ABDEC028B76EEC46A27EE237A10
:101F180067EEA37AA5EE267A26EE236AE5EE077A1F
:101F280076EEC76AF0EE474AE6EEA54AF0EE466A54
:101F3800E5EE276A37EE677AB0EE676A77EEE67AFB
:101F4800A7EE256A36EEC07AE7EEA56AF0EE407A8B
:101F5800E7EE257AC4ED014A84ED026AC4ED036A0E
:101F6800C4ED047A10BDB7EE004ACBE7F3EE0B6A76
:101F7800B2EE023A28EE033AF0EE662AE8EE082AB4
:101F8800E8EE036A28EE228AF0EE664AC8EE246A72
:101F980096E7BFEE004AB5E7FFEE006A90E700BF9C
:101FA8000000A04000000020EA2E4454FB21F93F25
:101FB800000000C0F8C6F73E30B5002395B0CDE963
:101FC8000A33CDE90C33CDE90333CDE90533224992
:101FD80001930793086C214A40F080500864096C0B
:101FE80001F08051019101990293136843F48043F1
:101FF8001360136801204FF4803103F48043CDE966
:10200800080102934FF480010224CDE90E410298A1
:1020180007210220CDE9120108224FF4A87308A86D
:102028001092119304F03EFF08B172B6FEE70F223A
:102038000346CDE903244FF4A0554FF4805203A87A
:102048000521CDE90535079205F044F908B172B6C6
:10205800FEE715B030BD00BF0038024000700040F8
:1020680030B5002483B002F06FFAFFF7A5FFFFF741
:10207800C1FCFFF75DF9FFF79FF9FFF729FCFFF7B0
:10208800CBFDFFF73BFE00F06DF926492046FEF731
:1020980021FF23462146224600942046FFF75AF89E
:1020A80007F056FEFEF7B0FD26F092FA06F020FB88
:1020B80022464CF601210EF005F826F089FA06F0C2
:1020C80017FB22464FF0FF310EF01CF826F080FA7D
:1020D80006F00EFB3C224FF47A7125F0DBFB402220
:1020E8001146054608F0E4FC234622460521284609
:1020F80008F0A8FD22460C490C480C4C34F0A8FB0B
:102108000B490A4834F0D4FB084834F06FFEFFF757
:1021180043FB29F0B5FCFEF7A3FD204634F070FE22
:10212800F7E700BFA8970308650E0008345400209D
:102138001020002072B6FEE7DFED087A80ED000A75
:1021480060EEA70A0023C0ED010A836080ED031A40
:10215800C0ED041A836180ED052A70478D3B803FEE
:102168009FED2C7AD0ED017AD0ED026A90ED000A4D
:1021780067EE877AF0EE005A37EEA67ABFEE006A6D
:10218800B5EEC07AF1EE10FAA6EEA56A44BFF7EEF6
:10219800005A37EE257AF7EE005AB4EEE57AF1EEFA
:1021A80010FAA8BF37EE657AF4EEE67AF1EE10FA87
:1021B80080ED027A12DD86EEA77AF0EE005A67EE1D
:1021C800477AF7EE006AE7EE257A77EEE67A36EE9A
:1021D800676A20EE060A80ED060A7047F7EE005A95
:1021E80035EEE77AF4EEC76AF1EE10FAF1DD76EE35
:1021F800E56A86EEA77AF0EE477AE7EE077A37EED9
:10220800277A37EE257A36EE476A20EE060A80ED01
:10221800060A70474590BE37DFED506A90ED017AA7
:10222800D0ED027A90ED056A27EE267AF4EEC67AAA
:1022380077EE276AF1EE10FAF7EE005AF5EEC06A6B
:10224800BFEE000AB8BFB0EE650AF1EE10FA48BF5B
:1022580076EEA56AF7EE005AF4EEE56AF1EE10FAAA
:10226800A8BF76EEE56AB4EEE77AF1EE10FAC0EDB3
:10227800026A3BDDC7EE875AF0EE004A65EEE56A72
:10228800B7EE005AE5EEA46A76EEC56A77EEC67A2E
:1022980030EE260AF5EEC07AF1EE10FA44BFF7EEFA
:1022A800006A77EEA67AF7EE006AF4EEE67AF1EEC7
:1022B80010FAA8BF77EEE67AB4EEE77AF1EE10FAF4
:1022C8002ADDC7EE876AB0EE006A66EEE67AB7EEF8
:1022D800007AE6EE867A77EEC77A30EE670AD0EDB6
:1022E800007A20EE270A80ED060A7047F7EE005ABA
:1022F80075EEC76AF4EEE67AF1EE10FA2ADD37EEEB
:10230800E55AC5EE076AB0EE665AA6EEA65A76EE0C
:10231800856A76EEA56AB9E7B7EE006A76EE476A8F
:10232800F4EEE67AF1EE10FAD9DD77EEC67AC7EE6A
:10233800876AF0EE667AE6EEA67A76EEA76AD0EDC0
:10234800007A76EE866A30EE660A20EE270A80ED7D
:10235800060A7047DFED026A98E700BF4590BE376E
:10236800000000000F4810494FF4827210B5C0E910
:1023780000124FF4007200234FF4004408218261D8
:102388000A22C0E90243C0E90433C0E90713C0E9DF
:102398000933C26205F088F900B910BDBDE81040E4
:1023A800FFF7C8BE7C6300200030014070B5294BA0
:1023B800026888B000249A42CDE90244CDE9044479
:1023C800069401D008B070BD03F5843300945A6CAC
:1023D800214E42F480525A645A6C02F480520092A0
:1023E800009A01941A6B42F001021A631B6B03F006
:1023F80001030193E0220223CDE9022305460523C8
:102408001648069302A9019B02F0A0FD144A7462C3
:102418004FF0C063C6E90023304640224FF4806382
:10242800C6E90224C6E90544C6E90744336102F057
:102438008DFB58B9002211462320AE64B56302F023
:102448001FFB232002F05AFB08B070BDFFF772FE95
:10245800F0E700BF003001401C630020000002408C
:102468005864024038B50A4C0A4A0B4D0B4B25609C
:102478000B490C4C14600C480C4C0D4A0C601A604B
:10248800FFF740FABDE838400A48FFF73BBA00BFFB
:10249800649C0120689C0120D4630020709C01206A
:1024A8006C9C01201C0001203862002014000120CF
:1024B8005C9C01204C6200202DE9F047564F574E96
:1024C8003B682DED028B8146F0EE408A544893ED2F
:1024D800000A0D46FFF724FA33685248B0EE408AE6
:1024E80093ED000AFFF71CFA4F4B93ED007A67EE65
:1024F800087AF8EE086AF4EEE67AF1EE10FA00F1DE
:102508008280F0EE086AF4EEE67AF1EE10FA77DCF3
:10251800F3EE0B6AF2EE025A67EEA55AB0EE665A6F
:10252800A7EEA75AE7EEA56A67EE857AB0EE666A67
:10253800C7EE866AF0EE687AE7EE007AB8EE087AB7
:10254800F4EEC77AF1EE10FA60D4B0EE087AF4EE41
:10255800C77AF1EE10FA5CDCB3EE0B7AF0EE475A6C
:10256800B2EE026A27EE866AE7EEA75AA7EE867AE7
:1025780067EEA57A87EE876A2C4BDFF8B8A0DFF8FC
:10258800B8803968DAF80040D8F80020DFF8ACE005
:10259800043149F63C4CA1EB0E006045C8BF7146BA
:1025A800396093ED007AA4EC016AF7EE007A77EED1
:1025B800C77AE2EC016A27EEA80A3368F0EE407A9F
:1025C800E7EE267ABDEC028BA7EE060A0433C9EDC6
:1025D800007A85ED000A164D511B6145C8BF2A4691
:1025E800A4EB0E09C8F800205A1BE145C8BF744681
:1025F8006245C8BF2B46CAF800403360BDE8F08783
:10260800F7EE006A96E7FFEE006A93E7BFEE006A0E
:10261800B2E7B7EE006AAFE7649C0120689C01202E
:10262800386200204C62002008200020042000208E
:102638001C0001206C9C0120709C0120D4630020A8
:1026480082B00D4B002100915A6C42F480425A64CA
:102658005A6C02F480420092009A01911A6C42F07E
:1026680080521A641B6C03F080530193019B07206E
:1026780002B002F0F3B900BF00380240FEE700BF25
:10268800FEE700BFFEE700BFFEE700BFFEE700BFB2
:10269800704700BF704700BF704700BF08B50120F2
:1026A80025F0ECFF01F06AFFBDE80840FEF7C8BD61
:1026B800014802F037BF00BF789C0120014805F0AF
:1026C80059BA00BF7C630020014802F069BB00BF13
:1026D8001C630020034AD2F8883043F47003C2F820
:1026E8008830704700ED00E008B50221D0F81836B0
:1026F8009847002008BD00BF0020704738B5D0F8C3
:10270800C835DD69A978044651B9697891B9284670
:1027180035F082FCD4F8C8350022DA61002038BDD3
:1027280035F0BEFBA978204635F014FC6978002303
:10273800AB7041B1204635F0B3FB6978204635F0DF
:1027480009FC00236B70D4F8C835DD69002DDED193
:10275800002038BD70B5FF2384B00322012105464F
:1027680034F0BEF8FF2863D00146284634F0AEF8AE
:102778001C20D5F8C86535F047FCF06195F8203283
:102788005A2202FB0352044692F94A0292F84A126C
:10279800B2F84C220028B4BF2281E2804FF05A02DE
:1027A80002FB0353B8BF217193F95222A8BFE1700D
:1027B800002A93F85212B3F8543235DBE170E38003
:1027C800284635F073FB217903462846A37035F077
:1027D8006DFBE38895F81D2200920226CDE901637E
:1027E800E27895F81C32A1786070284635F048FBED
:1027F800238995F81D122279CDE90163284695F8B9
:102808001C3200910026617835F03AFB6178267019
:102818003246284600F0DAF9A1783246284600F018
:10282800D5F9304604B070BD21712381E178C7E73E
:10283800022004B070BD00BF38B503780B2B01D05F
:10284800002038BDD0F8C825D569002369782B70D9
:10285800044635F025FBA978204635F021FB0020F9
:1028680038BD00BF02780B2A01D00020704708B598
:10287800D0F8C835DB69597800F05AF980B208BD3C
:10288800D0F8C835DB691878012801D901207047CC
:102898004FF0010C032058761961DA8283F800C0E2
:1028A80000207047704700BF70B5D0F8C835DE69A2
:1028B8003478012C82B006D0022C34D004B1012423
:1028C800204602B070BD337E012B05463BD0022B5B
:1028D8000AD1B17800F05EF9012844D0022808BF77
:1028E8003476D5F8C835DE69737E032B22D0042BE5
:1028F800E5D17178284600F04DF901280446DED16B
:102908007178284600F014F9F38A82B2934242DDC6
:10291800318991423FD231699B1AF38211440323D2
:1029280031617376CCE7002135F074F90028C6D1FF
:102938003070C4E7737832893169284635F090FAE7
:1029480004237376BCE7B38AF288F168934298BF90
:102958001A46B378009435F06BFA02233376D5F82B
:10296800C835DE69C0E7B38AF288934209D80023E4
:10297800B38233762846FFF795FFD5F8C835DE6968
:10298800B2E79B1A3476B382F368D5F8C8151344B6
:10299800F360CE69A8E7002373762846FEF77EF930
:1029A8008EE700BF0368B3F1A04F00D0704770B541
:1029B8008AB02B4C2B4800250195236B43F001036B
:1029C8002363236B03F001030193019B0295236B9F
:1029D80043F004032363236B03F0040302934FF4CF
:1029E800C0520223CDE904230A26002204A90323A6
:1029F800CDE906230896029B02F0A8FA4FF48062FC
:102A08001223CDE9042304A90122032315480896BB
:102A1800CDE9062302F09AFA01220123CDE9042325
:102A280004A9002202231048CDE9062302F08EFAF9
:102A3800636B43F0800363630395636C43F48043E3
:102A48006364636C03F480432A460621039343209E
:102A5800039B02F015F8432002F050F80AB070BD4D
:102A6800003802400000024000080240D0F800038D
:102A780034F064BBD0F8000334F078BBD0F800031E
:102A880034F08ABBD0F8000334F068BBD0F80003F8
:102A980034F068BB704700BF002270B51146124C75
:102AA80005464FF0FF3001F0EBFF4FF0A0432360E5
:102AB800022200230026C4E90623C5F814460B2287
:102AC80001232046C4E9022326612662E662C4F88F
:102AD800005302F06DFC204603F020F90146284619
:102AE80034F028FB304670BD789C012008B5D0F83A
:102AF800140603F0DBF8002008BD00BF08B5D0F8C5
:102B0800140603F0E9F8002008BD00BF08B5D0F8A6
:102B1800140603F007F9032828BF0120C0B208BD36
:102B280008B5D0F8140603F0E9F8002008BD00BF86
:102B3800D0F8140603F0ECB810B584B0D0F8140639
:102B48009DF8184000949DF81C400194BDF8204061
:102B5800029402F0DBFB002004B010BD08B5D0F8E9
:102B6800140602F013FC002008BD00BF10B584B0A5
:102B7800D0F814069DF818400094079C0194BDF8FD
:102B8800204002949DF82440039402F063FC002046
:102B980004B010BDD0F8140603F0B4B808B549B9AC
:102BA80001221146084802F0ADFBC82001F0F8FCEC
:102BB800002008BD00220121034802F0A3FBC82021
:102BC80001F0EEFC002008BD00080240074B2C2055
:102BD80000FB013191F83B301BB181F854200020F3
:102BE800704781F855200020704700BF789C01206D
:102BF80001F0D6BC002070470020704700B564295A
:102C080083B022D8124AC1EB0121A2FB013245F65A
:102C18003B23C2F34712994202F119020FDDD2B2E7
:102C2800C0B2CDE90020202100F03EFA0198009AB8
:102C3800212100F039FA002003B05DF804FBC0B28E
:102C4800D2B2CDE900202021EEE71822E8E700BF44
:102C58001F85EB5100F026BA10B5044600F0E8F9DC
:102C68000121E0B200F046FA00F0F80010BD00BF04
:102C780010B5012982B013D0C0B2002222210190E0
:102C880000F012FA01980022232100F00DFA0E4BF1
:102C980001981A78042100F007FA002002B010BD4C
:102CA8000C46C0B20421FF22019000F0FDF9019802
:102CB8002246222100F0F8F901982246232100F04B
:102CC800F3F9002002B010BD7C9F0120013908B53E
:102CD800032921D8DFE801F0160C0220AA220421DA
:102CE800C0B200F0E1F9114BAA221A70002008BD09
:102CF800AF220421C0B200F0D7F90C4BAF221A70F2
:102D0800002008BDFA220421C0B200F0CDF9074B1B
:102D1800FA221A70002008BD05220421C0B200F072
:102D2800C3F9024B05221A70002008BD7C9F0120C0
:102D380000B583B0C0B2FF220421019000F0B4F9BD
:102D480001980122222100F0AFF9019801222321E4
:102D580000F0AAF901980122022100F0A5F900204B
:102D680003B05DF804FB00BF00B583B0C0B2FF221A
:102D78000421019000F098F901980122222100F025
:102D880093F901980122232100F08EF90198042279
:102D98000E2100F089F901989F22022100F084F9A0
:102DA800034B012200201A7003B05DF804FB00BF3A
:102DB8003020002030B5002485B0C0B22221224640
:102DC800134D0190039400F06FF9019822462321D6
:102DD80000F06AF901982A78042100F065F9039453
:102DE800039B0198FE2B05D8039B01330393039B98
:102DF800FE2BF9D92A780190042100F055F90198A1
:102E08009E22022100F050F9002005B030BD00BF1D
:102E18007C9F012010B5144C2378012B82B002D07E
:102E2800002002B010BDC0B206220E21019000F0B1
:102E38003BF901980022222100F036F9019800227E
:102E4800232100F031F9094B01981A78042100F088
:102E58002BF901989E22022100F026F90023002078
:102E6800237002B010BD00BF302000207C9F0120DD
:102E780070B5C4B282B00D46164600F0D9F80122EA
:102E88000221204600F010F96B1E032B68D8DFE8FA
:102E980003F0635F0267374BAA221A701A7804217D
:102EA800204600F001F981220521204600F0FCF8B7
:102EB80004220621204600F0F7F8642E54D82E4B41
:102EC800C6EB0626A3FB0623C3F3471345F63B22AE
:102ED80019339642DAB249DD01922021204600F0EA
:102EE800E3F8019A2121204600F0DEF8022D0ED0E9
:102EF80006220F21204600F0D7F800222421204680
:102F080000F0D2F800222521204600F0CDF8204616
:102F180000220A2100F0C8F8204604220E2100F001
:102F2800C3F820460022272100F0BEF820460F22D1
:102F38001F2100F0B9F820460A221A2100F0B4F83F
:102F480020460A221B2100F0AFF8002002B070BD15
:102F5800084BAF221A70A1E7064BFA221A709DE7B8
:102F6800044B05221A7099E71822B5E7202120465C
:102F78000192B4E77C9F01201F85EB5170B588B0A2
:102F8800264C274D274B2B6000260096236B264A9C
:102F980043F002032363236B6A6003F00203009388
:102FA8004FF480432B6133224FF410701221042315
:102FB800CDE90201C5E902620099069302A900223F
:102FC80002231A48CDE9042301F0C0FF0196236CBF
:102FD80043F400132364236C03F400130193019B4F
:102FE800236A43F400132362236A23F40013236241
:102FF800324631461F2001F043FD1F2001F07EFDBF
:1030080032463146202001F03BFD202001F076FDBC
:10301800284608B0BDE8704003F0D2B80038024036
:10302800809F012000540040A08601000004024057
:1030380000B589B0184B1948002201921A6B42F06A
:1030480008021A631B6B03F0080301931022012383
:10305800CDE9022302A900220223CDE90423019B22
:1030680001F074FF0E4803F02DFC90B100221021EE
:103078000A4802F047F9052001F092FA01221021CE
:10308800064802F03FF9052001F08AFA09B05DF818
:1030980004FBFFF773FFE9E700380240000C024029
:1030A800809F0120704700BF10B5104B86B01B6889
:1030B8000293144601238DF817400DF117040A46B0
:1030C8000193014600940A4803F05CF908B906B078
:1030D80010BD074803F03CF9054803F0F3FB00284E
:1030E800F5D1FFF74BFF06B010BD00BF64200020EC
:1030F800809F012000B5134B87B01B68029384465C
:103108000A4600200DF117010123CDE900138DF8BF
:10311800170061460C4803F027FA20B99DF81700FC
:1031280007B05DF804FB084803F012F9064803F0FD
:10313800C9FB0028F2D1FFF721FF9DF8170007B05F
:103148005DF804FB64200020809F012010B50E4B21
:1031580082B01B6801900C46DB680146A2B294203D
:10316800984768B9B4F5003F0199084834BFC4F3DB
:103178004F024FF6FF7203F04DFC002002B010BD65
:10318800012002B010BD00BFC4A001201CA0012076
:1031980010B5B1F5FA5F86B047D042F611339942BF
:1031A8001BD1012445F22263994238D0B1F5FA4F78
:1031B80008BF042417D1204B99421AD102A80190C4
:1031C80004F0D6F901989FED1A7B02238DED027B5E
:1031D800049304F02DF906B010BDB1F57A5F18BF5D
:1031E800FF24DFD102244AF64443994208BF05244C
:1031F80016D102A8019004F0BBF914F0070F01984A
:10320800E1D10E4A0E4B52F8242053F8243004938F
:103218000121CDE9021204F00BF906B010BD032418
:103228004BF680339942C9D0C5E70024BAE700BFFE
:10323800010000002501000000770100EC97030859
:103248000C98030870B58CB0414C00250195236C8F
:1032580043F400432364236C03F400430193019B6C
:103268000295236B43F004032363236B03F00403E9
:103278000293029B0395236B43F001032363236BA3
:1032880003F0010303934FF4A0520223CDE9062370
:1032980000220223CDE90823064606A92D48062365
:1032A8000A93039B01F052FE10232B48069306A9AC
:1032B80001F04CFE0495236B264843F00403236376
:1032C800236B03F00403049306A98023049A06934E
:1032D80001F03CFE0595236B204A43F40013236359
:1032E800236B03F40013059333680599934209D0BF
:1032F80000220E212F2001F0C3FB2F2001F0FEFB3E
:103308000CB070BD164C174BB4634022C4E901528F
:103318004FF48062C4E903524FF400614FF4005245
:10332800C4E905124FF480704FF40032C4E9070273
:103338004FF0040C03222046C4E909C2C4E90B5526
:103348002360A66301F09AFC204601F0FFFBCFE75B
:10335800003802400008024000000240003C0040E3
:1033680064A00120B86002402DE9F041214C1546C7
:103378000646002220460F462946FFF709FF1E4B46
:103388002360204603F05AFC78B31B4B6561DA6969
:10339800236022F48062DA610023C4E90633C4E9B9
:1033A800023314484FF400732361636003F08EFA0C
:1033B800044648B9DFF848809420D8F80830984780
:1033C80000F0F800E02803D001242046BDE8F08191
:1033D8000A482B46C0F80080D8F800503A463146D3
:1033E8009420A8472046BDE8F08101462046FFF713
:1033F80029FFCAE71CA00120003C0040C4A001200E
:103408003420002008B50268034B9A4200D008BD5A
:10341800FEF74AFA08BD00BF003C004008B5026844
:10342800034B9A4200D008BDFEF738FA08BD00BF2A
:10343800003C0040704700BF08B5FFF7FBFF08BD20
:10344800704700BF084A0368934210B506D0074A80
:10345800934200D010BDFFF7F3FF10BD0446FEF7FE
:1034680029FA2368F3E700BF003C00400038004019
:103478002DE9F04782B02A248DF804404B4C4C4D7E
:103488008246884691462046002204211F4601F0C4
:1034980039FF20460022022101F034FF4FF0FF33AC
:1034A80001A90122284604F061F9204601220421DD
:1034B80001F028FF00264FEA1A2363F307066AF390
:1034C8000F264FEA192363F31746204669F31F6650
:1034D80000220421019601F015FF20460122022155
:1034E80001F010FF04220DEB02010A23284604F024
:1034F8003DF920460122042101F004FF2B23204638
:10350800002204218DF8043001F0FCFE2046002240
:10351800022101F0F7FE4FF0FF3301A901222846EE
:1035280004F024F920460122042101F0EBFE4FEAC1
:103538001823002063F3070068F30F203B0A63F3A6
:10354800174067F31F60019000222046042101F014
:10355800D9FE20460122022101F0D4FE04220DEBFF
:1035680002010A23284604F001F920460122042119
:1035780001F0C8FE2C232046002204218DF80430D7
:1035880001F0C0FE20460022022101F0BBFE01A985
:103598004FF0FF330122284604F0E8F80122042105
:1035A800204601F0AFFE02B0BDE8F08700000240FF
:1035B8007C6300202DE9F04FFC4CFD4E83B0322097
:1035C80000F0EEFF01220221204601F09BFE32208E
:1035D80000F0E6FF00220821204601F093FE1920A2
:1035E80000F0DEFF01220821204601F08BFE1920A1
:1035F80000F0D6FF4FF036092046002204218DF84E
:10360800079001F07FFE20460022022101F07AFE99
:103618004FF0FF330DF1070101223046002704F077
:10362800A5F820460122042101F06CFE3A46204606
:1036380004218DF8077001F065FE20460122022161
:1036480001F060FE4FF0FF330DF107010122304613
:1036580004F08CF820460122042101F053FE3A239D
:1036680020463A4604218DF8073001F04BFE3A46D1
:103678002046022101F046FE4FF0FF330DF107010D
:103688000122304604F072F820460122042101F09C
:1036980039FE05233A46204604218DF8073001F00B
:1036A80031FE20460122022101F02CFE4FF0FF33AB
:1036B8000DF107010122304604F058F82046012296
:1036C800042101F01FFE212320463A4604218DF8EB
:1036D800073001F017FE3A462046022101F012FE9B
:1036E8004FF0FF330DF107010122304604F03EF898
:1036F80020460122042101F005FE2A2320463A46ED
:1037080004218DF8073001F0FDFD3A4620460221DC
:1037180001F0F8FD4FF0FF330DF1070101223046AB
:1037280004F024F820460122042101F0EBFD3A467A
:10373800204604218DF8077001F0E4FD204601229F
:10374800022101F0DFFD4FF0FF330DF107010122E7
:10375800304604F00BF820460122042101F0D2FD86
:103768003A46204604218DF8077001F0CBFD20462B
:103778000122022101F0C6FD4FF0FF330DF10701D0
:103788000122304603F0F2FF2046012204210125E0
:1037980001F0B8FD20463A4604218DF8075001F0A3
:1037A800B1FD2A462046022101F0ACFD4FF0FF335F
:1037B8000DF107012A46304603F0D8FF2A46204675
:1037C800042101F09FFD3F2320463A4604218DF84D
:1037D800073001F097FD2A462046022101F092FDAC
:1037E8004FF0FF330DF107012A46304603F0BEFFC4
:1037F8002A462046042101F085FD2B2320463A461F
:1038080004218DF8073001F07DFD3A46204602215B
:1038180001F078FD4FF0FF330DF107012A463046DD
:1038280003F0A4FF2A462046042101F06BFD204640
:103838003A4604218DF8077001F064FD2A462046B7
:10384800022101F05FFD4FF0FF330DF107012A4619
:10385800304603F08BFF2A462046042101F052FD32
:1038680020463A4604218DF8077001F04BFD2A46A0
:103878002046022101F046FD4FF0FF330DF107010C
:103888002A46304603F072FF2A462046042101F0FA
:1038980039FD20463A4604218DF8077001F032FDC3
:1038A8002A462046022101F02DFD4FF0FF330DF18D
:1038B80007012A46304603F059FF2A4620460421CC
:1038C80001F020FDEF2320463A4604218DF8073009
:1038D80001F018FD2A462046022101F013FD4FF0A1
:1038E800FF330DF107012A46304603F03FFF2A4611
:1038F8002046042101F006FDB22320463A46042161
:103908008DF8073001F0FEFC3A462046022101F00E
:10391800F9FC4FF0FF330DF107012A46304603F05A
:1039280025FF2A462046042101F0ECFC4FF00C0B41
:1039380020463A4604218DF807B001F0E3FC2A46F8
:103948002046022101F0DEFC4FF0FF330DF10701A4
:103958002A46304603F00AFF2A462046042101F091
:10396800D1FC20463A4604218DF807B001F0CAFC84
:103978002A462046022101F0C5FC4FF0FF330DF125
:1039880007012A46304603F0F1FE2A462046042164
:1039980001F0B8FC20463A4604218DF8077001F082
:1039A800B1FC2A462046022104E000BF0000024084
:1039B8007C63002001F0A6FC4FF0FF330DF10701F6
:1039C8002A46304603F0D2FE2A462046042101F05A
:1039D80099FC4FF0330A20463A4604218DF807A097
:1039E80001F090FC2A462046022101F08BFC4FF0A2
:1039F800FF330DF107012A46304603F0B7FE2A4689
:103A08002046042101F07EFC20463A4604218DF828
:103A180007A001F077FC2A462046022101F072FC3B
:103A28004FF0FF330DF107012A46304603F09EFEA2
:103A38002A462046042101F065FC4FF0B7082046CD
:103A48003A4604218DF8078001F05CFC3A4620468E
:103A5800022101F057FC4FF0FF330DF107012A4610
:103A6800304603F083FE2A462046042101F04AFC32
:103A7800352320463A4604218DF8073001F042FCF0
:103A88002A462046022101F03DFC4FF0FF330DF19C
:103A980007012A46304603F069FE2A4620460421DB
:103AA80001F030FC20463A4604218DF8078001F0E9
:103AB80029FC3A462046022101F024FC4FF0FF334E
:103AC8000DF107012A46304603F050FE2A462046EB
:103AD800042101F017FC1F2320463A4604218DF8E3
:103AE800073001F00FFC2A462046022101F00AFCAB
:103AF8004FF0FF330DF107012A46304603F036FE3A
:103B08002A462046042101F0FDFBC02320463A4600
:103B180004218DF8073001F0F5FB3A4620460221D2
:103B280001F0F0FB4FF0FF330DF107012A46304654
:103B380003F01CFE2A462046042101F0E3FB2C2357
:103B480020463A4604218DF8073001F0DBFB2A466F
:103B58002046022101F0D6FB4FF0FF330DF107019B
:103B68002A46304603F002FE2A462046042101F088
:103B7800C9FBC22320463A4604218DF8073001F0DC
:103B8800C1FB3A462046022101F0BCFB4FF0FF334F
:103B98000DF107012A46304603F0E8FD2A46204683
:103BA800042101F0AFFB20463A4604218DF8075066
:103BB80001F0A8FB2A462046022101F0A3FB4FF0A2
:103BC800FF330DF107012A46304603F0CFFD2A46A0
:103BD8002046042101F096FBC32320463A460421DF
:103BE8008DF8073001F08EFB3A462046022101F09D
:103BF80089FB4FF0FF330DF107012A46304603F0E9
:103C0800B5FD2A462046042101F07CFB12232046FC
:103C18003A4604218DF8073001F074FB2A46204605
:103C2800022101F06FFB4FF0FF330DF107012A4627
:103C3800304603F09BFD2A462046042101F062FB32
:103C4800C42320463A4604218DF8073001F05AFB78
:103C58003A462046022101F055FB4FF0FF330DF1A3
:103C680007012A46304603F081FD2A4620460421F2
:103C780001F048FB202320463A4604218DF80730FE
:103C880001F040FB2A462046022101F03BFB4FF0A1
:103C9800FF330DF107012A46304603F067FD2A4637
:103CA8002046042101F02EFBC62320463A46042173
:103CB8008DF8073001F026FB3A462046022101F034
:103CC80021FB4FF0FF330DF107012A46304603F080
:103CD8004DFD2A462046042101F014FB0F232046FF
:103CE8003A4604218DF8073001F00CFB2A4620469D
:103CF800022101F007FB4FF0FF330DF107012A46BF
:103D0800304603F033FD2A462046042101F0FAFA32
:103D18004FF0D00820463A4604218DF8078001F07C
:103D2800F1FA3A462046022101F0ECFA4FF0FF334F
:103D38000DF107012A46304603F018FD2A462046B1
:103D4800042101F0DFFAA42320463A4604218DF825
:103D5800073001F0D7FA2A462046022101F0D2FAAC
:103D68004FF0FF330DF107012A46304603F0FEFC01
:103D78002A462046042101F0C5FAA12320463A46E6
:103D880004218DF8073001F0BDFA2A4620460221A9
:103D980001F0B8FA4FF0FF330DF107012A4630461B
:103DA80003F0E4FC2A462046042101F0ABFAE023A4
:103DB80020463A4604218DF8073001F0A3FA3A4626
:103DC8002046022101F09EFA4FF0FF330DF1070162
:103DD8002A46304603F0CAFC2A462046042101F050
:103DE80091FA20463A4604218DF8078001F08AFAB4
:103DF8002A462046022101F085FA4FF0FF330DF1E3
:103E080007012A46304603F0B1FC2A462046042121
:103E180001F078FA4FF0080820463A4604218DF858
:103E2800078001F06FFA2A462046022101F06AFA5B
:103E38004FF0FF330DF107012A46304603F096FC98
:103E48002A462046042101F05DFA4FF0110320466E
:103E58003A4604218DF8073001F054FA2A462046E4
:103E6800022101F04FFA4FF0FF330DF107012A4606
:103E7800304603F07BFC2A462046042101F042FA32
:103E880020463A4604218DF8078001F03BFA2A467D
:103E98002046022101F036FA4FF0FF330DF10701F9
:103EA8002A46304603F062FC2A462046042101F0E7
:103EB80029FA20463A4604218DF807B001F022FA83
:103EC8002A462046022101F01DFA4FF0FF330DF17A
:103ED80007012A46304603F049FC2A4620460421B9
:103EE80001F010FA152320463A4604218DF80730D0
:103EF80001F008FA2A462046022101F003FA4FF0A1
:103F0800FF330DF107012A46304603F02FFC2A46FD
:103F18002046042101F0F6F94FF039028DF8072008
:103F280020463A46042101F0EDF92A4620460221AE
:103F380001F0E8F94FF0FF330DF107012A4630464A
:103F480003F014FC2A462046042101F0DBF9204640
:103F58003A4604218DF807A001F0D4F92A462046F4
:103F6800022101F0CFF94FF0FF330DF107012A4686
:103F7800304603F0FBFB2A462046042101F0C2F933
:103F8800502320463A4604218DF8073001F0BAF94B
:103F98002A462046022101F0B5F94FF0FF330DF112
:103FA80007012A46304603F0E1FB2A462046042151
:103FB80001F0A8F920463A4604218DF8079001F04F
:103FC800A1F92A462046022101F09CF94FF0FF335F
:103FD8000DF107012A46304603F0C8FB2A46204661
:103FE800042101F08FF94FF0130A20463A460421C4
:103FF8008DF807A001F086F92A462046022101F033
:1040080081F94FF0FF330DF107012A46304603F0DE
:10401800ADFB2A462046042101F074F94FF0140B39
:1040280020463A4604218DF807B001F06BF92A467C
:104038002046022101F066F94FF0FF330DF1070128
:104048002A46304603F092FB2A462046042101F016
:1040580059F93A462046292704218DF8077001F0BE
:1040680051F92A462046022101F04CF94FF0FF335E
:104078000DF107012A46304603F078FB2A46204610
:10408800042101F03FF92D232046002204218DF858
:10409800073001F037F92A462046022101F032F9AB
:1040A8004FF0FF332A460DF10701304603F05EFB5F
:1040B8002A462046042101F025F9E1232046002262
:1040C80004218DF8073001F01DF920460022022155
:1040D80001F018F94FF0FF332A460DF10701304679
:1040E80003F044FB2A462046042101F00BF9D023B3
:1040F8002046002204218DF8073001F003F92A46F2
:104108002046022101F0FEF84FF0FF332A460DF158
:104118000701304603F02AFB2A462046042101F015
:10412800F1F82046002204218DF8078001F0EAF812
:104138002A462046022101F0E5F84FF0FF332A46CF
:104148000DF10701304603F011FB2A4620460421F1
:1041580001F0D8F810232046002204218DF80730FA
:1041680001F0D0F82A462046022101F0CBF84FF0A2
:10417800FF332A460DF10701304603F0F7FA2A46C5
:104188002046042101F0BEF82046002204218DF8C3
:10419800078001F0B7F82A462046022101F0B2F85C
:1041A8004FF0FF332A460DF10701304603F0DEFADF
:1041B8002A462046042101F0A5F8062520460022BB
:1041C80004218DF8075001F09DF8204601220221B4
:1041D80001F098F84FF0FF330DF107010122304646
:1041E80003F0C4FA20460122042101F08BF820468E
:1041F800002204218DF8075001F084F8204601229E
:10420800022101F07FF84FF0FF330DF10701012281
:10421800304603F0ABFA20460122042101F072F87F
:104228004FF039028DF8072020460022042101F0C2
:1042380069F820460122022101F064F84FF0FF33AB
:104248000DF107010122304603F090FA20460122C1
:10425800042101F057F844232046002204218DF858
:10426800073001F04FF820460122022101F04AF8F8
:104278004FF0FF330DF107010122304603F076FAC3
:1042880020460122042101F03DF851232046002256
:1042980004218DF8073001F035F82046012202216B
:1042A80001F030F84FF0FF330DF1070101223046DD
:1042B80003F05CFA20460122042101F023F80B23C5
:1042C8002046002204218DF8073001F01BF8204613
:1042D8000122022101F016F84FF0FF330DF107011A
:1042E8000122304603F042FA20460122042101F05F
:1042F80009F816232046002204218DF8073001F022
:1043080001F820460122022100F0FCFF4FF0FF33A4
:104318000DF107010122304603F028FA2046012258
:10432800042100F0EFFF2046002204218DF807B099
:1043380000F0E8FF20460122022100F0E3FF4FF0E1
:10434800FF330DF107010122304603F00FFA204632
:104358000122042100F0D6FF2F2320460022042149
:104368008DF8073000F0CEFF20460122022100F030
:10437800C9FF4FF0FF330DF107010122304603F06A
:10438800F5F920460122042100F0BCFF3123204624
:10439800002204218DF8073000F0B4FF20460122E6
:1043A800022100F0AFFF4FF0FF330DF107010122AA
:1043B800304603F0DBF920460122042100F0A2FF79
:1043C80021232046002204218DF8073000F09AFFAF
:1043D80020460022022100F095FF4FF0FF330DF137
:1043E80007010122304603F0C1F9204601220421C9
:1043F80000F088FF4FF011032046002204218DF8B9
:10440800073000F07FFF20460022022100F07AFFEB
:104418004FF0FF330DF107010122304603F0A6F9F2
:1044280020460122042100F06DFF204600220421CD
:104438008DF807A000F066FF20460022022100F058
:1044480061FF4FF0FF330DF107010122304603F001
:104458008DF920460122042100F054FF2046002255
:1044680004218DF8077000F04DFF2046002202213C
:1044780000F048FF4FF0FF330DF1070101223046ED
:1044880003F074F901220421204600F03BFF32209A
:1044980000F086F82046002204218DF8079000F0ED
:1044A80031FF20460022022100F02CFF4FF0FF339D
:1044B8000DF107010122304603F058F92046012288
:1044C800042100F01FFF60232046002204218DF8FC
:1044D800073000F017FF20460122022100F012FFEA
:1044E8000DF107014FF0FF330122304603F03EF98A
:1044F80001220421204600F005FF03B0BDE8F08F3B
:1045080038B50E4A0E4B12781B6805464FF47A7080
:10451800B0FBF2F0B3FBF0F000F0FEFA08B90F2D93
:1045280001D9012038BD0446024629464FF0FF3024
:1045380000F0A6FA034B20461D6038BD6820002015
:104548000C2000206C20002008B50B4B1A6842F4A0
:1045580000721A601A6842F480621A601A6842F49B
:1045680080721A60032000F079FA0020FFF7C8FF74
:10457800FEF766F8002008BD003C0240034A044BE1
:1045880011681B780B441360704700BFC8A0012056
:1045980068200020014B1868704700BFC8A00120A0
:1045A80038B50446FFF7F6FF631C054602D0044BF6
:1045B8001B781C44FFF7EEFF431BA342FAD338BD18
:1045C80068200020002800F09E8038B5056C04465D
:1045D8003DB1236CDB060CD5002384F83C30012068
:1045E80038BDFCF72DFF6564236C84F83C50DB066E
:1045F800F2D4236C474A23F4885323F0020343F090
:10460800020323645168236821F4403151605168E2
:104618006068014351605A682069A16822F4807279
:104628005A605A6842EA00225A605A68E06822F0E2
:1046380040725A605A680A435A609A68A16A22F41A
:1046480000629A609A6802439A60334A91429A6873
:1046580051D022F07062E06A9A609A6811439960BA
:104668009A6822F040529A609A6802439A609A685F
:1046780022F002029A609A68217E42EA41029A6018
:1046880094F82020002A40D05A68616A42F40062F7
:104698005A605A6822F460425A605A68013942EAFC
:1046A80041325A60DA6AE16922F47002DA62DA6A3F
:1046B800013942EA0152DA629A68616922F40072A9
:1046C8009A609A6894F8300042EA40229A609A68A0
:1046D80022F480629A609A68002042EA81229A60F5
:1046E8006064236C23F0030343F001032364002375
:1046F80084F83C3038BD22F070629A609A6822F0E3
:1047080040529A60B3E7012070475A6822F4006269
:104718005A60C7E7002301400100000F10B490F869
:104728003C3083B00021012B019177D0012301682F
:1047380080F83C308B68DC07024614D43C4B3D4C77
:104748001B688868A4FB03439B0C03EB430340F0FE
:10475800010088600193019B2BB1019B013B0193F0
:10476800019B002BF9D18868136C10F0010031D03F
:1047780023F4E06323F0010343F4807313644B686C
:10478800580505D5136C23F4405343F48053136440
:10479800136C294C13F480531CBF536C23F006038D
:1047A800536400206FF0220382F83C000B606368BA
:1047B80013F01F0319D1214A914226D002F58072C5
:1047C80091421FD01E4A91422DD0002003B05DF8BF
:1047D800044B704743F010031364536C43F0010318
:1047E800536403B05DF8044B7047144B9942F8D1F9
:1047F8008B6813F04053F4D18A6842F0804218461F
:104808008A60EEE76268D206DFD1886810F040500F
:10481800DBD18B6843F080438B60E2E7022003B072
:104828005DF8044B70476268D306CED4EDE700BF4D
:104838000C20002083DE1B430023014000200140A0
:104848000022014003689A6870B50D465105044678
:1048580002D59B68DA0545D4FFF79CFE2268064618
:104868006B1C24D113689807FCD56FF012031360F2
:10487800236C43F400732364936813F0405F14D1EE
:10488800207E90B9D36A13F4700F02D093685A054A
:104898000BD4236C23F480732364236CDB0404D4CB
:1048A800236C43F00103236470BD002070BD1368BE
:1048B8009907DAD45DB9136813F00203D0D1226CDA
:1048C80084F83C3042F004022264032070BDFFF7F4
:1048D80061FE801BA8422268C2D9136813F0020344
:1048E800BED1ECE7036C002243F0200380F83C20A3
:1048F8000364012070BD00BF0368D86C704700BF17
:1049080030B590F83C3083B00022012B019200F0C2
:104918009B80012380F83C300C680368092C2CD854
:104928001A6904EB44054FF0070C0CFA05FC22EA5F
:104938000C021A618A68AA401D692A431A614A68EA
:10494800062AA4462FD802EB8202596B053A4FF08B
:104958001F0E0CFA02FC0EFA02F221EA02025A6356
:104968005A6B4CEA02025A63394A934230D0002308
:1049780080F83C30184603B030BD1FFA84FC0CEBBD
:104988004C0EDA68AEF11E0E072505FA0EF522EA7E
:104998000502DA608A68DD6802FA0EF22A43DA60F4
:1049A8004A68062ACFD90C2A02EB820236D8196B3C
:1049B800233A1F250CFA02FC05FA02F221EA020248
:1049C8001A631A6B4CEA02021A63214A9342CED147
:1049D800122C32D0A4F11003012BC8D81D4A5368F9
:1049E800102C43F400035360C1D11B4B02F14672F3
:1049F8001B6802F52E3202F28332A2FB03239B0CC2
:104A080003EB83035B000193019B002BAFD0019B59
:104A1800013B0193019B002BF9D1A8E7D96A413AE0
:104A28001F250CFA02FC05FA02F221EA0202DA62F8
:104A3800DA6A4CEA0202DA6296E7D2F8043343F4FF
:104A48008003C2F8043392E7022003B030BD00BFF0
:104A580000200140002301400C2000200749CA68BB
:104A680003024FF6FF0003F4E0630240134343F0F0
:104A7800BF6343F40033CB60704700BF00ED00E034
:104A88001C4BDB68C3F3022300B5C3F1070EBEF16C
:104A9800040F03F1040C28BF4FF0040EBCF1060FFD
:104AA8001BD9033B4FF0FF3C0CFA03FC22EA0C0233
:104AB8004FF0FF3C0CFA0EFC21EA0C01994000284B
:104AC80041EA02010CDB00F16040090100F5614098
:104AD800C9B280F800135DF804FB00221346E7E72B
:104AE800054B00F00F0009010344C9B219765DF8BF
:104AF80004FB00BF00ED00E0FCEC00E0002807DB51
:104B08004109044A00F01F000123834042F8213084
:104B1800704700BF00E100E00138B0F1807F10D29B
:104B280010B44FF0E023084C58614FF0F00C84F8B3
:104B380023C00022072110469A615DF8044B1961D1
:104B480070470120704700BF00ED00E038B504460B
:104B5800FFF720FD002C52D023680022022184F8A0
:104B6800351084F834201A6822F0010205461A60CC
:104B780005E0FFF70FFD431B052B39D823681A689A
:104B8800D107F6D4D4E90120E16802430A43D4E905
:104B98000451A0692A430A43E1691D6802430A4394
:104BA80033492940256A2A430A43616A042928D0DF
:104BB8001A605A6922F007021143D8B22D4A596186
:104BC8001038A2FB005212092B4923F47F73895C29
:104BD800E16523F003035F2888BF04333F228A403E
:104BE800A36500209A600123606584F8353038BDDC
:104BF80003232022626584F83530184638BD012029
:104C080038BDD4E90B512943114319605969A26A87
:104C180021F00701114341F00401002DCDD078B1F6
:104C2800B0F5005F16D0022A03D9032AC5D1EA01DC
:104C3800C3D501234022626584F83530184638BD53
:104C4800012A03D032F00202B7D1F0E7B5F1C07FF4
:104C5800B3D1EEE7032AB0D801A050F822F000BF84
:104C68003B4C0008374C00083B4C0008554C0008EA
:104C78003F8010F0ABAAAAAA2C980308002836D0C7
:104C880090F83520022A0346D0B232D01A68194962
:104C9800D0B2103830B4A1FB004109091468164D90
:104CA80024F001046D5C1460002111605160916072
:104CB800D16011612121516122F47F7222F0030237
:104CC8005F2888BF04323F240021AC40DD65C3E97A
:104CD8000F11C3E91111C3E913119A65946059655D
:104CE80083F8341083F83510084630BC704701202B
:104CF80070477047ABAAAAAA2C98030870B490F81A
:104D08003440856D012C35D090F835404FF0010CBA
:104D1800644580F834C005D0002380F8343070BC76
:104D280002207047022680F8356004680026466530
:104D3800266826F48026266063608368402B0EBFB1
:104D4800A260A160E260C26D08BFE1603F239340AA
:104D5800AB602368026C43F0160323601AB1236822
:104D680043F008032360236843F001030020236015
:104D780070BC7047022070BC704700BF90F8353097
:104D8800022B03D080234365012070470268052366
:104D980080F83530136823F0010300201360704752
:104DA800F0B583B0674A876D166800230193C36D19
:104DB8003D6808229A402A42044603D001680868E0
:104DC800400778D401229A402A4203D021684969D1
:104DD80008066AD404229A402A4203D02168096846
:104DE80089075CD410229A402A4203D021680868B7
:104DF800000741D420229A402A4214D0216808682A
:104E0800C00610D5BA6094F83520052A63D00B681F
:104E180013F4802F0B687ED0190340F18980E36B6F
:104E28000BB120469847636D23B3636DDA071AD533
:104E380022684549052384F835301368A1FB061616
:104E480023F00103B60A136002E01368DB0704D5F8
:104E5800019B0133B3420193F7D90122002384F85F
:104E6800352084F83430E36C23B1204603B0BDE824
:104E7800F040184703B0F0BDBA600A6812F4802FFA
:104E88000A6822D1D20503D40A6822F008020A600F
:104E9800226C002AAED020469047E36DAAE7BA609C
:104EA800626D42F0040262659CE7BA60626D42F08E
:104EB800020262658EE7086820F004000860BA60A4
:104EC800626D42F0010262657CE71103E0D5A26CD5
:104ED800002AE0D18EE70A6822F016020A604A69C1
:104EE80022F080024A61226C3AB30A6822F0080272
:104EF8000A603F2202FA03F3216DBB6001220023FE
:104F080084F8352084F834300029B3D0204603B023
:104F1800BDE8F040084713F4807380D10A6822F096
:104F280010020A60012284F8352084F8343076E7CC
:104F3800636C002B7FF475AF75E7A26C002AD4D19F
:104F4800D7E700BF0C200020B5814E1B2DE9F04F9C
:104F580000220C68DFF830A2844E85B013468946DB
:104F680005E00133102B02F1020200F08A800121D2
:104F7800994001EA040BA143F3D1D9F804C00CF01D
:104F880003014D1E012D7FD9032940F0C0809140B7
:104F9800CD4307683D4029431CF4403F0160E0D001
:104FA80000210391DAF8441041F48041CAF8441012
:104FB800DAF8441001F480410391039923F00301C6
:104FC80001F1804101F59C3103F003078D68BF00B2
:104FD8004FF00F0E0EFA07FE25EA0E08644DA842A0
:104FE80024D005F58065A84200F09580614DA8425F
:104FF80000F09880604DA84200F09B805F4DA84269
:1050080000F09E805E4DA84200F0A1805D4DA84250
:1050180000F0A480DFF874E170450CBF4FF0070E74
:105028004FF0080E0EFA07F748EA0708C1F808809B
:10503800B1686FEA0B051CF4801F0CBF29404BEACE
:105048000101B160F1681CF4001F0CBF29404BEA54
:105058000101F16071681CF4003F0CBF29404BEA64
:105068000101716031681CF4803F03F101030CBF3A
:1050780029404BEA0101102B316002F102027FF452
:1050880076AF05B0BDE8F08FD9F80C50D0F808E03D
:1050980005FA02F7032505FA02F82EEA080E47EA90
:1050A8000E078760476827EA0B0ECCF300179F406E
:1050B80047EA0E076FEA08054760C76807EA050E62
:1050C800D9F80870974047EA0E070229C76001FA25
:1050D80002F17FF45EAF4FEAD30E00EB8E0E03F0C1
:1050E8000708DEF820700097D9F810704FEA880892
:1050F80007FA08F701970F2707FA08F8009F27EA29
:105108000808019F47EA0807CEF8207041E7032501
:105118009540ED43D1E74FF0010E0EFA07F748EA44
:10512800070883E74FF0020E0EFA07F748EA070868
:105138007CE74FF0030E0EFA07F748EA070875E711
:105148004FF0040E0EFA07F748EA07086EE74FF02B
:10515800050E0EFA07F748EA070867E74FF0060E4C
:105168000EFA07F748EA070860E700BF003C01406D
:105178000000024000080240000C024000100240FB
:10518800001402400018024000380240001C02408F
:105198002DE9F04F0023DFF85C91DFF85C81DFF840
:1051A8005CA1DFF85CB183B002E00133102B76D04C
:1051B8004FF0010E0EFA03F232EA010402EA010787
:1051C800F3D123F0030505F1804505F59C3503F07F
:1051D8000304D5F808C0A4000F26A6404845019648
:1051E80006EA0C0C17D0504512D058455AD03C4E00
:1051F800B0425CD03B4EB0425ED03B4EB04260D035
:105208003A4EB04262D03A4EB04264D04FF0080EE7
:105218000EFA04F400E00024A4451CD1D8F800409C
:10522800019E24EA0704C8F80040D8F8044024EA9C
:105238000704C8F80440D8F80C4024EA0704C8F862
:105248000C40D8F8084024EA0704C8F80840AC68BD
:1052580024EA0604AC6005685E000324B44025EA2D
:1052680004050560DD0800EB850503F0070C2E6AD0
:105278004FEA8C0C0F2707FA0CF726EA07062E626E
:10528800C56825EA0405C560456825EA020242604A
:105298008268013322EA0402102B826088D103B0AD
:1052A800BDE8F08F4FF0020E0EFA04F4B4E74FF0A9
:1052B800030E0EFA04F4AFE74FF0040E0EFA04F4EE
:1052C800AAE74FF0050E0EFA04F4A5E74FF0060E14
:1052D8000EFA04F4A0E74FF0070E0EFA04F49BE769
:1052E800000C024000100240001402400018024066
:1052F800001C024000000240003C01400004024043
:105308000008024002B90904816170472DE9F043A1
:1053180090F8F85285B0012D9DF830709DF834E072
:10532800BDF838802ED00026354663F307054FF0C8
:105338002C0909FB01FC61F30F2502F07F090446E3
:1053480069F31745D00960F31F6504EB0C000CF1F5
:10535800380C4FF0010984F8F89280F83D6080F825
:105368003FE0A0F8408044F80C5080F83C70CDE94C
:1053780001E80097206802F009FF84F8F86205B098
:10538800BDE8F083022005B0BDE8F08390F8F8325C
:10539800012B0BD010B504460123006884F8F832BD
:1053A80003F050F8002084F8F80210BD022070477E
:1053B80000284DD02DE9F04190F8F93204688AB000
:1053C800064603F0FF02002B3CD02046032386F854
:1053D800F932E36B344613F4807308BF336102F08B
:1053E800DDFC54F810CB0FCC6D460FC50FCC0FC5A4
:1053F80094E8030085E80300371D97E80E0060462F
:1054080002F042FC3068012102F0D0FCB446EE46BE
:105418005CF8108BBCE80F00AEE80F00BCE80F008A
:10542800AEE80F0094E8030085E80300404697E8DB
:105438000E0002F073FD0123002086F8F9320AB04D
:10544800BDE8F08180F8F822FDF7ACFA3068BDE7D6
:105458000120704770B58C462C2101FB0C019DF88A
:105468001060059DBDF818409DF81CE081F83B20B0
:1054780081F83F304EBB81F83DE04FF0030E2C2100
:1054880001FB0C0181F842E0032B09D8DFE803F0A7
:105498002C0220202C2303FB0C03002283F842203B
:1054A8002C2101FB0CF3C2186033D464002482F869
:1054B80039C055641465C45201FB0C01027C0068B4
:1054C800BDE87040383102F0F1BE4FF0020ED6E769
:1054D8002C2303FB0C03C2B993F855100029DDD027
:1054E800022283F84220DBE7012ED9D1002AD7D146
:1054F8002C2303FB0C0384B983F855602C2303FB8E
:105508000C03022283F84220CAE793F85420002AA9
:10551800C4D0022283F84220C2E793F8551000292C
:10552800BCD0EBE72DE9F04F056885B00446284666
:1055380002F0F0FC012802D005B0BDE8F08F206829
:1055480002F0E4FC0028F7D0206802F0DFFC10F439
:10555800001F20681CBF4FF40013436102F0D6FC03
:1055680010F4801F20681CBF4FF48013436102F0C1
:10557800CDFC10F0806F20681CBF4FF08063436142
:1055880002F0C4FC10F0020F20681CBF0223436124
:1055980002F0BCFC10F0005F206840F0BD8002F013
:1055A800B5FCC60100F1EA80206802F0AFFC0007F4
:1055B80000F1DD80206802F0A9FCC106266800F130
:1055C800C780304602F0A2FC8201B5D5206802F0FF
:1055D80033FFA26807462068002A00F0B58005F569
:1055E800A06500264FF02C0864E05FFA86F900F504
:1055F800A06B0BEB491A4FEA4913DAF8082001931C
:10560800520700F16C81DAF80820D30500F19F8178
:10561800DAF80820910640F187812022CAF808208C
:10562800DAF80820920500F16781DAF80820D30734
:1056380040F10481206958B1DAF8102008FB094CC0
:10564800C2F3120EDCF84820A2EB0E02CCF8502070
:1056580008FB094C012200238CF86120CCF85C304F
:10566800CAF808209CF83F2012F0FD0200F07D8166
:10567800012A0DD1019B5BF8030040F000504BF864
:105688000300494620468CF86020FDF703FA20699C
:10569800012808FB094100F0A68191F8543083F0F5
:1056A800010381F85430A26820680136964205F15A
:1056B800200549D206F00F0327FA03F3DB07F4D5D8
:1056C8002B68190491D4F1B200F5A06C0CEB411AC7
:1056D8004FEA411EDAF8083013F0040340F017814E
:1056E800DAF808B01BF0200F00F082804FF0200C91
:1056F800CAF808C008FB014C9CF83DE0BEF1010F58
:10570800D3D18CF83D304FF002038CF8603002F0B2
:1057180099FEA2682068C8E74FF000534361D5F8A6
:105728004034DF073FF53BAF1021284602F076FBF7
:10573800284602F09DFB0121206802F0B3FC2046B8
:10574800FDF79CF920682AE74FF000734361F3E600
:10575800B36923F01003B361376AC7F34342022ADF
:1057680000F02581B36943F01003B36129E72046AF
:10577800FDF77CF92068082343611CE72668D6F802
:1057880040340293D6F840340393039B23F02E034E
:105798000393029B980707D5029BD90700F15A810A
:1057A800039B43F002030393029B1A0715D5039B3F
:1057B80043F008030393029B5B0740F14F81A16903
:1057C800022900F05F81E368012B04BF4EF66022D6
:1057D800C6F804242046FDF755F9029B9F0603D519
:1057E800039B43F020030393039BC6F84034DBE696
:1057F800DAF8083013F4007B40F02381DAF8083037
:1058080013F0010300F0FA80DAF8082008FB0143DE
:105818005206C3F85CB005D5012283F83D20402329
:10582800CAF8083008FB01420123CAF8083082F898
:10583800613002F007FEA268206836E7DAF808202F
:1058480012F0020200F09A8008FB094090F86120EB
:10585800012A00F01481D01E05283BD8DFE800F0AB
:10586800203A1A03310308FB0940C26D0132022AAB
:10587800C26540F2B5810422002380F86020C36528
:1058880002232046CAF808304946FDF703F9A26802
:1058980020680AE708FB0943052083F86000EFE762
:1058A80008FB09424FF0020382F86030019B5BF865
:1058B800032022F0804242F000424BF803200222EB
:1058C800DEE708FB09400422C36D80F8602001333D
:1058D800C365D5E708FB094393F86020D0E708FBC8
:1058E800094204234FF0060CCAF80830494682F8EA
:1058F80061C002F0A7FD93E62068494602F0A2FDC8
:105908004FF40073CAF80830A2682068CDE608FB97
:1059180001430422CAF80820062283F8612002F015
:1059280091FDA2682068C0E6DAF80820120700F1A5
:105938009980DAF80820530500F1AF80DAF80820DA
:1059480011067FF56DAE08FB09428023CAE708FB04
:1059580009424FF480734FF0070CCAF808304946E3
:1059680082F861C002F06EFD5AE62068494602F0EE
:1059780069FD10232069CAF8083089E6DAF808308A
:10598800D90638D508FB094090F83F30032B00F0C2
:10599800E68013F0FD0304D1C3652369002B00F0F2
:1059A800E4801023CAF80830A26820687DE6C7F3AF
:1059B8000A12002A3FF4D6AE07F00F074FF02C0862
:1059C80008FB0748D8F8441000293FF4CBAED8F8B4
:1059D8005030D8F84C001344834240F2A48004238A
:1059E80088F86030BEE6B1F840208B6CB3FBF2F368
:1059F800D8073FF552AEA268206856E6DAF808B034
:105A08001BF0400F57D1DAF8083013F008037DD1A6
:105A1800DAF808B01BF0100F5ED008FB01424FF017
:105A2800030CD36592F83D3082F861C033B9134650
:105A380092F83C2012B9012283F83D2002F002FDC1
:105A4800AFE74FF40073CAF8083002F0FBFCA26815
:105A580020682AE62046FDF70DF8A1E62046FDF766
:105A680015F8BAE608FB094208234FF0050CCAF8F6
:105A78000830494682F861C002F0E4FCD0E580F8BD
:105A88006020FDE6029B206803F4C023B3F5802F55
:105A980018BF012102F006FB9CE608FB09424FF4FF
:105AA80080634FF0080CCAF80830494682F861C094
:105AB80002F0C8FCB4E508FB0142D365042382F870
:105AC8006130012382F83D3002F0BCFC4023CAF863
