:020000040800F2
:100000000000022071660008F1140008F3140008D3
:10001000F5140008F7140008F914000800000000A7
:10002000000000000000000000000000FB140008B9
:10003000FD14000800000000FF140008011500086E
:10004000C1660008C1660008C1660008C1660008F4
:10005000C1660008C1660008C1660008C1660008E4
:10006000C1660008C1660008C1660008C1660008D4
:10007000C1660008C16600080D0E0008C1660008D0
:10008000C1660008C1660008C1660008C1660008B4
:10009000C1660008C1660008C1660008C1660008A4
:1000A000C1660008C1660008C1660008C166000894
:1000B000C1660008C1660008C1660008C166000884
:1000C000C1660008C1660008C1660008C166000874
:1000D000C1660008C1660008C1660008C166000864
:1000E000C1660008C1660008C1660008C166000854
:1000F000C1660008C1660008C1660008FD0D000861
:10010000C1660008C1660008C1660008C166000833
:10011000C1660008C1660008C1660008C166000823
:10012000C1660008C1660008C1660008C166000813
:10013000C1660008C1660008C1660008C166000803
:10014000C1660008C1660008C166000809150008FC
:10015000C1660008C1660008C1660008C1660008E3
:10016000C1660008C1660008C1660008C1660008D3
:10017000C1660008C1660008C166000800000000F2
:08018000C1660008C166000819
:10018800034613F8012B002AFBD1181A01387047CF
:1001980053B94AB9002908BF00281CBF4FF0FF31E6
:1001A8004FF0FF3000F00CB8ADF1080C6DE904CE4B
:1001B80006F0CEFBDDF804E0DDE9022304B0704769
:1001C800704700BF10B5054C237833B9044B13B101
:1001D8000448AFF300800123237010BDC80000203D
:1001E80000000000206C000808B5034B1BB1034950
:1001F8000348AFF3008008BD00000000CC000020D9
:10020800206C000808B50C4B1B78022B04D00A4B55
:100218001B78042B09D008BD40220849084801F082
:100228005FFA054B03221A70F1E7034B00221A709C
:10023800034801F031FAEEE724010020E400002031
:100248002801002070B5144801F03BFAC0F38F0272
:1002580003281ED870BD284600F074F83246531E95
:100268009EB2002AF6D0237863F30705627862F31A
:100278000F25A27862F31745E27862F31F6504340C
:10028800002BE8D001224FF40041044802F0ACFCF6
:10029800E1E7034CE3E700BF28010020000C02401F
:1002A800E400002008B5FFF7CDFF402202490348CB
:1002B80001F016FA08BD00BFE40000202801002064
:1002C80080ED010A70470000184B4FF400521A6085
:1002D800002313E0164A02EB8302D2ED007A9FED69
:1002E800157A67EE877A144A02EB8302C2ED007A28
:1002F800124A4FF0FF3142F8231001337F2BE9DD1A
:1003080000230F2B10DC10B40D4803EB4301CA0087
:1003180081180024845000224A61CA6001330F2BDF
:10032800F2DD5DF8044B7047704700BF440B0020B6
:100338004C6C00082CC3AE37440900204407002049
:100348004C0B00202DE9F0412DED028B0546C0F342
:10035800072303F0F004F02C0CD05E4B1C70902C9B
:1003680039D0E02C00F0AE80802C32D0BDEC028B6E
:10037800BDE8F081F72B07D9F82BF0D14FF4804175
:10038800554802F037FCEAE7F02BE8D30024514B3C
:100398001C70E4E701340F2CE8DC04EB44024F4BFB
:1003A80003EBC2035B68C5F307429342F2D104EB47
:1003B80044024A49042041F83200494A4FF0FF31CB
:1003C80042F8231000224FF48041434802F00CFC0D
:1003D800E0E70024DFE72E0E38D0C5F30745404B91
:1003E80053F82530B3F1FF3F32D100240F2CBDDC88
:1003F80004EB4403394A52F83330002B3AD0013425
:10040800F4E701340F2CB1DC04EB4402334B03EB6B
:10041800C2035B68C5F307429342F2D104EB44027E
:100428002E4951F83220002AEBD004EB4402042074
:1004380041F832002A4A4FF0FF3142F823100022D7
:100448004FF48041244802F0CFFBDAE70024D9E7D3
:1004580003EB4303214A042142F83310204B4FF0A9
:10046800FF3243F8252000224FF480411A4802F059
:10047800BBFBBAE7134604EB440203EBC2080127AF
:1004880043F83270C8F80450164B03EB850393ED1C
:10049800008AB0EE480A1448FFF712FFC8F808604F
:1004A8000F4B43F825403A464FF480410A4802F082
:1004B8009BFBFDEEC87A17EE902A0C49002000F04D
:1004C80083FB53E72B0EC5F3074505EBC315084B14
:1004D8001D604BE7480B0020000C02404C0B00202D
:1004E800440700204C6C000824140020386C0008D5
:1004F800440B002010B504292CD0052902D002296C
:1005080011D010BD184B04221A70184C00224FF459
:100518008051204602F068FB00224FF4004120463B
:1005280002F062FBEDE7104B02221A700F4C012219
:100538004FF48051204602F057FB00224FF400414F
:10054800204602F051FB00224FF48041204602F081
:100558004BFBD6E70122044B1A704FF400410348C5
:1005680002F042FBCDE700BF24010020000C02404E
:100578000369C268934204D881688A1A1344581ED2
:100588007047981A013870472DE9F84304468846A1
:100598001646C5688768A7EB0509914509D94068DB
:1005A800284406F0BFF8BFF35F8F3544E560BDE827
:1005B800F88340684A46284406F0B4F8ED1B3544F1
:1005C8002A4608EB0901606806F0ACF8BFF35F8FB4
:1005D800E560ECE72DE9F843064688461746C56806
:1005E8004FF000091AE05B1B5A1EB3685C1B94426B
:1005F80028BF1446BC4228BF3C4670682246414684
:10060800284406F08FF8A144A0443F1B2544B36852
:10061800AB420BD0BFF35F8FF5604FB133699D429A
:10062800E1D3B2685B1B1A44013ADEE70025F1E723
:100638004846BDE8F883000010B5154CA8220021F3
:10064800204606F07DF8032323616361114AA26105
:10065800114BE3614FF4806323620023A36263625A
:10066800E36222660D4A62661022A2662367E36689
:100678006367BFF35F8F06E0C3F10F020849895C27
:10068800034AD15401330F2BF6D9BFF35F8F10BD46
:10069800CC0C00204C6E0008840D0020740D002046
:1006A800586E0008F8B50F461646184B451C05EB62
:1006B800450503EBC50500EB400003EBC003DC6A0E
:1006C800012C11D0022C1CD014B100242046F8BDF6
:1006D8002846FFF74DFF8642F8D832463946284665
:1006E800FFF752FF3446F1E72846FFF741FF34464B
:1006F800864228BF0446224639462846FFF744FF6B
:10070800E4E72846FFF766FF0446DFE7CC0C002045
:10071800F8B504460D461646094B1B786BB1EFF346
:1007280011874FF0200181F311883246294620466F
:10073800FFF7B8FF87F31188F8BDFFF77DFFEEE7F5
:10074800CC0C002038B505460C460846FFF718FDC6
:10075800024621462846FFF7DBFF38BDF8B50446B8
:100768000D4617461E46184B1B7833B3022C27D864
:10077800EFF3118C4FF0200181F3118894B1124AE4
:10078800601C00EB4003DB00D55000EB400002EB9F
:10079800C000476004EB440302EBC3021662002367
:1007A8009362536204EB4404074B03EBC403069AB9
:1007B800DA628CF311880020F8BDFFF73DFFD5E71A
:1007C8004FF0FF30F8E700BFCC0C002010B504460E
:1007D8008268531C4068834205D820688154A3600E
:1007E800E3680133E360A26863689A4200D010BDF1
:1007F80021682069FFF78CFFA368984203D04FF067
:10080800FF33E360F3E70023A360F0E72DE9F84F37
:1008180081460F4615461E46DDF828A00B9A0B4662
:100828004FF0010803E0B3FBF5F308F10108AB4210
:10083800F9D2B04500D2B04612F0010B18D1BAF186
:10084800000F15D012F0020F02D0BEB1202400E034
:100858002024BAF1000F0BD0C24509D90AF1FF3A9A
:1008680021464846FFF7B2FFD9F80C30002BF0DAE2
:10087800D9F80C30002B25DB012404E03024E8E70C
:10088800013E05FB04F4012EFAD8B7FBF4F39D42B0
:10089800F7D900E01C46B7FBF4F304FB1377124AC0
:1008A800D15C4846FFF792FFD9F80C30002B03DBE8
:1008B800B4FBF5F3AC42EDD2BBF1000F02D0BAF1B4
:1008C800000F01D1BDE8F88FBAF1000FFAD0C24588
:1008D800F8D90AF1FF3A20214846FFF777FFD9F8FF
:1008E8000C30002BF0DAEDE76C6E00082DE9F047CC
:1008F80082B007468846154699460A9EDDF82CA020
:1009080081EAE17CACEBE17C012402E09CFBF5FC94
:1009180001346545FADD4C4500D24C4636B1B8F194
:10092800000F02DB1AF0040F00D0013E1AF0020F8C
:1009380002D0B9F1000F03D01AF0010F00D1AEB9FF
:10094800FB68002B0FDBB8F1000F1CDB1AF0040F5B
:1009580020D1FB68002B06DB0AF00303022B1ED014
:10096800FB68002B2DDA02B0BDE8F087002EE7D037
:10097800A642E5D9013E20213846FFF727FFFB684C
:10098800002BF3DADCE7C8F100082D213846FFF721
:100998001DFFDEE72B213846FFF718FFD9E7B9F12D
:1009A800000FDDD1002EDBD0002ED9D0A642D7D93A
:1009B800013E30213846FFF709FFFB68002BF3DAC8
:1009C800CEE7CDF804A000964B462A464146384665
:1009D800FFF71CFFC7E70000F0B599B006460C46C4
:1009E800154603AB139340231493002315931790D4
:1009F80016938BE00020012211E040F00100013441
:100A08000CE040F00200013408E040F0040001343A
:100A180004E040F00800013400E0002212B323781B
:100A2800233B0D2BF9D801A151F823F01B0A00082C
:100A3800230A0008230A0008230A0008230A0008DA
:100A4800230A0008230A0008230A0008130A0008DA
:100A5800230A0008030A0008230A0008230A0008DA
:100A68000B0A00082378A3F13001C9B2092907D875
:100A7800013402EB820203EB4203A3F13002F1E7F7
:100A88002E2B02D00023217814E00134002306E045
:100A9800013403EB830301EB4301A1F13003217817
:100AA800A1F1300C5FFA8CFCBCF1090FF0D9EAE730
:100AB80014F8011F6C29FBD06829F9D025296DD0BD
:100AC80020D378291ED858291CD35839202919D859
:100AD800DFE801F03D181818181818181818181118
:100AE8002718181818181818181818185718184800
:100AF800183218183D002B681A1D2A60197813A897
:100B0800FFF764FE0134169B002B4CDB14F8011B25
:100B1800002948D025293FF46DAF13A8FFF756FEEA
:100B2800F1E729680F1D2F600968019000920A22D9
:100B380013A8FFF7DBFEE5E729680F1D2F6009689A
:100B4800019000920A2213A8FFF760FEDAE72968ED
:100B58000F1D2F60096801900092102213A8FFF75B
:100B680055FECFE72B681A1D2A601F6817F8011B6E
:100B78000029C7D013A8FFF729FE169B002BF5DA2A
:100B8800C0E72B681A1D2A601968002301930823FF
:100B98000093102213A8FFF739FEB3E7252113A805
:100BA800FFF714FEAEE7169B002B05DD159A32B948
:100BB800159A169B13441693169819B0F0BD03A9FD
:100BC8003046FFF7A5FDF3E70EB400B582B003ABDE
:100BD80053F8041B019301AAFFF7FEFE02B05DF86B
:100BE80004EB03B07047000008B52DED028B4BF6FF
:100BF80080324121022001F0E5FA8021324801F0DB
:100C0800F3F99FED328AB6EE002AF0EE481AB0EEFC
:100C1800481ADFED2F0AB0EE420A2E4800F09AFB80
:100C2800DFED2D8AB6EE002AF0EE481AB0EE481A2B
:100C3800F0EE680AB0EE420A284800F08BFBB6EEE8
:100C4800002AF0EE481AB0EE481AF0EE680AB0EE44
:100C5800420A234800F07EFBB6EE002AF0EE481A5E
:100C6800B0EE481AF0EE680AB0EE420A1D4800F0ED
:100C780071FBB6EE002AF0EE481AB0EE481AF0EE14
:100C8800680AB0EE420A184800F064FBB6EE002A83
:100C9800F0EE481AB0EE481AF0EE680AB0EE420AD2
:100CA800124800F057FBB6EE002AF0EE481AB0EEF4
:100CB800481AF0EE680AB0EE420A0D4800F04AFB06
:100CC800BDEC028B08BD00BF8411002000000000AD
:100CD80000007A44241400200000DC434014002063
:100CE8005C1400207814002094140020B014002014
:100CF800CC140020F8B506460F4600240EE0094D36
:100D0800284600F03BFB630006EBC401AA690A60B1
:100D1800013306EB83031A600134A4B2BC42EEDB54
:100D2800F8BD00BF2414002008B510211248FFF7B1
:100D3800E1FF00231DE0104A02EB8301D1ED007AA8
:100D48009FED0E7A67EE877AFDEEE77A0C4917EE8B
:100D5800900A21F81300581C02EB8002D2ED007AA9
:100D680067EE877AFDEEE77A17EE902A21F81020D1
:100D780002331F2BDFDD08BD0412002000FEFF46F2
:100D88008411002008B54021164801F04DF91021C2
:100D98001548FFF7AFFF002321E0134A02EB830158
:100DA800D1ED007A9FED117A67EE877A03F1200082
:100DB800FDEEE77A0B4917EE90CA21F810C0581CCF
:100DC80002EB8002D2ED007A67EE877A03F1210206
:100DD800FDEEE77A17EE900A21F8120002331F2B76
:100DE800DBDD08BD841100200412002000FEFF4650
:100DF800FEE7000008B5024B986B01F077FC08BDD0
:100E0800E418002008B5024BD86B01F06FFC08BD50
:100E18009C18002008B500F01FF80A4800F01EF8DA
:100E2800094800F01BF8094800F018F80023084AA0
:100E3800136003E0074A0021D1540133FF2BF9D98D
:100E480008BD00BF7C6E0008EC6E0008C46E000888
:100E580084130020841200200020704708B5024641
:100E680002490020FFF7B0FE002008BDC86E000848
:100E78002DE9F04F8DB000240794089409940A9442
:100E88000B940194564B1A6B42F010021A631A6BBA
:100E980002F010020192019A02941A6B42F00402C5
:100EA8001A631A6B02F004020292029A03941A6BF4
:100EB80042F080021A631A6B02F080020392039ACE
:100EC80004941A6B42F001021A631A6B02F00102D1
:100ED8000492049A05941A6B42F002021A631A6B80
:100EE80002F002020592059A06941A6B42F0080273
:100EF8001A631B6B03F008030693069B394E2246C0
:100F08000821304601F070FEDFF8E090012211461A
:100F1800484601F069FEDFF8D88022464FF21001FA
:100F2800404601F061FE08270797012508950994B6
:100F38000A9407A9304601F0C7FC0795089509945B
:100F48000A9407A9484601F0BFFC079702270897AB
:100F580009940A944FF0050ACDF82CA007A9484631
:100F680001F0B2FC07954FF49019CDF82090099440
:100F780007A91D4801F0A8FC0423079308940994C5
:100F8800DFF870B007A9584601F09EFC4FF4806363
:100F98000793089709940A94CDF82CA007A95846F6
:100FA80001F092FC4FF210030793089509940A94F4
:100FB80007A9404601F088FC202307930894099468
:100FC80007A9404601F080FC0797CDF820900994C6
:100FD80007A9304601F078FC0DB0BDE8F08F00BFDE
:100FE80000380240001002400000024000080240A1
:100FF800000C024000040240FCEEC07A17EE903A62
:10100800F8EE677A70EE677A00E01B1A9842FCD314
:101018000138984213D05A1C01EB820292ED007AF3
:1010280001EB8302D2ED006A37EE667A01EB8301A9
:1010380091ED000A67EE277A30EE270A704791EDA6
:10104800007A01EB8302D2ED006A37EE667AEDE7AB
:1010580008B50B480B4B03600B4B436000238360C0
:10106800C3604FF48042026143618361C3610362DC
:1010780002F0BEFD00B908BD00F0D8F8FBE700BFDC
:101088008813002000540040A086010030B589B0C4
:101098000023039304930593069307930268144B64
:1010A8009A4201D009B030BD00250195114C236B3F
:1010B80043F002032363236B03F002030193019BB4
:1010C8004FF410730393122304930123059304230D
:1010D800079303A9084801F0F7FB0295236C43F432
:1010E80000132364236C03F400130293029BD9E7D3
:1010F80000540040003802400004024002680A4BD5
:101108009A4200D0704710B5084A136C23F40013B4
:101118001364074C4021204601F0CCFC4FF40071C9
:10112800204601F0C7FC10BD0054004000380240C2
:101138000004024008B50B480B4B03604FF40072E3
:10114800426000238360C36002614BF680324261D3
:101158008361C361036203F06BF800B908BD00F056
:1011680065F8FBE7DC130020003C004070B58CB04C
:1011780000230793089309930A930B93039304930B
:10118800059306930268254B9A4201D00CB070BDB6
:1011980001230393C52304930223059303A803F0B3
:1011A8000FFF002837D1002400941D4B1A6C42F41D
:1011B80000421A641A6C02F400420092009A0194E8
:1011C8001A6B42F001021A631A6B02F001020192D3
:1011D800019A02941A6B42F004021A631B6B03F023
:1011E80004030293029B102307930226089609948E
:1011F8000A9406250B9507A90A4801F065FB4FF4E8
:10120800A4530793089609940A940B9507A90648CE
:1012180001F05AFBBAE700F009F8C4E7003C0040C7
:1012280000380240000002400008024072B6FEE7A3
:1012380000B595B03022002108A805F081FA0023F6
:10124800039304930593069307930193214A116C22
:1012580041F080511164126C02F080520192019A9F
:1012680002931D4B1A6842F480421A601B6803F40B
:1012780080430293029B012308934FF48033099320
:1012880002230E934FF480020F92082210924FF41B
:10129800A872119212930723139308A803F060FB16
:1012A80098B90F23039302230493002305934FF463
:1012B800A05306934FF480530793052103A803F026
:1012C800B9FD20B915B05DF804FBFFF7AFFFFFF7D4
:1012D800ADFF00BF003802400070004000B583B089
:1012E80001F00AF8FFF7A4FFFFF7C2FDFFF7B0FE11
:1012F800FFF720FF00F082F812490020FFF722FADA
:10130800002400942346224621462046FFF726FA69
:101318000D4D22460D49284604F0DCFC0C492846B0
:1013280004F0EFFC284604F033FDFEF7CDFFFFF78D
:101338005BFCFFF76FFDFEF765FF034804F049FD0E
:10134800F9E700BFCC6E000828010020FD04000862
:101358000400002080ED000ADFED077A60EEA70A9E
:10136800C0ED010A0023836080ED031AC0ED041A62
:1013780080ED052A836170478D7E7F3F10B52DED86
:10138800028B0446D0ED027AF5EEC07AF1EE10FA3F
:1013980028D4B7EE007AF4EEC77AF1EE10FA01DB42
:1013A80077EEC77AC4ED027A94ED008A10494FF4BB
:1013B80080609FED100A27EE800AFFF71DFE28EED9
:1013C800000A84ED060A94ED017ADFED0B7A27EE28
:1013D800277AD4ED027A77EE877AC4ED027ABDECEB
:1013E800028B10BDB7EE007A77EE877AD1E700BF9F
:1013F800F06E000800008044DF6AAE3708B50D487B
:101408000D4B03604FF48273436000238360C36015
:10141800036143614FF400728261C36103624362F6
:1014280083620A23C36203F0C7FE00B908BDFFF751
:10143800FDFEFBE7E81400200030014000B589B04C
:101448000023039304930593069307930268144BB0
:101458009A4202D009B05DF804FB0021019103F51E
:1014680084335A6C42F480525A645A6C02F48052A3
:101478000192019A02911A6B42F001021A631B6BE6
:1014880003F001030293029BE023039302230493D6
:101498000523079303A9034801F016FADAE700BF0A
:1014A800003001400000024000B583B000210091E7
:1014B8000C4B5A6C42F480425A645A6C02F48042D3
:1014C8000092009A01911A6C42F080521A641B6CC7
:1014D80003F080530193019B072000F04DFF03B0F8
:1014E8005DF804FB00380240FEE7FEE7FEE7FEE792
:1014F800FEE770477047704708B500F017FF08BD52
:1015080008B5024802F03DF808BD00BF40150020AC
:10151800034AD2F8883043F47003C2F88830704721
:1015280000ED00E008B5D0F81836022198470020F1
:1015380008BD0020704738B50446D0F8C835DD69C5
:10154800A97869B96978A1B9D4F8C835D86928B132
:1015580005F0E0F8D4F8C8350022DA61002038BD7B
:1015680005F060F8A978204605F072F80023AB7002
:10157800E8E7204605F056F86978204605F068F84F
:1015880000236B70E0E770B584B00446FF230322A4
:10159800012104F0D3FBFF287CD00146204604F04B
:1015A800C3FBD4F8C8551C2005F0ACF8E861D4F8A2
:1015B800C835DD6994F820325A2202FB034393F8B8
:1015C8004A2293F94A32002B50DBEA7094F8203211
:1015D8005A2202FB0343B3F84C32EB8094F82032D2
:1015E8005A2202FB034393F8522293F95232002BFA
:1015F80046DBEA7094F820325A2202FB0343B3F820
:101608005432EB80E978204605F011F8A870297962
:10161800204605F00CF86870EA78A978EB88029300
:101628000226019694F81D32009394F81C32204645
:1016380004F0E8FF2A7969782B890293019694F8D7
:101648001D32009394F81C32204604F0DBFF00267C
:101658002E7032466978204600F00CFA3246A97896
:10166800204600F007FA304604B070BD2A7194F89D
:1016780020325A2202FB0343B3F84C322B81ADE7E8
:101688002A7194F820325A2202FB0343B3F85432E9
:101698002B81B7E70220E7E738B5D0F8C835DD6910
:1016A8000378DBB20B2B01D0002038BD04460023A1
:1016B8002B70697804F0B6FFA978204604F0B2FFD1
:1016C800F2E708B5D0F8C835DA690378DBB20B2B36
:1016D80001D0002008BD517800F07FF980B2F9E709
:1016E800D0F8C835DB691878012801D9012070477E
:1016F8001961DA8201221A7003225A760020704793
:10170800704730B583B00546D0F8C835DC69237E0C
:10171800012B03D0022B18D003B030BDA28AE08879
:1017280082420AD9A378E16801220092024628463B
:1017380004F030FF02232376EEE7A378E168012066
:101748000090284604F026FFF4E7A17800F078F925
:10175800012804D00228DFD101232376DCE7A38AFD
:10176800E288934209D99B1AA382E3681344E36091
:10177800A38A2BB101232376CEE70023A382F7E7C0
:10178800002323762846FFF7BBFFC5E738B5044694
:10179800D0F8C835DD696B7E032B02D0042B08D046
:1017A80038BD6B782A89296904F00AFF04236B760F
:1017B800F6E7697800F044F90128F1D16978204604
:1017C80000F00BF980B2EB8A1A1A002A0ADD2A897E
:1017D800824207D21B1AEB822B6903442B61032335
:1017E8006B76DDE700236B762046FEF75BFDD7E7D7
:1017F80070B50546D0F8C835DE693478012C05D0B7
:10180800022C09D004B10124204670BDFFF779FFEE
:101818002846FFF7BBFFF7E7002104F072FE18B96E
:10182800002333700124EFE70124EDE70368B3F1E7
:10183800A04F00D070472DE9F04788B000250095EB
:101848002B4C236B43F001032363236B03F0010349
:101858000093009B0195236B43F004032363236BE0
:1018680003F004030193019B4FF4C05303934FF01B
:10187800030ACDF818A00227049705954FF00A0926
:10188800CDF81C90DFF8708003A9404601F01CF8E1
:101898004FF4806303931223049301260596CDF831
:1018A80018A0CDF81C9003A9404601F00DF8039646
:1018B80006970496059503A90E4801F005F8636B91
:1018C80043F0800363630295636C43F4804363646D
:1018D800636C03F480430293029B2A46062143204B
:1018E80000F05CFD432000F091FD08B0BDE8F087F2
:1018F80000380240000802400000024008B5D0F855
:10190800000304F052FA08BD08B5D0F8000304F04B
:1019180050FB08BD08B5D0F8000304F05EFB08BD15
:1019280008B5D0F8000304F049FA08BD08B5D0F8A6
:10193800000304F047FA08BD7047000070B506467A
:10194800002211464FF0FF3000F028FD0F4C4FF0F9
:10195800A04323600B23A360002525612562022391
:10196800A361E5610123E360E562C4F80063C6F89A
:101978001446204601F0EFF9204601F0E3FE014647
:10198800304604F00FFA284670BD00BF401500200D
:1019980008B5D0F8140601F09EFE002008BD08B571
:1019A800D0F8140601F0ACFE002008BD08B5D0F848
:1019B800140601F0CCFE012804D0022804D000B19E
:1019C800012008BD0120FCE70220FAE708B5D0F89D
:1019D800140601F0A7FE002008BD08B5D0F81406CB
:1019E80001F0ABFE08BD10B584B0D0F81406BDF800
:1019F800204002949DF81C4001949DF818400094E2
:101A080001F050F9002004B010BD08B5D0F8140654
:101A180001F08FF9002008BD10B584B0D0F8140685
:101A28009DF824400394BDF820400294079C01943B
:101A38009DF81840009401F0E0F9002004B010BDB2
:101A480008B5D0F8140601F072FE08BD08B549B90A
:101A580001221146064801F0C7F8C82000F078FCBA
:101A6800002008BD00220121014801F0BDF8F4E77B
:101A7800000802400A4B2C2000FB013393F83B304E
:101A880033B1074B00FB013383F854200020704723
:101A9800034B2C2000FB013383F85520F6E700BFE9
:101AA8004015002008B500F053FC08BD0020704721
:101AB8000020704708B500F072FA002008BD000049
:101AC80070B564291AD8C1EB0121154B83FB01239A
:101AD800C917C1EB6312D2B2E62A11D9C5B21932BD
:101AE800D4B2224620212846FFF7E4FF06462246C4
:101AF80021212846FFF7DEFF304470BDFF22EDE7C5
:101B0800C5B21932D4B2224620212846FFF7D2FFA7
:101B18000646224621212846FFF7CCFF3044ECE751
:101B28001F85EB512DE9F04107460E46904600F01F
:101B380003FAFCB2012202212046FFF7BBFF05464B
:101B4800731E032B52D8DFE803F00245494D334B8F
:101B5800FA221A70314B1A7804212046FFF7AAFF9F
:101B68000544812205212046FFF7A4FF05440422ED
:101B780006212046FFF79EFF054441463846FFF7F9
:101B88009FFF0544022E35D100220A212046FFF787
:101B980091FF054404220E212046FFF78BFF0544E0
:101BA800002227212046FFF785FF05440F221F2129
:101BB8002046FFF77FFF05440A221A212046FFF737
:101BC80079FF05440A221B212046FFF773FF2844AA
:101BD800BDE8F081114BAF221A70BBE70F4BAA2268
:101BE8001A70B7E70D4B05221A70B3E70B4B0522A5
:101BF8001A70AFE706220F212046FFF75BFF054466
:101C0800002224212046FFF755FF05440022252104
:101C18002046FFF74FFF0544B6E700BF44180020F1
:101C280038B5012914D0C4B2002222212046FFF77A
:101C380041FF0546002223212046FFF73BFF0544CC
:101C48000D4B1A7804212046FFF734FF284438BD8D
:101C5800C4B2FF2204212046FFF72CFF05460122CB
:101C680022212046FFF726FF054401222321204692
:101C7800FFF720FF2844EAE7441800200E4B1B78A2
:101C8800012B01D00020704770B50446C6B2062269
:101C98000E213046FFF70EFF054600212046FFF7CC
:101CA800BFFF05449E2202213046FFF703FF284468
:101CB800014B00221A7070BD2400002038B505467B
:101CC8000121FFF7ADFF044601220221E8B2FFF728
:101CD800F1FE204438BD000070B582B004460026ED
:101CE80001963146FFF79CFF0546019602E0019BED
:101CF80001330193019BFE2BF9D9E4B2074B1A7803
:101D080004212046FFF7D6FE05449E2202212046E4
:101D1800FFF7D0FE284402B070BD00BF4418002071
:101D280038B504460121FFF77BFF0546E4B20422DB
:101D38000E212046FFF7BEFE05449F2202212046C1
:101D4800FFF7B8FE024B01221A70284438BD00BFC5
:101D58002400002008B50139032927D8DFE801F05D
:101D6800020B141DFA220421C0B2FFF7A3FE144B84
:101D7800FA221A7008BDAF220421C0B2FFF79AFEFA
:101D88000F4BAF221A70F5E7AA220421C0B2FFF761
:101D980091FE0B4BAA221A70ECE705220421C0B26F
:101DA800FFF788FE064B05221A70E3E70522042197
:101DB800C0B2FFF77FFE024B05221A70DAE700BFB8
:101DC8004418002008B500F0E9F808BD10B504462D
:101DD80000F0B2F80121E0B200F0E5F800F0F800F8
:101DE80010BD000030B589B0002501951D4C236B4E
:101DF80043F002032363236B03F002030193019B67
:101E08004FF410730393122304930223069305954A
:101E18000423079303A9144800F056FD0295236C88
:101E280043F400132364236C03F400130293029B0E
:101E3800236A43F400132362236A23F40013236202
:101E48002A4629461F2000F0A9FA1F2000F0DEFAD2
:101E58002A462946202000F0A1FA202000F0D6FAD0
:101E680009B030BD003802400004024010B50B48EC
:101E780002F0DAF900B110BD084C094B6360002389
:101E8800A3603323E3604FF480432361054B236051
:101E9800FFF7A8FF204601F0ABFEECE7481800204A
:101EA800A08601000054004008B5034801F07EFFF9
:101EB800FFF7DCFF08BD00BF4818002010B586B04A
:101EC80004468DF817200A4B1B68029301230193DF
:101ED8000DF1170200920A460146064801F080FFFC
:101EE80008B906B010BD2046FFF7DEFFF9E700BFCE
:101EF800580000204818002010B586B004460A464D
:101F080000238DF817300A4B1B68029301230193B5
:101F18000DF1170100910146064802F013F818B9AF
:101F28009DF8170006B010BD2046FFF7BDFFF7E784
:101F38005800002048180020F0B587B00026009609
:101F4800144B1A6B42F008021A631B6B03F0080368
:101F58000093009B10250195012702970223049303
:101F680003960D4C01A9204600F0AEFCFFF77EFF5A
:101F780032462946204600F037FE052000F0E8F9F1
:101F88003A462946204600F02FFE052000F0E0F9E9
:101F980007B0F0BD00380240000C0240704708B599
:101FA800FFF78CFF08BD08B5FFF7A6FF08BD0000C6
:101FB80008B50B4B0B4A1A60D16921F48061D161D5
:101FC80058610022DA619A61DA604FF40071196190
:101FD80059609A60184602F02BF900B1012008BD3B
:101FE800E4180020003C004038B505460C460C4B70
:101FF8001B68DB688AB201469420984768B9B4F533
:10200800003F02D2C4F34F0201E04FF6FF722946A7
:10201800044802F0DBF9002038BD0120FCE700BFCE
:102028008C190020E418002008B50A460146024829
:1020380002F0CCF908BD00BFE418002010B584B048
:10204800FF24002301E00133DBB2072B06D8134A33
:1020580052F823208A42F6D11C46F4E7684603F07A
:1020680059F814F0070F0ED1012300930C4B53F8C5
:10207800243001930B4B53F824300293684602F046
:102088009FFF04B010BD012300934FF481730193A7
:1020980003230293684602F093FFF2E7147F0008D7
:1020A800347F0008547F0008F0B58BB00646002541
:1020B80000953E4C236C43F400432364236C03F4E3
:1020C80000430093009B0195236B43F004032363B3
:1020D800236B03F004030193019B0295236B43F0E8
:1020E80001032363236B03F001030293029B4FF464
:1020F800A053059302230693079508930623099393
:102108002B4F05A9384600F0DFFB1023059305A9DE
:10211800284800F0D9FB0395236B43F0040323639D
:10212800236B03F004030393039B8023059305A902
:10213800384600F0C9FB0495236B43F4001323636E
:10214800236B03F400130493049B32681A4B9A42DE
:1021580009D000220E212F2000F020F92F2000F0B6
:1021680055F90BB0F0BD154C65604022A260E560E2
:102178004FF4806222614FF4006262614FF40052B2
:10218800A261E5614FF400322262042262620322F6
:10219800A262E56225630A4B2360B463A663204606
:1021A80000F03CFA204600F0D3F9D2E700380240AC
:1021B8000008024000000240003C00402C190020AA
:1021C800B86002402DE9F04106460F461446194D05
:1021D800002221462846FFF731FF174B2B6028467F
:1021E80002F02DFA70B12046FFF7E2FE054690B9DD
:1021F800124B9B689420984700F0F800E02806D01E
:10220800012513E000212846FFF74EFFEBE70C4BB2
:102218000A4A1A6000E0012545B9094B1B68D3F842
:10222800008023463A4631469420C0472846BDE8F8
:10223800F08100BFE4180020003C00402800002086
:102248008C19002008B50268034B9A4200D008BDDB
:10225800FEF798FDFBE700BF003C004008B50268A8
:10226800034B9A4200D008BDFEF75EFDFBE700BFB6
:10227800003C0040704708B5FFF7FCFF08BD7047F9
:1022880010B504460268074B9A4204D02268064BF0
:102298009A4203D010BDFEF7ABFDF7E7FFF7EFFF5B
:1022A800F8E700BF003C00400038004010B5044685
:1022B8000E4B1A784FF47A73B3FBF2F30C4A10689A
:1022C800B0FBF3F000F0B0F868B90F2C01D9012089
:1022D8000AE0002221464FF0FF3000F05FF8054B7E
:1022E8001C60002000E0012010BD00BF5C00002041
:1022F800000000206000002008B50B4B1A6842F46B
:1023080000721A601A6842F480621A601A6842F40D
:1023180080721A60032000F02FF80020FFF7C6FF34
:10232800FFF7C2F8002008BD003C0240034A1168CC
:10233800034B1B780B441360704700BF90190020B3
:102348005C000020014B1868704700BF90190020FE
:1023580038B50446FFF7F6FF0546B4F1FF3F02D053
:10236800044B1B781C44FFF7EDFF401BA042FAD337
:1023780038BD00BF5C000020074AD36823F4E0633F
:102388001B041B0C000200F4E060034343F0BF632E
:1023980043F40033D360704700ED00E000B5194BFB
:1023A800DB68C3F30223C3F1070CBCF1040F28BF99
:1023B8004FF0040C03F1040EBEF1060F18D9033BCD
:1023C8004FF0FF3E0EFA0CFC21EA0C0199400EFA80
:1023D80003FE22EA0E020A4300280BDB1201D2B2E6
:1023E80000F1604000F5614080F800235DF804FBCF
:1023F8000023E5E700F00F001201D2B2024B1A5495
:10240800F4E700BF00ED00E014ED00E0002807DB72
:1024180000F01F02400901239340024A42F820308D
:10242800704700BF00E100E00138B0F1807F0BD2B7
:102438004FF0E0235861054AF02182F8231000206C
:10244800986107221A6170470120704700ED00E08B
:1024580030B405682C6824F480242C600468636018
:102468008368402B05D0036899600368DA6030BC44
:10247800704703689A600368D960F8E710B4036886
:10248800D9B210390C4AA2FB014212090B4CA25CCA
:10249800C2655F2909D923F47F7323F0030304334A
:1024A8008365806D5DF8044B704723F47F7323F0D8
:1024B80003038365F5E700BFABAAAAAA747F0008E7
:1024C800836A826992B9012B0AD0022B02D00BB120
:1024D80000207047C36A13F0807F28D1002070471E
:1024E800C36AB3F1C07F24D000207047B2F5005F03
:1024F80009D0022B25D9032B25D1C36A13F0807F7D
:1025080023D100207047032B03D8DFE803F014041D
:10251800140A00207047C36A13F0807F0DD1002091
:102528007047C36AB3F1C07F09D00020704701200B
:102538007047012070470120704701207047012033
:102548007047012070470020704701207047000045
:1025580070B50446FFF7F6FE002C5BD00546022353
:1025680084F83530002384F834302268136823F067
:102578000103136023681A6812F0010F0AD0FFF7ED
:10258800E1FE431B052BF5D920236365032084F85E
:10259800350070BD1A68204911406268A06802437E
:1025A800E06802432069024360690243A06902436C
:1025B800E0690243206A02430A43616A04291ED083
:1025C8001A602668756925F00705636A1D43042BA0
:1025D80007D1A36A1D43E36A1BB12046FFF770FFCA
:1025E80090B975612046FFF749FFE26D3F2393409C
:1025F800836000206065012384F83530C9E7E16A0B
:10260800206B01430A43DBE740236365012084F81C
:102618003500BEE70120BCE73F8010F000282DD030
:1026280038B5054690F83500C0B2022825D02A688A
:10263800136823F0010313602B6800241C602B68C7
:102648005C602B689C602B68DC602B681C612B68C5
:1026580021225A612846FFF711FFEC632C646C6451
:10266800AC64EC642C65EA6D3F23934083606C6531
:1026780085F8354085F83440204638BD012070473C
:1026880038B50446856D90F8340001282BD0012018
:1026980084F8340094F83500C0B2012804D000232F
:1026A80084F83430022038BD022084F83500002038
:1026B80060652046FFF7CCFEE26D3F239340AB6098
:1026C8002268136843F016031360236C23B1226851
:1026D800136843F0080313602268136843F001038A
:1026E80013600020DFE70220DDE70000F0B583B0CB
:1026F800044600230193724B1D68724BA3FB0535FA
:10270800AD0A876D3E68C26D08239340334210D0EE
:1027180003681A6812F0040F0BD01A6822F004023A
:102728001A60C26D08239340BB60436D43F00103F8
:102738004365E26D01239340334209D02268526910
:1027480012F0800F04D0BB60636D43F00203636531
:10275800E26D04239340334209D02268126812F0D4
:10276800020F04D0BB60636D43F004036365E26D40
:1027780010239340334224D02268126812F0080FC5
:102788001FD0BB6023681A6812F4802F0DD01B6815
:1027980013F4002F04D1236C9BB12046984710E016
:1027A800A36C73B1204698470BE01A6812F4807F37
:1027B80003D11A6822F008021A60236C0BB1204674
:1027C8009847E26D20239340334255D0226812681F
:1027D80012F0100F50D0BB6094F83530DBB2052BE7
:1027E8000ED023681A6812F4802F33D01B6813F4B4
:1027F800002F2AD1636C002B3ED0204698473BE03F
:102808002268136823F0160313602268536923F0C3
:1028180080035361236CA3B12268136823F0080373
:102828001360E26D3F239340BB60012384F8353089
:10283800002384F83430236D002B3FD0204698477E
:102848003CE0A36C002BE7D1EBE7E36BA3B1204698
:10285800984711E01A6812F4807F09D11A6822F0AB
:1028680010021A60012384F83530002384F83430CC
:10287800E36B0BB120469847636DFBB1636D13F0B2
:10288800010F17D0052384F835302268136823F028
:1028980001031360019B01330193AB4204D8236801
:1028A8001B6813F0010FF5D1012384F8353000239C
:1028B80084F83430E36C0BB12046984703B0F0BD80
:1028C80000000020B5814E1B00230F2B00F2E98089
:1028D80070B582B065E085684FEA430E032404FAB8
:1028E8000EF425EA0405CC6804FA0EF42C4384603F
:1028F800446824EA02044A68C2F300129A40224358
:1029080042605CE0DC08083450F8242003F0070536
:10291800AD004FF00F0E0EFA05FE22EA0E0E0A6900
:10292800AA4042EA0E0240F824205CE0072200E0B8
:10293800002202FA0EF22A4302345A4D45F82420A6
:10294800594A94686FEA0C0224EA0C054E6816F49A
:10295800801F01D04CEA0405534CA560E46802EAE4
:1029680004054E6816F4001F01D04CEA04054E4CCD
:10297800E560646802EA04054E6816F4003F01D079
:102988004CEA0405484C6560246822404D6815F4FB
:10299800803F01D04CEA0402434C226001330F2BE4
:1029A8007DD801229A400C6804EA020C32EA040439
:1029B800F4D14C6804F00304013C012C8BD94A681B
:1029C80002F00302032A09D0C4685D000322AA406A
:1029D80024EA02048A68AA402243C2604A6802F0D4
:1029E8000302022A8ED004684FEA430E032202FA39
:1029F8000EF224EA02044A6802F0030202FA0EF216
:102A0800224302604A6812F4403FC7D00022019274
:102A1800264A546C44F480445464526C02F4804254
:102A28000192019A9C08A51C1E4A52F8255003F0F1
:102A3800030E4FEA8E0E0F2202FA0EF225EA020565
:102A48001B4A90423FF474AF02F5806290421AD05C
:102A580002F58062904218D002F58062904216D04A
:102A680002F58062904214D002F58062904212D042
:102A780002F58062904210D002F5806290423FF4E5
:102A880055AF082255E7012253E7022251E70322F6
:102A98004FE704224DE705224BE7062249E702B03B
:102AA80070BD704700380140003C014000380240CA
:102AB8000000024000230F2B00F28F80F0B52DE0BC
:102AC800072500E0002505FA0CF5A54269D0046841
:102AD8005D004FF0030C0CFA05FC24EA0C040460BA
:102AE8004FEAD30E0EF1080E50F82E4003F00706F9
:102AF800B6000F25B54024EA050440F82E40C46806
:102B080024EA0C04C460446824EA02024260826831
:102B180022EA0C02826001330F2B5DD801229A4011
:102B280002EA010632EA0104F5D14FEA930E0EF1EA
:102B380002052A4C54F8254003F0030C4FEA8C0C8C
:102B48000F2505FA0CF73C40254DA842BAD005F5EB
:102B58008065A84219D005F58065A84217D005F50B
:102B68008065A84215D005F58065A84213D005F503
:102B78008065A84211D005F58065A8420FD005F5FB
:102B88008065A8429CD008259DE701259BE7022582
:102B980099E7032597E7042595E7052593E7062593
:102BA80091E7104C256825EA06052560656825EA41
:102BB80006056560E56825EA0605E560A56825EA75
:102BC8000605A560054E0EF1020456F8245025EAC4
:102BD800070546F824507AE7F0BD704700380140F1
:102BE80000000240003C01400AB1816170470904BD
:102BF80081617047436901EA030221EA030141EA5E
:102C0800024181617047F8B50668346A04F00F071D
:102C1800C4F34343C4F30A14022B00D0F8BD05469D
:102C2800002CFBD02C2303FB0703596C0029F5D09B
:102C38002C2303FB07031A6D2244DB6C9A4206D946
:102C48002C2303FB0705042385F86030E6E72246BA
:102C5800304602F0F0FB2C2303FB07535A6C224446
:102C68005A641A6D22441A6506EB4716D6F81025E1
:102C7800C2F3C942B3F84030A342CFD1002ACDD025
:102C8800D6F8003523F0804343F00043C6F80035FA
:102C98002C2303FB075393F8542082F0010283F896
:102CA8005420BBE7F0B585B004469DF828509DF840
:102CB8002C60BDF8307090F8F802012837D0012058
:102CC80084F8F8022C2000FB01404FF0000C80F83B
:102CD8003DC080F83830A0F8407080F8391080F88E
:102CE8003F6002F07F0C80F83AC012F0800F16D1D6
:102CF8002C2000FB01404FF0000C80F83BC02C203A
:102D080000FB014080F83C5002970196009520682E
:102D180002F0DBFC002384F8F83205B0F0BD2C206B
:102D280000FB01404FF0010C80F83BC0E7E70220B0
:102D3800F3E790F8F832012B0BD010B504460123C5
:102D480080F8F832006802F058FD002084F8F80294
:102D580010BD0220704700284DD070B58AB00446D7
:102D6800056890F8F932002B40D0032384F8F93233
:102D7800EB6B13F4807F01D100232361206802F0FC
:102D8800EEFAA4465CF8106BEE46BCE80F00AEE81D
:102D98000F00BCE80F00AEE80F009CE803008EE8C7
:102DA8000300251D95E80E00304602F08DFA01213A
:102DB800206802F06BFBA4465CF8106BEE46BCE89A
:102DC8000F00AEE80F00BCE80F00AEE80F009CE86B
:102DD80003008EE8030095E80E00304602F088FBF9
:102DE800012384F8F93200200AB070BD80F8F83267
:102DF800FEF71CFDB9E70120704770B59DF810502B
:102E0800BDF818604FF02C0C0CFB010C8CF83B2023
:102E18008CF83F307DB964464FF0030C84F842C00B
:102E28009DF81CC084F83DC0032B00F28180DFE8C8
:102E380003F00A7929512C2404FB01044FF0020CF9
:102E480084F842C0F0E7012D72D1002A70D12EB962
:102E58002C2303FB0103012283F855202C2303FBB9
:102E6800010393F8553033B92C2303FB01030022E7
:102E780083F842205CE02C2303FB0103022283F841
:102E8800422055E092B92C2303FB010393F85530F7
:102E98002BB92C2303FB010383F8422048E02C23A1
:102EA80003FB0103022283F8422041E02C2303FBA9
:102EB800010393F8543033B92C2303FB0103002298
:102EC80083F8422034E02C2303FB0103022283F819
:102ED80042202DE092B92C2303FB010393F85530CF
:102EE8002BB92C2303FB010383F8422020E02C2379
:102EF80003FB0103022283F8422019E02C2303FB81
:102F0800010393F8543033B92C2303FB0103002247
:102F180083F842200CE02C2303FB0103022283F8F0
:102F2800422005E02C2303FB0103002283F8422002
:102F38002C2301FB03F3C218059C5464D6640024B7
:102F480082F86040146582F8391082F8614003F114
:102F58003801027C0144006802F0D4FC70BD30B531
:102F680083B004460568D5F840340193D5F8403459
:102F78000093009B23F02E030093019B13F0020F94
:102F880007D0019B13F0010F25D1009B43F00203EA
:102F98000093019B13F0080F10D0009B43F0080327
:102FA8000093019B13F0040F2DD0A369022B15D0B9
:102FB800E368012B22D02046FEF7B2FC019B13F0F8
:102FC800200F03D0009B43F020030093009BC5F81B
:102FD800403403B030BDFEF797FCD6E7019B03F4FD
:102FE800C023B3F5802F04D00121206802F0FCFA39
:102FF800E1E70221206802F0F7FADCE74EF66022EA
:10300800C5F80424D7E72046FEF790FCD6E7F8B5C4
:1030180004460E46076807EB411707F5A065AB683D
:1030280013F0040F0AD1AB6813F4807F49D1AB6861
:1030380013F0200F52D02023AB600AE00423AB60CA
:103048002C2303FB0103062283F86120006802F0A9
:10305800D4FBAB6813F4007F71D1AB6813F0010F98
:1030680000F09D80236943B12C2303FB06439A6C2F
:103078002969C1F31201521A1A652C2303FB06436E
:10308800012283F861200021D965AA6093F83F30B6
:10309800002B5CD0022B5AD0032B01D0012B5CD122
:1030A800D7F8003543F00053C7F800352C2303FB4D
:1030B8000643012283F8602031462046FEF73CFC97
:1030C8004BE04FF48073AB602C2303FB0103072212
:1030D80083F86120006802F090FBBAE7AB6813F050
:1030E800080F13D1AB6813F4806F1BD1AB6813F0D2
:1030F800800FAED08023AB602C2303FB0103062294
:1031080083F86120006802F078FBA2E70823AB602F
:103118002C2303FB0103052283F86120006802F0D9
:103128006CFB96E74FF48063AB602C2303FB010331
:10313800082283F86120006802F05FFB89E73146C6
:10314800206802F05AFB4FF40073AB60F8BD3146BB
:10315800206802F052FB1023AB602369012B09D0D1
:103168002C2303FB064393F8542082F0010283F8D2
:103178005420EBE72C2303FB06439A6CB3F840304A
:10318800B2FBF3F313F0010FE0D02C2303FB06434B
:1031980093F8542082F0010283F85420D6E7AB68F4
:1031A80013F0020F5ED02C2303FB064393F8613023
:1031B800012B07D0033B052B0AD8DFE803F03A09B7
:1031C800151C491C2C2303FB0643012283F86020AD
:1031D8000223AB602C2303FB064393F8602031469F
:1031E8002046FEF7A9FBB1E72C2303FB0643052283
:1031F80083F86020ECE72C2202FB0642D36D0133F2
:10320800D365022B06D913460022DA65042283F817
:103218006020DDE72C2303FB0643022283F86020AD
:10322800D7F8003523F0804343F00043C7F8003552
:10323800CEE72C2303FB0643022283F86020D7F84D
:10324800003523F0804343F00043C7F80035BFE75B
:103258002C2303FB0643DA6D0132DA65042283F876
:103268006020B5E7AB6813F0100F3FF46FAF2C2365
:1032780003FB064393F83F30032B0CD00BB1022B12
:1032880006D12C2303FB06430022DA65236963B1C8
:103298001023AB605AE72C2303FB06430022DA65B0
:1032A8003146206802F0A9FAF2E72C2303FB064313
:1032B800032283F861203146206802F09EFAE7E78E
:1032C80038B5036803EB411202F5A065AC6814F049
:1032D800040F19D1AC6814F0200F21D02023AB6063
:1032E8002C2303FB010393F83D30012B17D12C232A
:1032F80003FB0103002283F83D20022283F86020AB
:10330800006802F07AFA0AE00423AB602C2303FB7E
:103318000103062283F86120006802F06EFA38BDC6
:10332800AC6814F4007F1FD1AC6814F0010F22D0F0
:103338002C2303FB01030022DA65AB6813F0400F6E
:1033480007D02C2303FB0103012283F83D204023EF
:10335800AB600122AA602C2303FB010383F86120E0
:10336800006802F04AFADAE74FF40073AB600068CD
:1033780002F043FAD3E7AC6814F0400F24D1AC68EC
:1033880014F0080F31D1AC6814F0100F39D02C228A
:1033980002FB01020024D465032482F8614092F8FC
:1033A8003D205AB92C2202FB010292F83C202AB98E
:1033B8002C2202FB0102012082F83D00184602F08F
:1033C8001CFA1023AB60AAE72C2202FB010204209E
:1033D80082F86100012082F83D000020D06518467F
:1033E80002F00BFA4023AB6099E70823AB602C236B
:1033F80003FB0103052283F86120006802F0FDF950
:103408008DE7AC6814F0800F25D0026982B12C22B8
:1034180002FB0102D36D0133D365022B12D82C2392
:1034280003FB0103022283F860208023AB6076E768
:103438002C2202FB0102062082F86100184602F0E5
:10344800DCF9F2E713460022DA65042283F86020EB
:10345800FEF772FAE9E7AC6814F4806F13D1AB6831
:1034680013F0020F3FF45BAF2C2303FB010393F827
:103478006130012B14D0033B052B1DD8DFE803F086
:103488004F565D641C642C2202FB0102082082F85E
:103498006100184602F0B1F94FF48063AB603EE773
:1034A8002C2303FB0103012283F8602093F83F30AB
:1034B800023BDBB2934209D90223AB602C2303FB06
:1034C800010393F86020FEF737FA28E7046944B946
:1034D8002C2303FB010393F8552082F0010283F8A3
:1034E8005520012CE8D12C2303FB0103DB6C002BB6
:1034F800E2D02C2202FB0102B2F840201344013B27
:10350800B3FBF2F313F0010FD6D02C2303FB010316
:1035180093F8552082F0010283F85520CCE72C233C
:1035280003FB0103022283F86020C5E72C2303FB79
:103538000103022283F86020BEE72C2303FB01036A
:10354800052283F86020B7E72C2404FB0104E36D0F
:103558000133E365022B05D90022E265042284F8D1
:103568006020A9E72C2303FB0103022483F86040B1
:10357800D2F8003523F0804343F00043C2F8003509
:103588009AE7F8B504460568284601F07BFF01284C
:1035980000D0F8BD206801F071FF0028F9D020683C
:1035A80001F06CFF10F4001F03D023684FF40012E1
:1035B8005A61206801F062FF10F4801F03D023686D
:1035C8004FF480125A61206801F058FF10F0806FA4
:1035D80003D023684FF080625A61206801F04EFFE3
:1035E80010F0020F02D0236802225A61206801F00D
:1035F80045FF10F0005F08D023684FF000525A6171
:10360800D5F8403413F0010F1DD0206801F036FFC3
:1036180010F0807F26D1206801F030FF10F0080FED
:1036280024D1206801F02AFF10F0100F25D120685E
:1036380001F024FF10F0007FABD0206802F0D8F82A
:10364800074600262CE01021284601F08FFE284668
:1036580001F0B4FE0121206801F0C6FF2046FEF704
:1036680059F9D2E72046FFF77AFCD4E72046FEF75F
:1036780045F9236808225A61D3E72268936923F041
:10368800100393612046FFF7BEFA2268936943F05E
:1036980010039361CBE7F1B22046FFF711FE013624
:1036A800A368B34212D906F00F0327FA03F313F005
:1036B800010FF4D005EB4613D3F8003513F4004F8F
:1036C800E9D0F1B22046FFF7A2FCE8E723684FF003
:1036D80000725A615DE790F8F832012B0ED010B5F0
:1036E8000446012180F8F812006801F0BBFF206849
:1036F80001F02FFE002084F8F80210BD0220704768
:1037080090F8F832012B0BD010B50446012380F84D
:10371800F832006802F0AAF9002084F8F80210BD17
:103728000220704708B5006801F07DFF08BD2C2312
:1037380003FB010090F8600070472C2303FB010095
:10374800006D704708B5006801F0BAFF08BD08B5FC
:10375800006801F0AAFF08BD03685A6912F4806F77
:1037680001D1002070476FF480625A61002303631F
:10377800202280F83D2080F83E30026C42F004029E
:10378800026480F83C30012070472DE9F04107467B
:103798000D4690461E4624E0FEF7D4FD069BC01A4F
:1037A800B04200D8EEB900233B63202287F83D20C1
:1037B80087F83E303A6C42F020023A6487F83C3091
:1037C80001201EE03B689C6925EA040C1FFA8CFC6A
:1037D800BCFA8CFC4FEA5C1CE04511D1B6F1FF3F06
:1037E800DAD1C5F30743012BECD13B685B6925EAC5
:1037F800030C1FFA8CFCBCFA8CFC4FEA5C1CEBE750
:103808000020BDE8F0812DE9F04105460E46174637
:1038180098463DE01A6842F400721A602B686FF40B
:1038280080625A6100232B63202285F83D2085F8A9
:103838003E302A6C42F004022A6485F83C300120AC
:1038480034E0FEF77FFDA0EB0800B84200D8FFB9CE
:1038580000232B63202285F83D2085F83E302A6C12
:1038680042F020022A6485F83C3001201EE02B68D3
:103878009C6926EA0404A4B2003C18BF0124A4B140
:103888002B685A6912F4806FC4D1B7F1FF3FD8D1C1
:10389800C6F30743012BEAD12B685C6926EA0404C6
:1038A800A4B2003C18BF0124E9E70020BDE8F0817C
:1038B80070B504460D46164623685B6913F0800F01
:1038C8001CD12046FFF748FFD0B9B5F1FF3FF3D030
:1038D800FEF738FD801BA84201D8002DECD100234B
:1038E8002363202284F83D2084F83E30226C42F085
:1038F8002002226484F83C30012000E0002070BDE2
:103908000120FCE72DE9F04385B004460D469146B9
:103918001F46DDF830800D9E0368196841F48071F8
:1039280019600096434600224FF00111FFF72DFF62
:1039380060B9236805F0FE051D61334642462649F5
:103948002046FFF760FF68B1012008E023681B6884
:1039580013F4807F02D04FF400732364032005B072
:10396800BDE8F0830023039323685A6903929B6997
:103978000393039B324641462046FFF799FF30B92F
:10398800012F0FD123685FFA89F61E61E7E7236CE0
:10399800042B01D00120E2E72268136843F4007386
:1039A8001360F7E723684FEA19221A613246414645
:1039B8002046FFF77DFF20B923685FFA89F61E616C
:1039C800CDE7236C042B01D00120C8E722681368D7
:1039D80043F400731360F7E7020001002DE9F04794
:1039E80084B004460D46164699460C9FDDF834808F
:1039F8000268136843F4806313600368196841F42C
:103A080080711960CDF800803B4600224FF001110B
:103A1800FFF7BBFE70B95FFA85FA236805F0FE056B
:103A28001D6143463A4641492046FFF7ECFE68B11E
:103A3800012008E023681B6813F4807F02D04FF44C
:103A480000732364032004B0BDE8F08700230393C8
:103A580023685A6903929B690393039B424639463C
:103A68002046FFF725FF80B9B9F1010F18D1236867
:103A7800F6B21E61424639462046FFF719FF68B381
:103A8800236C042B24D00120DDE7236C042B01D008
:103A98000120D8E72268136843F400731360F7E73E
:103AA8002368320A1A61424639462046FFF700FF6A
:103AB80018B92368F6B21E61DCE7236C042B01D029
:103AC8000120C0E72268136843F400731360F7E726
:103AD8002268136843F400731360D4E722681368FC
:103AE80043F480731360CDF800803B4600224FF00A
:103AF80001112046FFF749FE68B922684AF0010320
:103B0800136143463A4609492046FFF77CFE0028E0
:103B180099D0012097E723681B6813F4807F02D0AF
:103B28004FF40073236403208DE700BF02000100F7
:103B380070B504460D46164623685B6913F0040FFA
:103B48001CD12046FFF708FED0B9B5F1FF3FF3D0EE
:103B5800FEF7F8FB801BA84201D8002DECD100230A
:103B68002363202284F83D2084F83E30226C42F002
:103B78002002226484F83C30012000E0002070BD5F
:103B88000120FCE770B505460C4616462B685969B6
:103B980011F0400F29D1596911F0100F15D1FEF716
:103BA800D1FB801BA04201D8002CEFD100232B634E
:103BB800202285F83D2085F83E302A6C42F020020C
:103BC8002A6485F83C30012070BD6FF010025A61FC
:103BD80000232B63202285F83D2085F83E302A6C8F
:103BE8002A6485F83C300120EEE70020ECE700006D
:103BF800002800F0CC8070B5044690F83D30002BCA
:103C080077D0242384F83D302268136823F0010319
:103C180013602268136843F4004313602268136832
:103C280023F40043136001F0BBF962685A4B9A42CF
:103C380064D85A4B98428CBF00230123002B40F0D4
:103C4800A8805749A1FB00318B0C25686A6822F0CF
:103C58003F0242EA91426A6021680A6A22F03F0202
:103C680066684D4DAE424FD8013313430B6221684D
:103C7800CA6922F44F4222F0FF026568464B9D4212
:103C88004CD8431E6D00B3FBF5F3013340F6FC70CE
:103C9800034278D0C3F30B031A43CA6121680B6847
:103CA80023F0C003E269206A024313430B602168D2
:103CB8008B6823F4034323F0FF032269E06802437F
:103CC80013438B602168CB6823F0FF036269A06906
:103CD80002431343CB602268136843F00103136067
:103CE80000202064202384F83D30206384F83E00BF
:103CF80070BD80F83C30FDF7C9F982E7294B98423E
:103D08008CBF0023012399E74FF4967505FB03F355
:103D1800254DA5FB03539B090133A6E7A668BEB949
:103D2800431E05EB450CB3FBFCF30133C3F30B0354
:103D3800B3FA83F35B0943BBC6B9431E05EB4505DC
:103D4800B3FBF5F30133C3F30B0343F40043A3E7D9
:103D5800431E05EB850C0CEB8C0CB3FBFCF3013319
:103D6800C3F30B03B3FA83F35B09E4E7431E05EBE4
:103D7800850505EB8505B3FBF5F30133C3F30B03A9
:103D880043F4404388E7042386E7012384E70120BE
:103D980070470120ACE700BFA08601007F841E00A9
:103DA80083DE1B43FF083D00D34D6210A8B110B558
:103DB8000446242380F83D300268136823F0010389
:103DC8001360FDF79BF90020206484F83D00206310
:103DD80084F83E0084F83C0010BD012070470000C4
:103DE8002DE9F04383B004460F46904699460C9E51
:103DF800FEF7A8FA054694F83D00C0B2202803D083
:103E0800022003B0BDE8F0830095192301224B4935
:103E18002046FFF7BAFC002840F0898094F83C302F
:103E2800012B00F08680012384F83C3023681A684F
:103E380012F0010F03D11A6842F001021A602268D9
:103E4800136823F400631360212384F83D30402372
:103E580084F83E30002323640A9B6362BDF82C304B
:103E68006385638D2385364BE362019500964B4647
:103E7800424639462046FFF745FD00285BD1238D91
:103E8800002B35D02A4631462046FFF711FD20BBCE
:103E9800626A236812781A61626A531C6362218D10
:103EA800013989B22185638D9BB2013B9BB2638541
:103EB8002368586910F0040FE1D00029DFD0527848
:103EC8001A61636A01336362238D013B2385638D25
:103ED8009BB2013B9BB26385D1E7236C042B01D0D5
:103EE80001208EE72268136843F400731360F7E734
:103EF8002A4631462046FFF71BFE50B1236C042B9F
:103F080001D001207DE72268136843F40073136031
:103F1800F7E72268136843F400731360202384F8DA
:103F28003D30002384F83E3084F83C3069E70220B5
:103F380067E7022065E7012063E700BF0200100081
:103F48000000FFFF2DE9F04387B004460F46904676
:103F58009946109EFEF7F6F9054694F83D00C0B262
:103F6800202804D00227384607B0BDE8F083009522
:103F78001923012288492046FFF707FC002840F052
:103F8800438194F83C30012B00F04081012384F8F0
:103F98003C3023681A6812F0010F03D11A6842F006
:103FA80001021A602268136823F400631360222355
:103FB80084F83D30402384F83E30002323640E9B70
:103FC8006362BDF83C306385638D2385734BE36280
:103FD800019500964B46424639462046FFF7FEFCBF
:103FE8000746002840F01481238D5BB902932368AB
:103FF8005A6902929A690292029A1A6842F4007205
:104008001A6075E0012B0AD0022B1AD00023059301
:1040180023685A6905929B690593059B68E02268A5
:10402800136823F4806313600023039323685A6999
:1040380003929A690392039A1A6842F400721A600A
:1040480056E02268136823F48063136022681368BB
:1040580043F4006313600023049323685A690492AD
:104068009B690493049B43E02A4631462046FFF7A8
:1040780089FD002840F0CE8023681A69636A1A70A7
:10408800636A01336362238D013B2385638D9BB291
:10409800013B9BB263852BE00095334600224049E3
:1040A8002046FFF772FB002840F0B68022681368AC
:1040B80043F40073136023681A69636A1A70626AAA
:1040C800531C6362238D013B2385638D9BB2013BA7
:1040D8009BB2638523681B695370636A013363620B
:1040E800238D013B2385638D9BB2013B9BB2638586
:1040F800238D002B7FD0032B54D8012BB4D0022B57
:10410800CAD000953346002225492046FFF73DFBDB
:10411800002840F083802268136823F480631360CA
:1041280023681A69636A1A70636A01336362238DAC
:10413800013B2385638D9BB2013B9BB26385009550
:104148003346002216492046FFF71FFB002867D197
:104158002268136843F40073136023681A69636A5A
:104168001A70626A531C6362238D013B2385638D39
:104178009BB2013B9BB2638523681B695370636ADA
:1041880001336362238D013B2385638D9BB2013B21
:104198009BB26385ACE700BF020010000000FFFF80
:1041A800040001002A4631462046FFF7EBFC0028B0
:1041B80038D123681A69636A1A70626A531C636289
:1041C800238D013B2385638D9BB2013B9BB26385A5
:1041D8002368596911F0040F8AD01B695370636A08
:1041E80001336362238D013B2385638D9BB2013BC1
:1041F8009BB263857CE7202384F83D30002384F854
:104208003E3084F83C30AEE60227ACE60227AAE648
:104218000127A8E60127A6E60127A4E60127A2E6CA
:104228000127A0E601279EE690F83D0070470000B0
:10423800002800F0BF8038B5044690F84130002BC4
:1042480051D0022284F841202168CB6923F47B6392
:1042580023F00F03CB6123681A626369934263D02A
:10426800E368002B46D11025A368202B00D86D00E9
:10427800012000F067FF2369B3F5007F3CD0B0FB55
:10428800F5F000EB800043006269B3FBF2F30533FD
:10429800494AA2FB0323C3F3C002C2EBD3035B0862
:1042A80011029A1EFD2A41D822690A4321681A433D
:1042B8000A622168CB6923F47B6323F00F036268E9
:1042C800A0680243E0680243A0690243134343F431
:1042D8000063CB61236A012B2ED000206064012388
:1042E80084F8413038BD80F84030344B4363FCF7E4
:1042F8003DFFA6E72025B7E7E36853B1AD00B0FB63
:10430800F5F000EB800043006269B3FBF2F305337C
:10431800BEE7ED00B0FBF5F000EB800043006269FA
:10432800B3FBF2F30533B3E70021BAE7636C43F05C
:10433800100363640120D5E7214B63632268214B96
:104348009A421FD04FF04022D36923F47B6323F0B5
:104358000F03D36122681B4B9A4215D04FF04023BC
:1043680002221A622268174B9A4210D04FF0402559
:10437800EB699BB26268B2F5007F0AD0C2B94FF40C
:10438800807008E0104ADFE7A3F58063E8E70E4D88
:10439800EEE74FF48070B4F808C0A189228B40EA98
:1043A8000C0001430A43134343F40063EB6194E7B1
:1043B8000020F0E701207047CDCCCCCC4F45000859
:1043C80091470008003800400034004000295ED0C2
:1043D80038B50446002A5CD094F84030DBB2012B93
:1043E80059D0012384F8403094F84150EDB29D42F1
:1043F80010D1032384F84130002363646162236889
:10440800DB6903F00703032B09D0052B07D02285AE
:10441800628508E0002384F8403002203AE0520028
:1044280092B222856285A36B1C4A1A64A36B1C4A4C
:10443800DA63A36B1B4ADA642268238D9BB20C32C1
:10444800616AA06BFEF71CF9A8B92368DA6912F44F
:10445800806F03D1DA6942F48062DA6123685A68AE
:1044680012F0020F03D15A6842F002025A60002388
:1044780084F840300EE0636C43F008036364012362
:1044880084F84130002384F84030284602E00120B7
:104498007047012038BD0220FCE700BFB144000886
:1044A800F34400081F46000808B5806BFDF7D6FEE8
:1044B80008BD08B5426A03681288DA60436A0233A5
:1044C8004362438D9BB2013B9BB24385438D9BB2B4
:1044D80003B108BD0268536823F0A00353600123A9
:1044E80080F84130FDF7AEFEF3E708B50346806B70
:1044F800DB694BB90268536823F002035360002359
:104508004385012380F84130FDF79CFE08BD08B5BE
:104518000368DA68C36A1A80C36A0233C362438EC7
:104528009BB2013B9BB24386438E9BB203B108BD4D
:104538000268536823F060035360012380F8413018
:10454800FDF799FEF3E710B584B004460268936856
:10455800039390F84130DBB2042B06D094F8413035
:10456800DBB2032B2CD004B010BD039B13F0010F5A
:1045780003D0536813F0400F1FD1039B13F0400F73
:10458800ECD023685A6812F0200FE7D05A6822F05E
:1045980060025A60002301932368DA6801929B68DD
:1045A8000193019B012384F84130636C43F00203BB
:1045B80063642046FDF764FED0E7FFF7A8FFDCE759
:1045C800039B13F0020F04D023685B6813F0800F7D
:1045D8001DD1039B13F0080FC5D023685A6812F049
:1045E800200FC0D05A6822F0A0025A60002302931C
:1045F80023689B680293029B012384F84130636C13
:1046080043F0040363642046FDF73AFEABE7204617
:10461800FFF74FFFDDE708B5806B0268536823F0AA
:1046280003035360002343854386012380F8413008
:10463800436C43F008034364FDF722FE08BD90F87D
:1046480041007047704708B5436A9A1C4262026885
:104658001B88D360438D9BB2013B9BB24385438D3E
:104668009BB23BB90268536823F0A0035360438EA2
:104678009BB203B108BD012380F84130FFF7E2FF88
:10468800F8E7000008B50268154B9A421CD04FF0B5
:104698004023DA68C36A991CC1621A80438E9BB2B0
:1046A800013B9BB24386438E9BB263B902680C4BB5
:1046B8009A420CD04FF04022536823F060035360B5
:1046C800438D9BB22BB108BDA3F58063E1E7054A92
:1046D800F2E7012380F84130FFF7B4FFF3E700BFAA
:1046E800003800400034004008B5436A9A1C426212
:1046F8001A880168134B994218D04FF04023DA60AA
:10470800438D9BB2013B9BB24385438D9BB263B9FA
:1047180002680C4B9A420CD04FF04022536823F0A9
:10472800A0035360438E9BB22BB108BDA3F58063F1
:10473800E5E7054AF2E7012380F84130FFF782FFF9
:10474800F3E700BF003800400034004008B50368B4
:10475800DA68C36A991CC1621A80438E9BB2013B16
:104768009BB24386438E9BB23BB90268536823F0E1
:1047780060035360438D9BB203B108BD012380F8E9
:104788004130FFF75FFFF8E710B586B004460368CD
:104798009A680592704A93426FD04FF04022916810
:1047A80004915B680393536802936368B3F5007FD1
:1047B80001D0002B70D1059B13F0020F03D0039B8F
:1047C80013F0800F5CD1049B13F0010F03D0029B00
:1047D80013F0400F58D1049B13F0400F24D0029BD4
:1047E80013F0200F20D022685B4B9A4250D04FF034
:1047F8004022536823F0600353602268536823F013
:10480800A0035360002300932368DA6800929B6832
:104818000093009B012384F84130636C43F002034A
:1048280063642046FDF72CFD059B13F0080F22D08A
:10483800039B13F0200F1ED02268536823F0A003B7
:1048480053602268444B9A4224D04FF04022536868
:1048580023F0600353600023019323689B6801934E
:10486800019B012384F84130636C43F004036364C3
:104878002046FDF705FD06B010BDA2F580628EE763
:104888002046FFF7E0FE9EE72046FFF7FBFEA2E783
:10489800324AAEE7314ADAE7049B13F0020F03D03D
:1048A800029B13F0800F4AD1059B13F0010F03D030
:1048B800039B13F0400F46D1059B13F0400F1CD00B
:1048C800039B13F0200F18D02268536823F060036D
:1048D80053602268204B9A4239D04FF040225368E7
:1048E80023F0A0035360012384F84130636C43F044
:1048F800020363642046FDF7C3FC049B13F0080F12
:10490800B9D0029B13F0200FB5D02268124B9A42FF
:104918001FD04FF04022536823F0A0035360226851
:10492800536823F060035360012384F84130636CBB
:1049380043F0040363642046FDF7A2FC9BE720468E
:10494800FFF7D2FEB0E72046FFF700FFB4E7034ABF
:10495800C5E7024ADFE700BF0038004000340040E6
:10496800002800F0E08170B582B00446036813F0B7
:10497800010F3BD09F4B9B6803F00C03042B2CD0FA
:104988009C4B9B6803F00C03082B21D06368B3F59C
:10499800803F4FD0B3F5A02F52D0964B1A6822F41F
:1049A80080321A601A6822F480221A606368002B29
:1049B80050D0FDF7C7FC05468E4B1B6813F4003F2B
:1049C80014D1FDF7BFFC401B6428F5D90320B1E1E1
:1049D800884B5B6813F4800FD8D0864B1B6813F4A0
:1049E800003F03D06368002B00F09F81236813F019
:1049F800020F54D07F4B9B6813F00C0F3ED07D4BB9
:104A08009B6803F00C03082B33D0E368002B68D0B5
:104A1800794B01221A60FDF795FC0546754B1B681A
:104A280013F0020F54D1FDF78DFC401B0228F5D975
:104A380003207FE16F4A136843F480331360B5E7BE
:104A48006C4B1A6842F480221A601A6842F4803269
:104A58001A60ABE7FDF776FC0546664B1B6813F456
:104A6800003FC3D0FDF76EFC401B6428F5D9032036
:104A780060E1604B5B6813F4800FC6D15D4B1B6827
:104A880013F0020F03D0E368012B40F05081594A1C
:104A9800136823F0F803216943EAC103136023680C
:104AA80013F0080F42D063696BB3534B0122C3F86C
:104AB800802EFDF747FC05464E4B5B6F13F0020F47
:104AC80034D1FDF73FFC401B0228F5D9032031E122
:104AD800484A136823F0F803216943EAC1031360C5
:104AE800DDE7454B00221A60FDF72CFC0546414BDB
:104AF8001B6813F0020FD2D0FDF724FC401B0228DC
:104B0800F5D9032016E13C4B0022C3F8802EFDF7AF
:104B180019FC0546374B5B6F13F0020F06D0FDF703
:104B280011FC401B0228F5D9032003E1236813F088
:104B3800040F77D02F4B1B6C13F0805F33D1002309
:104B480001932C4B1A6C42F080521A641B6C03F0D0
:104B580080530193019B0125284B1B6813F4807F28
:104B680023D0A368012B34D0052B38D0214B1A6FE2
:104B780022F001021A671A6F22F004021A67A3686A
:104B8800002B3DD0FDF7DEFB06461A4B1B6F13F0DA
:104B9800020F46D1FDF7D6FB801B41F288339842BD
:104BA800F3D90320C6E00025D6E7144A136843F476
:104BB80080731360FDF7C6FB0646104B1B6813F4A1
:104BC800807FCED1FDF7BEFB801B0228F5D90320DC
:104BD800B0E0084A136F43F001031367CFE7054BB2
:104BE8001A6F42F004021A671A6F42F001021A673C
:104BF800C5E700BF0038024000004742007000408F
:104C0800FDF7A0FB0646524B1B6F13F0020F08D0AE
:104C1800FDF798FB801B41F288339842F3D90320B3
:104C280088E0EDB9A369002B00F08380484A9268B8
:104C380002F00C02082A51D0022B17D0454B002253
:104C48001A66FDF77FFB0446414B1B6813F0007F93
:104C580042D0FDF777FB001B0228F5D9032069E055
:104C68003B4A136C23F080531364DBE7394B002273
:104C78001A66FDF767FB0546354B1B6813F0007F86
:104C880006D0FDF75FFB401B0228F5D9032051E051
:104C9800E369226A1343626A43EA8213A26A5208EA
:104CA800013A43EA0243E26A43EA0263284A53604C
:104CB800284B01221A66FDF745FB0446244B1B6866
:104CC80013F0007F06D1FDF73DFB001B0228F5D944
:104CD80003202FE000202DE000202BE0012B2BD01B
:104CE8001B4B5B6803F48001E269914226D103F013
:104CF8003F02216A8A4223D1616A47F6C0721A408C
:104D0800B2EB811F1ED103F44031A26A5208013A66
:104D1800B1EB024F18D103F07063E26AB3EB026F94
:104D280014D1002006E001207047012002E0012094
:104D380000E0002002B070BD0120FBE70120F9E788
:104D48000120F7E70120F5E70120F3E70120F1E76B
:104D5800003802400000474208B5334B9B6803F017
:104D68000C03042B5BD0082B5BD12F4B5A6802F045
:104D78003F025B6813F4800F2CD02B4B5868C0F3AC
:104D880088104FEA401CBCEB000C6EEB0E0E4FEA8D
:104D98008E1343EA9C634FEA8C11B1EB0C0163EB71
:104DA8000E03DB0043EA5173C90011EB000C43F119
:104DB8000003590200234FEA4C2041EADC51FBF77B
:104DC800E7F9194B5B68C3F3014301335B00B0FBA0
:104DD800F3F027E0144B5868C0F388104FEA401CE2
:104DE800BCEB000C6EEB0E0E4FEA8E1343EA9C638D
:104DF8004FEA8C11B1EB0C0163EB0E03DB0043EAC5
:104E08005173C90011EB000C43F100039902002310
:104E18004FEA8C2041EA9C51FBF7BAF9D1E70348E5
:104E280000E0034808BD00BF0038024000127A00C5
:104E38000024F400002800F09B8070B50D4604465D
:104E48004F4B1B6803F007038B4208D2CBB24C4A86
:104E58001370136803F007038B4240F08B802368BC
:104E680013F0020F17D013F0040F04D0454A9368CB
:104E780043F4E0539360236813F0080F04D0414AC9
:104E8800936843F4604393603E4A936823F0F003C9
:104E9800A1680B439360236813F0010F32D0636855
:104EA800012B21D09A1E012A25D9364A126812F000
:104EB800020F61D033498A6822F0030213438B60E2
:104EC800FDF740FA06462F4B9B6803F00C03626817
:104ED800B3EB820F16D0FDF735FA801B41F2883309
:104EE8009842F0D9032042E0264A126812F4003FA3
:104EF800E0D101203BE0234A126812F0007FD9D1AB
:104F0800012034E01E4B1B6803F00703AB4207D9AE
:104F1800EAB21B4B1A701B6803F00703AB422DD192
:104F2800236813F0040F06D0164A936823F4E0535D
:104F3800E1680B439360236813F0080F07D0114A08
:104F4800936823F46043216943EAC1039360FFF740
:104F580003FF0C4B9B68C3F303130B4AD35CD84085
:104F68000A4B18600A4B1868FDF7A0F9002070BDBD
:104F7800012070470120FAE70120F8E70120F6E751
:104F8800003C024000380240F47E00080000002087
:104F980060000020014B1868704700BF0000002027
:104FA80008B5FFF7F7FF044B9B68C3F38223034A56
:104FB800D35CD84008BD00BF00380240047F000819
:104FC80030B583B00446036813F0050F06D1236893
:104FD80013F0020F2ED1002003B030BD4A4B00223F
:104FE8009A66FDF7AFF90546484B1B6813F0006F4A
:104FF80006D0FDF7A7F9431B022BF5D90320EBE7F1
:105008006268A3681B0743EA8213404AC2F88430E7
:105018003D4B01229A66FDF795F905463B4B1B6807
:1050280013F0006FD3D1FDF78DF9431B022BF5D98F
:105038000320D1E700230193344B1A6C42F08052CD
:105048001A641B6C03F080530193019B304A136868
:1050580043F480731360FDF775F905462C4B1B6804
:1050680013F4807F06D1FDF76DF9431B022BF5D9A8
:105078000320B1E7254B1B6F13F4407314D0E2688B
:1050880002F440729A420FD0204B1A6F22F44072F9
:105098001D490120C1F8400E0020C1F8400E1A67D2
:1050A8001B6F13F0010F13D1E36803F44072B2F5DC
:1050B800407F1ED0154A936823F4F8139360134970
:1050C8000B6FE268C2F30B0213430B67002083E700
:1050D800FDF738F905460D4B1B6F13F0020FE3D1AE
:1050E800FDF730F9401B41F288339842F3D9032089
:1050F80072E706498A6822F4F81223F0704323F411
:10510800407313438B60DAE70000474200380240DF
:105118000070004003230360094BD3F88420C2F3D6
:1051280088124260D3F88420C2F3027282609A68BF
:1051380002F4F8121B6F03F440731343C360704703
:1051480000380240012801D000207047164B9B68A8
:1051580013F4000303D0012B23D114487047124BDA
:105168005B6813F4800F14D00F4B5A6802F03F02AB
:105178000F4BB3FBF2F30C4AD2F88400C0F388104B
:1051880003FB00F0D2F88430C3F30273B0FBF3F0F2
:105198007047054B5A6802F03F02064BB3FBF2F327
:1051A800E9E70020704700BF003802400080BB00DC
:1051B80000127A000024F40000285AD010B50446E2
:1051C800436A33B94368B3F5827F05D00023C361CE
:1051D80002E00023036143610023A36294F8513085
:1051E800002B40D0022384F851302268136823F042
:1051F80040031360636803F48273A26802F40442F4
:105208001343E26802F400621343226902F00202C7
:105218001343626902F001021343A26902F40072A7
:105228001343E26902F038021343226A02F0800253
:105238001343A26A02F40052216813430B60638B84
:1052480003F00403626A02F01002216813434B6002
:105258002268D36923F40063D361002060650123C9
:1052680084F8513010BD84F850302046FCF7E6F839
:10527800B8E701207047000082B000230193019B2A
:1052880001330193019A0F4B9A4215D80369002BF9
:10529800F5DA00230193036943F001030361019BDD
:1052A80001330193019A074B9A4208D8036913F016
:1052B800010FF4D1002000E0032002B07047032062
:1052C800FBE700BF400D030084B010B5044603A8F7
:1052D80080E80E00089B012B1FD1A36B23F48033B9
:1052E800A363E36823F4840323F04003E360E368E3
:1052F80023F44013E3600F9B012B09D02046FFF7EE
:10530800BBFF069B012B1BD0BDE8104004B07047C3
:10531800E36843F48013E360F0E7E36843F0400395
:10532800E3602046FFF7A8FF0C9B23B9A36B43F467
:105338008033A363E5E7A36B23F48033A363E0E73B
:10534800A36843F00603A360A36843F02003A360A7
:10535800DAE7836843F001038360002070478368BD
:1053680023F00103836000207047000082B000230F
:105378000193019B01330193019A0F4B9A4215D86F
:105388000369002BF5DA00230193890141F020011C
:105398000161019B01330193019A074B9A4208D896
:1053A800036913F0200FF4D1002000E0032002B0BD
:1053B80070470320FBE700BF400D030082B00023C5
:1053C8000193019B01330193019A0E4B9A4213D822
:1053D8000369002BF5DA0023019310230361019B75
:1053E80001330193019A074B9A4208D8036913F0D5
:1053F800100FF4D1002000E0032002B07047032012
:10540800FBE700BF400D030010B59DF8084084B9C4
:1054180003334FEA930E4FF0000C08E000EB023321
:1054280003F5805351F8044B1C600CF1010CF44552
:10543800F4D3002010BD10B5844608464FEA920EFA
:1054480002F00302002305E00CF58051096840F8DA
:10545800041B01337345F7D37AB10CF5805CDCF893
:1054680000400021CBB2DB0024FA03F300F8013B33
:105478000131013A92B2002AF4D110BD4269806923
:1054880010407047406900F00100704738B5054684
:10549800C36823F0C043C360012913D019BBC36894
:1054A80043F08043C36000240120FCF751FF01341E
:1054B8002846FFF7E7FF08B1312CF5D9322C14D074
:1054C800002038BDC36843F00053C36000240120A6
:1054D800FCF73EFF01342846FFF7D4FF0128EDD042
:1054E800312CF4D9EAE70120EBE70120E9E70000D5
:1054F80084B038B5044605A880E80E000023C4F837
:10550800003EA36B43F40013A363A36B23F40023AF
:10551800A363A36B23F48023A363E36B13F4807F5B
:1055280010D0079B012B06D0D4F8003423F00403D5
:10553800C4F800340CE0D4F8003443F00403C4F891
:10554800003405E0D4F8003423F00403C4F8003430
:1055580010212046FFF70AFF054600B10125204625
:10556800FFF72CFF00B10125002209E004EB4213EC
:105578004FF0FF31C3F808150021C3F80C150132AC
:10558800069B9342F2D80023A3614FF0FF33636177
:10559800E36B13F4807F17D04FF40073636203F159
:1055A8008073A3620D4BC4F80031089B1BB9A36933
:1055B80043F01003A361A269094B1343A361284672
:1055C800BDE8384004B070478023636203F5C00328
:1055D800A362044BC4F80031E7E700BF0003E00012
:1055E800080020A3E000400000F5806CD0F80034EB
:1055F80023F00303C0F80034D0F8003401F00302AC
:105608001343C0F80034012903D0022906D0002032
:1056180070474BF68033CCF80430F8E741F27073EA
:10562800CCF80430F3E730B583B004460025019583
:10563800D0F840340193019B23F02E030193019B82
:1056480043F48073C0F840346420FCF781FE019B6A
:1056580023F48073C4F840340A20FCF779FE284606
:1056680003B030BD82B000230193D0F840340193D9
:10567800019B23F02E030193019B13F4805F01D15A
:1056880001290CD0019B13F4805F05D021B9019B3F
:1056980023F48053C0F84034002002B07047019BC7
:1056A80043F48053C0F84034ECE782B00023019300
:1056B800D0F8403401930198C0F3414002B07047DC
:1056C80000F58060806880B270472DE9F843914604
:1056D8001C469DF8245000EB411606F5A0634FF0D8
:1056E800FF329A60032D75D8DFE805F002660218CC
:1056F80040F29D42DA6019F0800F09D1C26B12F4B2
:10570800807F69D0DA6842F06002DA6000270CE036
:10571800DA6842F48072DA60002706E040F29D629F
:10572800DA6019F0800F41D10027DA6842F00202EE
:10573800DA60D0F8183401F00F0101228A401343CF
:10574800C0F81834836943F00073836119F0800F3F
:1057580044D14FF00008FFF7A8FF9DF82030022B36
:105768003FD00022A30503F0FE534FEAC92909F4EC
:10577800F04943EA0903A90401F440210B43BDF8A9
:105788002810C1F30A010B4343EA08031343C6F880
:105798000035032D01D0012D05D1D6F8003543F091
:1057A8000053C6F800353846BDE8F883DA6842F495
:1057B8008072DA600027B8E740F22522DA6019F033
:1057C800800F01D10027B0E7DA6842F4C072DA60CE
:1057D8000027AAE70127A8E70027A6E74FF4004813
:1057E800B9E7022802D04FF40032BBE70022B9E73C
:1057F80000F58060406980B2704710B483B0002320
:10580800019300EB411101F5A06CD1F80035C3F309
:105818008143D1F80025846814F0200F02D0D20FFC
:10582800002A51D023B3022B22D0D1F8003543F0FF
:105838008043C1F80035D0F8103413F47F0F48D1F5
:10584800D1F8003523F00043C1F80035D1F8003510
:1058580043F00043C1F80035019B01330193019BDC
:10586800B3F57A7F30D8DCF80030002BF4DB2BE07E
:10587800D1F8003543F08043C1F80035836813F050
:10588800200F21D1C36A13F47F0F17D1D1F8003547
:1058980023F00043C1F80035D1F8003543F0004348
:1058A800C1F80035019B01330193019BB3F57A7F61
:1058B8000AD8DCF80030002BF4DB05E0D1F800351D
:1058C80043F00043C1F80035002003B05DF8044BF5
:1058D8007047D1F8003543F00043C1F80035F3E7CD
:1058E80000EB4110064AC0F81025D0F8003523F027
:1058F800804343F00043C0F800350020704700BFE4
:105908000000088030B585B04B78C46B14F4807FF4
:1059180007D00C792CB9012A16D012B94C79012C70
:105928001FD04C690CB30D8904EB050C0CF1FF3C3E
:10593800BCFBF5FC1FFA8CFCBCF5807F17D92D0247
:105948000D614FF4807C12E0CC790CB1022CE4D1CB
:1059580000EB4314D4F80C5525F07005C4F80C5529
:10596800DBE74978FFF7BCFF6FE04FF0010CCD781B
:10597800002D51D00C8904FB0CF40C610C69C4F3A4
:105988001204394D05EACC4C44EA0C0491F80AC0DB
:105998004FEA4C7C0CF0C04C00EB431344EA0C0477
:1059A800C3F8104512B1CC68C3F8144500F58065FA
:1059B800AC6814F0010F0CBF4FF0010C4FF0000C55
:1059C800D3F8004524F00054C3F80045D3F8004547
:1059D80044EA4C74C3F80045D3F800450394039C8B
:1059E80024F080440394CC78C4B1039C44F400446C
:1059F8000394039C44F000440394039CC3F80045BB
:105A08001ABBCB780BBB4B69FBB1CA79032A15D8F3
:105A1800DFE802F0091E091E0C61AFE7039C24F4BD
:105A280000440394E5E70333C26A92B2C3F38F03D9
:105A38009A4203D2836943F02003836100230093D1
:105A48008B8A4A78C968FFF7DFFC002005B030BDB3
:105A580003332A6992B2C3F38F039A42EED2836961
:105A680043F080638361E9E70000F81F30B583B035
:105A7800044600230193FFF772FC10212046FFF72C
:105A880075FC054600B101252046FFF797FC00B1DB
:105A9800012500220AE004EB4211D1F8003523F079
:105AA800802343F08043C1F8003501320F2AF2D930
:105AB800002100E001310F2916D804EB411000F550
:105AC800A062D0F8003523F4004343F04043C0F807
