:020000040800F2
:1000000000000220957603081D2200082122000826
:1000100025220008292200082D22000800000000E7
:100020000000000000000000000000003122000875
:100030003522000800000000392200083D22000897
:10004000E5760308E5760308E5760308E576030818
:10005000E5760308E5760308E5760308E576030808
:10006000E5760308E5760308E5760308E5760308F8
:10007000E5760308E576030811150008E576030820
:10008000E5760308E5760308E5760308E5760308D8
:10009000E5760308E5760308E5760308E5760308C8
:1000A000E5760308E5760308E5760308E5760308B8
:1000B000E5760308E5760308E5760308E5760308A8
:1000C000E5760308E5760308E5760308592200087B
:1000D000E5760308E5760308E5760308E576030888
:1000E000E5760308E5760308E5760308E576030878
:1000F000E5760308E5760308E576030805150008AC
:10010000E5760308E5760308E5760308E576030857
:10011000E5760308E5760308E5760308E576030847
:10012000E5760308E5760308E5760308652200080E
:10013000E5760308E5760308E5760308E576030827
:10014000E5760308E5760308E57603084D22000806
:10015000E5760308E5760308E5760308E576030807
:10016000E5760308E5760308E5760308E5760308F7
:10017000E5760308E5760308E5760308000000004D
:08018000E5760308E5760308AB
:1001880010F8012B11F8013B012A28BF9A42F7D039
:10019800D01A7047034613F8012B002AFBD1181A0E
:1001A8000138704770B54FF0FF0C4CF4E06C1CEA56
:1001B80011541DBF1CEA135594EA0C0F95EA0C0F55
:1001C80000F0DEF82C4481EA030621EA4C5123EAC8
:1001D8004C5350EA013518BF52EA033541F48011F7
:1001E80043F4801338D0A0FB02CE4FF00005E1FBAA
:1001F80002E506F00042E0FB03E54FF00006E1FBF4
:1002080003569CF0000F18BF4EF0010EA4F1FF0436
:10021800B6F5007F64F5407404D25FEA4E0E6D4176
:1002280046EB060642EAC62141EA55514FEAC52087
:1002380040EA5E504FEACE2EB4F1FD0C88BFBCF503
:10024800E06F1ED8BEF1004F08BF5FEA500E50F1B4
:10025800000041EB045170BD06F0004646EA01017A
:1002680040EA020081EA0301B4EB5C04C2BFD4EBAC
:100278000C0541EA045170BD41F480114FF0000EA5
:10028800013C00F3AB8014F1360FDEBF002001F013
:10029800004170BDC4F10004203C35DA0C341BDC8D
:1002A80004F11404C4F1200500FA05F320FA04F05F
:1002B80001FA05F240EA020001F0004221F0004193
:1002C80010EBD37021FA04F642EB06015EEA430E06
:1002D80008BF20EAD37070BDC4F10C04C4F1200536
:1002E80000FA04F320FA05F001FA04F240EA0200E9
:1002F80001F0004110EBD37041F100015EEA430EBA
:1003080008BF20EAD37070BDC4F1200500FA05F2D9
:100318004EEA020E20FA04F301FA05F243EA020358
:1003280021FA04F001F0004121FA04F220EA020067
:1003380000EBD3705EEA430E08BF20EAD37070BDAD
:1003480094F0000F0FD101F00046400041EB01018D
:1003580011F4801F08BF013CF7D041EA060195F06F
:10036800000F18BF704703F00046520043EB030329
:1003780013F4801F08BF013DF7D043EA0603704716
:1003880094EA0C0F0CEA135518BF95EA0C0F0CD021
:1003980050EA410618BF52EA4306D1D181EA030167
:1003A80001F000414FF0000070BD50EA410606BF61
:1003B8001046194652EA430619D094EA0C0F02D1A6
:1003C80050EA013613D195EA0C0F05D152EA0336EB
:1003D8001CBF104619460AD181EA030101F0004109
:1003E80041F0FE4141F470014FF0000070BD41F052
:1003F800FE4141F4780170BD81F0004102E000BF88
:1004080083F0004330B54FEA41044FEA430594EACC
:10041800050F08BF90EA020F1FBF54EA000C55EA07
:10042800020C7FEA645C7FEA655C00F0E2804FEAD8
:100438005454D4EB5555B8BF6D420CDD2C4480EABA
:10044800020281EA030382EA000083EA010180EAEA
:10045800020281EA0303362D88BF30BD11F0004F38
:100468004FEA01314FF4801C4CEA113102D040426E
:1004780061EB410113F0004F4FEA03334CEA1333A9
:1004880002D0524263EB430394EA050F00F0A780C1
:10049800A4F10104D5F1200E0DDB02FA0EFC22FABC
:1004A80005F2801841F1000103FA0EF2801843FAB0
:1004B80005F359410EE0A5F120050EF1200E012AA1
:1004C80003FA0EFC28BF4CF0020C43FA05F3C018DF
:1004D80051EBE37101F0004507D54FF0000EDCF158
:1004E800000C7EEB00006EEB0101B1F5801F1BD301
:1004F800B1F5001F0CD349085FEA30004FEA3C0C05
:1005080004F101044FEA445212F5800F80F09A80FA
:10051800BCF1004F08BF5FEA500C50F1000041EBFE
:10052800045141EA050130BD5FEA4C0C404141EB02
:100538000101013C28BFB1F5801FE9D291F0000FFD
:1005480004BF01460020B1FA81F308BF2033A3F1AC
:100558000B03B3F120020CDA0C3208DD02F1140CA3
:10056800C2F10C0201FA0CF021FA02F10CE002F1DE
:100578001402D8BFC2F1200C01FA02F120FA0CFCD7
:10058800DCBF41EA0C019040E41AA2BF01EB045120
:10059800294330BD6FEA04041F3C1CDA0C340EDC1E
:1005A80004F11404C4F1200220FA04F001FA02F361
:1005B80040EA030021FA04F345EA030130BDC4F11F
:1005C8000C04C4F1200220FA02F001FA04F340EA14
:1005D8000300294630BD21FA04F0294630BD94F0C5
:1005E800000F83F4801306BF81F480110134013DAC
:1005F8004EE77FEA645C18BF7FEA655C29D094EA1D
:10060800050F08BF90EA020F05D054EA000C04BF9A
:100618001946104630BD91EA030F1EBF0021002085
:1006280030BD5FEA545C05D14000494128BF41F024
:10063800004130BD14F580043CBF01F5801130BD88
:1006480001F0004545F0FE4141F470014FF0000013
:1006580030BD7FEA645C1ABF194610467FEA655CC4
:100668001CBF0B46024650EA013406BF52EA033566
:1006780091EA030F41F4002130BD00BF90F0000F54
:1006880004BF0021704730B54FF4806404F1320490
:100698004FF000054FF0000150E700BF90F0000F49
:1006A80004BF0021704730B54FF4806404F1320470
:1006B80010F0004548BF40424FF000013EE700BF40
:1006C80042004FEAE2014FEA31014FEA02701FBFD0
:1006D80012F07F4393F07F4F81F06051704732F002
:1006E8007F4208BF704793F07F4F04BF41F4002159
:1006F800704730B54FF4607401F0004521F00041B7
:100708001CE700BF50EA010208BF704730B54FF040
:1007180000050AE050EA010208BF704730B511F041
:10072800004502D5404261EB41014FF4806404F179
:1007380032045FEA915C3FF4D8AE4FF003025FEAFF
:10074800DC0C18BF03325FEADC0C18BF033202EB83
:10075800DC02C2F1200300FA03FC20FA02F001FADD
:1007680003FE40EA0E0021FA02F11444BDE600BF80
:100778004FF0FF3C06E000BF4FF0010C02E000BF65
:100788004FF0010C4DF804CD4FEA410C7FEA6C5C48
:100798004FEA430C18BF7FEA6C5C1BD001B050EAEB
:1007A800410C0CBF52EA430C91EA030F02BF90EAD6
:1007B800020F0020704710F1000F91EA030F58BF95
:1007C800994208BF90422CBFD8176FEAE37040F0F7
:1007D800010070474FEA410C7FEA6C5C02D150EA95
:1007E800013C07D14FEA430C7FEA6C5CD6D152EA50
:1007F800033CD3D05DF8040B704700BF8446104615
:1008080062468C461946634600E000BF01B5FFF713
:10081800B7FF002848BF10F1000F01BD4DF808EDE3
:10082800FFF7F4FF0CBF012000205DF808FB00BFB4
:100838004DF808EDFFF7EAFF34BF012000205DF80E
:1008480008FB00BF4DF808EDFFF7E0FF94BF01205B
:1008580000205DF808FB00BF4DF808EDFFF7CEFF5C
:1008680094BF012000205DF808FB00BF4DF808ED9B
:10087800FFF7C4FF34BF012000205DF808FB00BF6C
:100888004FEA4102B2F1E04324BFB3F5001CDCF1AA
:10089800FE5C0DD901F0004C4FEAC0024CEA5070E2
:1008A800B2F1004F40EB830008BF20F00100704711
:1008B80011F0804F21D113F13872BCBF01F0004014
:1008C800704741F480114FEA5252C2F11802C2F146
:1008D800200C10FA0CF320FA02F018BF40F00100C7
:1008E8004FEAC1234FEAD32303FA0CFC40EA0C0079
:1008F80023FA02F34FEA4303CCE77FEA625307D1B6
:1009080050EA01331EBF4FF0FE4040F440007047EC
:1009180001F0004040F0FE4040F40000704700BF86
:1009280053B94AB9002908BF00281CBF4FF0FF314E
:100938004FF0FF3000F00CB8ADF1080C6DE904CEB3
:1009480037F03AF8DDF804E0DDE9022304B0704737
:10095800704700BF10B5054C237833B9044B13B169
:100968000448AFF300800123237010BD70310020CC
:1009780000000000887C030808B5034B1BB103493D
:100988000348AFF3008008BD000000007431002068
:10099800887C030838B50446394B3A4ADFF800C169
:1009A80039499FED3A0A2DED088B00206360042534
:1009B8004FF08043C4F814C0E2602361A361206053
:1009C800A5604FF4806000F001FF9FED31AA2E4929
:1009D8009FED309ADFED309AB0EE408A4FF4806098
:1009E800B0EE4A0A00F0F2FEF7EE008A9FED2B7A8D
:1009F800254994ED04BA38EE400AF0EE687AE0EE44
:100A0800077A4FF4806094ED050AC4ED077A20EE6A
:100A1800090A00F0DBFE1C49B0EE408A4FF4806002
:100A2800B0EE490A00F0D2FE38EE400A1649D4ED7D
:100A380005AA20EE290A4FF48060C0EE0B7AB0EECA
:100A48004A0A77EEA87A94ED06AAC4ED087A00F06F
:100A5800BDFE0D49B0EE408A4FF480602AEE890A47
:100A680000F0B4FE38EE400A20EE290AC0EE0A7AF9
:100A780077EEA87ABDEC088BC4ED097A38BD00BFC3
:100A88006666A63F6F12833A000000206666A64499
:100A980017B7D13D00008044C637BE3777C2B93C8E
:100AA8009A99993E034A02604FF07E5100234160B3
:100AB8008360704717B7D1380022032342608360F0
:100AC800704700BF0000000010B58368012B2DEDB2
:100AD800028B044690ED008A07D0032B35D0E3B192
:100AE800B0EE480ABDEC028B10BD90ED087AD0ED4F
:100AF800057A28EE078AB4EEE78AF1EE10FA80ED5F
:100B0800008AEDD8B0EE678AB0EE480ABDEC028BD9
:100B18000223C0ED007A836010BD90ED077A28EEBD
:100B2800078AF7EE007AB4EEE78AF1EE10FA1ADBDC
:100B3800B0EE678AB0EE480ABDEC028B4269C0EDA0
:100B4800007A01234260836010BDD0ED097A28EE57
:100B5800278A18EE100AFFF7B3FD0EA3D3E9002386
:100B6800FFF770FE30B9B0EE480A84ED008ABDEC9C
:100B7800028B10BDDFED067AB0EE678AB0EE480A48
:100B8800BDEC028B0423C4ED007AA36010BD00BF46
:100B9800000000002D431CEBE2361A3F2DE9F0411E
:100BA800B1F90440B1F90650B1F90080B1F9027009
:100BB800ABB21646B9B2A2B21FFA88F002F024FA14
:100BC80011480022042103F01DFF0F4801220221D1
:100BD80003F018FFED1BA4EB0803013301350B4CA0
:100BE80013FB05F35B0031469AB2204606F060FA23
:100BF800A16C91F83530012BDAB2FAD1BDE8F04199
:100C08000148042103F0FEBE00000240805A002083
:100C180038B50C4D0C4C02F099FA0C4A0C494FF4BB
:100C2800C863284626F0B2FF204626F08BFF094B02
:100C3800094A226020466361E560BDE8384026F035
:100C4800B3BF00BF2C4B0020DC4A00205C3E0020D4
:100C5800DC310020A50B00084001F000014827F016
:100C680079B800BFDC4A002010B50B4C2378022B62
:100C780009D0042B00D010BD002323700748BDE81D
:100C8800104001F0A3BB06490448402201F0C2FB12
:100C98000323237010BD00BF884B00208C4B00201D
:100CA800484B0020F8B51A4801F0A6FB032819D9CB
:100CB800184C194FC0F38F00013880B2261D06EB7F
:100CC80080062188A27814F8013C61F3172562F3A5
:100CD8001F6573B963F307052846043400F028F844
:100CE800B442EED1BDE8F8400C490948402201F071
:100CF80091BB63F3070501224FF40041384603F026
:100D080081FE0434284600F013F8B442D9D1E9E74B
:100D18008C4B0020494B0020000C0240484B00201F
:100D2800024B4FF400521A80704700BF2C5200202B
:100D3800F8B5C0F30743C0F30766040EC0F30720F5
:100D480000F0F00090281D4625D0E0281ED080280D
:100D580000D0F8BD384E394B3278013A002452B2EF
:100D6800A2425C55327049DD354E3278AA42F0D144
:100D78001A46234601E0802B57D012F8011B01299F
:100D8800D8B203F10103F6D13070F8BD2D4B05EB55
:100D9800C4121A80F8BD2C4A1670CCB9264F274BBE
:100DA8003A785E55013A52B2002A3A702EDD244E46
:100DB8003278AA42CDD1224601E0802A38D013F8F1
:100DC800011B0129D0B202F10102F6D13070DCE733
:100DD8001B48012203704FF480411C4803F012FEA7
:100DE8001B48FFF75FFE1B48FFF75CFE124A1349DA
:100DF80013780120034448551370F8BD1448FFF7D1
:100E08005BFE1448FFF758FE3470F8BD1048FFF732
:100E180053FE1048FFF750FE22463E700B48BDE8CF
:100E2800F8404FF4804103F0EDBD18463070ACE750
:100E380010463070A9E700BFA8510020AC5100202F
:100E4800894B00202C5200202E520020000C02401A
:100E58008C310020B4310020042906D0052910B5B2
:100E68000B4620D0022908D010BD174B1748012285
:100E78004FF400411A7003F0C5BD134C134823709A
:100E880001224FF4805103F0BDFD104800224FF4B9
:100E9800004103F0B7FDBDE810400C4800224FF4B4
:100EA800804103F0AFBD084B084800224FF4805141
:100EB80004241C7003F0A6FDBDE81040034800227E
:100EC8004FF4004103F09EBD884B0020000C024007
:100ED8002DE9F04F9A4E83B0044608468B46FFF73B
:100EE80059F9327881460AB3EFF311834FF02001A4
:100EF80081F3118804EB440706EBC7070093D7F882
:100F08002C80B8F1010F4FEA440500F0B080B8F129
:100F1800020F6CD0B8F1000F42D04FF00008009BD0
:100F280083F31188404603B0BDE8F08F02F0FF0557
:100F38002946782206F1300036F02EFC0321316173
:100F4800804A71614FF480607F49B261F16130621B
:100F58007E49B5627562F562326610227166B266C4
:100F68003567F5667567BFF35F8F452047274FF0F4
:100F7800530C86F800C0522170705422B770F77075
:100F8800307120207171B071F17132727272B57264
:100F9800F57235737573B573F573BFF35F8FA3E798
:100FA800BA6AD7F824A052459CBF396A5218013A48
:100FB800A2EB0A029145B2D8254406EBC5050134D7
:100FC8002F6AA7EB0A08C14504EB440480F0A1800E
:100FD80006EBC402594650684A46504436F0B4FB02
:100FE800BFF35F8F09EB0A036B62C84697E70134CA
:100FF80004EB44047D6A4FEAC40A4FF00008BB6A58
:10100800AB4203F1FF3225D93C6A531B4B4506EB33
:101018000A02A4EB050428BF4B469C42506828BF2F
:101028001C4628445946224636F08EFB3B6A254426
:101038009D42A044A344A9EB040910D0BFF35F8FDD
:101048007D62B9F1000F3FF46AAFBB6AAB4203F1AE
:10105800FF32D9D83C6A2344013B5B1BD6E7BFF378
:101068005F8F00257D62B9F1000FC8D157E7BA6AD2
:10107800D7F824A052451FD902F1FF38A8EB0A0877
:101088003F6AC84528BFC846A7EB0A02904521D247
:10109800631C03EB430306EBC303594658684246F7
:1010A800504436F051FBBFF35F8F254406EBC5056E
:1010B8000AEB08036B6232E73F6A02EB070808F1A4
:1010C800FF38A8EB0A08C84528BFC846A7EB0A029C
:1010D8009045DDD304F1010909EB490906EBC9097B
:1010E8005946D9F804000192504436F02DFBA8EB7C
:1010F8000707019AD9F8040057440BEB02013A4656
:1011080036F022FBBFF35F8F254406EBC5056F62FF
:1011180005E706EBC406AAEB070470684246594681
:1011280050444C4436F010FB70680BEB0801224623
:1011380036F00AFBBFF35F8F6C62C846EFE600BF6C
:1011480030520020B87C0308E8520020D852002012
:101158002DE9F843354C1F462378054689469046C5
:1011680033B3022D5ED8EFF311864FF0200181F3DF
:10117800118855B92A46531904EBC304089BE36246
:1011880086F311880020BDE8F883681C00EB400056
:10119800C00005EB450344F8009004EBC30320446A
:1011A8000021C0F804806A001F6299625962E2E770
:1011B80003F0FF063146782204F1300036F0ECFAED
:1011C800032222611A4B62614FF48061194AA361BC
:1011D800E2612162184AA6626662E662236610230B
:1011E8006266A3662667E6666667BFF35F8F45217A
:1011F80047204FF0530C84F800C0522261705423EA
:10120800A070E070217120216271A171E2712372D6
:101218006372A672E67226736673A673E673BFF3EB
:101228005F8F9EE74FF0FF30ADE700BF30520020E0
:10123800B87C0308E8520020D85200202DE9F84F66
:10124800DFF8D8B1674D684F684CDFF8B4A12DEDD1
:10125800068B0646DFED66AADFED669ADFED668A45
:101268009FED669A4FF0000900F102084EE0F0EE9B
:10127800086AF4EEE67AF1EE10FA00F3A98067EE58
:10128800A76AB3EE0B6AB2EE025AF0EE465AE6EEE1
:10129800855A76EE866A66EEA76AC6EEA57A67EE86
:1012A800897AFDEEE77A17EE903A1AB2F8EE087AE4
:1012B800B4EEE77AF1EE10FA00F18880F0EE087AE1
:1012C800B4EEE77AF1EE10FA00F3858067EE077A5C
:1012D800F3EE0B6AF2EE025AB0EE666AA7EEA56A62
:1012E80077EEA67A27EE877AC7EE067A67EE897ACE
:1012F800FDEEE77A17EE903A1BB226F8292028F877
:10130800293009F10109B9F1400F67D09BF8003085
:1013180005EB830292ED007AF1EE047A77EE277AF4
:101328000C2B67EEAA7A88BF1346C4ED017A88BFF2
:1013380053ED0C7A27EE2A7A8CBF67EEAA7AF0EE84
:10134800697A384687ED017ACAED017A00F0E8FC3F
:101358002046B0EE408A00F0E3FC294838EE008AC7
:1013680000F032FD2748B0EE40AAFFF7ADFB38EE9B
:101378000A8A60EE287A2448B6EE000A28EE000AA7
:10138800C0ED007A00F038FB2048B0EE408AFFF745
:101398009BFB1F491F4828EE000A00F05BFE1D4B0F
:1013A800D3ED007A1A4BF8EE086AF4EEE67AF1EE1D
:1013B80010FA93ED007A7FF55AAFF8EE087AB4EE9A
:1013C800E77AF1EE10FA144A7FF578AF124B94E7FA
:1013D80047F6FF726AE747F6FF738EE7BDEC068BA8
:1013E800BDE8F88FC47C0308CC590020E8590020D8
:1013F8008D3B803FEF0C03410000FA4400FEFF469E
:10140800045A0020B4310020B45900208C31002047
:10141800EC580020E85800200180FFFF894B00208D
:1014280000B52DED028B4AF6444283B055210220C7
:1014380001F066FDDFED201A2048CDED011A4FF4CA
:10144800007101F04DFCDDED011ADFED1D0A1D48AC
:101458009FED1D8AB6EE002AB0EE611AB0EE420A80
:1014680000F04AFCDDED011A1848B6EE002AB0EE8D
:10147800611AF0EE480AB0EE420A00F03DFCDDEDDC
:10148800011A1348B6EE002AB0EE611AF0EE480AC7
:10149800B0EE420A00F030FC0E48FFF77BFA0E4827
:1014A800FFF778FA0D4800F099FA03B0BDEC028B0B
:1014B8005DF804EB00F0A4BD00000000E856002031
:1014C80000007A44CC5900200000DC43E859002091
:1014D800045A00208C310020B4310020B459002077
:1014E8000148FFF7ABBE00BFE85600200148FFF7F0
:1014F800A5BE00BFE8570020FEE700BF014B986B70
:1015080002F0CEBF1C970120014BD86B02F0C8BF78
:10151800D496012000B583B000220A4B0192196BC2
:1015280041F4800119631B6B03F4800301933B2092
:101538001146019B02F024FE3B2003B05DF804EB4A
:1015480002F05CBE0038024000230349034A0360EE
:1015580043608160C26070476666263F000096441B
:1015680010B504462DED028BC068B0EE408AFFF737
:10157800A7F820A3D3E90023FEF714FEFFF780F9AC
:101588001B4900EE100A4FF4006000F01FF994EDBB
:10159800007AD4ED016AD4ED025A84ED040A27EEEC
:1015A800655A38EE668AB0EE006AA5EE068AB0EE95
:1015B800405AA5EE865AB7EE006AA7EE408AA0EE1A
:1015C800056AF0EE407AC8EE065ABDEC028BA5EE2D
:1015D800807AE7EE006AB0EE476AB0EE660AA5EEDA
:1015E800A76AE7EE276A84ED006AC4ED016A10BDB8
:1015F80004100020A418D245B2ACC23F2DE9F04F28
:1016080000248DB0CDE90644CDE908446A4B009426
:101618000A941A6B694EDFF8AC91DFF8AC81684F19
:1016280042F010021A631A6B02F010020092009A3C
:1016380001941A6B42F004021A631A6B02F0040256
:101648000192019A02941A6B42F080021A631A6B93
:1016580002F080020292029A03941A6B42F001028D
:101668001A631A6B02F001020392039A04941A6B2C
:1016780042F002021A631A6B02F002020492049A00
:1016880005941A6B42F008021A631B6B03F00803F7
:101698000593224630460821059B03F0B3F9012241
:1016A8001146484603F0AEF9404622464FF2100173
:1016B80003F0A8F9224630460A2103F0A3F90122D3
:1016C8003846042103F09EF9012506A938460A2365
:1016D8000693CDE90844079502F0B8FF042306A94C
:1016E800384606934FF0080ACDE90754099402F0EA
:1016F800ADFF06A93046CDF818A0CDE907540994E6
:1017080002F0A4FF06A948464FF0020BCDE90655A2
:10171800CDE9084402F09AFFCDF818A048464FF0EA
:10172800050A06A9A9F58069CDE90844CDF81CB0D9
:10173800CDF828A002F08AFF384606A901224FF406
:101748009013CDE90623089402F080FF042206A92D
:1017580048460023CDE90623089402F077FF48465F
:1017680006A94FF480630693CDE90844CDF81CB070
:10177800CDF828A002F06AFF06A940464FF21003F0
:101788000693CDE90844079502F060FF404606A994
:1017980020220023CDE90623089402F057FF0222F5
:1017A8004FF4901306A93046CDE90623089402F0B9
:1017B8004DFF0DB0BDE8F08F003802400010024028
:1017C8000000024000080240000C0240FCEEC07A13
:1017D80017EE903AF8EE677A834270EE677A02D98C
:1017E8001B1A8342FCD8013301EB830111ED010A76
:1017F80091ED007A37EE407AA7EE870A704700BF6E
:1018080010B50B480B4C0C4900234FF48042C0E93B
:101818000041C0E90233C0E90423C0E9063303628A
:1018280004F04EF800B910BDBDE8104000F062BAEF
:101838001859002000540040A086010030B5184B0C
:10184800026889B000249A42CDE90244CDE90444F3
:10185800069401D009B030BD124D00942B6B12488C
:1018680043F002032B632B6B03F0020300934FF446
:1018780010721223CDE902230123049302A9042341
:101888000693009A02F0E2FE01942B6C43F40013D5
:101898002B642B6C03F400130193019B09B030BD3A
:1018A80000540040003802400004024008B50268B5
:1018B800094B9A4200D008BD084A0948136C23F422
:1018C80000134021136402F0E3FFBDE80840044818
:1018D8004FF4007102F0DCBF0054004000380240B1
:1018E8000004024010B50C480C4C00234FF4007261
:1018F8004BF68031C0E90042C0E90233C0E9042157
:10190800C0E90633036204F061FB00B910BDBDE80D
:10191800104000F0EFB900BF6C590020003C0040B7
:1019280070B52A4A01688EB000239142CDE9093387
:10193800CDE90B330D93079301D00EB070BD012490
:10194800CB25022304A8CDE90445069305F0F0F859
:10195800002838D11E4B1F48002401941A6C42F409
:1019680000421A641A6C02F400420192019A02942D
:101978001A6B42F001021A631A6B02F0010202921A
:10198800029A03941A6B42F004021A631B6B03F069
:10199800040303930225062609A910230993CDE918
:1019A8000B44039B0A950D9602F050FE4FF4A45386
:1019B8000948099309A9CDE90A54CDE90C4602F072
:1019C80045FE0EB070BD00F095F9C3E7003C00403D
:1019D8000038024000000240000802400023044A88
:1019E800026043608360C36003614361704700BF66
:1019F8000000C8420000000010B504462DED028B1F
:101A08000068B0EE408AFEF75BFE5AA3D3E90023D4
:101A1800FEF7C8FBFEF734FF554900EE100A4FF4F5
:101A28000060FFF7D3FEF7EE006A70EE267A94EDB9
:101A3800036AD4ED044A94ED017A94ED054AC6EEA2
:101A4800A73AD4ED027A20EE235AF8EE081AE6EE09
:101A5800054A25EE053AB4EEE18AE3EE274A23EE7D
:101A6800052AF1EE10FAE2EE074A62EE052AB0EE18
:101A7800662A22EE883AA4EE222AA4EEA33AF0EED1
:101A8800405AC3EE024A6ED4B0EE083AB4EEC38AA6
:101A9800F1EE10FA53DD24EE244AB8EE083AB4EE1B
:101AA800C34AF1EE10FA5BD4B0EE083AB4EEC34A7A
:101AB800F1EE10FA40DC24EE043AF3EE0B2AF2EED3
:101AC800021AB0EE622AA3EE212A33EE223A23EE5E
:101AD800043A83EE024ABDEC028B76EEC46A27EE26
:101AE800237A67EEA37AA5EE267A26EE236AE5EE38
:101AF800077A76EEC76AB0EE474AA6EEA54AF0EE38
:101B0800466AE5EE276A37EE677AB0EE676AA7EEAF
:101B1800256A77EEE67A36EEE47AB0EE640AE7EE06
:101B2800A56AE7EE254A84ED014A84ED026AC4ED10
:101B3800036AC4ED044A10BDB7EE004ACBE7B3EE22
:101B48000B3A68EE086AF0EE432AB2EE022AE6EE95
:101B5800822A76EE836A26EE883AC3EE226A9AE7EC
:101B6800BFEE004AB7E7FFEE006A94E7AFF30080E4
:101B780004100020A418D245B2ACC23F30B50023EF
:101B880095B0CDE90A33CDE90C33CDE90333CDE97E
:101B98000533224901930793086C214A40F080508D
:101BA8000864096C01F0805101910199029313684E
:101BB80043F480431360136801204FF4803103F429
:101BC8008043CDE9080102934FF480010224CDE956
:101BD8000E41029807210220CDE9120108224FF494
:101BE800A87308A81092119304F0DCFC08B172B62F
:101BF800FEE70F220346CDE903244FF4A0554FF426
:101C0800805203A80521CDE90535079204F0E2FECC
:101C180008B172B6FEE715B030BD00BF003802400B
:101C28000070004030B5002483B002F059FAFFF785
:101C3800A5FFFFF7E3FCFFF76DFCFFF7E1FDFFF7FA
:101C480051FE00F05DF927492046FFF741F9234688
:101C58002146224600942046FFF77AFA07F000FC56
:101C6800FEF7D6FF26F03EF806F0C2F822464CF6FC
:101C780001210DF0AFFD26F035F806F0B9F822463F
:101C88004FF0FF310DF0C6FD26F02CF806F0B0F845
:101C98003C224FF47A7125F087F940221146054617
:101CA80008F08EFA234622460521284608F052FB02
:101CB80022460D490D480D4C34F05AF90C490B4891
:101CC80034F086F9094834F021FCFFF729F8FFF7CA
:101CD800A7FB29F061FAFEF7C7FF204634F020FC85
:101CE800F7E700BFC47E0308610E00088C4B002094
:101CF8001430002072B6FEE7DFED087A80ED000AA6
:101D080060EEA70A0023C0ED010A836080ED031A84
:101D1800C0ED041A836180ED052A70478D3B803F32
:101D2800DFED286AD0ED017A90ED027A90ED000A95
:101D380067EEA67AB7EE005A77EE876A77EE075A0B
:101D4800F5EEC06AF1EE10FA48BF76EE856A35EE18
:101D5800C56AB7EE005AF4EEC56AF1EE10FAA8BFEC
:101D680076EEC56AF4EEC77AF1EE10FAC0ED026AB3
:101D78000EDDC7EE276AF0EE007A77EEE67AB0EE6F
:101D8800656AA6EEE76A20EE060A80ED060A704745
:101D9800F7EE006A76EEE75AB4EEE57AF1EE10FA5D
:101DA800F1DD37EE666AB0EE007AC6EE276A36EEE7
:101DB800066A76EE877AA6EEE76A20EE060A80EDD6
:101DC800060A70474590BE37DFED4C6A90ED017A00
:101DD800D0ED027A90ED056A27EE267AF4EEC67AFF
:101DE80077EE276AF1EE10FAF7EE005AF5EEC06AC0
:101DF800BFEE000AB8BFB0EE650AF1EE10FA48BFB0
:101E080076EEA56AF7EE005AF4EEE56AF1EE10FAFE
:101E1800A8BF76EEE56AB4EEE77AF1EE10FAC0ED07
:101E2800026A37DD87EE875AF0EE005A75EEC55A1A
:101E3800FFEE006AE5EE256A30EE260A77EEC67AEE
:101E4800F5EEC07AF1EE10FA44BFF7EE006A77EECD
:101E5800A67AF7EE006AF4EEE67AF1EE10FAA8BF79
:101E680077EEE67AB4EEE77AF1EE10FA28DDC7EEFF
:101E7800876AB0EE007A37EE667AF7EE007AE6EE19
:101E8800C77A30EE270AD0ED007A20EE270A80EDD7
:101E9800060A7047F7EE006A76EEC75AF4EEE57A5E
:101EA800F1EE10FACADD77EEE64AF0EE005A84EE5B
:101EB800875A75EE255AE5EE256A30EE260ABDE703
:101EC800F7EE006A36EEC76AF4EEC67AF1EE10FA5B
:101ED800D9DD77EEE67AB0EE006AC7EE875A70EE83
:101EE800666A75EE867AE5EEE76AD0ED007AB0EEBE
:101EF800660A20EE270A80ED060A70474590BE372D
:101F08000F4810494FF4827210B5C0E900124FF41F
:101F1800007200234FF40044082182610A22C0E9BC
:101F28000243C0E90433C0E90713C0E90933C262B8
:101F380004F03AFF00B910BDBDE81040FFF7DABE63
:101F4800805A00200030014070B5294B026888B0E3
:101F580000249A42CDE90244CDE90444069401D014
:101F680008B070BD03F5843300945A6C214E42F4D6
:101F780080525A645A6C02F480520092009A01947A
:101F88001A6B42F001021A631B6B03F00103019301
:101F9800E0220223CDE902230546052316480693CD
:101FA80002A9019B02F052FB144A74624FF0C0630D
:101FB800C6E90023304640224FF48063C6E9022474
:101FC800C6E90544C6E90744336102F03FF958B948
:101FD800002211462320AE64B56302F0D1F8232015
:101FE80002F00CF908B070BDFFF784FEF0E700BFFF
:101FF80000300140205A002000000240586402408E
:1020080038B50A4C0A4A0B4D0B4B25600B490C4C52
:1020180014600C480C4C0D4A0C601A60FFF794FAD7
:10202800BDE838400A48FFF78FBA00BF689301201F
:102038006C930120D85A00207493012070930120DA
:1020480020F70020F058002018F7002060930120A6
:10205800045900202DE9F047554F564E3B682DEDA9
:10206800028B8146F0EE408A534893ED000A0D46F4
:10207800FFF776FA33685148B0EE408A93ED000ACC
:10208800FFF76EFA4E4B93ED007A67EE087AF8EE9A
:10209800086AF4EEE67AF1EE10FA7FD4F0EE086AF8
:1020A800F4EEE67AF1EE10FA75DC67EEA76AB3EEA5
:1020B8000B6AB2EE025AF0EE465AE6EE855A76EE12
:1020C800866A66EEA77AC7EEA56AF0EE687AE7EE4A
:1020D800007AB8EE087AF4EEC77AF1EE10FA60D416
:1020E800B0EE087AF4EEC77AF1EE10FA5CDCB3EEE3
:1020F8000B6A27EEA77AF0EE465AB2EE025AE7EEDE
:10210800055A37EE067A27EE277A87EE256A2D4B91
:10211800DFF8B8A0DFF8B8803968DAF80040D8F8F6
:102128000020DFF8B0E0043149F63C4CA1EB0E008A
:102138006045C8BF7146396093ED007AA4EC016A26
:10214800F7EE007A77EEC77AE2EC016A27EEA80A82
:102158003368F0EE407AE7EE267ABDEC028BA7EE04
:10216800060A0433C9ED007A85ED000A164D511BA5
:102178006145C8BF2A46A4EB0E09C8F800205A1BBF
:10218800E145C8BF74466245C8BF2B46CAF800403F
:102198003360BDE8F087F7EE006A96E7FFEE006A65
:1021A80093E7BFEE006AB2E7B7EE006AAFE700BF99
:1021B800689301206C930120F058002004590020F6
:1021C8000C3000200830002020F7002070930120F8
:1021D80074930120D85A002082B00D4B0021009141
:1021E8005A6C42F480425A645A6C02F4804200925B
:1021F800009A01911A6C42F080521A641B6C03F029
:1022080080530193019B072002B001F0A7BF00BFD4
:1022180000380240FEE700BFFEE700BFFEE700BF50
:10222800FEE700BFFEE700BF704700BF704700BF72
:10223800704700BF08B5012025F0AAFDBDE8084099
:1022480001F068BF014802F0EDBC00BF789301209F
:10225800014805F00FB800BF805A0020014802F07D
:102268001FB900BF205A0020034AD2F8883043F42F
:102278007003C2F88830704700ED00E008B502210D
:10228800D0F818369847002008BD00BF00207047D6
:1022980038B5D0F8C835DD69A978044651B96978E8
:1022A80091B9284635F048FAD4F8C8350022DA61E1
:1022B800002038BD35F084F9A978204635F0DAF9E0
:1022C80069780023AB7041B1204635F079F9697817
:1022D800204635F0CFF900236B70D4F8C835DD6996
:1022E800002DDED1002038BD70B5FF2384B0032255
:1022F8000121054633F084FEFF2863D001462846B5
:1023080033F074FE1C20D5F8C86535F00DFAF0617D
:1023180095F820325A2202FB0352044692F94A02E7
:1023280092F84A12B2F84C220028B4BF2281E28007
:102338004FF05A0202FB0353B8BF217193F952229E
:10234800A8BFE170002A93F85212B3F8543235DB73
:10235800E170E380284635F039F9217903462846AB
:10236800A37035F033F9E38895F81D220092022610
:10237800CDE90163E27895F81C32A17860702846AF
:1023880035F00EF9238995F81D122279CDE90163FC
:10239800284695F81C3200910026617835F000F93E
:1023A800617826703246284600F0DAF9A17832467C
:1023B800284600F0D5F9304604B070BD217123815C
:1023C800E178C7E7022004B070BD00BF38B50378D4
:1023D8000B2B01D0002038BDD0F8C825D5690023C3
:1023E80069782B70044635F0EBF8A978204635F06B
:1023F800E7F8002038BD00BF02780B2A01D0002082
:10240800704708B5D0F8C835DB69597800F05AF933
:1024180080B208BDD0F8C835DB691878012801D921
:10242800012070474FF0010C032058761961DA82B9
:1024380083F800C000207047704700BF70B5D0F81F
:10244800C835DE693478012C82B006D0022C34D02D
:1024580004B10124204602B070BD337E012B05462D
:102468003BD0022B0AD1B17800F05EF9012844D0A4
:10247800022808BF3476D5F8C835DE69737E032B89
:1024880022D0042BE5D17178284600F04DF90128B7
:102498000446DED17178284600F014F9F38A82B236
:1024A800934242DD318991423FD231699B1AF382CE
:1024B8001144032331617376CCE7002134F03AFFED
:1024C8000028C6D13070C4E773783289316928464C
:1024D80035F056F804237376BCE7B38AF288F168BE
:1024E800934298BF1A46B378009435F031F8022326
:1024F8003376D5F8C835DE69C0E7B38AF2889342E7
:1025080009D80023B38233762846FFF795FFD5F81C
:10251800C835DE69B2E79B1A3476B382F368D5F81A
:10252800C8151344F360CE69A8E7002373762846DC
:10253800FEF7B8FB8EE700BF0368B3F1A04F00D0E9
:10254800704770B58AB02B4C2B4800250195236B3A
:1025580043F001032363236B03F001030193019B01
:102568000295236B43F004032363236B03F00403F6
:1025780002934FF4C0520223CDE904230A26002215
:1025880004A90323CDE906230896029B02F05EF80E
:102598004FF480621223CDE9042304A90122032306
:1025A80015480896CDE9062302F050F801220123C8
:1025B800CDE9042304A9002202231048CDE906230B
:1025C80002F044F8636B43F0800363630395636C24
:1025D80043F480436364636C03F480432A46062112
:1025E80003934320039B01F0CBFD432001F006FE3B
:1025F8000AB070BD003802400000024000080240E6
:10260800D0F8000334F02AB9D0F8000334F03EB90A
:10261800D0F8000334F050B9D0F8000334F02EB9E4
:10262800D0F8000334F02EB9704700BF002270B50F
:102638001146124C05464FF0FF3001F0A1FD4FF056
:10264800A0432360022200230026C4E90623C5F81C
:1026580014460B2201232046C4E902232661266280
:10266800E662C4F8005302F023FA204602F0D6FED0
:102678000146284634F0EEF8304670BD78930120C4
:1026880008B5D0F8140602F091FE002008BD00BF7E
:1026980008B5D0F8140602F09FFE002008BD00BF60
:1026A80008B5D0F8140602F0BDFE032828BF0120A3
:1026B800C0B208BD08B5D0F8140602F09FFE00208D
:1026C80008BD00BFD0F8140602F0A2BE10B584B051
:1026D800D0F814069DF8184000949DF81C40019409
:1026E800BDF82040029402F091F9002004B010BD1A
:1026F80008B5D0F8140602F0C9F9002008BD00BFDB
:1027080010B584B0D0F814069DF818400094079CC2
:102718000194BDF8204002949DF82440039402F0EF
:1027280019FA002004B010BDD0F8140602F06ABEF1
:1027380008B549B901221146084802F063F9C820D2
:1027480001F0FAFC002008BD00220121034802F034
:1027580059F9C82001F0F0FC002008BD000802402B
:10276800074B2C2000FB013191F83B301BB181F85D
:1027780054200020704781F855200020704700BF82
:102788007893012001F0D8BC0020704700207047E2
:1027980000B5642983B022D8124AC1EB0121A2FBFB
:1027A800013245F63B23C2F34712994202F119025E
:1027B8000FDDD2B2C0B2CDE90020202100F03EFAF0
:1027C8000198009A212100F039FA002003B05DF841
:1027D80004FBC0B2D2B2CDE900202021EEE71822D6
:1027E800E8E700BF1F85EB5100F026BA10B5044694
:1027F80000F0E8F90121E0B200F046FA00F0F80034
:1028080010BD00BF10B5012982B013D0C0B200229C
:102818002221019000F012FA01980022232100F0F1
:102828000DFA0E4B01981A78042100F007FA0020DF
:1028380002B010BD0C46C0B20421FF22019000F086
:10284800FDF901982246222100F0F8F90198224664
:10285800232100F0F3F9002002B010BD7C9601207E
:10286800013908B5032921D8DFE801F0160C022048
:10287800AA220421C0B200F0E1F9114BAA221A7071
:10288800002008BDAF220421C0B200F0D7F90C4BDC
:10289800AF221A70002008BDFA220421C0B200F04D
:1028A800CDF9074BFA221A70002008BD0522042131
:1028B800C0B200F0C3F9024B05221A70002008BD0F
:1028C8007C96012000B583B0C0B2FF22042101909C
:1028D80000F0B4F901980122222100F0AFF9019823
:1028E8000122232100F0AAF901980122022100F017
:1028F800A5F9002003B05DF804FB00BF00B583B064
:10290800C0B2FF220421019000F098F90198012239
:10291800222100F093F901980122232100F08EF979
:10292800019804220E2100F089F901989F220221C2
:1029380000F084F9034B012200201A7003B05DF8FF
:1029480004FB00BF3430002030B5002485B0C0B28D
:1029580022212246134D0190039400F06FF901984B
:102968002246232100F06AF901982A78042100F010
:1029780065F90394039B0198FE2B05D8039B01334B
:102988000393039BFE2BF9D92A780190042100F0C8
:1029980055F901989E22022100F050F9002005B057
:1029A80030BD00BF7C96012010B5144C2378012B54
:1029B80082B002D0002002B010BDC0B206220E21A3
:1029C800019000F03BF901980022222100F036F92D
:1029D80001980022232100F031F9094B01981A7857
:1029E800042100F02BF901989E22022100F026F91B
:1029F80000230020237002B010BD00BF3430002037
:102A08007C96012070B5C4B282B00D46164600F01F
:102A1800D9F801220221204600F010F96B1E032B81
:102A280068D8DFE803F0635F0267374BAA221A70A1
:102A38001A780421204600F001F981220521204658
:102A480000F0FCF804220621204600F0F7F8642E76
:102A580054D82E4BC6EB0626A3FB0623C3F3471315
:102A680045F63B2219339642DAB249DD019220211C
:102A7800204600F0E3F8019A2121204600F0DEF814
:102A8800022D0ED006220F21204600F0D7F8002292
:102A98002421204600F0D2F800222521204600F00B
:102AA800CDF8204600220A2100F0C8F8204604226A
:102AB8000E2100F0C3F820460022272100F0BEF8BE
:102AC80020460F221F2100F0B9F820460A221A21B9
:102AD80000F0B4F820460A221B2100F0AFF80020CD
:102AE80002B070BD084BAF221A70A1E7064BFA225C
:102AF8001A709DE7044B05221A7099E71822B5E76A
:102B0800202120460192B4E77C9601201F85EB51D5
:102B180070B588B0264C274D274B2B6000260096B1
:102B2800236B264A43F002032363236B6A6003F096
:102B3800020300934FF480432B6133224FF410704B
:102B480012210423CDE90201C5E902620099069326
:102B580002A9002202231A48CDE9042301F076FDD8
:102B68000196236C43F400132364236C03F40013CD
:102B78000193019B236A43F400132362236A23F41D
:102B880000132362324631461F2001F0F9FA1F2054
:102B980001F034FB32463146202001F0F1FA2020C2
:102BA80001F02CFB284608B0BDE8704002F088BE52
:102BB800003802408096012000540040A0860100A1
:102BC8000004024000B589B0184B19480022019250
:102BD8001A6B42F008021A631B6B03F00803019397
:102BE80010220123CDE9022302A900220223CDE904
:102BF8000423019B01F02AFD0E4803F0E3F990B18C
:102C0800002210210A4801F0FDFE052001F094FA87
:102C180001221021064801F0F5FE052001F08CFA8A
:102C280009B05DF804FBFFF773FFE9E700380240DD
:102C3800000C024080960120704700BF10B5104B71
:102C480086B01B680293144601238DF817400DF1D6
:102C580017040A460193014600940A4802F012FF3D
:102C680008B906B010BD074802F0F2FE054803F0A7
:102C7800A9F90028F5D1FFF74BFF06B010BD00BF3A
:102C8800683000208096012000B5134B87B01B6880
:102C9800029384460A4600200DF117010123CDE96D
:102CA80000138DF8170061460C4802F0DDFF20B9CB
:102CB8009DF8170007B05DF804FB084802F0C8FE4D
:102CC800064803F07FF90028F2D1FFF721FF9DF8AD
:102CD800170007B05DF804FB6830002080960120DB
:102CE80010B50E4B82B01B6801900C46DB6801469C
:102CF800A2B29420984768B9B4F5003F01990848F2
:102D080034BFC4F34F024FF6FF7203F003FA0020FA
:102D180002B010BD012002B010BD00BFC497012051
:102D28001C9701200000000010B5B1F5FA5F86B0CD
:102D380047D042F6113399421BD1012445F2226350
:102D4800994238D0B1F5FA4F08BF042417D1204B67
:102D580099421AD102A8019003F08AFF01989FEDC9
:102D68001A7B02238DED027B049303F0E1FE06B08B
:102D780010BDB1F57A5F18BFFF24DFD102244AF6EF
:102D88004443994208BF052416D102A8019003F0D4
:102D98006FFF14F0070F0198E1D10E4A0E4B52F85D
:102DA800242053F8243004930121CDE9021203F0C2
:102DB800BFFE06B010BD03244BF680339942C9D03C
:102DC800C5E70024BAE700BF0100000025010000A4
:102DD80000770100087F0308287F030870B58CB0CE
:102DE800414C00250195236C43F400432364236C74
:102DF80003F400430193019B0295236B43F0040302
:102E08002363236B03F004030293029B0395236B54
:102E180043F001032363236B03F0010303934FF48F
:102E2800A0520223CDE9062300220223CDE908237C
:102E3800064606A92D4806230A93039B01F006FCC3
:102E480010232B48069306A901F000FC0495236B78
:102E5800264843F004032363236B03F0040304931D
:102E680006A98023049A069301F0F0FB0595236BCD
:102E7800204A43F400132363236B03F400130593E0
:102E880033680599934209D000220E212F2001F0C2
:102E980077F92F2001F0B2F90CB070BD164C174B22
:102EA800B4634022C4E901524FF48062C4E903527A
:102EB8004FF400614FF40052C4E905124FF48070DA
:102EC8004FF40032C4E907024FF0040C03222046F5
:102ED800C4E909C2C4E90B552360A66301F04EFAA0
:102EE800204601F0B3F9CFE700380240000802405D
:102EF80000000240003C004064970120B860024096
:102F08002DE9F041214C15460646002220460F4681
:102F18002946FFF709FF1E4B2360204603F00EFAEF
:102F280078B31B4B6561DA69236022F48062DA6149
:102F38000023C4E90633C4E9023314484FF400738C
:102F48002361636003F042F8044648B9DFF848801B
:102F58009420D8F80830984700F0F800E02803D00B
:102F680001242046BDE8F0810A482B46C0F80080BD
:102F7800D8F800503A4631469420A8472046BDE884
:102F8800F08101462046FFF729FFCAE71C97012078
:102F9800003C0040C49701203830002008B5026882
:102FA800034B9A4200D008BDFEF7A0FA08BD00BF47
:102FB800003C004008B50268034B9A4200D008BDA7
:102FC800FEF78EFA08BD00BF003C0040704700BF06
:102FD80008B5FFF7FBFF08BD704700BF084A036844
:102FE800934210B506D0074A934200D010BDFFF7B0
:102FF800F3FF10BD0446FEF77FFA2368F3E700BF2E
:10300800003C0040003800402DE9F04782B02A24F7
:103018008DF804404B4C4C4D8246884691462046DC
:10302800002204211F4601F0EDFC20460022022167
:1030380001F0E8FC4FF0FF3301A90122284603F014
:1030480015FF20460122042101F0DCFC00264FEA8E
:103058001A2363F307066AF30F264FEA192363F36B
:103068001746204669F31F6600220421019601F0E5
:10307800C9FC20460122022101F0C4FC04220DEB08
:1030880002010A23284603F0F1FE2046012204210A
:1030980001F0B8FC2B232046002204218DF80430CF
:1030A80001F0B0FC20460022022101F0ABFC4FF0F9
:1030B800FF3301A90122284603F0D8FE2046012249
:1030C800042101F09FFC4FEA1823002063F3070056
:1030D80068F30F203B0A63F3174067F31F60019002
:1030E80000222046042101F08DFC20460122022105
:1030F80001F088FC04220DEB02010A23284603F0A4
:10310800B5FE20460122042101F07CFC2C23204638
:10311800002204218DF8043001F074FC20460022BE
:10312800022101F06FFC01A94FF0FF33012228466C
:1031380003F09CFE01220421204601F063FC02B04A
:10314800BDE8F08700000240805A00202DE9F04FCA
:10315800FC4CFD4E83B0322000F0EEFF012202212C
:10316800204601F04FFC322000F0E6FF0022082143
:10317800204601F047FC192000F0DEFF012208215B
:10318800204601F03FFC192000F0D6FF4FF0360929
:103198002046002204218DF8079001F033FC2046D8
:1031A8000022022101F02EFC4FF0FF330DF1070140
:1031B80001223046002703F059FE2046012204214F
:1031C80001F020FC3A46204604218DF8077001F0F2
:1031D80019FC20460122022101F014FC4FF0FF33B4
:1031E8000DF107010122304603F040FE204601227E
:1031F800042101F007FC3A2320463A4604218DF8C1
:10320800073001F0FFFB3A462046022101F0FAFBA5
:103218004FF0FF330DF107010122304603F026FE7F
:1032280020460122042101F0EDFB05233A46204601
:1032380004218DF8073001F0E5FB20460122022128
:1032480001F0E0FB4FF0FF330DF10701012230469A
:1032580003F00CFE20460122042101F0D3FB2123B8
:1032680020463A4604218DF8073001F0CBFB3A4658
:103278002046022101F0C6FB4FF0FF330DF1070194
:103288000122304603F0F2FD20460122042101F01C
:10329800B9FB2A2320463A4604218DF8073001F06D
:1032A800B1FB3A462046022101F0ACFB4FF0FF3358
:1032B8000DF107010122304603F0D8FD2046012216
:1032C800042101F09FFB3A46204604218DF807703F
:1032D80001F098FB20460122022101F093FB4FF0F8
:1032E800FF330DF107010122304603F0BFFD2046F0
:1032F8000122042101F086FB3A46204604218DF87C
:10330800077001F07FFB20460122022101F07AFBC1
:103318004FF0FF330DF107010122304603F0A6FDFF
:10332800204601220421012501F06CFB20463A4683
:1033380004218DF8075001F065FB2A46204602213A
:1033480001F060FB4FF0FF330DF107012A463046CC
:1033580003F08CFD2A462046042101F053FB3F234D
:1033680020463A4604218DF8073001F04BFB2A46E7
:103378002046022101F046FB4FF0FF330DF1070113
:103388002A46304603F072FD2A462046042101F001
:1033980039FB2B2320463A4604218DF8073001F0EB
:1033A80031FB3A462046022101F02CFB4FF0FF3357
:1033B8000DF107012A46304603F058FD2A462046FB
:1033C800042101F01FFB20463A4604218DF80770BE
:1033D80001F018FB2A462046022101F013FB4FF0AA
:1033E800FF330DF107012A46304603F03FFD2A4618
:1033F8002046042101F006FB20463A4604218DF8B8
:10340800077001F0FFFA2A462046022101F0FAFA75
:103418004FF0FF330DF107012A46304603F026FD31
:103428002A462046042101F0EDFA20463A460421B6
:103438008DF8077001F0E6FA2A462046022101F0CD
:10344800E1FA4FF0FF330DF107012A46304603F049
:103458000DFD2A462046042101F0D4FAEF23204628
:103468003A4604218DF8073001F0CCFA2A46204666
:10347800022101F0C7FA4FF0FF330DF107012A4688
:10348800304603F0F3FC2A462046042101F0BAFA3C
:10349800B22320463A4604218DF8073001F0B2FAEB
:1034A8003A462046022101F0ADFA4FF0FF330DF104
:1034B80007012A46304603F0D9FC2A462046042153
:1034C80001F0A0FA4FF00C0B20463A4604218DF883
:1034D80007B001F097FA2A462046022101F092FA35
:1034E8004FF0FF330DF107012A46304603F0BEFCCA
:1034F8002A462046042101F085FA20463A4604214E
:103508008DF807B001F07EFA2A462046022101F024
:1035180079FA4FF0FF330DF107012A46304603F0E0
:10352800A5FC2A462046042101F06CFA20463A46BA
:1035380004218DF8077001F065FA2A462046022119
:1035480004E000BF00000240805A002001F05AFA4F
:103558004FF0FF330DF107012A46304603F086FC91
:103568002A462046042101F04DFA4FF0330A20463E
:103578003A4604218DF807A001F044FA2A4620466D
:10358800022101F03FFA4FF0FF330DF107012A46FF
:10359800304603F06BFC2A462046042101F032FA3B
:1035A80020463A4604218DF807A001F02BFA2A4656
:1035B8002046022101F026FA4FF0FF330DF10701F2
:1035C8002A46304603F052FC2A462046042101F0E0
:1035D80019FA4FF0B70820463A4604218DF80780BB
:1035E80001F010FA3A462046022101F00BFA4FF09A
:1035F800FF330DF107012A46304603F037FC2A460F
:103608002046042101F0FEF9352320463A460421DC
:103618008DF8073001F0F6F92A462046022101F01C
:10362800F1F94FF0FF330DF107012A46304603F058
:103638001DFC2A462046042101F0E4F920463A46BA
:1036480004218DF8078001F0DDF93A462046022171
:1036580001F0D8F94FF0FF330DF107012A46304643
:1036680003F004FC2A462046042101F0CBF91F236D
:1036780020463A4604218DF8073001F0C3F92A465E
:103688002046022101F0BEF94FF0FF330DF107018A
:103698002A46304603F0EAFB2A462046042101F078
:1036A800B1F9C02320463A4604218DF8073001F0CD
:1036B800A9F93A462046022101F0A4F94FF0FF3358
:1036C8000DF107012A46304603F0D0FB2A46204672
:1036D800042101F097F92C2320463A4604218DF85D
:1036E800073001F08FF92A462046022101F08AF9B5
:1036F8004FF0FF330DF107012A46304603F0B6FBC1
:103708002A462046042101F07DF9C22320463A4684
:1037180004218DF8073001F075F93A462046022158
:1037280001F070F94FF0FF330DF107012A463046DA
:1037380003F09CFB2A462046042101F063F9204649
:103748003A4604218DF8075001F05CF92A462046D4
:10375800022101F057F94FF0FF330DF107012A4616
:10376800304603F083FB2A462046042101F04AF93B
:10377800C32320463A4604218DF8073001F042F968
:103788003A462046022101F03DF94FF0FF330DF192
:1037980007012A46304603F069FB2A4620460421E1
:1037A80001F030F9122320463A4604218DF80730FB
:1037B80001F028F92A462046022101F023F94FF0AA
:1037C800FF330DF107012A46304603F04FFB2A4626
:1037D8002046042101F016F9C42320463A46042164
:1037E8008DF8073001F00EF93A462046022101F023
:1037F80009F94FF0FF330DF107012A46304603F06F
:1038080035FB2A462046042101F0FCF820232046F7
:103818003A4604218DF8073001F0F4F82A4620468C
:10382800022101F0EFF84FF0FF330DF107012A46AE
:10383800304603F01BFB2A462046042101F0E2F83B
:10384800C62320463A4604218DF8073001F0DAF8FD
:103858003A462046022101F0D5F84FF0FF330DF12A
:1038680007012A46304603F001FB2A462046042178
:1038780001F0C8F80F2320463A4604218DF8073096
:1038880001F0C0F82A462046022101F0BBF84FF0AB
:10389800FF330DF107012A46304603F0E7FA2A46BE
:1038A8002046042101F0AEF84FF0D00820463A46F1
:1038B80004218DF8078001F0A5F83A462046022138
:1038C80001F0A0F84FF0FF330DF107012A4630460A
:1038D80003F0CCFA2A462046042101F093F8A423E9
:1038E80020463A4604218DF8073001F08BF82A4625
:1038F8002046022101F086F84FF0FF330DF1070151
:103908002A46304603F0B2FA2A462046042101F03E
:1039180079F8A12320463A4604218DF8073001F0B2
:1039280071F82A462046022101F06CF84FF0FF3367
:103938000DF107012A46304603F098FA2A46204638
:10394800042101F05FF8E02320463A4604218DF86F
:10395800073001F057F83A462046022101F052F8A4
:103968004FF0FF330DF107012A46304603F07EFA87
:103978002A462046042101F045F820463A4604210B
:103988008DF8078001F03EF82A462046022101F012
:1039980039F84FF0FF330DF107012A46304603F09E
:1039A80065FA2A462046042101F02CF84FF0080851
:1039B80020463A4604218DF8078001F023F82A466C
:1039C8002046022101F01EF84FF0FF330DF10701E8
:1039D8002A46304603F04AFA2A462046042101F0D6
:1039E80011F84FF0110320463A4604218DF80730AC
:1039F80001F008F82A462046022101F003F84FF0AA
:103A0800FF330DF107012A46304603F02FFA2A4604
:103A18002046042100F0F6FF20463A4604218DF89E
:103A2800078000F0EFFF2A462046022100F0EAFF57
:103A38004FF0FF330DF107012A46304603F016FA1E
:103A48002A462046042100F0DDFF20463A4604219C
:103A58008DF807B000F0D6FF2A462046022100F074
:103A6800D1FF4FF0FF330DF107012A46304603F02E
:103A7800FDF92A462046042100F0C4FF15232046FC
:103A88003A4604218DF8073000F0BCFF2A4620464C
:103A9800022100F0B7FF4FF0FF330DF107012A466E
:103AA800304603F0E3F92A462046042100F0AAFF35
:103AB8004FF039028DF8072020463A46042100F0DD
:103AC800A1FF2A462046022100F09CFF4FF0FF3359
:103AD8000DF107012A46304603F0C8F92A46204668
:103AE800042100F08FFF20463A4604218DF807A0F4
:103AF80000F088FF2A462046022100F083FF4FF09D
:103B0800FF330DF107012A46304603F0AFF92A4684
:103B18002046042100F076FF502320463A4604212F
:103B28008DF8073000F06EFF2A462046022100F08B
:103B380069FF4FF0FF330DF107012A46304603F0C5
:103B480095F92A462046042100F05CFF20463A46B3
:103B580004218DF8079000F055FF2A4620460221DF
:103B680000F050FF4FF0FF330DF107012A463046B1
:103B780003F07CF92A462046042100F043FF4FF069
:103B8800130A20463A4604218DF807A000F03AFFB0
:103B98002A462046022100F035FF4FF0FF330DF191
:103BA80007012A46304603F061F92A4620460421D7
:103BB80000F028FF4FF0140B20463A4604218DF8F8
:103BC80007B000F01FFF2A462046022100F01AFF26
:103BD8004FF0FF330DF107012A46304603F046F94E
:103BE8002A462046042100F00DFF3A4620462927A0
:103BF80004218DF8077000F005FF2A4620460221AF
:103C080000F000FF4FF0FF330DF107012A46304660
:103C180003F02CF92A462046042100F0F3FE2D2358
:103C28002046002204218DF8073000F0EBFE2A46DA
:103C38002046022100F0E6FE4FF0FF332A460DF140
:103C48000701304603F012F92A462046042100F005
:103C5800D9FEE1232046002204218DF8073000F028
:103C6800D1FE20460022022100F0CCFE4FF0FF33A7
:103C78002A460DF10701304603F0F8F82A46204697
:103C8800042100F0BFFED0232046002204218DF835
:103C9800073000F0B7FE2A462046022100F0B2FEA7
:103CA8004FF0FF332A460DF10701304603F0DEF8E6
:103CB8002A462046042100F0A5FE204600220421C1
:103CC8008DF8078000F09EFE2A462046022100F06B
:103CD80099FE4FF0FF332A460DF10701304603F0F5
:103CE800C5F82A462046042100F08CFE1023204601
:103CF800002204218DF8073000F084FE2A46204671
:103D0800022100F07FFE4FF0FF332A460DF1070134
:103D1800304603F0ABF82A462046042100F072FE34
:103D28002046002204218DF8078000F06BFE2A4609
:103D38002046022100F066FE4FF0FF332A460DF1BF
:103D48000701304603F092F82A462046042100F085
:103D580059FE06252046002204218DF8075000F060
:103D680051FE20460122022100F04CFE4FF0FF33A5
:103D78000DF107010122304603F078F820460122B0
:103D8800042100F03FFE2046002204218DF8075050
:103D980000F038FE20460122022100F033FE4FF0E9
:103DA800FF330DF107010122304603F05FF820468A
:103DB8000122042100F026FE4FF039028DF8072079
:103DC80020460022042100F01DFE20460122022187
:103DD80000F018FE4FF0FF330DF1070101223046C5
:103DE80003F044F820460122042100F00BFE44238E
:103DF8002046002204218DF8073000F003FE2046FB
:103E08000122022100F0FEFD4FF0FF330DF1070102
:103E18000122304603F02AF820460122042100F04E
:103E2800F1FD51232046002204218DF8073000F0CF
:103E3800E9FD20460122022100F0E4FD4FF0FF33A6
:103E48000DF107010122304603F010F82046012247
:103E5800042100F0D7FD0B232046002204218DF811
:103E6800073000F0CFFD20460122022100F0CAFDF4
:103E78004FF0FF330DF107010122304602F0F6FF43
:103E880020460122042100F0BDFD16232046002211
:103E980004218DF8073000F0B5FD204601220221EB
:103EA80000F0B0FD4FF0FF330DF10701012230465D
:103EB80002F0DCFF20460122042100F0A3FD204689
:103EC800002204218DF807B000F09CFD2046012255
:103ED800022100F097FD4FF0FF330DF10701012299
:103EE800304602F0C3FF20460122042100F08AFD7B
:103EF8002F232046002204218DF8073000F082FD90
:103F080020460122022100F07DFD4FF0FF330DF124
:103F180007010122304602F0A9FF204601220421B0
:103F280000F070FD31232046002204218DF807306F
:103F380000F068FD20460122022100F063FD4FF0E9
:103F4800FF330DF107010122304602F08FFF2046B2
:103F58000122042100F056FD2123204600220421DD
:103F68008DF8073000F04EFD20460022022100F0B7
:103F780049FD4FF0FF330DF107010122304602F0F1
:103F880075FF20460122042100F03CFD4FF011038B
:103F98002046002204218DF8073000F033FD20462A
:103FA8000022022100F02EFD4FF0FF330DF1070132
:103FB8000122304602F05AFF20460122042100F077
:103FC80021FD2046002204218DF807A000F01AFDEB
:103FD80020460022022100F015FD4FF0FF330DF1BD
:103FE80007010122304602F041FF20460122042148
:103FF80000F008FD2046002204218DF8077000F02B
:1040080001FD20460022022100F0FCFC4FF0FF33A6
:104018000DF107010122304602F028FF0122042198
:10402800204600F0EFFC322000F086F820460022FF
:1040380004218DF8079000F0E5FC204600220221BB
:1040480000F0E0FC4FF0FF330DF10701012230468C
:1040580002F00CFF20460122042100F0D3FC60236B
:104068002046002204218DF8073000F0CBFC2046C2
:104078000122022100F0C6FC0DF107014FF0FF33C9
:104088000122304602F0F2FE01220421204600F00F
:10409800B9FC03B0BDE8F08F38B50E4A0E4B127864
:1040A8001B6805464FF47A70B0FBF2F0B3FBF0F0F2
:1040B80000F0B2F808B90F2D01D9012038BD044627
:1040C800024629464FF0FF3000F05AF8034B2046CD
:1040D8001D6038BD6C30002010300020703000208A
:1040E80008B50B4B1A6842F400721A601A6842F459
:1040F80080621A601A6842F480721A60032000F025
:104108002DF80020FFF7C8FFFEF766F8002008BD6D
:10411800003C0240034A044B11681B780B441360AF
:10412800704700BFC89701206C300020014B186809
:10413800704700BFC897012038B50446FFF7F6FF5F
:10414800631C054602D0044B1B781C44FFF7EEFFA6
:10415800431BA342FAD338BD6C3000200749CA6814
:1041680003024FF6FF0003F4E0630240134343F0F9
:10417800BF6343F40033CB60704700BF00ED00E03D
:104188001C4BDB68C3F3022300B5C3F1070EBEF175
:10419800040F03F1040C28BF4FF0040EBCF1060F06
:1041A8001BD9033B4FF0FF3C0CFA03FC22EA0C023C
:1041B8004FF0FF3C0CFA0EFC21EA0C019940002854
:1041C80041EA02010CDB00F16040090100F56140A1
:1041D800C9B280F800135DF804FB00221346E7E734
:1041E800054B00F00F0009010344C9B219765DF8C8
:1041F80004FB00BF00ED00E0FCEC00E0002807DB5A
:104208004109044A00F01F000123834042F821308D
:10421800704700BF00E100E00138B0F1807F10D2A4
:1042280010B44FF0E023084C58614FF0F00C84F8BC
:1042380023C00022072110469A615DF8044B1961DA
:1042480070470120704700BF00ED00E038B5044614
:10425800FFF76CFF002C52D023680022022184F85B
:10426800351084F834201A6822F0010205461A60D5
:1042780005E0FFF75BFF431B052B39D823681A6855
:10428800D107F6D4D4E90120E16802430A43D4E90E
:104298000451A0692A430A43E1691D6802430A439D
:1042A80033492940256A2A430A43616A042928D0E8
:1042B8001A605A6922F007021143D8B22D4A59618F
:1042C8001038A2FB005212092B4923F47F73895C32
:1042D800E16523F003035F2888BF04333F228A4047
:1042E800A36500209A600123606584F8353038BDE5
:1042F80003232022626584F83530184638BD012032
:1043080038BDD4E90B512943114319605969A26A90
:1043180021F00701114341F00401002DCDD078B1FF
:10432800B0F5005F16D0022A03D9032AC5D1EA01E5
:10433800C3D501234022626584F83530184638BD5C
:10434800012A03D032F00202B7D1F0E7B5F1C07FFD
:10435800B3D1EEE7032AB0D801A050F822F000BF8D
:104368003B430008374300083B4300085543000817
:104378003F8010F0ABAAAAAA487F0308002836D0CD
:1043880090F83520022A0346D0B232D01A6819496B
:10439800D0B2103830B4A1FB004109091468164D99
:1043A80024F001046D5C146000211160516091607B
:1043B800D16011612121516122F47F7222F0030240
:1043C8005F2888BF04323F240021AC40DD65C3E983
:1043D8000F11C3E91111C3E913119A659460596566
:1043E80083F8341083F83510084630BC7047012034
:1043F80070477047ABAAAAAA487F030870B490F820
:104408003440856D012C35D090F835404FF0010CC3
:10441800644580F834C005D0002380F8343070BC7F
:1044280002207047022680F8356004680026466539
:10443800266826F48026266063608368402B0EBFBA
:10444800A260A160E260C26D08BFE1603F239340B3
:10445800AB602368026C43F0160323601AB123682B
:1044680043F008032360236843F00103002023601E
:1044780070BC7047022070BC704700BF90F83530A0
:10448800022B03D08023436501207047026805236F
:1044980080F83530136823F001030020136070475B
:1044A800F0B583B0674A876D166800230193C36D22
:1044B8003D6808229A402A42044603D001680868E9
:1044C800400778D401229A402A4203D021684969DA
:1044D80008066AD404229A402A4203D0216809684F
:1044E80089075CD410229A402A4203D021680868C0
:1044F800000741D420229A402A4214D02168086833
:10450800C00610D5BA6094F83520052A63D00B6828
:1045180013F4802F0B687ED0190340F18980E36B78
:104528000BB120469847636D23B3636DDA071AD53C
:1045380022684549052384F835301368A1FB06161F
:1045480023F00103B60A136002E01368DB0704D501
:10455800019B0133B3420193F7D90122002384F868
:10456800352084F83430E36C23B1204603B0BDE82D
:10457800F040184703B0F0BDBA600A6812F4802F03
:104588000A6822D1D20503D40A6822F008020A6018
:10459800226C002AAED020469047E36DAAE7BA60A5
:1045A800626D42F0040262659CE7BA60626D42F097
:1045B800020262658EE7086820F004000860BA60AD
:1045C800626D42F0010262657CE71103E0D5A26CDE
:1045D800002AE0D18EE70A6822F016020A604A69CA
:1045E80022F080024A61226C3AB30A6822F008027B
:1045F8000A603F2202FA03F3216DBB600122002307
:1046080084F8352084F834300029B3D0204603B02C
:10461800BDE8F040084713F4807380D10A6822F09F
:1046280010020A60012284F8352084F8343076E7D5
:10463800636C002B7FF475AF75E7A26C002AD4D1A8
:10464800D7E700BF10300020B5814E1B2DE9F04F91
:1046580000220C68DFF830A2844E85B013468946E4
:1046680005E00133102B02F1020200F08A800121DB
:10467800994001EA040BA143F3D1D9F804C00CF026
:1046880003014D1E012D7FD9032940F0C0809140C0
:10469800CD4307683D4029431CF4403F0160E0D00A
:1046A80000210391DAF8441041F48041CAF844101B
:1046B800DAF8441001F480410391039923F00301CF
:1046C80001F1804101F59C3103F003078D68BF00BB
:1046D8004FF00F0E0EFA07FE25EA0E08644DA842A9
:1046E80024D005F58065A84200F09580614DA84268
:1046F80000F09880604DA84200F09B805F4DA84272
:1047080000F09E805E4DA84200F0A1805D4DA84259
:1047180000F0A480DFF874E170450CBF4FF0070E7D
:104728004FF0080E0EFA07F748EA0708C1F80880A4
:10473800B1686FEA0B051CF4801F0CBF29404BEAD7
:104748000101B160F1681CF4001F0CBF29404BEA5D
:104758000101F16071681CF4003F0CBF29404BEA6D
:104768000101716031681CF4803F03F101030CBF43
:1047780029404BEA0101102B316002F102027FF45B
:1047880076AF05B0BDE8F08FD9F80C50D0F808E046
:1047980005FA02F7032505FA02F82EEA080E47EA99
:1047A8000E078760476827EA0B0ECCF300179F4077
:1047B80047EA0E076FEA08054760C76807EA050E6B
:1047C800D9F80870974047EA0E070229C76001FA2E
:1047D80002F17FF45EAF4FEAD30E00EB8E0E03F0CA
:1047E8000708DEF820700097D9F810704FEA88089B
:1047F80007FA08F701970F2707FA08F8009F27EA32
:104808000808019F47EA0807CEF8207041E703250A
:104818009540ED43D1E74FF0010E0EFA07F748EA4D
:10482800070883E74FF0020E0EFA07F748EA070871
:104838007CE74FF0030E0EFA07F748EA070875E71A
:104848004FF0040E0EFA07F748EA07086EE74FF034
:10485800050E0EFA07F748EA070867E74FF0060E55
:104868000EFA07F748EA070860E700BF003C014076
:104878000000024000080240000C02400010024004
:10488800001402400018024000380240001C024098
:104898002DE9F04F0023DFF85C91DFF85C81DFF849
:1048A8005CA1DFF85CB183B002E00133102B76D055
:1048B8004FF0010E0EFA03F232EA010402EA010790
:1048C800F3D123F0030505F1804505F59C3503F088
:1048D8000304D5F808C0A4000F26A6404845019651
:1048E80006EA0C0C17D0504512D058455AD03C4E09
:1048F800B0425CD03B4EB0425ED03B4EB04260D03E
:104908003A4EB04262D03A4EB04264D04FF0080EF0
:104918000EFA04F400E00024A4451CD1D8F80040A5
:10492800019E24EA0704C8F80040D8F8044024EAA5
:104938000704C8F80440D8F80C4024EA0704C8F86B
:104948000C40D8F8084024EA0704C8F80840AC68C6
:1049580024EA0604AC6005685E000324B44025EA36
:1049680004050560DD0800EB850503F0070C2E6AD9
:104978004FEA8C0C0F2707FA0CF726EA07062E6277
:10498800C56825EA0405C560456825EA0202426053
:104998008268013322EA0402102B826088D103B0B6
:1049A800BDE8F08F4FF0020E0EFA04F4B4E74FF0B2
:1049B800030E0EFA04F4AFE74FF0040E0EFA04F4F7
:1049C800AAE74FF0050E0EFA04F4A5E74FF0060E1D
:1049D8000EFA04F4A0E74FF0070E0EFA04F49BE772
:1049E800000C02400010024000140240001802406F
:1049F800001C024000000240003C0140000402404C
:104A08000008024002B90904816170472DE9F043AA
:104A180090F8F85285B0012D9DF830709DF834E07B
:104A2800BDF838802ED00026354663F307054FF0D1
:104A38002C0909FB01FC61F30F2502F07F090446EC
:104A480069F31745D00960F31F6504EB0C000CF1FE
:104A5800380C4FF0010984F8F89280F83D6080F82E
:104A68003FE0A0F8408044F80C5080F83C70CDE955
:104A780001E80097206802F009FF84F8F86205B0A1
:104A8800BDE8F083022005B0BDE8F08390F8F83265
:104A9800012B0BD010B504460123006884F8F832C6
:104AA80003F050F8002084F8F80210BD0220704787
:104AB80000284DD02DE9F04190F8F93204688AB009
:104AC800064603F0FF02002B3CD02046032386F85D
:104AD800F932E36B344613F4807308BF336102F094
:104AE800DDFC54F810CB0FCC6D460FC50FCC0FC5AD
:104AF80094E8030085E80300371D97E80E00604638
:104B080002F042FC3068012102F0D0FCB446EE46C7
:104B18005CF8108BBCE80F00AEE80F00BCE80F0093
:104B2800AEE80F0094E8030085E80300404697E8E4
:104B38000E0002F073FD0123002086F8F9320AB056
:104B4800BDE8F08180F8F822FDF7F6FC3068BDE793
:104B58000120704770B58C462C2101FB0C019DF893
:104B68001060059DBDF818409DF81CE081F83B20B9
:104B780081F83F304EBB81F83DE04FF0030E2C2109
:104B880001FB0C0181F842E0032B09D8DFE803F0B0
:104B98002C0220202C2303FB0C03002283F8422044
:104BA8002C2101FB0CF3C2186033D464002482F872
:104BB80039C055641465C45201FB0C01027C0068BD
:104BC800BDE87040383102F0F1BE4FF0020ED6E772
:104BD8002C2303FB0C03C2B993F855100029DDD030
:104BE800022283F84220DBE7012ED9D1002AD7D14F
:104BF8002C2303FB0C0384B983F855602C2303FB97
:104C08000C03022283F84220CAE793F85420002AB2
:104C1800C4D0022283F84220C2E793F85510002935
:104C2800BCD0EBE72DE9F04F056885B0044628466F
:104C380002F0F0FC012802D005B0BDE8F08F206832
:104C480002F0E4FC0028F7D0206802F0DFFC10F442
:104C5800001F20681CBF4FF40013436102F0D6FC0C
:104C680010F4801F20681CBF4FF48013436102F0CA
:104C7800CDFC10F0806F20681CBF4FF0806343614B
:104C880002F0C4FC10F0020F20681CBF022343612D
:104C980002F0BCFC10F0005F206840F0BD8002F01C
:104CA800B5FCC60100F1EA80206802F0AFFC0007FD
:104CB80000F1DD80206802F0A9FCC106266800F139
:104CC800C780304602F0A2FC8201B5D5206802F008
:104CD80033FFA26807462068002A00F0B58005F572
:104CE800A06500264FF02C0864E05FFA86F900F50D
:104CF800A06B0BEB491A4FEA4913DAF80820019325
:104D0800520700F16C81DAF80820D30500F19F8181
:104D1800DAF80820910640F187812022CAF8082095
:104D2800DAF80820920500F16781DAF80820D3073D
:104D380040F10481206958B1DAF8102008FB094CC9
:104D4800C2F3120EDCF84820A2EB0E02CCF8502079
:104D580008FB094C012200238CF86120CCF85C3058
:104D6800CAF808209CF83F2012F0FD0200F07D816F
:104D7800012A0DD1019B5BF8030040F000504BF86D
:104D88000300494620468CF86020FDF74DFC206959
:104D9800012808FB094100F0A68191F8543083F0FE
:104DA800010381F85430A26820680136964205F163
:104DB800200549D206F00F0327FA03F3DB07F4D5E1
:104DC8002B68190491D4F1B200F5A06C0CEB411AD0
:104DD8004FEA411EDAF8083013F0040340F0178157
:104DE800DAF808B01BF0200F00F082804FF0200C9A
:104DF800CAF808C008FB014C9CF83DE0BEF1010F61
:104E0800D3D18CF83D304FF002038CF8603002F0BB
:104E180099FEA2682068C8E74FF000534361D5F8AF
:104E28004034DF073FF53BAF1021284602F076FB00
:104E3800284602F09DFB0121206802F0B3FC2046C1
:104E4800FDF7E6FB20682AE74FF000734361F3E6BD
:104E5800B36923F01003B361376AC7F34342022AE8
:104E680000F02581B36943F01003B36129E72046B8
:104E7800FDF7C6FB2068082343611CE72668D6F8BF
:104E880040340293D6F840340393039B23F02E0357
:104E98000393029B980707D5029BD90700F15A8113
:104EA800039B43F002030393029B1A0715D5039B48
:104EB80043F008030393029B5B0740F14F81A1690C
:104EC800022900F05F81E368012B04BF4EF66022DF
:104ED800C6F804242046FDF79FFB029B9F0603D5D6
:104EE800039B43F020030393039BC6F84034DBE69F
:104EF800DAF8083013F4007B40F02381DAF8083040
:104F080013F0010300F0FA80DAF8082008FB0143E7
:104F18005206C3F85CB005D5012283F83D20402332
:104F2800CAF8083008FB01420123CAF8083082F8A1
:104F3800613002F007FEA268206836E7DAF8082038
:104F480012F0020200F09A8008FB094090F86120F4
:104F5800012A00F01481D01E05283BD8DFE800F0B4
:104F6800203A1A03310308FB0940C26D0132022AB4
:104F7800C26540F2B5810422002380F86020C36531
:104F880002232046CAF808304946FDF74DFBA268BF
:104F980020680AE708FB0943052083F86000EFE76B
:104FA80008FB09424FF0020382F86030019B5BF86E
:104FB800032022F0804242F000424BF803200222F4
:104FC800DEE708FB09400422C36D80F86020013346
:104FD800C365D5E708FB094393F86020D0E708FBD1
:104FE800094204234FF0060CCAF80830494682F8F3
:104FF80061C002F0A7FD93E62068494602F0A2FDD1
:105008004FF40073CAF80830A2682068CDE608FBA0
:1050180001430422CAF80820062283F8612002F01E
:1050280091FDA2682068C0E6DAF80820120700F1AE
:105038009980DAF80820530500F1AF80DAF80820E3
:1050480011067FF56DAE08FB09428023CAE708FB0D
:1050580009424FF480734FF0070CCAF808304946EC
:1050680082F861C002F06EFD5AE62068494602F0F7
:1050780069FD10232069CAF8083089E6DAF8083093
:10508800D90638D508FB094090F83F30032B00F0CB
:10509800E68013F0FD0304D1C3652369002B00F0FB
:1050A800E4801023CAF80830A26820687DE6C7F3B8
:1050B8000A12002A3FF4D6AE07F00F074FF02C086B
:1050C80008FB0748D8F8441000293FF4CBAED8F8BD
:1050D8005030D8F84C001344834240F2A480042393
:1050E80088F86030BEE6B1F840208B6CB3FBF2F371
:1050F800D8073FF552AEA268206856E6DAF808B03D
:105108001BF0400F57D1DAF8083013F008037DD1AF
:10511800DAF808B01BF0100F5ED008FB01424FF020
:10512800030CD36592F83D3082F861C033B9134659
:1051380092F83C2012B9012283F83D2002F002FDCA
:10514800AFE74FF40073CAF8083002F0FBFCA2681E
:1051580020682AE62046FDF757FAA1E62046FDF723
:105168005FFABAE608FB094208234FF0050CCAF8B3
:105178000830494682F861C002F0E4FCD0E580F8C6
:105188006020FDE6029B206803F4C023B3F5802F5E
:1051980018BF012102F006FB9CE608FB09424FF408
:1051A80080634FF0080CCAF80830494682F861C09D
:1051B80002F0C8FCB4E508FB0142D365042382F879
:1051C8006130012382F83D3002F0BCFC4023CAF86C
:1051D8000830A2682068E8E5DAF808301B064AD5E6
:1051E8002369002B00F0A08008FB0143DA6D01322F
:1051F800022ADA6500F2A0804FF0020283F86020EC
:105208008023CAF80830A2682068CEE508FB01436D
:105218000822CAF80820052283F8612002F092FCCF
:10522800A2682068C1E53046019202F0C9F9019AE6
:10523800D8F84430B8F84000134406F5A066C8F81A
:105248004430D8F8503006EB471113448242C8F86E
:10525800503009694FEA471347D0266802E6C2650D
:105268004946206802F06EFC1BE7032380F8613092
:105278002068494662E7DAF808305B0546D4DAF870
:1052880008309B077FF591AD08FB014393F8612037
:10529800012A5AD0033A052A0AD8DFE802F00303A4
:1052A8007314091408FB01434FF0020283F86020CD
:1052B8000223CAF8083008FB0143204693F860200F
:1052C800FDF7B2F917E708FB0142D36D0133022B52
:1052D800D3655DD90023D365042382F86030E7E7FE
:1052E8004FF0020380F8603060E6C1F3C94100293D
:1052F800B3D0F25822F0804242F00042F25098F8BF
:10530800543083F0010388F85430A6E708FB0143C2
:10531800082283F8612002F015FC4FF48063CAF874
:105328000830A268206840E508FB0143062283F89C
:10533800612002F007FC63E704220020D86583F8A7
:1053480060202046FDF770F95AE783F8602093F84B
:105358003F20023A012AABD8226962B1012AA7D1BB
:10536800DA6C002AA4D0B3F84000013A0244B2FB38
:10537800F0F2D2079CD593F8552082F0010283F809
:10538800552095E708FB0143052283F860208FE745
:105398004FF0020382F860305CF80E3023F080434F
:1053A80043F000434CF80E3082E700BF90F8F83223
:1053B800012B0ED010B504460121006884F8F812BC
:1053C80002F02EFA206802F061F8002084F8F80252
:1053D80010BD0220704700BF90F8F832012B0BD0A7
:1053E80010B504460123006884F8F83202F00EFC78
:1053F800002084F8F80210BD02207047006802F00F
:10540800EFB900BF2C2303FB010191F8600070473E
:105418002C2303FB0101086D704700BF006802F0F0
:105428002FBA00BF006802F01FBA00BF2DE9F04F85
:10543800046883B098462368DDF83090DDF834B00E
:1054480043F4807306468A4617462360B9F1FF3F46
:1054580036D16569E807FCD50AF0FE032361B9F186
:10546800FF3F03D04FE061694D055DD461698B074B
:10547800F9D50023019363690193A3690193019B03
:10548800B9F1FF3F40F0888063691A0664D4636904
:105498005B05F9D500236FF48061202261613363D5
:1054A80086F83D2086F83E30336C43F004033364BD
:1054B800336C0022042B86F83C2066D001201FE0C4
:1054C8006369D907C8D4FEF731FEA0EB0B0081450C
:1054D80004D3B9F1000F01D03468B7E700232022C4
:1054E800336386F83D2086F83E30326C316886F8A2
:1054F8003C3042F0200232640B68DC0535D40320CE
:1055080003B0BDE8F08F63699807B2D463695A05A0
:105518000AD4FEF70BFEA0EB0B0081454ED3B9F180
:10552800000F4BD034689AE7236843F40073236074
:1055380000226FF4806120236161326386F83D3078
:1055480086F83E20336C86F83C2043F004030120A3
:10555800336403B0BDE8F08FB8F1010F09D1FFB291
:105568000020276103B0BDE8F08F4FF40073336467
:10557800C5E73B0A2361B9F1FF3F2ED163691906DC
:10558800EDD463695A05F9D584E73268136843F4A2
:10559800007301201360B3E763691D06DCD46369F7
:1055A80059053FF577AFFEF7C1FDA0EB0B0081452C
:1055B80025D3B9F1000F22D0346861E700222023F7
:1055C800326386F83D3086F83E20336C86F83C20FE
:1055D80043F020033364012092E763691B06BED4BD
:1055E800636958053FF556AFFEF7A0FDA0EB0B0029
:1055F800814504D3B9F1000F01D03468BBE700231B
:105608002022336386F83D2086F83E30336C1343FE
:1056180033644DE72DE9F04F04689846236843F456
:1056280080632360236883B043F48073DDF830A07F
:10563800DDF83490236006468B461746BAF1FF3FE3
:105648003AD16569EB07FCD50BF0FE0323615FFADD
:105658008BFBBAF1FF3F03D069E065696A054ED458
:105668006569A907F9D50023019363690193A369C3
:105678000193019BBAF1FF3F40F0BD8063691806B2
:1056880068D463695905F9D500236FF48061202235
:105698006161336386F83D2086F83E30336C43F011
:1056A80004033364336C0022042B86F83C2070D04A
:1056B800012003B0BDE8F08F6369DD07C4D4FEF7AD
:1056C80035FDA0EB0900824504D3BAF1000F01D0E3
:1056D8003468B3E700232022336386F83D2086F838
:1056E8003E30326C316886F83C3042F02002326439
:1056F8000B68DC053DD4032003B0BDE8F08F2368B8
:1057080043F40073236000226FF4806120236161F9
:10571800326386F83D3086F83E20336C86F83C20AC
:1057280043F004030120336403B0BDE8F08F6369DC
:105738009B0798D463695805E1D4FEF7F7FCA0EB02
:1057480009008245C0F08F80BAF1000F00F08B800D
:1057580034687EE7B8F1010F0FD1FFB22761BAF1C3
:10576800FF3F6ED163691B061AD463695F05F9D5DB
:105778008AE74FF400733364BDE73B0A2361BAF14B
:10578800FF3F7ED163691D06E7D463695805F9D5E3
:105798007AE73268136843F4007301201360ABE7BB
:1057A800236843F480732360BAF1FF3F13D1636920
:1057B800D807FCD54BF001032361BAF1FF3F03D0B2
:1057C8002BE063695B059AD46369DB4313F002033A
:1057D800F7D1184690E76369D907EBD4FEF7A6FC22
:1057E800A0EB09008245FFF475AFBAF1000F3FF452
:1057F80071AF3468D8E763691A06ABD463695D058D
:105808003FF542AFFEF792FCA0EB090082454BD36F
:10581800BAF1000F48D034682CE76369DB4313F012
:105828000203D6D063695A053FF569AFFEF77EFCDF
:10583800A0EB0900824516D3BAF1000F13D03468E3
:10584800BBE763691D06ABD463695A053FF51CAF16
:10585800FEF76CFCA0EB0900824525D3BAF1000FD6
:1058680022D034687BE700222023326386F83D305B
:1058780086F83E20336C86F83C2043F020033364DE
:1058880016E7636919063FF568AF63695B053FF57D
:10589800FBAEFEF74BFCA0EB0900824504D3BAF13E
:1058A800000F01D034686AE700232022336386F8AA
:1058B8003D2086F83E30336C13433364F2E600BF74
:1058C800002800F0B98070B590F83D30044603F028
:1058D800FF02002B00F098802368242284F83D20E2
:1058E8001A6822F001021A601A6842F400421A602B
:1058F8001A6822F400421A6001F00AF965684F4BF1
:105908009D424FD84E4B98427CD94E4B6A00A3FB20
:105918000035431EB3FBF2F32268516821F03F01C2
:1059280041EA95415160116A4FEA954C0CF1010C1E
:1059380021F03F0141EA0C011162D16940F6FC7087
:10594800013321F44F41034221F0FF0161D10423C7
:105958000B43D361D4E907301168034321F0C00138
:105968000B4313609168D4E9030321F40341034313
:1059780021F0FF010B439360D4E90530D16803435C
:1059880021F0FF010B43D3601168002341F00101AE
:1059980020201160236484F83D00236384F83E309E
:1059A800184670BD284B98422CD92268254B51685F
:1059B800264EA3FB003C21F03F0141EA9C41516087
:1059C8004FEA9C434FF4967101FB03F3A6FB036374
:1059D800116A9B0921F03F0101330B431362D1691E
:1059E800A36821F44F4121F0FF01ABB9431E05EB39
:1059F8004505B3FBF5F30133C3F30B03D3B143F40C
:105A08000043A5E7012070BD80F83C20FBF716FF96
:105A180062E7C3F30B039BE705EB8505431E05EB24
:105A28008505B3FBF5F30133C3F30B0313B143F45B
:105A380040438DE701238BE701207047A0860100D2
:105A48007F841E0083DE1B43FF083D00D34D621098
:105A5800B0B10268242310B580F83D30136823F0F4
:105A6800010304461360FBF721FF0023236484F835
:105A78003C3084F83D30236384F83E30184610BD2E
:105A8800012070472DE9F04F044683B09946BDF8D0
:105A980034A00E9E0F469046FEF748FB94F83D3022
:105AA800202B04D00227384603B0BDE8F08F054606
:105AB80005E0FEF73BFB401B192800F2A880206890
:105AC80083696FEA030C1CF0020BF2D094F83C30A7
