:020000040800F2
:1000000000000220391E03089D2C0008A12C0008C6
:10001000A52C0008A92C0008AD2C00080000000049
:10002000000000000000000000000000B12C0008EB
:10003000B52C000800000000B92C0008BD2C0008F9
:10004000891E0308891E0308891E0308891E0308E8
:10005000891E0308891E0308D92C0008891E03087D
:10006000891E0308891E0308891E0308891E0308C8
:10007000891E0308891E0308E91D0008891E03085C
:10008000891E0308891E0308891E0308891E0308A8
:10009000891E0308891E0308891E0308891E030898
:1000A000891E0308891E0308891E0308891E030888
:1000B000891E0308E12C0008891E0308891E030815
:1000C000891E0308891E0308891E0308F92C0008ED
:1000D000891E0308891E0308891E0308891E030858
:1000E000891E0308891E0308891E0308891E030848
:1000F000891E0308891E0308891E0308DD1D0008E8
:10010000891E0308891E0308891E0308891E030827
:10011000891E0308891E0308891E0308891E030817
:10012000891E0308891E0308891E0308052D00087F
:10013000891E0308891E0308891E0308891E0308F7
:10014000891E0308891E0308891E0308ED2C000878
:10015000891E0308891E0308891E0308891E0308D7
:10016000891E0308891E0308891E0308891E0308C7
:10017000891E0308891E0308891E03080000000069
:08018000891E0308891E030813
:1001880010F8012B11F8013B012A28BF9A42F7D039
:10019800D01A7047034613F8012B002AFBD1181A0E
:1001A8000138704770B54FF0FF0C4CF4E06C1CEA56
:1001B80011541DBF1CEA135594EA0C0F95EA0C0F55
:1001C80000F0DEF82C4481EA030621EA4C5123EAC8
:1001D8004C5350EA013518BF52EA033541F48011F7
:1001E80043F4801338D0A0FB02CE4FF00005E1FBAA
:1001F80002E506F00042E0FB03E54FF00006E1FBF4
:1002080003569CF0000F18BF4EF0010EA4F1FF0436
:10021800B6F5007F64F5407404D25FEA4E0E6D4176
:1002280046EB060642EAC62141EA55514FEAC52087
:1002380040EA5E504FEACE2EB4F1FD0C88BFBCF503
:10024800E06F1ED8BEF1004F08BF5FEA500E50F1B4
:10025800000041EB045170BD06F0004646EA01017A
:1002680040EA020081EA0301B4EB5C04C2BFD4EBAC
:100278000C0541EA045170BD41F480114FF0000EA5
:10028800013C00F3AB8014F1360FDEBF002001F013
:10029800004170BDC4F10004203C35DA0C341BDC8D
:1002A80004F11404C4F1200500FA05F320FA04F05F
:1002B80001FA05F240EA020001F0004221F0004193
:1002C80010EBD37021FA04F642EB06015EEA430E06
:1002D80008BF20EAD37070BDC4F10C04C4F1200536
:1002E80000FA04F320FA05F001FA04F240EA0200E9
:1002F80001F0004110EBD37041F100015EEA430EBA
:1003080008BF20EAD37070BDC4F1200500FA05F2D9
:100318004EEA020E20FA04F301FA05F243EA020358
:1003280021FA04F001F0004121FA04F220EA020067
:1003380000EBD3705EEA430E08BF20EAD37070BDAD
:1003480094F0000F0FD101F00046400041EB01018D
:1003580011F4801F08BF013CF7D041EA060195F06F
:10036800000F18BF704703F00046520043EB030329
:1003780013F4801F08BF013DF7D043EA0603704716
:1003880094EA0C0F0CEA135518BF95EA0C0F0CD021
:1003980050EA410618BF52EA4306D1D181EA030167
:1003A80001F000414FF0000070BD50EA410606BF61
:1003B8001046194652EA430619D094EA0C0F02D1A6
:1003C80050EA013613D195EA0C0F05D152EA0336EB
:1003D8001CBF104619460AD181EA030101F0004109
:1003E80041F0FE4141F470014FF0000070BD41F052
:1003F800FE4141F4780170BD81F0004102E000BF88
:1004080083F0004330B54FEA41044FEA430594EACC
:10041800050F08BF90EA020F1FBF54EA000C55EA07
:10042800020C7FEA645C7FEA655C00F0E2804FEAD8
:100438005454D4EB5555B8BF6D420CDD2C4480EABA
:10044800020281EA030382EA000083EA010180EAEA
:10045800020281EA0303362D88BF30BD11F0004F38
:100468004FEA01314FF4801C4CEA113102D040426E
:1004780061EB410113F0004F4FEA03334CEA1333A9
:1004880002D0524263EB430394EA050F00F0A780C1
:10049800A4F10104D5F1200E0DDB02FA0EFC22FABC
:1004A80005F2801841F1000103FA0EF2801843FAB0
:1004B80005F359410EE0A5F120050EF1200E012AA1
:1004C80003FA0EFC28BF4CF0020C43FA05F3C018DF
:1004D80051EBE37101F0004507D54FF0000EDCF158
:1004E800000C7EEB00006EEB0101B1F5801F1BD301
:1004F800B1F5001F0CD349085FEA30004FEA3C0C05
:1005080004F101044FEA445212F5800F80F09A80FA
:10051800BCF1004F08BF5FEA500C50F1000041EBFE
:10052800045141EA050130BD5FEA4C0C404141EB02
:100538000101013C28BFB1F5801FE9D291F0000FFD
:1005480004BF01460020B1FA81F308BF2033A3F1AC
:100558000B03B3F120020CDA0C3208DD02F1140CA3
:10056800C2F10C0201FA0CF021FA02F10CE002F1DE
:100578001402D8BFC2F1200C01FA02F120FA0CFCD7
:10058800DCBF41EA0C019040E41AA2BF01EB045120
:10059800294330BD6FEA04041F3C1CDA0C340EDC1E
:1005A80004F11404C4F1200220FA04F001FA02F361
:1005B80040EA030021FA04F345EA030130BDC4F11F
:1005C8000C04C4F1200220FA02F001FA04F340EA14
:1005D8000300294630BD21FA04F0294630BD94F0C5
:1005E800000F83F4801306BF81F480110134013DAC
:1005F8004EE77FEA645C18BF7FEA655C29D094EA1D
:10060800050F08BF90EA020F05D054EA000C04BF9A
:100618001946104630BD91EA030F1EBF0021002085
:1006280030BD5FEA545C05D14000494128BF41F024
:10063800004130BD14F580043CBF01F5801130BD88
:1006480001F0004545F0FE4141F470014FF0000013
:1006580030BD7FEA645C1ABF194610467FEA655CC4
:100668001CBF0B46024650EA013406BF52EA033566
:1006780091EA030F41F4002130BD00BF90F0000F54
:1006880004BF0021704730B54FF4806404F1320490
:100698004FF000054FF0000150E700BF90F0000F49
:1006A80004BF0021704730B54FF4806404F1320470
:1006B80010F0004548BF40424FF000013EE700BF40
:1006C80042004FEAE2014FEA31014FEA02701FBFD0
:1006D80012F07F4393F07F4F81F06051704732F002
:1006E8007F4208BF704793F07F4F04BF41F4002159
:1006F800704730B54FF4607401F0004521F00041B7
:100708001CE700BF50EA010208BF704730B54FF040
:1007180000050AE050EA010208BF704730B511F041
:10072800004502D5404261EB41014FF4806404F179
:1007380032045FEA915C3FF4D8AE4FF003025FEAFF
:10074800DC0C18BF03325FEADC0C18BF033202EB83
:10075800DC02C2F1200300FA03FC20FA02F001FADD
:1007680003FE40EA0E0021FA02F11444BDE600BF80
:100778004FF0FF3C06E000BF4FF0010C02E000BF65
:100788004FF0010C4DF804CD4FEA410C7FEA6C5C48
:100798004FEA430C18BF7FEA6C5C1BD001B050EAEB
:1007A800410C0CBF52EA430C91EA030F02BF90EAD6
:1007B800020F0020704710F1000F91EA030F58BF95
:1007C800994208BF90422CBFD8176FEAE37040F0F7
:1007D800010070474FEA410C7FEA6C5C02D150EA95
:1007E800013C07D14FEA430C7FEA6C5CD6D152EA50
:1007F800033CD3D05DF8040B704700BF8446104615
:1008080062468C461946634600E000BF01B5FFF713
:10081800B7FF002848BF10F1000F01BD4DF808EDE3
:10082800FFF7F4FF0CBF012000205DF808FB00BFB4
:100838004DF808EDFFF7EAFF34BF012000205DF80E
:1008480008FB00BF4DF808EDFFF7E0FF94BF01205B
:1008580000205DF808FB00BF4DF808EDFFF7CEFF5C
:1008680094BF012000205DF808FB00BF4DF808ED9B
:10087800FFF7C4FF34BF012000205DF808FB00BF6C
:100888004FEA4102B2F1E04324BFB3F5001CDCF1AA
:10089800FE5C0DD901F0004C4FEAC0024CEA5070E2
:1008A800B2F1004F40EB830008BF20F00100704711
:1008B80011F0804F21D113F13872BCBF01F0004014
:1008C800704741F480114FEA5252C2F11802C2F146
:1008D800200C10FA0CF320FA02F018BF40F00100C7
:1008E8004FEAC1234FEAD32303FA0CFC40EA0C0079
:1008F80023FA02F34FEA4303CCE77FEA625307D1B6
:1009080050EA01331EBF4FF0FE4040F440007047EC
:1009180001F0004040F0FE4040F40000704700BF86
:1009280053B94AB9002908BF00281CBF4FF0FF314E
:100938004FF0FF3000F00CB8ADF1080C6DE904CEB3
:1009480031F024FCDDF804E0DDE9022304B070474F
:10095800704700BF10B5054C237833B9044B13B169
:100968000448AFF300800123237010BD58210020F4
:10097800000000005024030808B5034B1BB10349CD
:100988000348AFF3008008BD000000005C21002090
:100998005024030838B5044604252DED068B384845
:1009A800384BA560384D394A606000213848E3600B
:1009B8004FF080436261A361206121604FF4806041
:1009C80029469FED340ADFED34AADFED349A9FED16
:1009D80034AA01F09FFB2946B0EE408A4FF48060AC
:1009E800B0EE6A0A01F096FB9FED2E7A94ED049A18
:1009F80038EE408AF7EE008AC8EE077A29464FF4A7
:100A0800806094ED050A77EEA87A20EE290AC4EDF5
:100A1800077A01F07FFB4FF48060B0EE408A2946E8
:100A2800B0EE690A01F076FB29EE0A9A38EE408AA0
:100A38002946C8EE097A4FF48060B0EE6A0A77EE6C
:100A4800A87AD4ED05AAC4ED087A94ED069A01F0C7
:100A580061FB4FF48060B0EE408A29462AEEA90A6D
:100A680001F058FB29EE0A9A38EE408AC8EE097A56
:100A780077EEA87ABDEC068BC4ED097A38BD00BFC5
:100A88006666A63F6F12833A80240308CDCCCC3D1E
:100A9800000040406666A64417B7D13D0000804478
:100AA80000442C4767663042034A02604FF07E518B
:100AB800002341608360704717B7D13800220323B1
:100AC80042608360704700BF10B5144C2DED048B55
:100AD800DFED139AB0EE409A214620EEA90A4FF4B2
:100AE8008060B0EE418A01F015FB4FF48060F0EEB3
:100AF800408A214629EE290A01F00CFBDFED097A2C
:100B080078EEC08A28EE278AF7EE007A88EE880AFF
:100B1800BDEC048B30EE270A10BD00BF802403080B
:100B28000000804400442C4710B58368012B2DED4C
:100B3800028B044690ED008A2FD0032B18D03BBBC4
:100B480090ED077A28EE078AF7EE007AB4EEE78A86
:100B5800F1EE10FA1ADBB0EE678AB0EE480ABDEC87
:100B6800028B4269C0ED007A01234260836010BDA8
:100B7800D0ED097A28EE278A18EE100AFFF7A0FDB3
:100B88001AA3D3E90023FFF75DFEF0B984ED008ACC
:100B9800B0EE480ABDEC028B10BD90ED087AD0ED9E
:100BA800057A28EE078AB4EEE78AF1EE10FA80EDAE
:100BB800008AEDD8B0EE678AB0EE480ABDEC028B29
:100BC8000223C0ED007A836010BDDFED077AB0EE36
:100BD800678AB0EE480ABDEC028B0423C4ED007AA4
:100BE800A36010BDAFF30080000000002D431CEB94
:100BF800E2361A3F2DE9F041B1F90440B1F9065047
:100C0800B1F90080B1F90270ABB21646B9B2A2B21E
:100C18001FFA88F002F0E0FF11480022042103F0D7
:100C2800F1FF0F480122022103F0ECFFED1BA4EBBA
:100C38000803013301350B4C13FB05F35B00314608
:100C48009AB2204606F066FAA16C91F83530012B6D
:100C5800DAB2FAD1BDE8F0410148042103F0D2BF6D
:100C680000000240E863002038B50C4D0C4C02F03F
:100C7800E9FF0C4A0C494FF44863284623F028FB47
:100C8800204623F001FB094B094A22602046636194
:100C9800E560BDE8384023F029BB00BF745300204D
:100CA8009053002074210020743A0020FD0B0008A6
:100CB8004001F000014823F0F1BB00BF9053002031
:100CC80010B50B4C2378022B09D0042B00D010BD93
:100CD80000232370BDE81040064802F03FB90649DA
:100CE8000448402202F05EF90323237010BD00BFC0
:100CF800AA540020AC540020E05300202DE9F04114
:100D0800154802F041F9032823D9144CDFF8508024
:100D1800C0F38F00013880B2271D07EB800707E07A
:100D280066F307052846043400F02AF8BC4210D0C0
:100D38002288A37814F8016C62F3172563F31F6502
:100D4800002EEDD001224FF40041404603F05AFF37
:100D5800E6E7BDE8F08100BFAC540020E153002075
:100D6800000C024008B5FFF7C9FFBDE8084002497A
:100D78000248402202F016B9E0530020AC5400208B
:100D880038B5C0F30742C0F30763010EC0F307206C
:100D980000F0F0009028144621D0E0281AD08028CE
:100DA80017D1344D344A29780139002349B2994280
:100DB800135529704BDD314D2978A14209D102E044
:100DC8000133802B04D012F8011B0129F8D1D8B2C5
:100DD800287038BD2A4A04EBC113138038BD29484E
:100DE8000370C9B9234D244A13552B78013B5BB2D4
:100DF800002B2B702BDD214D2B78A342E9D1134614
:100E08000A4602E00132802A04D013F8011B0129A6
:100E1800F8D1D2B22A7038BD18481B4902701B4855
:100E28000B70FFF741FE1A48FFF73EFE1948FFF71F
:100E38003BFE194801224FF4804103F0E3FE0D4ABE
:100E48000D491378012003440855137038BD0F4825
:100E5800FFF734FE0E48FFF731FE0E48FFF72EFE6F
:100E680000222A70BDE838400B484FF4804103F057
:100E7800C9BE00BF2054002024540020A6540020DE
:100E8800A8540020A5540020A454002050000010AD
:100E98002800001000000010000C0240042917D0A0
:100EA800052910B50B4602D0022919D010BD174BE1
:100EB8001748042400224FF480511C7003F0A2FE4E
:100EC800BDE81040124800224FF4004103F09ABEDA
:100ED8000E4B0F4801224FF400411A7003F092BEE6
:100EE8000A4C0B48237001224FF4805103F08AFE0C
:100EF800074800224FF4004103F084FEBDE810408B
:100F0800034800224FF4804103F07CBEAA5400201D
:100F1800000C02402DE9F8430F4CDFF84C90DFF845
:100F28004C800E4F04F18006002504F8015F484606
:100F3800FFF7C4FD4046FFF7C1FD3846FFF7BEFD89
:100F4800B442F1D1064B07481D702A464FF4804140
:100F5800BDE8F84303F056BE2354002000000010FB
:100F680020540020000C02405000001028000010FF
:100F78002DE9F041D0E902850446A8EB0507406851
:100F880097422844154408D83A460E46A5EB08056A
:100F980031F096F860682A46F11931F091F8BFF3FC
:100FA8005F8FE560BDE8F0812DE9F8430646D0E99A
:100FB8000204894617464FF0000833699C4203F142
:100FC800FF3228BF03F1FF33A0EB04052ABF1B182B
:100FD800131B1B1BBD4228BF3D469D42706828BF9E
:100FE8001D4649462A46204431F06AF8B0682C4428
:100FF800A844A9447F1BA04208BF0024BFF35F8F09
:10100800F460002FD9D14046BDE8F88310B5154CDF
:10101800A8220021204631F00DF803212161124A4F
:1010280061611248A2614FF48061E061002321628E
:101038000F48A36210216362E36222666066A166BC
:101048002367E3666367BFF35F8F0A4BA3F1100C56
:101058001846C21A13F8011DA1546345F9D1BFF30C
:101068005F8F10BDD85E002084340308D85A002052
:10107800C85A0020683A030838B5214B00EB4004F1
:1010880003EBC40E0130DEF82C4000EB4000012CCD
:101098008C46154603EBC00015D0022C0FD034BB8C
:1010A800DEF82830DEF8242093429CBFDEF82010BA
:1010B8005B18013B9A1A95421CD9204638BDBDE8F9
:1010C8003840FFF771BFDEF82830DEF82440A3422D
:1010D8009CBFDEF820105B18013B1C1B944228BF04
:1010E800144622466146FFF743FF204638BD0024D8
:1010F800204638BD2A466146FFF73AFF2C46DCE712
:10110800D85E0020F8B5054608460C46FFF742F8B9
:101118000A4B1B7806466BB1EFF311874FF020019D
:1011280081F31188324621462846FFF7A5FF87F349
:101138001188F8BDFFF76AFFEEE700BFD85E002010
:101148002DE9F041194D1E462B780446884617466E
:101158002BB3022C26D8EFF3118C4FF0200181F32A
:10116800118854B92246131905EBC305069BEB6297
:101178008CF311880020BDE8F081601C00EB400072
:10118800C00004EB440345F8008005EBC303284482
:101198000021476062001E6299625962E3E7FFF727
:1011A80035FFD6E74FF0FF30E5E700BFD85E0020F7
:1011B8002DE9F04383B023F039F906F051FF2CF004
:1011C80073FA6D496D4E6E4D04462CF079FA20463F
:1011D8006C4900220CF084FF2046002202210CF00A
:1011E80085FF0A2300220221204609F0D7F823F0C0
:1011F8001DF906F035FF2CF057FA634C634920605F
:101208002CF05EFA2068624900220CF069FF206821
:10121800002202210CF06AFF282300220221206804
:101228005C4C09F0BBF823F001F906F019FF27F030
:10123800D9FA48221146306008F0E6FF6FF009033A
:101248006FF059020921306809F0A8F823F0EEF888
:1012580006F006FF27F0C6FA48221146286008F073
:10126800D3FF6FF009035A220921286809F096F87C
:1012780023F0DCF806F0F4FE27F0B4FA4822114611
:10128800206008F0C1FF412320680022092109F0ED
:1012980085F83068872128F037F830684FF487726E
:1012A800002128F025F82868872128F02DF82868DB
:1012B8004FF48772002128F01BF82068872128F056
:1012C80023F820684FF48772002128F011F830685D
:1012D8004FF4403200210CF0DBFA3068022108F0AC
:1012E80071F928684FF4403200210CF0D1FA2868CF
:1012F800022108F067F94FF44032206800210CF011
:10130800C7FA0221206808F05DF923F08FF806F08B
:10131800A7FE2CF0C9F9204981462CF037FA23F0B2
:1013280085F806F09DFE2CF0BFF91C4980462CF08C
:101338002DFA23F07BF806F093FE2CF0B5F9184946
:1013480007462CF023FA31680F26484600960023FA
:1013580005220AF0B3F929680096404600230522C1
:101368000AF0ACF9216800960023052238460AF0F5
:10137800A5F903B0BDE8F083903403088C5F002022
:10138800885F0020B0C80308805F0020A0340308ED
:10139800948A0308845F0020B0340308B834030833
:1013A800C034030808B523F041F806F059FE0022BE
:1013B8004CF601210CF066FE23F038F806F050FEDA
:1013C80000224FF0FF310CF077FEBDE80840FFF730
:1013D800EFBE00BF08B5234B2DED028BD3ED007A8D
:1013E8009FED218A214B67EE887A1868FCEEE77A30
:1013F800002117EE903A9AB227F0CEFE1C4A1D4BF8
:10140800D2ED007A186867EE887A0021FCEEE77A58
:1014180017EE903A9AB227F0BFFE174A174BD2ED53
:10142800007A186867EE887A0021FCEEE77A17EEF2
:10143800903A9AB227F0B0FE114B1B8813F0010FB7
:10144800104B07D1BDEC028B18680F49BDE8084066
:101458002CF036B9BDEC028B18680C49BDE8084081
:101468002CF02EB9A05F0020000087438C5F00207D
:101478009C5F0020885F0020985F0020845F002028
:10148800925F0020805F0020A0340308C83403085E
:1014980038B5474C474D2DED028B204602F0E2FD52
:1014A8004FF0FF31204602F061FE204602F0B6FE02
:1014B800414B9FED428A024620461A8002F0AEFE5A
:1014C80000EE100AF0EE480A3D483E4CB8EE400ADD
:1014D80000F00EFDFCEEC07A17EE900AC0F38D0006
:1014E800FFF7DCF830A3D3E90023FEF75BFEFFF734
:1014F800C7F92860204602F0B5FD4FF0FF312046BD
:1015080002F034FE204602F089FE2F4B2F4D024692
:1015180020461A8002F082FE00EE100AF0EE480A19
:101528002B482C4CB8EE400A00F0E2FCFCEEC07AE6
:1015380017EE900AC0F38D00FFF7B0F81AA3D3E9AD
:101548000023FEF72FFEFFF79BF92860204602F0E4
:1015580089FD4FF0FF31204602F008FE204602F0D8
:101568005DFE1D4B024620461A8002F057FE00EE33
:10157800100AF0EE480A1948194CB8EE400A00F073
:10158800B7FCFCEEC07A17EE900AC0F38D00FFF7A7
:1015980085F805A3D3E90023FEF704FEFFF770F9E9
:1015A800BDEC028B206038BDBE963C000104503F64
:1015B80040600020A05F0020A85F002048E17A3F3B
:1015C800A0620020F85F0020A65F00209C5F00203A
:1015D8009C620020B05F0020A45F00209862002079
:1015E800985F0020064B074A5B6A11880648C3F3D8
:1015F8008F039942038002D0044913800B807047FF
:1016080000040040965F0020945F0020925F002055
:1016180008B58021084803F0EFFA084A08491388FA
:101628000880984218BFB3FA83F30649108014BFA4
:101638005B0900230B7008BD000402400200002073
:1016480000000020905F002000B51F481F499FED53
:101658001A7B4FF4803285B00023C0E900120122C2
:10166800CDE90033CDE9023380ED0A7B8360036165
:10167800037680F82030C360C26180F83030426160
:1016880002F044FC68B99FED0E7B00230E480293DC
:1016980069468DED007B02F0C5FD28B905B05DF8FF
:1016A80004FB00F0D7FFEEE700F0D4FF05B05DF8CB
:1016B80004FB00BFAFF300800100000F0000000032
:1016C8000E000000010000004060002000200140E2
:1016D80000B51F481F499FED1A7B4FF4803285B033
:1016E8000023C0E900120122CDE90033CDE902331D
:1016F80080ED0A7B83600361037680F82030C36045
:10170800C26180F83030426102F000FC68B99FED98
:101718000E7B00230E48029369468DED007B02F094
:1017280081FD28B905B05DF804FB00F093FFEEE7F2
:1017380000F090FF05B05DF804FB00BFAFF3008038
:101748000100000F000000000F0000000100000071
:10175800F85F00200021014000B51F481F499FED98
:101768001A7B4FF4803285B00023C0E900120122B1
:10177800CDE90033CDE9023380ED0A7B8360036154
:10178800037680F82030C360C26180F8303042614F
:1017980002F0BCFB68B99FED0E7B00230E48029354
:1017A80069468DED007B02F03DFD28B905B05DF876
:1017B80004FB00F04FFFEEE700F04CFF05B05DF8CA
:1017C80004FB00BFAFF300800100000F0000000021
:1017D8000C00000001000000B05F00200022014062
:1017E80000B5026840498DB000238A42CDE906332E
:1017F800CDE908330A9308D03C498A4225D03C49B0
:101808008A4242D00DB05DF804FB3A4A0093506C0E
:1018180040F480705064506C00F480700090009820
:101828000193136B344843F004031363136B9FED68
:10183800287B03F00403019306A98DED067B019B29
:1018480003F004F80DB05DF804FB2A4A0293506CCB
:1018580040F400705064506C00F4007002900298DC
:101868000393136B244843F004031363136B9FED36
:101878001A7B03F00403039306A98DED067B039BF3
:1018880002F0E4FF0DB05DF804FB1A4A0493506CB3
:1018980040F480605064506C00F4806004900498B8
:1018A8000593136B144843F004031363136B9FED04
:1018B8000C7B03F00403059306A98DED067B059BBD
:1018C80002F0C4FF0DB05DF804FB00BFAFF3008069
:1018D80010000000030000002000000003000000CA
:1018E8000400000003000000002001400021014026
:1018F80000220140003802400008024008B54AF6BC
:1019080044422DED048B5A21022002F06DF89FED20
:101918002F8A9FED2F9A2F48DFED2F8A4FF4007101
:1019280001F07AFFB6EE002AF0EE481AB0EE481A37
:10193800F0EE490AB0EE420A284800F08DFEB6EEF5
:10194800002AB0EE481AF0EE680AB0EE420ADFED5F
:10195800241A244800F080FEB6EE002AF0EE481A59
:10196800B0EE481AF0EE490AB0EE420A1E4800F0FE
:1019780073FEB6EE002AF0EE481AB0EE481AF0EE02
:10198800680AB0EE420A194800F066FEB6EE002A70
:10199800F0EE481AB0EE481AF0EE680AB0EE420AC5
:1019A800134800F059FE1348FEF7F4FF1248FEF7FB
:1019B800F1FF1248FEF7EEFF114800F0C5FCBDEC40
:1019C800048BBDE8084001F057B800BF00000000D4
:1019D80000007A44986000200000DC4304010010F5
:1019E800F4FDB43FE8000010CC000010B000001077
:1019F8009400001050000010280000100000001093
:101A08007063002000000000CD4ACE4BD2ED007A72
:101A18001B882DE9F04F27EEA77A2DED088B27EECE
:101A2800277A83B067EE277A03F00103044617EE9E
:101A3800900A00930F460191FEF742FEBCA3D3E93A
:101A48000023FEF7DFFCC04BC04EC14D0022FEF75D
:101A5800A9FBFEF715FFD6ED050A306101EE100A65
:101A6800B7EE000A2861FFF72FF895ED041AD5EDB7
:101A7800050AF0EE407AB7EE000AC6ED087AFFF7DD
:101A880023F885ED080A002F00F04A81B14EDFEDFA
:101A9800B2AADFEDB29A9FEDB29ADFEDB28ADFF813
:101AA8000CA3DFF8E492B04FDFF80483DFF804B347
:101AB8009FEDAEAA0234002556E0F0EE086AB4EEB7
:101AC800E67AF1EE10FA00F30281F3EE0B6AF2EE19
:101AD800025A67EE255AF0EE664AE7EE074AE7EE45
:101AE800256A27EE247AB0EE666AC7EE066A9FED8D
:101AF800A05A26EE857ABDEEC77A17EE103A1AB2CA
:101B0800B8EE087AF4EEC77AF1EE10FA00F1DD804B
:101B1800B0EE087AF4EEC77AF1EE10FA00F3DA8044
:101B2800B3EE0B7AB2EE026A27EE866AB0EE475A37
:101B3800A7EEA75AA7EE867A67EE857AF0EE476A8F
:101B480087EEA67ADFED8A5A67EE257AFDEEE77A08
:101B580017EE903A1BB224F8022C24F8043B019BA0
:101B680001359D4200F0DC8097ED007A814B27EE2D
:101B78002A7AF7EE007A83ED017A7F4B1B7806EB21
:101B8800830292ED007A7D4A8AED007A77EE276A21
:101B980077EE677A66EEAA6A67EEAA7AC2ED016AFC
:101BA800774AC2ED017A06EB8302D2ED077A754ACD
:101BB80067EEAA7A27EE2A6AC2ED017A009A89EDC1
:101BC800016A002A40F089800C2B8ABF06EB830348
:101BD8001AEE103A53F8303C6B483B6000F0C0FDF9
:101BE8006648B0EE408A00F0BBFD654838EE008AD2
:101BF80000F0B6FD634838EE008A00F0B1FD5D489C
:101C080038EE008A00F008FE38EE008AF5EE007A19
:101C180028EE278A4D48FEF787FF98ED007A9FED5A
:101C28004F1A67EE297AF3EE040A67EE877A67EEB1
:101C3800877A67EE877AE0EE097AB0EE670A00F0F5
:101C480083FA524BF0EE407A1846B0EE480AC3EDDC
:101C5800007A00F085FB4E48B0EE40BAFEF764FF0C
:101C6800DBED007A4B4BDFED4C0AC3ED007AB0EEAA
:101C7800408AB5EE000A37EE800AB0EE681A00F026
:101C880063FA28EE0B8A454B45494648F0EE407A00
:101C9800B0EE480AC3ED007A00F018FF414B93ED0F
:101CA800007A3F4BF8EE086AB4EEE67AF1EE10FAE5
:101CB800D3ED007A7FF501AFB8EE087AF4EEC77A73
:101CC800F1EE10FA384A7FF523AF374B43E747F672
:101CD800FF7215E747F6FF733DE71D48FEF724FF3F
:101CE80098ED007A67EE077AF0EE406A67EE877A39
:101CF8009AED000A67EE877A67EEA67AC9ED037A4D
:101D080000F0FAFC10EE100AFEF7DAFC0AA3D3E999
:101D18000023FEF747FAFEF7B3FD08EE100A79E74D
:101D280003B0BDEC088BBDE8F08F00BFAFF30080B7
:101D3800FCA9F1D24D62803F9A9999999999E93F06
:101D48009C5F0020925F00200000244028000010C3
:101D5800000000106C3A03088D3B803F0044AC46FD
:101D680000C0DA45CDCC8C3F9060002013D00241F2
:101D780000FEFF4694000010A6540020E800001062
:101D8800CC000010B00000100401001070630020A7
:101D98005000001008200020000000000C20002047
:101DA800886000208C6000200180FFFF9460002084
:101DB800A05F0020985F002001484021FFF724BE63
:101DC8009860002001484021FFF71EBE986100205E
:101DD800FEE700BF014B986B02F062BC38C10120DE
:101DE800014BD86B02F05CBCF0C0012000B583B099
:101DF80000220A4B0192196B41F4800119631B6B95
:101E080003F48003019311463B20019B02F0C4FABE
:101E18003B2003B05DF804EB02F0FABA0038024048
:101E280000230349034A036043608160C26070472E
:101E38006666263F0000964410B504462DED028BD9
:101E4800C068B0EE408AFEF73BFC25A3D3E9002327
:101E5800FEF7A8F924A3D3E90023FEF7A3F91E4B44
:101E68000022FEF79FF9FEF70BFD1C4900EE100A51
:101E78004FF4006000F04EF994ED026A94ED007A98
:101E880036EE066AF7EE006AA6EE478AE6EE006AC4
:101E9800F0EE407AA7EE678A94ED010AC4ED047A61
:101EA800E7EEA76A38EE408A88EE266ABDEC028B18
:101EB800A6EE277AA7EE270AF0EE475AF0EE406A18
:101EC800E6EE275AE7EE276AC4ED005AC4ED016A28
:101ED80010BD00BFAFF300800000A0400400002048
:101EE800EA2E4454FB210940000000C0F8C6F73E22
:101EF800F7EE007A77EEE07A90ED007A27EE800A26
:101F0800A7EE200A80ED000A704700BF2DE9F04FC8
:101F180000248DB0CDE90644CDE90844784B0094FF
:101F28000A941A6B774FDFF8E481DFF8E491764E74
:101F380042F010021A631A6B02F010020092009A23
:101F480001941A6B42F004021A631A6B02F004023D
:101F58000192019A02941A6B42F080021A631A6B7A
:101F680002F080020292029A03941A6B42F0010274
:101F78001A631A6B02F001020392039A04941A6B13
:101F880042F002021A631A6B02F002020492049AE7
:101F980005941A6B42F008021A631B6B03F00803DE
:101FA8000593224638460821059B02F02BFE0122A4
:101FB8001146404602F026FE224648464FF21001DE
:101FC80002F020FE224638460A2102F01BFE0122BA
:101FD8003046042102F016FE01250A2306A93046E0
:101FE800CDE90635CDE9084402F030FC042306A902
:101FF800304606934FF0080ACDE90754099402F0D9
:1020080025FC06A93846CDF818A0CDE9075409944F
:1020180002F01CFC06A940464FF0020BCDE906551C
:10202800CDE9084402F012FCCDF818A040464FF064
:10203800050A06A9A8F58068CDE90844CDF81CB0C2
:10204800CDF828A002F002FC06A9304601224FF480
:102058009013CDE90623089402F0F8FB042206A9A0
:1020680040460023CDE90623089402F0EFFB4FF425
:10207800806306A940460693CDE90844CDF81CB014
:10208800CDF828A002F0E2FB4FF2100306A948465B
:102098000693CDE90754099402F0D8FB484606A9EF
:1020A80020220023CDE90623089402F0CFFB38460E
:1020B80006A902224FF49013CDE90623089402F0F2
:1020C800C5FB304606A901224FF48813CDE9062343
:1020D800089402F0BBFB002306A940468022CDE904
:1020E8000623089502F0B2FB22462146062002F09C
:1020F80053F9062002F08CF90DB0BDE8F08F00BF4F
:10210800003802400010024000000240000802406F
:10211800000C0240FCEEC07A17EE903AF8EE677AAF
:10212800834270EE677A02D91B1A8342FCD80133C6
:1021380001EB830111ED010A91ED007A37EE407A47
:10214800A7EE870A704700BFB4EE410AF1EE10FA15
:1021580048BFB0EE401AB4EE601AF1EE10FA4CBF68
:10216800B0EE600AB0EE410A704700BF10B50B48E8
:102178000B4C0C4900234FF48042C0E90041C0E9F0
:102188000233C0E90423C0E90633036203F074FC98
:1021980000B910BDBDE8104000F05CBAD062002064
:1021A80000540040A086010030B5184B026889B081
:1021B80000249A42CDE90244CDE90444069401D0B2
:1021C80009B030BD124D00942B6B43F002032B6312
:1021D8002B6B03F0020300934FF410721223CDE926
:1021E800022300980B480122042302A906930492B3
:1021F80002F02CFB01942B6C43F400132B642B6C22
:1022080003F400130193019B09B030BD0054004052
:10221800003802400004024008B50268094B9A429F
:1022280000D008BD084A0948136C23F40013402164
:10223800136402F027FCBDE8084004484FF400711D
:1022480002F020BC00540040003802400004024064
:1022580010B50C480C4C00234FF400724BF680313B
:10226800C0E90042C0E90233C0E90421C0E90633ED
:10227800036203F007FF00B910BDBDE8104000F08D
:10228800E9B900BF28630020003C004070B52A4A25
:1022980001688EB000239142CDE90933CDE90B33B3
:1022A8000D93079301D00EB070BD0124CB250223F6
:1022B80004A8CDE90445069304F098FC002838D119
:1022C8001E4B1F48002401941A6C42F400421A6401
:1022D8001A6C02F400420192019A02941A6B42F0BD
:1022E80001021A631A6B02F001020292029A039425
:1022F8001A6B42F004021A631B6B102103F00403EB
:10230800099103930226062509A9039BCDE90A64CE
:10231800CDE90C4502F09AFA4FF4A4530948099301
:1023280009A9CDE90A64CDE90C4502F08FFA0EB08F
:1023380070BD00F08FF9C3E7003C00400038024050
:1023480000000240000802400023044A0260436083
:102358008360C36003614361704700BF0000C842E7
:1023680010B504462DED028B0068B0EE408AFEF7EA
:10237800A7F961A3D3E90023FDF714FF60A3D3E90C
:102388000023FDF70FFF5A4B0022FDF70BFFFEF766
:1023980077FA584900EE100A4FF40060FFF7BAFECA
:1023A800F7EE006A70EE267A94ED036AD4ED044ADB
:1023B80094ED017A94ED054AC6EEA73AD4ED027A77
:1023C80020EE235AF8EE081AE6EE054A25EE053AFD
:1023D800B4EEE18AE3EE274A23EE052AF1EE10FA7D
:1023E80062EE052AE2EE074A22EE883AB0EE662A45
:1023F800A4EE222AA4EEA33AF0EE405A83EE020A93
:1024080072D4F0EE084AB4EEE48AF1EE10FA55DD23
:1024180064EE004AB8EE084AF4EEC44AF1EE10FA47
:102428005FD4B0EE084AF4EEC44AF1EE10FA42DC8A
:10243800B3EE0B4AF2EE022A64EEA22AB0EE442A68
:10244800A4EEA42AA4EEA24A64EE824AB0EE443A6C
:1024580084EE834ABDEC028B76EEC46A27EE237ABB
:1024680067EEA37AA5EE267A26EE236AE5EE077ACA
:1024780076EEC76AF0EE474AE6EEA54AF0EE466AFF
:10248800E5EE276A37EE677AB0EE676A77EEE67AA6
:10249800A7EE256A36EEC07AE7EEA56AF0EE407A36
:1024A800E7EE257AC4ED014A84ED026AC4ED036AB9
:1024B800C4ED047A10BDB7EE004ACBE7F3EE0B6A21
:1024C800B2EE023A28EE033AF0EE662AE8EE082A5F
:1024D800E8EE036A28EE228AF0EE664AC8EE246A1D
:1024E80096E7BFEE004AB5E7FFEE006A90E700BF47
:1024F8000000A04004000020EA2E4454FB21F93FCC
:10250800000000C0F8C6F73E30B5002395B0CDE90D
:102518000A33CDE90C33CDE90333CDE9053322493C
:1025280001930793086C214A40F080500864096CB5
:1025380001F08051019101990293136843F480439B
:102548001360136801204FF4803103F48043CDE910
:10255800080102934FF480010224CDE90E4102984C
:1025680007210220CDE9120108224FF4A87308A818
:102578001092119304F076F808B172B6FEE70F22B4
:102588000346CDE903244FF4A0554FF4805203A825
:102598000521CDE90535079204F07AFA08B172B63B
:1025A800FEE715B030BD00BF0038024000700040A3
:1025B80000B583B001F06CFC0024FFF7A5FFFFF71E
:1025C800A5FCFFF741F8FFF783F8FFF7C5F8FFF719
:1025D8000DFCFFF7CBFDFFF73BFE00F0CDF900F057
:1025E8009DFB17490020FEF78DFD23462246214614
:1025F80000942046FEF7A4FD3C21124804F0F4FEA6
:1026080006F05CFFFEF730FBFEF7CCFE22460E49D3
:102618000E480E4C2EF088FE0D490C482EF0B4FEE4
:102628000A482EF0EDFEFFF769F924F071FEFEF777
:10263800D1FEFEF745FB20462EF0ECFEF5E700BF85
:10264800D8340308E8BC0120A50E0008AC540020CB
:102658001420002072B6FEE7DFED087A80ED000A4C
:1026680060EEA70A0023C0ED010A836080ED031A1B
:10267800C0ED041A80ED052A836170478D3B803FC9
:10268800D0ED027A9FED190A1949F5EEC07AF1EEFC
:1026980010FA44BFB7EE007A77EE877A10B5B7EE36
:1026A800007AF4EEC77AF1EE10FAA8BF77EEC77A8F
:1026B80004462DED028B27EE800AC0ED027A4FF416
:1026C800806094ED008AFFF725FDD4ED027A9FED36
:1026D800097AD4ED016A28EE000ABDEC028BE6EE19
:1026E800877A84ED060AC4ED027A10BD00008044A2
:1026F8006C3C03084590BE3738B5144DDFED147AAD
:1027080095ED047ADFED136A134C27EE277A2846F5
:10271800C7EE267A9FED117A67EE807A20EE077A67
:10272800C5ED017A84ED017AFFF7AAFFD4ED027AAC
:10273800D4ED036A95ED067AE6EE877A2046C4ED75
:10274800027AFFF79DFF94ED060A38BDE8000010F5
:1027580000442C4700F42B47040100108D3B803FB8
:102768009FED2C7AD0ED017AD0ED026A90ED000A47
:1027780067EE877AF0EE005A37EEA67ABFEE006A67
:10278800B5EEC07AF1EE10FAA6EEA56A44BFF7EEF0
:10279800005A37EE257AF7EE005AB4EEE57AF1EEF4
:1027A80010FAA8BF37EE657AF4EEE67AF1EE10FA81
:1027B80080ED027A12DD86EEA77AF0EE005A67EE17
:1027C800477AF7EE006AE7EE257A77EEE67A36EE94
:1027D800676A20EE060A80ED060A7047F7EE005A8F
:1027E80035EEE77AF4EEC76AF1EE10FAF1DD76EE2F
:1027F800E56A86EEA77AF0EE477AE7EE077A37EED3
:10280800277A37EE257A36EE476A20EE060A80EDFB
:10281800060A70474590BE37DFED556A90ED017A9C
:10282800D0ED027A90ED056A27EE267AF4EEC67AA4
:1028380077EE276AF1EE10FAF7EE005AF5EEC06A65
:10284800BFEE000AB8BFB0EE650AF1EE10FA48BF55
:1028580076EEA56AF7EE005AF4EEE56AF1EE10FAA4
:10286800A8BF76EEE56AB4EEE77AF1EE10FAC0EDAD
:10287800026A37DDC7EE875AF0EE004A65EEE56A70
:10288800B7EE005AE5EEA46A76EEC56A77EEC67A28
:1028980030EE260AF5EEC07AF1EE10FAF7EE006A8D
:1028A80057D4F4EEE67AF1EE10FAA8BF77EEE67A9E
:1028B800B4EEE77AF1EE10FA2ADDC7EE876AB0EED9
:1028C800006A66EEE67AB7EE007AE6EE867A77EE8A
:1028D800C77A30EE670AD0ED007A20EE270A80ED3D
:1028E800060A7047F7EE005A75EEC76AF4EEE67A04
:1028F800F1EE10FA2ADD37EEE55AC5EE076AB0EEBA
:10290800665AA6EEA65A76EE856A76EEA56ABDE701
:10291800B7EE006A76EE476AF4EEE67AF1EE10FA60
:10292800D9DD77EEC67AC7EE876AF0EE667AE6EE0C
:10293800A67A76EEA76AD0ED007A76EE866A30EE51
:10294800660A20EE270A80ED060A7047DFED096A5D
:102958009CE777EEA67AF4EEE67AF1EE10FAA7DBBA
:10296800B5EEC07AF1EE10FAB5DDDFED027AA4E734
:102978004590BE37000000000F4810494FF482729E
:1029880010B5C0E900124FF4007200234FF4004460
:10299800082182610A22C0E90243C0E90433C0E980
:1029A8000713C0E90933C26204F08CFA00B910BDFC
:1029B800BDE81040FFF74EBEE8630020003001403C
:1029C80070B5294B026888B000249A42CDE90244C8
:1029D800CDE90444069401D008B070BD03F58433F2
:1029E80000945A6C214E42F480525A645A6C02F494
:1029F80080520092009A01941A6B42F001021A6305
:102A08001B6B03F001030193E0220223CDE90223AB
:102A1800054605231648019A069302A901F016FFF8
:102A2800144A74624FF0C063C6E90023304640225E
:102A38004FF48063C6E90224C6E90544C6E90744A1
:102A4800336101F00DFD58B900221146AE64232010
:102A5800B56301F0A1FC232001F0DAFC08B070BDD9
:102A6800FFF7F8FDF0E700BF003001408863002061
:102A7800000002405864024010B50A480A4A0B4C4C
:102A880004600B490B4B0C4810600C4C0C4A0D4869
:102A98000C601A60FFF7C4F9BDE810400A48FFF758
:102AA800BFB900BF4C640020486400209C1001207E
:102AB800446400204064002050640020E0BC0120F1
:102AC80094100120B8620020A46200202DE9F0478C
:102AD800574F584E3B682DED028B8146F0EE408AE9
:102AE800554893ED000A0D46FFF7A6F93368534899
:102AF800B0EE408A93ED000AFFF79EF9504B93ED34
:102B0800007A67EE087AF8EE086AF4EEE67AF1EEF3
:102B180010FA00F18480F0EE086AF4EEE67AF1EE3D
:102B280010FA79DCF3EE0B6AF0EE665AB2EE026A3E
:102B380027EE866AE7EEA75AE7EE866A67EEA57A79
:102B480087EEA66AF0EE687AE7EE007AB8EE087AC1
:102B5800F4EEC77AF1EE10FA64D4B0EE087AF4EE27
:102B6800C77AF1EE10FA60DCB3EE0B7AF0EE475A52
:102B7800F2EE026A67EEA66AE7EEA75AA7EEA67A11
:102B880067EEA57AC7EE876ADFF8C0A0DFF8C080D5
:102B9800DAF80040D8F800202A4B3968DFF8B4E0AA
:102BA80004314AF6404CA1EB0E006045C8BF71469F
:102BB8003960E4EC016AA2EC016AD3ED005AF7EE41
:102BC800007A37EEE57A27EE287AA5EE867A89ED3F
:102BD800007A93ED007A336877EEC77A043367EEAC
:102BE800A87ABDEC028BE7EE267AA4EB0E09E14544
:102BF800C8BF7446CAF80040C5ED007A124D511B93
:102C08006145C8BF2A46C8F800205A1B6245C8BF9C
:102C18002B463360BDE8F087B7EE006A92E7BFEE57
:102C2800006A8FE7FFEE006AAEE7F7EE006AABE7EF
:102C38004C64002048640020B8620020A462002090
:102C48000C2000200820002050640020446400204C
:102C5800406400209C10012082B00D4B002100919F
:102C68005A6C42F480425A645A6C02F480420092D0
:102C7800009A01911A6C42F080521A641B6C03F09E
:102C880080530193019B072002B001F073BB00BF82
:102C980000380240FEE700BFFEE700BFFEE700BFC6
:102CA800FEE700BFFEE700BF704700BF704700BFE8
:102CB800704700BF08B5012021F00EFC01F002F9B1
:102CC800FEF7E6FBFEF78EFCBDE80840FEF7A0BC69
:102CD800012001F09BBF00BF014804F0F1BB00BF19
:102CE800E8BC0120014802F0ABB800BF30BD0120AC
:102CF800014804F0C9BA00BFE8630020014801F0A8
:102D0800CFBC00BF88630020034AD2F8883043F460
:102D18007003C2F88830704700ED00E010B58CB041
:102D28002022002104A82FF085F91448144C0460CF
:102D38004FF6FF71C160032100230122039103A90B
:102D4800C0E90133009303618361019305920992FD
:102D580004F0D0FC50B92022002308486946CDE988
:102D6800002304F01DFD20B90CB010BDFFF772FC64
:102D7800F1E7FFF76FFC0CB010BD00BFE8BC012005
:102D8800000400400000000030B51F4B026889B005
:102D980000249A42CDE90244CDE90444069401D0C6
:102DA80009B030BD03F50D3300941A6C174842F092
:102DB80002021A641A6C02F002020092009A01944C
:102DC8001A6B42F002021A631B6B9FED0D7B03F036
:102DD8000203019302A9022301228DED027B0693CF
:102DE8000492019D01F032FD224621461D2001F08A
:102DF800D3FA1D2001F00CFB09B030BDAFF3008001
:102E080030000000020000000004004000040240FE
:102E180008B50221D0F818369847002008BD00BF31
:102E28000020704738B5D0F8C835DD69A978044660
:102E380051B9697891B928462FF02CF8D4F8C835DB
:102E48000022DA61002038BD2EF0C6FFA97820469E
:102E58002EF0E2FF69780023AB7041B120462EF0D6
:102E6800BBFF697820462EF0D7FF00236B70D4F89B
:102E7800C835DD69002DDED1002038BD70B5FF23CF
:102E880084B00322012105462EF096FAFF2862D06D
:102E9800014628462EF086FA1C20D5F8C8652EF083
:102EA800F1FFF06195F820325A2202FB03520446E2
:102EB80092F94A0292F84A12B2F84C220028B4BF9A
:102EC8002281E2804FF05A0202FB0353B4BF217102
:102ED800E170B3F8542293F8521293F95232002B4E
:102EE80035DBE170E28028462EF07CFF034621792D
:102EF800A37028462EF076FFE388029395F81D32DA
:102F08000226CDE90036607095F81C32E278A17887
:102F180028462EF051FF238995F81D12CDE901634B
:102F280095F81C32227900910026617828462EF007
:102F380043FF617826703246284600F0D9F9A17817
:102F48003246284600F0D4F9304604B070BD2171ED
:102F58002281E178C7E7022004B070BD38B5037854
:102F68000B2B01D0002038BDD0F8C825D569002327
:102F780069782B7004462EF02FFFA97820462EF092
:102F88002BFF002038BD00BF02780B2A01D000209B
:102F9800704708B5D0F8C835DB69597800F05AF998
:102FA80080B208BDD0F8C835DB691878012801D986
:102FB800012070474FF0010C032058761961DA821E
:102FC80083F800C000207047704700BFF0B5D0F804
:102FD800C835DE693478012C83B00DD0022C04D0BA
:102FE80004B10124204603B0F0BD00212EF058FEA4
:102FF8000028F6D13070F4E7377E012F05462AD035
:10300800022F0AD1B17800F057F901283CD00228E4
:1030180008BF3476D5F8C835DE69737E032B2AD00D
:10302800042BDED17178284600F046F90128D8D162
:103038007178284600F00EF9F38A82B293423BDD9C
:103048003189914238D231699B1A11440322F382A3
:1030580031617276C5E7B28AF488B378F16800976F
:10306800A24288BF22462EF07FFE02233376D5F88F
:10307800C835DE69D1E773783289316928462EF080
:103088008BFE04237376ACE7B38AF288934209D89F
:103098000023B38233762846FFF796FFD5F8C83564
:1030A800DE69BAE730769B1AD5F8C815B382F3689B
:1030B8001344F360CE69B0E7002373762846FDF722
:1030C80051FE8EE70368B3F1A04F00D0704770B58A
:1030D8008AB02B4C2B4800250195236B43F0010344
:1030E8002363236B03F001030193019B0295236B78
:1030F80043F004032363236B03F0040302934FF4A8
:10310800C0520223CDE904230A26002204A903237E
:10311800CDE906230896029B01F098FB4FF48062E4
:103128001223CDE9042304A9012203231548089694
:10313800CDE9062301F08AFB01220123CDE904230E
:1031480004A9002202231048CDE9062301F07EFBE2
:10315800636B43F0800363630395636C43F48043BC
:103168006364636C03F4804306212A460393432077
:10317800039B01F011F9432001F04AF90AB070BD30
:10318800003802400000024000080240D0F8000366
:103198002EF0D8BAD0F800032EF0ECBAD0F800031D
:1031A8002EF0FEBAD0F800032EF0DCBAD0F80003F7
:1031B8002EF0DCBA704700BF002270B51146124CE1
:1031C80005464FF0FF3001F0E7F84FF0A0432360C9
:1031D800022200230026C4E90623C5F814460B2260
:1031E80001232046C4E9022326612662E662C4F868
:1031F800005301F06BFD204602F032FA01462846E2
:103208002EF09CFA304670BD30BD012008B5D0F8CC
:10321800140602F0EBF9002008BD00BF08B5D0F88D
:10322800140602F0F9F9002008BD00BF08B5D0F86F
:10323800140602F019FA18B102280CBF0220012066
:1032480008BD00BF08B5D0F8140602F0F9F900204F
:1032580008BD00BFD0F8140602F0FCB910B584B060
:10326800D0F814069DF8184000949DF81C4001946D
:10327800BDF82040029401F0D5FC002004B010BD38
:1032880008B5D0F8140601F00DFD002008BD00BFF8
:1032980010B584B0D0F814069DF818400094079C27
:1032A8000194BDF8204002949DF82440039401F055
:1032B8005FFD002004B010BDD0F8140602F0C4B9B8
:1032C80008B549B901221146084801F09BFCC820FD
:1032D80000F00AFE002008BD00220121034801F089
:1032E80091FCC82000F000FE002008BD0008024044
:1032F800074B2C2000FB013191F83B301BB181F8C2
:1033080054200020704781F855200020704700BFE6
:1033180030BD012000F0E8BD002070470020704754
:10332800642938B5C5B213D80A4CC1EB0121A4FBF6
:10333800013464091934E4B222462846202100F0F9
:103348001BFA28462246212100F016FA002038BD33
:103358001824F1E71F85EB51F8B50646F4B20D467F
:10336800174600F0C9F902210122204600F004FAAC
:10337800691E032965D8DFE801F060480264334B11
:10338800AA221A701A780421204600F0F5F9812241
:103398000521204600F0F0F904220621204600F01D
:1033A800EBF939463046FFF7BBFF06220F210546E9
:1033B800204600F0E1F900222421204600F0DCF943
:1033C80000222521204600F0D7F9204600220A21B4
:1033D80000F0D2F9204604220E2100F0CDF9204653
:1033E8000022272100F0C8F920460F221F2100F0F3
:1033F800C3F920460A221A2100F0BEF920460A2203
:103408001B2100F0B9F92846F8BD104BAF221A70FD
:103418001A780421204600F0AFF9812205212046C0
:1034280000F0AAF904220621204600F0A5F9394641
:103438003046FFF775FF0546C7E7044BFA221A70B6
:10344800A0E7024B05221A709CE700BF34C0012098
:10345800013908B5C0B203291ED8DFE801F0140B02
:10346800021DAA22042100F087F9104BAA221A7023
:10347800002008BDAF22042100F07EF90B4BAF22DB
:103488001A70002008BDFA22042100F075F9074BD4
:10349800FA221A70002008BD0522042100F06CF9F8
:1034A800024B05221A70002008BD00BF34C001205D
:1034B80000F060B910B5044600F01EF90121E0B231
:1034C80000F080F900F0F80010BD00BF012938B500
:1034D800C4B211D020460022222100F04DF9204626
:1034E8000022232100F048F90C4B20461A780421C9
:1034F80000F042F9002038BD0D462046FF22042185
:1035080000F03AF92A462046222100F035F92046F3
:103518002A46232100F030F9002038BD34C00120AC
:1035280010B5C4B22046FF22042100F025F9204638
:103538000122222100F020F920460122232100F057
:103548001BF920460122022100F016F9002010BDC7
:1035580010B5C4B22046FF22042100F00DF9204620
:103568000122222100F008F920460122232100F03F
:1035780003F9204604220E2100F0FEF820469F227F
:10358800022100F0F9F8024B01221A70002010BD48
:103598003420002070B5002582B0C4B22A4622210A
:1035A8002046124E019500F0E7F82A4623212046CE
:1035B80000F0E2F832780421204600F0DDF80195A9
:1035C800019BFE2B05D8019B01330193019BFE2B28
:1035D800F9D932782046042100F0CEF820469E2200
:1035E800022100F0C9F8002002B070BD34C00120EB
:1035F80038B5124D2B78012B01D0002038BDC4B24C
:10360800204606220E2100F0B7F82046002222218B
:1036180000F0B2F820460022232100F0ADF8084B54
:1036280020461A78042100F0A7F820469E2202219D
:1036380000F0A2F800232B70002038BD34200020B1
:1036480034C0012070B588B0264C274D274B2B601D
:1036580000260096236B264A264843F0020323637C
:10366800236B6A6003F002030093009B33224FF43C
:103678008043C5E902622B614FF410721223CDE931
:10368800022300220223CDE9042302A9042306937E
:1036980001F0DCF80196236C43F400132364236CD7
:1036A80003F400130193019B236A43F4001323627C
:1036B800236A23F400132362324631461F2000F0A8
:1036C8006BFE1F2000F0A4FE32463146202000F099
:1036D80063FE202000F09CFE284608B0BDE870403C
:1036E80002F0CAB90038024038C001200054004036
:1036F800A08601000004024000B589B01A4B1B489F
:10370800002201921A6B42F008021A631B6B9FEDAC
:10371800147B03F0080301930022022302A9CDE9D8
:1037280004238DED027B019B01F090F8104802F014
:10373800A5FC90B1002210210C4801F063FA052085
:1037480000F0D2FB01221021084801F05BFA0520A5
:1037580000F0CAFB09B05DF804FBFFF773FFE9E767
:10376800100000000100000000380240000C024078
:1037780038C00120704700BF10B5104C86B02468CF
:103788000294144601238DF817400DF117040A46D8
:103798000193014600940A4802F050FA08B906B0AD
:1037A80010BD074802F030FA054802F067FC00280F
:1037B800F5D1FFF747FF06B010BD00BF6820002015
:1037C80038C0012010B5124C86B00A462168029113
:1037D80084460DF1170100200123CDE900138DF86F
:1037E800170061460B4802F0D3FA18B99DF8170084
:1037F80006B010BD074802F007FA064802F03EFC82
:103808000028F3D1FFF71EFF9DF8170006B010BD82
:103818006820002038C0012038B50C4B1B680546CD
:103828000C468AB2DB6801469420984760B9B4F523
:10383800003F34BFC4F34F024FF6FF7229460448D5
:1038480002F0CAFC002038BD012038BD80C101202B
:1038580038C101200000000010B5174A84B00023C9
:10386800FF2452F8040F814208BFDCB20133082B51
:10387800F7D1684603F058FA63070ED10F4A104B88
:1038880052F8242053F82430029301216846CDE9E8
:10389800001203F0ABF904B010BD9FED057B0223C5
:1038A80068468DED007B029303F0A0F904B010BDCB
:1038B8000100000025010000C44C0308A84C0308BF
:1038C800884C030870B58CB0414C00250195236CD9
:1038D80043F400432364236C03F400430193019BE6
:1038E8000295236B43F004032363236B03F0040363
:1038F8000293029B0395236B43F001032363236B1D
:1039080003F0010303934FF4A0520223CDE90623E9
:1039180000220223CDE90823064606232D48039AF0
:103928000A9306A900F092FF10232B48069306A9D4
:1039380000F08CFF0495236B264843F004032363AF
:10394800236B03F00403049306A98023049A0693C7
:1039580000F07CFF0595236B204A43F40013236392
:10396800236B03F40013059333680599934209D038
:1039780000220E212F2000F00FFD2F2000F048FD1F
:103988000CB070BD164C174BB4634022C4E9015209
:103998004FF48062C4E903524FF400614FF40052BF
:1039A800C4E905124FF480704FF40032C4E90702ED
:1039B8004FF0040C03222046C4E909C2C4E90B55A0
:1039C8002360A66300F0E0FD204600F049FDCFE744
:1039D800003802400008024000000240003C00405D
:1039E80090C00120B86002402DE9F041214C1546F5
:1039F8000646002220460F462946FFF72DFF1E4B9C
:103A08002360204602F0FAFC10B31B4B6561DA69AB
:103A1800236022F48062DA610023C4E90633C4E932
:103A2800023314484FF400736360236102F02AFBE9
:103A3800044648B9DFF848809420D8F808309847F9
:103A480000F0F800E02808D001242046BDE8F08105
:103A580001462046FFF736FFD7E708482B46C0F84F
:103A68000080D8F800503A4631469420A8472046AE
:103A7800BDE8F08138C10120003C004080C1012030
:103A88003820002008B50268034B9A4200D008BDD0
:103A9800FEF798F908BD00BF003C004008B5026871
:103AA800034B9A4200D008BDFEF786F908BD00BF57
:103AB800003C0040704700BF08B5FFF7FBFF08BD9A
:103AC800704700BF084A0368934210B506D0074AFA
:103AD800934200D010BDFFF7F3FF10BD0446FEF778
:103AE80077F92368F3E700BF003C00400038004046
:103AF80010B50F4C82B003460022204604218DF8F1
:103B0800073001F07FF820460022022101F07AF800
:103B18004FF0FF330DF107010122064803F034FA94
:103B280001220421204601F06DF802B010BD00BF4B
:103B380000000240E863002010B50F4C82B0034635
:103B48000022204604218DF8073001F05BF820465A
:103B58000122022101F056F84FF0FF330DF1070161
:103B68000122064803F010FA01220421204601F040
:103B780049F802B010BD00BF00000240E863002011
:103B88002DE9F04100220D4606460421104801F0B7
:103B980039F80F480122022101F034F885B1DFF825
:103BA80034804FF6FF77BD422C4628BF3C4631464D
:103BB8000A23A2B2404603F0E7F92D1B2644F2D1AE
:103BC800BDE8F04102480122042101F01BB800BF02
:103BD80000000240E86300202DE9F041804682B0F1
:103BE8002A2017460E461D460024FFF781FF4FEA9C
:103BF800182363F3070468F30F243B0A042163F3D3
:103C080017440DEB010067F31F640194FFF7B8FF39
:103C18002B20FFF76DFF330A002263F3070266F3D8
:103C28000F222B0A63F31742042165F31F620DEB81
:103C380001000192FFF7A4FF2C2002B0BDE8F0417B
:103C4800FFF756BF10B57F4C322000F04DF9012226
:103C58000221204600F0D6FF322000F045F900226C
:103C68000821204600F0CEFF192000F03DF901227E
:103C78000821204600F0C6FF192000F035F936204B
:103C8800FFF736FF0020FFF757FF3A20FFF730FF16
:103C98000520FFF751FF2120FFF72AFF2A20FFF711
:103CA80027FF0020FFF748FF0020FFF745FF01200E
:103CB800FFF742FF3F20FFF73FFF2B20FFF718FFDA
:103CC8000020FFF739FF0020FFF736FF0020FFF73D
:103CD80033FFEF20FFF730FFB220FFF709FF0C207A
:103CE800FFF72AFF0C20FFF727FF0020FFF724FF2C
:103CF8003320FFF721FF3320FFF71EFFB720FFF720
:103D0800F7FE3520FFF718FFB720FFF7F1FE1F2059
:103D1800FFF712FFC020FFF7EBFE2C20FFF70CFF88
:103D2800C220FFF7E5FE0120FFF706FFC320FFF7DB
:103D3800DFFE1220FFF700FFC420FFF7D9FE202086
:103D4800FFF7FAFEC620FFF7D3FE0F20FFF7F4FEB9
:103D5800D020FFF7CDFEA420FFF7EEFEA120FFF74D
:103D6800EBFEE020FFF7C4FED020FFF7E5FE0820B9
:103D7800FFF7E2FE1120FFF7DFFE0820FFF7DCFE69
:103D88000C20FFF7D9FE1520FFF7D6FE3920FFF7E4
:103D9800D3FE3320FFF7D0FE5020FFF7CDFE3620AC
:103DA800FFF7CAFE1320FFF7C7FE1420FFF7C4FE73
:103DB8002920FFF7C1FE2D20FFF7BEFEE120FFF707
:103DC80097FED020FFF7B8FE0820FFF7B5FE1020B9
:103DD800FFF7B2FE0820FFF7AFFE0620FFF7ACFEA4
:103DE8000620FFF7A9FE3920FFF7A6FE4420FFF7BB
:103DF800A3FE5120FFF7A0FE0B20FFF79DFE162023
:103E0800FFF79AFE1420FFF797FE2F20FFF794FE86
:103E18003120FFF791FE2120FFF76AFE1120FFF7FE
:103E280067FE1320FFF764FE2920FFF761FE3220AA
:103E380000F05AF83620FFF75BFEBDE8104060201E
:103E4800FFF77ABE0000024038B50E4A0E4B1278D2
:103E5800054618684FF47A73B3FBF2F3B0FBF3F03E
:103E680000F0E4FA08B90F2D01D9012038BD044645
:103E7800024629464FF0FF3000F08EFA034B2046E9
:103E88001D6038BD6C20002010200020702000200C
:103E980008B50B4B1A6842F400721A601A6842F4AB
:103EA80080621A601A6842F480721A60032000F077
:103EB80061FA0020FFF7C8FFFEF7CEFE002008BD1C
:103EC800003C0240034A044B11681B780B44136002
:103ED800704700BF84C101206C200020014B186886
:103EE800704700BF84C1012038B50446FFF7F6FFCC
:103EF800631C054602D0044B1B781C44FFF7EEFFF9
:103F0800401BA042FAD338BD6C200020002800F0E6
:103F18009E8038B5056C04463DB1236CDB060CD594
:103F2800002384F83C30012038BDFDF759FC656456
:103F3800236C84F83C50DB06F2D4236C474A23F404
:103F4800885323F0020343F0020323645168236873
:103F580021F44031516051686068014351605A68EA
:103F68002069A16822F480725A605A6842EA0022E5
:103F78005A605A68E06822F040725A605A680A43E8
:103F88005A609A68A16A22F400629A609A680243A9
:103F98009A60334A91429A6851D022F07062E06A7E
:103FA8009A609A68114399609A6822F040529A6020
:103FB8009A6802439A609A6822F002029A609A68A4
:103FC800217E42EA41029A6094F82020002A40D0DB
:103FD8005A68616A42F400625A605A6822F4604280
:103FE8005A605A68013942EA41325A60DA6AE1692C
:103FF80022F47002DA62DA6A013942EA0152DA62BC
:104008009A68616922F400729A609A6894F830009C
:1040180042EA40229A609A6822F480629A609A681A
:10402800002042EA81229A606064236C23F0030333
:1040380043F001032364002384F83C3038BD22F0A8
:1040480070629A609A6822F040529A60B3E7012041
:1040580070475A6822F400625A60C7E7002301409B
:104068000100000F10B490F83C3083B00022012BFF
:10407800019268D00123026880F83C309368DB071E
:1040880014D4354B354C1B689168A4FB03439B0C37
:1040980003EB430341F0010191600193019B2BB1B4
:1040A800019B013B0193019B002BF9D1936813F00D
:1040B800010F036C37D023F4E06323F0010343F4CA
:1040C8008073036453685C0505D5036C23F440537F
:1040D80043F480530364036C13F480531CBF436C94
:1040E80023F0060343646FF022011D4B002480F87F
:1040F8003C4011605968C80621D11A498A4209D042
:1041080001F580718A4223D017498A4212D15B682F
:10411800DB060FD4936813F0405F0BD1936843F02C
:104128008043936006E043F010030364436C43F05C
:1041380001034364002003B05DF8044B7047094B4A
:104148009A42F7D1E6E7022003B05DF8044B7047C6
:104158005B68D906DED0EDE71020002083DE1B4324
:1041680000230140002001400022014003689A68B2
:1041780070B50D465105044602D59B68DA0544D44E
:10418800FFF7ACFE226806461368990704D46B1C37
:1041980023D113689807FCD56FF012031360236CC2
:1041A80043F400732364936813F0405F13D1237EB4
:1041B8008BB9D36A13F4700F02D093685A050AD4E6
:1041C800236C23F480732364236CDB0403D4236CF3
:1041D80043F001032364002070BD5DB9136813F038
:1041E8000203D1D1226C84F83C3042F004022264EC
:1041F800032070BDFFF772FE801BA8422268C3D956
:10420800136813F00203BFD1ECE7036C002243F0FC
:10421800200380F83C200364012070BD0368D86C3B
:10422800704700BF70B590F83C3082B00246012B51
:104238004FF00000019000F09380012382F83C3099
:104248000D6813688C68092DA8B228D81E6905EB7B
:10425800450E4FF0070C0CFA0EFC26EA0C061E6100
:104268001E6904FA0EF434431C614C68062C04EBF6
:1042780084012AD85C6B05394FF01F0C88400CFA72
:1042880001F124EA01015963596B0843586336491F
:104298008B422BD0002082F83C0002B070BD00EBAE
:1042A800400CDE68ACF11E0C4FF0070E04FA0CF45B
:1042B8000EFA0CFC26EA0C06DE60DE683443DC608D
:1042C8004C68062C04EB8401D4D90C2C34D81C6B14
:1042D80023391F26884006FA01F124EA01011963EF
:1042E800196B0843204918638B42D3D1122D30D063
:1042F800A5F11003012BCDD81C494B68102D43F4B0
:1043080000034B60C6D11A4B01F146711B6801F5D9
:104318002E3101F28331A1FB03139B0C03EB8303C2
:104328005B000193019B002BB4D0019B013B0193DF
:10433800019B002BF9D1ADE7DC6A41391F26884083
:1043480006FA01F124EA0101D962D96A0843D86260
:104358009DE7D1F8043343F48003C1F8043399E7A7
:10436800022002B070BD00BF0020014000230140C0
:10437800102000200749CA6803024FF6FF0003F423
:10438800E0630240134343F0BF6343F40033CB6060
:10439800704700BF00ED00E01B4BDB68C3F302234E
:1043A80000B5C3F1070EBEF1040F03F1040C28BFDA
:1043B8004FF0040EBCF1060F1CD9A3F1030C4FF00B
:1043C800FF3303FA0CF322EA03024FF0FF3303FA38
:1043D8000EF321EA030303FA0CF313431B0100282D
:1043E800DBB20ADB00F1604000F5614080F8003381
:1043F8005DF804FB00229446E7E7044A00F00F004A
:10440800024413765DF804FB00ED00E0FCEC00E0EC
:10441800002807DB4109044A00F01F0001238340FC
:1044280042F82130704700BF00E100E00138B0F1E8
:10443800807F01D30120704710B44FF0E023074C70
:1044480058614FF0F00C84F823C000220721104671
:104458009A615DF8044B1961704700BF00ED00E0F8
:1044680038B50446FFF73AFD002C6BD023680022CC
:10447800022184F8351084F834201A6822F00102E9
:1044880005461A6005E0FFF729FD431B052B37D8C1
:1044980023681A68D107F6D4D4E90120E1680243F9
:1044A8000A43D4E90451A0692A430A43E1691D6813
:1044B80002430A4331492940256A2A430A43616A6B
:1044C800042924D01A605A6922F007021143D8B28D
:1044D8002B4A59611038A2FB0052120929496FF37F
:1044E8000903895CE1655F2888BF04333F228A405D
:1044F800A36500209A600123606584F8353038BDD3
:1045080003232022626584F83530184638BDD4E983
:104518000B512943114319605969A26A21F0070117
:10452800114341F00401002DD1D068B9012A21D0EE
:1045380032F00202CBD1EA01C9D5402201236265DB
:1045480084F83530012038BDB0F5005F04D0022A68
:10455800F3D9032AEFD0BAE7032AB8D801A050F854
:1045680022F000BF434500083F45000843450008C6
:104578007D450008B5F1C07FA9D1DEE73F8010F086
:10458800ABAAAAAAE84C0308002835D090F8352031
:10459800022A0346D0B22ED01A681849D0B2103871
:1045A80030B4A1FB004109091468154D24F0010439
:1045B8006D5C14600021116051609160D1601161DF
:1045C800212151615F286FF3090288BF04323F241B
:1045D8000021AC40DD65C3E90F11C3E91111C3E93E
:1045E80013119A659460596583F8341083F835106F
:1045F800084630BC7047704701207047ABAAAAAA8A
:10460800E84C030870B490F83440856D012C0AD04A
:1046180090F835404FF0010C644580F834C005D05F
:10462800002380F83430022070BC7047022680F8DE
:104638003560046800264665266826F480262660CC
:1046480063608368402B0EBFA260A160E260C26D08
:1046580008BFE1603F239340AB602368026C43F0DE
:10466800160323601AB1236843F008032360236804
:1046780043F001030020236070BC704790F8353088
:10468800022B03D08023436501207047026805236D
:1046980080F83530136823F0010300201360704759
:1046A800F0B583B0674A876D166800230193C36D20
:1046B8003D6808229A402A42044603D001680868E7
:1046C800400778D401229A402A4203D021684969D8
:1046D80008066AD404229A402A4203D0216809684D
:1046E80089075CD410229A402A4203D021680868BE
:1046F800000741D420229A402A4214D02168086831
:10470800C00610D5BA6094F83520052A63D00B6826
:1047180013F4802F0B687ED0190340F18980E36B76
:104728000BB120469847636D23B3636DDA071AD53A
:1047380022684549052384F835301368A1FB06161D
:1047480023F00103B60A136002E01368DB0704D5FF
:10475800019B0133B3420193F7D90122002384F866
:10476800352084F83430E36C23B1204603B0BDE82B
:10477800F040184703B0F0BDBA600A6812F4802F01
:104788000A6822D1D20503D40A6822F008020A6016
:10479800226C002AAED020469047E36DAAE7BA60A3
:1047A800626D42F0040262659CE7BA60626D42F095
:1047B800020262658EE7086820F004000860BA60AB
:1047C800626D42F0010262657CE71103E0D5A26CDC
:1047D800002AE0D18EE70A6822F016020A604A69C8
:1047E80022F080024A61226C3AB30A6822F0080279
:1047F8000A603F2202FA03F3216DBB600122002305
:1048080084F8352084F834300029B3D0204603B02A
:10481800BDE8F040084713F4807380D10A6822F09D
:1048280010020A60012284F8352084F8343076E7D3
:10483800636C002B7FF475AF75E7A26C002AD4D1A6
:10484800D7E700BF10200020B5814E1B2DE9F04F9F
:1048580000230C68DFF814A285B04FF0010B8946DD
:1048680003E00133102B00F092800BFA03F202EA06
:104878000408A243F5D1D9F8041001F0030C5A003A
:1048880003250CF1FF369540012E6FEA050540F22D
:104898008180BCF1030F40F0D98006680CFA02F25F
:1048A80035402A4311F4403F0260DAD000220392D7
:1048B800DAF8442042F48042CAF84420DAF8442066
:1048C80002F480420392039A23F0030202F1804229
:1048D80003F003060F2702F59C32B60007FA06FC20
:1048E8005F4F9568B84225EA0C0527D007F5806721
:1048F800B84200F087805B4FB84200F08980DFF84B
:1049080070C1604500F08A80DFF868C1604500F03A
:104918008B80DFF864C1604500F08C80DFF85CC1F3
:10492800604500F08D80DFF858C160450CBF4FF03E
:10493800070C4FF0080C0CFA06F6354395604A4A06
:104948009268CE026FEA0805474E54BF2A4048EAEB
:104958000202B260F268444E8F0254BF2A4048EA0D
:104968000202F26072688E033F4E54BF2A4048EA42
:10497800020272603268C90303F101033A4954BF65
:104988002A4048EA0202102B0A607FF46EAF05B095
:10499800BDE8F08F866806EA050ED9F80C609640E7
:1049A80046EA0E068660466826EA080EC1F3001637
:1049B8009E4046EA0E064660C66806EA050ED9F825
:1049C8000860964046EA0E06BCF1020FC6607FF406
:1049D80064AFDE0800EB86060196376AD9F81060E6
:1049E800009703F0070E4FEA8E0E0F2706FA0EF611
:1049F80007FA0EFE009F27EA0E0E019F46EA0E06F2
:104A08003E624AE74FF0010C0CFA06F6354395E78B
:104A18004FF0020C0CFA06F635438FE74FF0030C03
:104A28000CFA06F6354389E74FF0040C0CFA06F643
:104A3800354383E74FF0050C0CFA06F635437DE75E
:104A48004FF0060C0CFA06F6354377E7C66806EA17
:104A5800050ED9F80860964046EA0E06C6601CE7BF
:104A68000000024000080240003C014000380240BB
:104A7800000C0240001002400014024000180240DE
:104A8800001C02402DE9F04F0023534F83B001264C
:104A98004FF00F094FF0030A02E00133102B76D0D4
:104AA80006FA03F232EA010402EA010CF5D123F016
:104AB800030505F1804503F00304A40005F59C35C2
:104AC80009FA04F80194454CD5F808E0A04208EA30
:104AD8000E0E20D004F58064A0425BD0404CA0426A
:104AE8005CD0404CA0425FD03F4CA04262D0DFF87F
:104AF800FCB0584564D0DFF8F8B0584566D0DFF808
:104B0800F4B0019C58450CBF4FF0070B4FF0080B51
:104B18000BFA04F400E00024A64513D13C6824EA0B
:104B28000C043C607C6824EA0C047C60FC6824EA81
:104B38000C04FC60BC6824EA0C04BC60AC6824EA81
:104B48000804AC6004685D000AFA05F54FEAD30C66
:104B580024EA050400EB8C0C046003F00704DCF87D
:104B680020E0A40009FA04F42EEA0404CCF820405A
:104B7800C46824EA0504C460446824EA0202426066
:104B88008268013322EA0502102B826088D103B0C3
:104B9800BDE8F08F019C06FA04F4BDE7019C4FF0D4
:104BA800020B0BFA04F4B7E7019C4FF0030B0BFA66
:104BB80004F4B1E7019C4FF0040B0BFA04F4ABE7E3
:104BC800019C4FF0050B0BFA04F4A5E7019C4FF08C
:104BD800060B0BFA04F49FE7003C0140000002407A
:104BE80000080240000C024000100240001402407D
:104BF80000180240001C02400369194214BF01203A
:104C08000020704702B9090481617047044A51695C
:104C1800014200D1704708B55061FCF77BF908BD27
:104C2800003C01402DE9F04390F8F85285B0012D81
:104C38009DF830709DF834E0BDF838802ED00026FD
:104C4800354663F307054FF02C0909FB01FC61F3B6
:104C58000F2502F07F09044669F31745D00960F370
:104C68001F6504EB0C000CF1380C4FF0010984F8B7
:104C7800F89280F83D6080F83FE0A0F8408044F862
:104C88000C5080F83C70CDE901E80097206802F0EC
:104C9800E9FF84F8F86205B0BDE8F083022005B0AA
:104CA800BDE8F08390F8F832012B0CD010B504461B
:104CB8000123006884F8F83203F02EF9002384F801
:104CC800F832184610BD0220704700BF00284DD0AA
:104CD8002DE9F04190F8F93204688AB0064603F0ED
:104CE800FF02002B3CD02046032386F8F932E36B01
:104CF800344613F4807308BF336102F00BFE54F896
:104D080010CB0FCC6D460FC50FCC0FC594E8030030
:104D180085E80300371D97E80E00604602F0AEFDF7
:104D28003068012102F0FEFDB446EE465CF8108BB7
:104D3800BCE80F00AEE80F00BCE80F00AEE80F00BB
:104D480094E8030085E80300404697E80E0002F067
:104D58009FFE0123002086F8F9320AB0BDE8F081F1
:104D680080F8F822FEF7AEF93068BDE701207047F9
:104D780070B58C462C2101FB0C019DF81060059D37
:104D8800BDF818409DF81CE081F83B2081F83F30C1
:104D98004EBB81F83DE04FF0030E2C2101FB0C01C6
:104DA80081F842E0032B09D8DFE803F02C02202029
:104DB8002C2303FB0C03002283F842202C2101FB47
:104DC8000CF3C2186033D464002482F839C05564E7
:104DD8001465C45201FB0C01027C0068BDE87040F8
:104DE800383102F0D1BF4FF0020ED6E72C2303FB77
:104DF8000C03C2B993F855100029DDD0022283F8BC
:104E08004220DBE7012ED9D1002AD7D12C2303FB7E
:104E18000C0384B983F855602C2303FB0C0302228E
:104E280083F84220CAE793F85420002AC4D002220B
:104E380083F84220C2E793F855100029BCD0EBE76D
:104E48002DE9F04F056885B00446284602F01CFE9F
:104E5800012802D005B0BDE8F08F206802F010FEEE
:104E68000028F7D0206802F00BFE10F4001F20681D
:104E78001CBF4FF40013436102F002FE10F4801FC0
:104E880020681CBF4FF48013436102F0F9FD10F055
:104E9800806F20681CBF4FF08063436102F0F0FD13
:104EA80010F0020F20681CBF0223436102F0E8FDE6
:104EB80010F0005F206866D102F0E2FDC00100F149
:104EC800CC80206802F0DCFD010700F1BF8020687B
:104ED80002F0D6FDC206266800F1F980304602F0DD
:104EE800CFFD8301B6D5206803F010F8A26881468B
:104EF8002068002A00F0828005F5A065002606F0EB
:104F08000F0329FA03F3DF0773D52B685FFA86F8D6
:104F180000F5A06A0AEB481713F4004F4FEA481B44
:104F2800BB6877D0590700F17381BB68DA0500F1D7
:104F38008C81BB689B0640F177812023BB60BB68EE
:104F480013F4007340F05A81B96811F0010100F0C0
:104F5800F1802169002900F085812C2202FB08429A
:104F68003869D365936CC0F312001B1A13650123CB
:104F780082F86130BB6092F83F30032B2BD8DFE812
:104F880003F0411941194FF000534361D5F84034FB
:104F9800DE0791D41021284602F0FCFC284602F0D6
:104FA80023FD0121206802F0E9FD2046FEF7F6F80E
:104FB800206881E75AF80B3043F000534AF80B3069
:104FC8002C2303FB08430122414683F86020204636
:104FD800FEF7F0F82169012900F094812C2303FBE6
:104FE800084393F8542082F0010283F85420206883
:104FF800A2680136B24205F1200580D84FF000734F
:10500800436127E74146206802F086FF10232169A3
:10501800BB60E0E713F0040340F0E280B96889065A
:1050280065D54FF02C0C20210CFB084CB9609CF87E
:105038003D100129DDD18CF83D30022341468CF822
:10504800603002F069FF2068A268D2E72046FEF7C8
:105058009DF82068082343613AE72668D6F840346B
:105068000293D6F840340393039B23F02E03039353
:10507800029B990707D5029BDA0700F17D81039B04
:1050880043F002030393029B1B0715D5039B43F0D0
:1050980008030393029B5F0740F17281A16902290B
:1050A80000F07E81E368012B04BF4EF66022C6F84B
:1050B80004242046FEF776F8029B980603D5039B46
:1050C80043F020030393039BC6F84034F9E6B36921
:1050D80023F01003B361376A07F4F012B2F5802F9A
:1050E80000F0D880B36943F01003B361F6E6BB68FB
:1050F80013F4007340F03781B96811F0010100F032
:105108000F812C2202FB0842D365BB68590604D5DF
:10511800012382F83D304023BB602C2303FB084366
:105128000122BA60414683F8612002F0F5FE20684A
:10513800A2685EE7BB6813F0020300F0C7802C2367
:1051480003FB084393F86120531E072B3CD8DFE884
:1051580003F0343B243B1D0441042C2202FB08428B
:10516800D36D0133022BD36540F295812C2303FBC9
:1051780008430422D96583F860200223204641466B
:10518800BB60FEF717F82068A26832E72C2303FB00
:105198000843052183F86010EFE72C2303FB08433D
:1051A800022283F860205AF80B3023F0804343F042
:1051B80000434AF80B300222DFE72C2303FB0843A5
:1051C800012183F86010D8E72C2303FB084393F8E8
:1051D8006020D2E72C2303FB0843D96D0131C5E7D2
:1051E8002C2303FB08430422BA60062283F86120BB
:1051F800414602F091FE2068A268FAE6206841461E
:1052080002F08AFE4FF40073BB602068A268F0E6E3
:105218002C2303FB08430422BA60062283F861208A
:10522800414602F079FE8AE6BB68190700F1AC80B6
:10523800BB685A0500F1BF80BB681B067FF57FAECF
:105248002C2303FB08438022E6E72C2303FB0843B7
:105258004FF48072BA60072283F86120414602F059
:105268005BFE6CE62C2303FB08430122D96583F817
:105278006120BA6093F83F30032B3FF6AFAE01A22E
:1052880052F823F00D500008BD4F00080D500008DB
:10529800BD4F0008C7F30A12002A3FF423AF07F0F6
:1052A8000F074FF02C0808FB0748D8F844100029CE
:1052B8003FF418AFD8F85030D8F84C001344834264
:1052C80040F2BE80042388F860300BE7B968226892
:1052D800C906104622D54FF02C0C0CFB084C9CF844
:1052E8003F10032900F0C88011F0FD0105D12369A2
:1052F800CCF85C10002B00F0C68010231046BB6071
:10530800A26876E62C2303FB0843B3F840109A6C96
:10531800B2FBF1F2D0073FF564AE2068A26868E6F8
:10532800BB685B0654D4BB6813F008037AD1B9682C
:10533800C9065FD52C2202FB08420321D36592F8E7
:105348003D3082F8611033B9134692F83C2012B907
:10535800012283F83D20414602F0DEFD1023BB60A8
:105368002068A26845E64FF400734146BB6002F02E
:10537800D3FD2068A2683CE62046FDF70BFF7EE6D9
:105388002046FDF713FF97E62C2303FB084308226A
:10539800BA60052283F86120414602F0BDFDCEE5E2
:1053A800029B206803F4C023B3F5802F18BF0121A6
:1053B80002F0E4FB7DE62C2303FB08434FF48062F4
:1053C800BA60082283F86120414602F0A5FDB6E5DF
:1053D8002C2303FB0843042283F861200122D965AA
:1053E80083F83D20414602F097FD4023BB602068CA
:1053F800A268FEE5BB68190659D52369002B00F0A1
:10540800AB802C2303FB0843DA6D0132022ADA65EC
:1054180000F2AC80022283F860208023BB60206801
:10542800A268E6E52C2303FB08430822BA6005229C
:1054380083F86120414602F06FFD2068A268D8E534
:105448003046019202F0F8FA019AD8F84430B8F8D8
:105458004000134406F5A066C8F84430D8F8503028
:1054680006EB471113448242C8F8503009694FEAE5
:10547800471351D0266835E6CCF85C30414602F037
:105488004BFD226839E7032341468CF8613002F06E
:1054980043FD226831E7022382F860305AF80B3066
:1054A80023F0804343F000434AF80B3083E6BB689F
:1054B8005B0542D4BB6899077FF59BAD2C2303FBA2
:1054C800084393F86130013B072B0BD8DFE803F062
:1054D800640A040485160A162C2303FB08430222D7
:1054E80083F860202C2303FB08430222BA6093F858
:1054F800602041462046FDF75DFE0EE72C2202FBA8
:105508000842D36D0133022BD36539D90023D36503
:10551800042382F86030E5E7334A0A40002AA9D01C
:10552800F25822F0804242F00042F25098F854308B
:1055380083F0010388F854309CE72C2303FB0843CD
:10554800082283F86120414602F0E6FC4FF48063AC
:10555800BB602068A2684CE52C2303FB08430622A5
:10556800414683F8612002F0D7FC56E70422002068
:10557800D865414683F860202046FDF71BFE4CE7BE
:10558800022382F860305AF80B3023F0804343F04E
:1055980000434AF80B30A5E72C2303FB08430122FC
:1055A80083F8602093F83F20023A012A9AD82269AA
:1055B80062B1012A96D1DA6C002A93D0B3F8401070
:1055C800013A0A44B2FBF1F2D2078BD593F8552081
:1055D80082F0010283F8552084E72C2303FB08435B
:1055E800052283F860207DE70000F81F90F8F83264
:1055F800012B0FD010B504460121006884F8F81279
:1056080002F0FAFA206802F07DF9002384F8F832F3
:10561800184610BD0220704790F8F832012B0CD0C4
:1056280010B504460123006884F8F83202F0D4FC6F
:10563800002384F8F832184610BD0220704700BFD6
:10564800006802F0B9BA00BF2C2303FB010090F8F0
:10565800600070472C2303FB0100006D704700BFFA
:10566800006802F0F9BA00BF006802F0E9BA00BFAA
:105678002DE9F84381460E4617469846D9F800406A
:1056880004E065696A0509D47B1C21D1606926EAB2
:10569800000080B20028F4D1BDE8F883236843F401
:1056A80000732360002220236FF480616161C9F8D0
:1056B800302089F83D3089F83E20D9F8403043F051
:1056C8000403C9F84030002389F83C300120E3E79F
:1056D800FEF704FCA0EB0800B84201D8002FCDD19A
:1056E80000232022C9F8303089F83D2089F83E305F
:1056F800D9F840301343C9F84030E4E7F8B5064616
:105708000D46174608E06269D2061BD4FEF7E6FB91
:10571800C01BA84207D835B13468636913F0400349
:10572800F1D00020F8BD00232022336386F83D2005
:1057380086F83E30336C13433364002386F83C30DC
:105748000120F8BD6FF0100120226161336386F8F3
:105758003D2086F83E30336C3364EEE7F8B50546F5
:105768000E4617462C6801E0731C1AD1636913F0C2
:10577800800314D160694205F6D56FF48061202258
:1057880061612B6385F83D2085F83E302B6C43F032
:1057980004032B64002385F83C300120F8BD002069
:1057A800F8BDFEF79BFBC01BB04201D8002ED9D133
:1057B800002320222B6385F83D2085F83E302B6C92
:1057C80013432B64E6E700BFF8B505460E461746B7
:1057D8002C6801E0731C1AD1636913F0040314D117
:1057E80060694205F6D56FF48061202261612B6300
:1057F80085F83D2085F83E302B6C43F004032B647C
:10580800002385F83C300120F8BD0020F8BDFEF7E4
:1058180065FBC01BB04201D8002ED9D1002320223D
:105828002B6385F83D2085F83E302B6C13432B64A1
:10583800E6E700BF2DE9F04F056883B09B462B686B
:105848000C9FDDF834A043F48073064688469146E1
:105858002B606B69DB0704D4781C0ED16C69E107F7
:10586800FCD508F0FE032B612E4953463A463046D4
:10587800FFF7FEFE00B301241AE0FEF72FFBA0EBB2
:105888000A0087424CD335682946002FE1D100220F
:105898002023326386F83D3086F83E20336C86F844
:1058A8003C2043F0200333640B68DA051DD403243D
:1058B800204603B0BDE8F08F336801905969019123
:1058C8009B690193524639463046019BFFF746FFD4
:1058D8000446E0B9BBF1010F33680AD15FFA89F2D7
:1058E80020461A6103B0BDE8F08F4FF400733364AB
:1058F800DDE74FEA19201861524639463046FFF76E
:105908002DFF20B932685FFA89F31361D0E7336C51
:10591800042BB0D13268136843F400731360AAE70C
:105928003168B4E7020001002DE9F04F05689B4695
:105938002B6843F4806383B02B602B680C9FDDF8E1
:10594800349043F480730646884692462B606B6910
:10595800DC0704D47A1C47D16C69E307FCD508F04E
:10596800FE032B6143494B463A4630465FFA88F8B6
:10597800FFF77EFE00285ED13368019059690191D6
:105988009B6901934A4639463046019BFFF7E6FE7C
:10599800002848D1BBF1010F33684ED15FFA8AF273
:1059A8001A614A4639463046FFF7D8FE00283AD1F0
:1059B8003268136843F4807313605369DB0704D4B7
:1059C800781C49D15369D907FCD548F00103136104
:1059D80028494B463A463046FFF74AFE003818BF7A
:1059E800012003B0BDE8F08FFEF778FAA0EB0900BC
:1059F80087423CD335682946002FA8D100222023AE
:105A0800326386F83D3086F83E20336C86F83C20B9
:105A180043F0200333640B68DA0502D54FF40073B2
:105A280033640320DDE7336C042B04D13268136838
:105A380043F4007313600120D3E74FEA1A221A6176
:105A480039464A463046FFF789FE0028EBD13268CE
:105A58005FFA8AF31361A4E7FEF740FAA0EB0903A3
:105A68009F4204D332681146002FA6D1C6E7316899
:105A7800C4E700BF02000100002800F0B88070B53C
:105A880090F83D30044603F0FF02002B00F09880A8
:105A98002368242284F83D201A6822F001021A6043
:105AA8001A6842F400421A601A6822F400421A6026
:105AB80001F08CF84F4B65689D424FD84E4B984289
:105AC8007CD94E4B6A00A3FB0035431EB3FBF2F3AF
