:020000040800F2
:1000000000000220F17C0008AD200008B1200008AB
:10001000B5200008B9200008BD200008000000003D
:10002000000000000000000000000000C1200008E7
:10003000C520000800000000C9200008CD200008ED
:10004000417D0008417D0008417D0008417D000898
:10005000417D0008417D0008417D0008417D000888
:10006000417D0008417D0008417D0008417D000878
:10007000417D0008417D000859140008417D0008B9
:10008000417D0008417D0008417D0008417D000858
:10009000417D0008417D0008417D0008417D000848
:1000A000417D0008417D0008417D0008417D000838
:1000B000417D0008417D0008417D0008417D000828
:1000C000417D0008417D0008417D0008417D000818
:1000D000417D0008417D0008417D0008417D000808
:1000E000417D0008417D0008417D0008417D0008F8
:1000F000417D0008417D0008417D00084D14000845
:10010000417D0008417D0008417D0008417D0008D7
:10011000417D0008417D0008417D0008417D0008C7
:10012000417D0008417D0008417D0008417D0008B7
:10013000417D0008417D0008417D0008417D0008A7
:10014000417D0008417D0008417D0008D120000864
:10015000417D0008417D0008417D0008417D000887
:10016000417D0008417D0008417D0008417D000877
:10017000417D0008417D0008417D0008000000002D
:08018000417D0008417D0008EB
:10018800034613F8012B002AFBD1181A01387047CF
:1001980070B54FF0FF0C4CF4E06C1CEA11541DBF15
:1001A8001CEA135594EA0C0F95EA0C0F00F0DEF8E0
:1001B8002C4481EA030621EA4C5123EA4C5350EAC5
:1001C800013518BF52EA033541F4801143F4801316
:1001D80038D0A0FB02CE4FF00005E1FB02E506F0A7
:1001E8000042E0FB03E54FF00006E1FB03569CF0FC
:1001F800000F18BF4EF0010EA4F1FF04B6F5007F02
:1002080064F5407404D25FEA4E0E6D4146EB060673
:1002180042EAC62141EA55514FEAC52040EA5E50FC
:100228004FEACE2EB4F1FD0C88BFBCF5E06F1ED8A6
:10023800BEF1004F08BF5FEA500E50F1000041EBDD
:10024800045170BD06F0004646EA010140EA02008A
:1002580081EA0301B4EB5C04C2BFD4EB0C0541EAAC
:10026800045170BD41F480114FF0000E013C00F3C1
:10027800AB8014F1360FDEBF002001F0004170BDE5
:10028800C4F10004203C35DA0C341BDC04F11404FE
:10029800C4F1200500FA05F320FA04F001FA05F28A
:1002A80040EA020001F0004221F0004110EBD37057
:1002B80021FA04F642EB06015EEA430E08BF20EA83
:1002C800D37070BDC4F10C04C4F1200500FA04F326
:1002D80020FA05F001FA04F240EA020001F00041B8
:1002E80010EBD37041F100015EEA430E08BF20EA2B
:1002F800D37070BDC4F1200500FA05F24EEA020E73
:1003080020FA04F301FA05F243EA020321FA04F0A1
:1003180001F0004121FA04F220EA020000EBD37058
:100328005EEA430E08BF20EAD37070BD94F0000F58
:100338000FD101F00046400041EB010111F4801F8C
:1003480008BF013CF7D041EA060195F0000F18BF3D
:10035800704703F00046520043EB030313F4801F79
:1003680008BF013DF7D043EA0603704794EA0C0F33
:100378000CEA135518BF95EA0C0F0CD050EA410649
:1003880018BF52EA4306D1D181EA030101F00041C6
:100398004FF0000070BD50EA410606BF10461946EE
:1003A80052EA430619D094EA0C0F02D150EA0136FA
:1003B80013D195EA0C0F05D152EA03361CBF10463B
:1003C80019460AD181EA030101F0004141F0FE41DA
:1003D80041F470014FF0000070BD41F0FE4141F45E
:1003E800780170BD81F0004102E000BF83F0004356
:1003F80030B54FEA41044FEA430594EA050F08BFB8
:1004080090EA020F1FBF54EA000C55EA020C7FEA7B
:10041800645C7FEA655C00F0E2804FEA5454D4EBF8
:100428005555B8BF6D420CDD2C4480EA020281EAC2
:10043800030382EA000083EA010180EA020281EAFA
:100448000303362D88BF30BD11F0004F4FEA01314C
:100458004FF4801C4CEA113102D0404261EB41015B
:1004680013F0004F4FEA03334CEA133302D05242E1
:1004780063EB430394EA050F00F0A780A4F101049D
:10048800D5F1200E0DDB02FA0EFC22FA05F28018D7
:1004980041F1000103FA0EF2801843FA05F35941BD
:1004A8000EE0A5F120050EF1200E012A03FA0EFC3C
:1004B80028BF4CF0020C43FA05F3C01851EBE37166
:1004C80001F0004507D54FF0000EDCF1000C7EEB83
:1004D80000006EEB0101B1F5801F1BD3B1F5001FC1
:1004E8000CD349085FEA30004FEA3C0C04F10104E0
:1004F8004FEA445212F5800F80F09A80BCF1004F09
:1005080008BF5FEA500C50F1000041EB045141EA8A
:10051800050130BD5FEA4C0C404141EB0101013C53
:1005280028BFB1F5801FE9D291F0000F04BF014642
:100538000020B1FA81F308BF2033A3F10B03B3F114
:1005480020020CDA0C3208DD02F1140CC2F10C02A4
:1005580001FA0CF021FA02F10CE002F11402D8BF02
:10056800C2F1200C01FA02F120FA0CFCDCBF41EACE
:100578000C019040E41AA2BF01EB0451294330BD9D
:100588006FEA04041F3C1CDA0C340EDC04F114047A
:10059800C4F1200220FA04F001FA02F340EA030051
:1005A80021FA04F345EA030130BDC4F10C04C4F197
:1005B800200220FA02F001FA04F340EA0300294677
:1005C80030BD21FA04F0294630BD94F0000F83F4C1
:1005D800801306BF81F480110134013D4EE77FEAA4
:1005E800645C18BF7FEA655C29D094EA050F08BFF0
:1005F80090EA020F05D054EA000C04BF19461046D1
:1006080030BD91EA030F1EBF0021002030BD5FEA14
:10061800545C05D14000494128BF41F0004130BD3C
:1006280014F580043CBF01F5801130BD01F0004590
:1006380045F0FE4141F470014FF0000030BD7FEA03
:10064800645C1ABF194610467FEA655C1CBF0B46FE
:10065800024650EA013406BF52EA033591EA030F15
:1006680041F4002130BD00BF90F0000F04BF00210D
:10067800704730B54FF4806404F132044FF0000540
:100688004FF0000150E700BF90F0000F04BF0021B9
:10069800704730B54FF4806404F1320410F000451F
:1006A80048BF40424FF000013EE700BF42004FEA1A
:1006B800E2014FEA31014FEA02701FBF12F07F4397
:1006C80093F07F4F81F06051704732F07F4208BF4E
:1006D800704793F07F4F04BF41F40021704730B555
:1006E8004FF4607401F0004521F000411CE700BFA1
:1006F80050EA010208BF704730B54FF000050AE024
:1007080050EA010208BF704730B511F0004502D524
:10071800404261EB41014FF4806404F132045FEA26
:10072800915C3FF4D8AE4FF003025FEADC0C18BFCF
:1007380003325FEADC0C18BF033202EBDC02C2F1C1
:10074800200300FA03FC20FA02F001FA03FE40EA53
:100758000E0021FA02F11444BDE600BF4FF0FF3C41
:1007680006E000BF4FF0010C02E000BF4FF0010CA3
:100778004DF804CD4FEA410C7FEA6C5C4FEA430C1C
:1007880018BF7FEA6C5C1BD001B050EA410C0CBF6B
:1007980052EA430C91EA030F02BF90EA020F0020CD
:1007A800704710F1000F91EA030F58BF994208BF34
:1007B80090422CBFD8176FEAE37040F001007047F1
:1007C8004FEA410C7FEA6C5C02D150EA013C07D148
:1007D8004FEA430C7FEA6C5CD6D152EA033CD3D093
:1007E8005DF8040B704700BF8446104662468C468D
:1007F8001946634600E000BF01B5FFF7B7FF0028C0
:1008080048BF10F1000F01BD4DF808EDFFF7F4FFE8
:100818000CBF012000205DF808FB00BF4DF808ED73
:10082800FFF7EAFF34BF012000205DF808FB00BF96
:100838004DF808EDFFF7E0FF94BF012000205DF8B8
:1008480008FB00BF4DF808EDFFF7CEFF94BF01206D
:1008580000205DF808FB00BF4DF808EDFFF7C4FF66
:1008680034BF012000205DF808FB00BF4FEA4102B9
:10087800B2F1E04324BFB3F5001CDCF1FE5C0DD9F6
:1008880001F0004C4FEAC0024CEA5070B2F1004F40
:1008980040EB830008BF20F00100704711F0804F43
:1008A80021D113F13872BCBF01F00040704741F408
:1008B80080114FEA5252C2F11802C2F1200C10FA0C
:1008C8000CF320FA02F018BF40F001004FEAC123F0
:1008D8004FEAD32303FA0CFC40EA0C0023FA02F394
:1008E8004FEA4303CCE77FEA625307D150EA01336A
:1008F8001EBF4FF0FE4040F44000704701F000403A
:1009080040F0FE4040F40000704700BF53B94AB9B8
:10091800002908BF00281CBF4FF0FF314FF0FF30FF
:1009280000F00CB8ADF1080C6DE904CE07F050FBEF
:10093800DDF804E0DDE9022304B07047704700BF2A
:1009480010B5054C237833B9044B13B10448AFF301
:1009580000800123237010BDD0000020000000009B
:10096800A082000808B5034B1BB103490348AFF345
:10097800008008BD00000000D4000020A08200080C
:1009880010B5044600222DED088B384B9FED389AA0
:1009980022600422F7EE008A3648A2602361364AB4
:1009A80062614FF08043A3613449C4ED018AB0EE1F
:1009B800490AE0604FF4806000F088FEDFED30AA5D
:1009C8002E499FED30AAB0EE408A4FF48060B0EE19
:1009D8006A0A00F07BFE9FED2C7A284994ED01BA53
:1009E800D4ED049A38EE408A94ED050AC8EE077AE9
:1009F8004FF4806020EE090A77EEA87AC4ED077AF2
:100A080000F064FE1D49B0EE408A4FF480602BEE82
:100A1800090A00F05BFE69EE8A9A38EE400A174927
:100A280094ED05BAC0EE297A4FF48060B0EE6A0AF8
:100A380077EEA87AD4ED069AC4ED087A00F046FE5F
:100A48000E49B0EE408A4FF480602BEE090A00F0A0
:100A58003DFE69EE8A9A38EE400AC0EE297A77EEB2
:100A6800A87ABDEC088BC4ED097A10BDCDCCCC3D7D
:100A780000008044A69B443BCDCC4C3FB882000884
:100A880017B7D13D00803B4700001043034A02607E
:100A98004FF07E51002341608360704717B7D1380B
:100AA8000022032342608360704700BF00000000FB
:100AB80010B58368012B2DED028B044690ED008A5A
:100AC80007D0032B37D0E3B1B0EE480ABDEC028B58
:100AD80010BD90ED087AD0ED057A28EE078AB4EEBD
:100AE800E78AF1EE10FA80ED008AEDD8B0EE678A59
:100AF800B0EE480ABDEC028B0223C0ED007A836099
:100B080010BD90ED077AD0ED017A28EE078AB4EE91
:100B1800E78AF1EE10FA80ED008AD5DBB0EE678A3D
:100B2800B0EE480ABDEC028B4269C0ED007A0123A1
:100B38004260836010BDD0ED097A28EE278A18EE4E
:100B4800100AFFF7B3FD0FA3D3E90023FFF770FEE8
:100B580060B1DFED0B7AB0EE678AB0EE480ABDEC03
:100B6800028B0423C4ED007AA36010BDB0EE480ADE
:100B780084ED008ABDEC028B10BD00BFAFF300808E
:100B8800000000002D431CEBE2361A3F10B50B4C59
:100B98002378022B09D0042B00D010BD002323702A
:100BA8000748BDE8104001F047BB06490448402209
:100BB80001F066FB0323237010BD00BFEC0000208A
:100BC800F000002050000010F8B51A4801F04AFB68
:100BD800032819D9184C194FC0F38F00013880B277
:100BE800261D06EB80062188A27814F8013C61F3E3
:100BF800172562F31F6573B963F3070528460434A4
:100C080000F028F8B442EED1BDE8F8400C49094894
:100C1800402201F035BB63F3070501224FF4004180
:100C2800384602F0C9FD0434284600F013F8B442EF
:100C3800D9D1E9E7F000002051000010000C024073
:100C480050000010024B4FF400521A80704700BF4A
:100C580090000010F8B5C0F30743C0F30766040E10
:100C6800C0F3072000F0F00090281D4625D0E028AA
:100C78001ED0802800D0F8BD374E384B3278013A64
:100C8800002452B2A2425C55327047DD3448827863
:100C9800AA42F0D11A46234601E0802B55D012F81B
:100CA800011B0129DCB203F10103F6D18470F8BD00
:100CB8002B4B05EBC4121A80F8BD2948C670C4B97D
:100CC800254F264B3A785E55013A52B2002A3A70BF
:100CD8002CDD8278AA42CED1224601E0802A37D084
:100CE80013F8011B0129D4B202F10102F6D1847074
:100CF800DDE7837001224FF480411A4802F05CFD61
:100D08001948FFF7C3FE1948FFF7C0FE124A1349F6
:100D180013780120034448551370F8BD1248FFF7B3
:100D2800BFFE1248FFF7BCFE3470F8BD0E48FFF74F
:100D3800B7FE0E48FFF7B4FE22463E700948BDE8EC
:100D4800F8404FF4804102F037BD1C468470AEE78E
:100D580014468470ABE700BF0C0700201007002082
:100D680090000010000C0240280000100000001045
:100D7800042906D0052910B50B4620D0022908D031
:100D880010BD174B174801224FF400411A7002F0AA
:100D980013BD134C1348237001224FF4805102F005
:100DA8000BFD104800224FF4004102F005FDBDE89C
:100DB80010400C4800224FF4804102F0FDBC084B63
:100DC800084800224FF4805104241C7002F0F4FCFF
:100DD800BDE81040034800224FF4004102F0ECBC8B
:100DE800EC000020000C02402DE9F04F9A4E83B031
:100DF800044608468B46FFF7C3F9327881460AB3A2
:100E0800EFF311834FF0200181F3118804EB4407BD
:100E180006EBC7070093D7F82C80B8F1010F4FEA0B
:100E2800440500F0B080B8F1020F6CD0B8F1000FA3
:100E380042D04FF00008009B83F31188404603B06E
:100E4800BDE8F08F02F0FF052946782206F1300050
:100E580006F0B6FF03213161804A71614FF480606A
:100E68007F49B261F16130627E49B5627562F562AF
:100E7800326610227166B2663567F5667567BFF32C
:100E88005F8F452047274FF0530C86F800C052214A
:100E980070705422B770F770307120207171B07182
:100EA800F17132727272B572F57235737573B5730A
:100EB800F573BFF35F8FA3E7BA6AD7F824A052454A
:100EC8009CBF396A5218013AA2EB0A029145B2D87E
:100ED800254406EBC50501342F6AA7EB0A08C1456E
:100EE80004EB440480F0A18006EBC4025946506824
:100EF8004A46504406F056FFBFF35F8F09EB0A03DA
:100F08006B62C84697E7013404EB44047D6A4FEAF4
:100F1800C40A4FF00008BB6AAB4203F1FF3225D97F
:100F28003C6A531B4B4506EB0A02A4EB050428BF99
:100F38004B469C42506828BF1C46284459462246C6
:100F480006F030FF3B6A25449D42A044A344A9EB28
:100F5800040910D0BFF35F8F7D62B9F1000F3FF431
:100F68006AAFBB6AAB4203F1FF32D9D83C6A23446B
:100F7800013B5B1BD6E7BFF35F8F00257D62B9F1AC
:100F8800000FC8D157E7BA6AD7F824A052451FD92D
:100F980002F1FF38A8EB0A083F6AC84528BFC846CF
:100FA800A7EB0A02904521D2631C03EB430306EB2F
:100FB800C303594658684246504406F0F3FEBFF34F
:100FC8005F8F254406EBC5050AEB08036B6232E721
:100FD8003F6A02EB070808F1FF38A8EB0A08C84582
:100FE80028BFC846A7EB0A029045DDD304F10109E2
:100FF80009EB490906EBC9095946D9F804000192D9
:10100800504406F0CFFEA8EB0707019AD9F8040070
:1010180057440BEB02013A4606F0C4FEBFF35F8F5C
:10102800254406EBC5056F6205E706EBC406AAEB87
:10103800070470684246594650444C4406F0B2FED4
:1010480070680BEB0801224606F0ACFEBFF35F8F19
:101058006C62C846EFE600BF90070020BC9200080B
:1010680048080020380800202DE9F843354C1F4671
:10107800237805468946904633B3022D5ED8EFF3B0
:1010880011864FF0200181F3118855B92A4653196A
:1010980004EBC304089BE36286F311880020BDE8D3
:1010A800F883681C00EB4000C00005EB450344F8DA
:1010B800009004EBC30320440021C0F804806A00B8
:1010C8001F6299625962E2E703F0FF06314678220F
:1010D80004F1300006F074FE032222611A4B6261AB
:1010E8004FF48061194AA361E2612162184AA6623D
:1010F8006662E662236610236266A3662667E66672
:101108006667BFF35F8F452147204FF0530C84F883
:1011180000C0522261705423A070E0702171202118
:101128006271A171E27123726372A672E67226730C
:101138006673A673E673BFF35F8F9EE74FF0FF30C9
:10114800ADE700BF90070020BC92000848080020C7
:1011580038080020000000002DE9F84FDFF800B241
:10116800DFF80082724F734E2DED068B8146DFED5E
:10117800728A9FED72AA9FED729ADFED729A00242F
:1011880000F1020A50E0F0EE086AB4EEE67AF1EEF9
:1011980010FA00F3C280F3EE0B6AF2EE025A67EE21
:1011A800255AB0EE665AA7EE075AE7EE256A27EEEB
:1011B800057AB0EE666AC7EE066A26EEA97ABDEE33
:1011C800C77A17EE103A1AB2B8EE087AF4EEC77A70
:1011D800F1EE10FA00F19580B0EE087AF4EEC77AD5
:1011E800F1EE10FA00F39C80B3EE0B7AB2EE026ACD
:1011F80027EE866AF0EE475AE7EEA75AA7EE867AF8
:1012080067EEA57AF0EE476A87EEA67A67EE297A46
:10121800FDEEE77A17EE903A1BB229F824202AF857
:1012280024300134102C74D09BF8005008EB85034F
:10123800D3ED007A27EEA87A17EE900A87ED017AA7
:10124800FFF734FA38A3D3E90023FFF7D1F8FFF703
:101258000DFB07EE900A0C2D67EEA87A3A4B88BF73
:1012680008EB8505C3ED017A88BF55ED0C7A374B3D
:101278008CBF67EEA87AF0EE4A7A3846C3ED017A59
:1012880000F0C0FC3048B0EE408A00F0BBFC2F48AC
:1012980038EE008A00F012FD2D4838EE008AFFF77C
:1012A80007FCF0EE407A67EE897A2A48B0EE480AE1
:1012B800C0ED007A00F030FB2748B0EE408AFFF717
:1012C800F7FBF7EE000A042028EE000A00F0C6F843
:1012D8001849081D00F018FE96ED017AD6ED007A3F
:1012E800F8EE086AB4EEE67AF1EE10FA7FF54BAF45
:1012F800B8EE087AF4EEC77AF1EE10FA174A7FF5DD
:101308006BAF164B29F824202AF824300134102C0E
:101318008AD1BDEC068BBDE8F88F47F6FF7253E71C
:1013280047F6FF7379E700BF9A9999999999B93F58
:10133800DC000010940000108D7E7F3FED8D02418F
:101348000000164400FEFF46F8000010840100105B
:1013580000000010C4000010280000100180FFFFEA
:1013680092000010C892000800B52DED028B4BF6D4
:10137800803283B04621022001F0F6FCDFED201A0E
:101388002048CDED011A802101F0E0FBDDED011AC6
:10139800DFED1D0A1D489FED1E8AB6EE002AB0EE4D
:1013A800611AB0EE420A00F019FCDDED011A194885
:1013B800B6EE002AB0EE611AF0EE480AB0EE420A24
:1013C80000F00CFCDDED011A1348B6EE002AB0EE71
:1013D800611AF0EE480AB0EE420A00F0FFFB0F482F
:1013E800FFF7CEFA0E48FFF7CBFA0E4800F084FA62
:1013F80003B0BDEC028B5DF804EB00F065BD00BFE7
:1014080000000000480C002000007A44DC000010B6
:101418000000DC43F80000108401001028000010D0
:1014280000000010C40000100148FFF795BE00BF7F
:10143800480C00200148FFF78FBE00BF880C002031
:10144800FEE700BF014B986B01F004BF6411012057
:10145800014BD86B01F0FEBE1C1101209FED147AE0
:10146800DFED147A144BE0EE877A93ED007A77EE8D
:10147800877AF7EE006AF4EEE67AF1EE10FAC3ED39
:10148800007A00DA704701380122824007EE102AFC
:10149800B8EE477A77EEE67A27EE000AC3ED007ACF
:1014A800FDEEC07AF8EEE77A87EE870A704700BF4C
:1014B80052B87E3F0AD7A33BC80C00200023DFF8B0
:1014C8001CC00449044A03604360C0F808C0C160F6
:1014D800026170470000C844CDCCCC3D9A99193FB1
:1014E800D0ED027A90ED007A77EEA75AF0EE406AD6
:1014F800D0ED047A90ED010AE5EEC76AB7EE006A0E
:10150800A5EEA76AE7EE676AA7EEA76A76EEC06A55
:10151800C6EE865AA7EEA57AA7EE870AB0EE476A06
:10152800F0EE406AA7EEA56AE7EE876A80ED006AEA
:10153800C0ED016A704700BF2DE9F04700248CB068
:10154800CDE90644CDE908445B4B00940A941A6B34
:101558005A4EDFF874815A4F42F010021A631A6B20
:1015680002F010020092009A01941A6B42F00402F1
:101578001A631A6B02F004020192019A02941A6B20
:1015880042F080021A631A6B02F080020292029AF9
:1015980003941A6B42F001021A631A6B02F00102FB
:1015A8000392039A04941A6B42F002021A631A6BAC
:1015B80002F002020492049A05941A6B42F008029F
:1015C8001A631B6B03F00803059322463046082173
:1015D800059B02F0F1F801221146404602F0ECF8B2
:1015E800224638464FF2100102F0E6F801254FF086
:1015F800080906A93046CDE90695CDE9084401F069
:10160800FFFE06A940464FF0020ACDE90655CDE98E
:10161800084401F0F5FECDF8189040464FF0050952
:1016280006A9A8F58068CDE90844CDF81CA0CDF836
:10163800289001F0E5FE06A901224FF490132148F5
:101648000894CDE9062301F0DBFE042206A94046F2
:101658000023CDE90623089401F0D2FE404606A9EE
:101668004FF480630693CDE90844CDF81CA0CDF86B
:10167800289001F0C5FE06A938464FF210030693DC
:10168800CDE90844079501F0BBFE384606A920229B
:101698000023CDE90623089401F0B2FE02224FF49C
:1016A800901306A93046CDE90623089401F0A8FE58
:1016B8000CB0BDE8F08700BF0038024000100240BF
:1016C800000C02400000024000080240FCEEC07A14
:1016D80017EE903AF8EE677A834270EE677A02D98D
:1016E8001B1A8342FCD8013898420BD0013301EB16
:1016F800830111ED010A91ED007A37EE407AA7EEE9
:10170800270A704701EB830393ED000A91ED007AF5
:1017180037EE407AA7EE270A704700BF10B50B488E
:101728000B4C0C4900234FF48042C0E90041C0E94A
:101738000233C0E90423C0E90633036202F09AFFCA
:1017480000B910BDBDE8104000F046BACC0C00202E
:1017580000540040A086010030B5184B026889B0DB
:1017680000249A42CDE90244CDE90444069401D00C
:1017780009B030BD124D00942B6B124843F00203A0
:101788002B632B6B03F0020300934FF410721223A8
:10179800CDE902230123049302A904230693009AA6
:1017A80001F02EFE01942B6C43F400132B642B6C78
:1017B80003F400130193019B09B030BD00540040AD
:1017C800003802400004024008B50268094B9A42FA
:1017D80000D008BD084A0948136C23F400134021BF
:1017E800136401F02FFFBDE8084004484FF400716E
:1017F80001F028BF005400400038024000040240B5
:1018080010B50C480C4C00234FF400724BF6803195
:10181800C0E90042C0E90233C0E90421C0E9063347
:10182800036203F0ADFA00B910BDBDE8104000F046
:10183800D3B900BF200D0020003C004070B52A4AF3
:1018480001688EB000239142CDE90933CDE90B330D
:101858000D93079301D00EB070BD0124C525022356
:1018680004A8CDE90445069304F03CF8002838D1D3
:101878001E4B1F48002401941A6C42F400421A645B
:101888001A6C02F400420192019A02941A6B42F017
:1018980001021A631A6B02F001020292029A03947F
:1018A8001A6B42F004021A631B6B03F004030393E0
:1018B8000225062609A910230993CDE90B44039BA9
:1018C8000A950D9601F09CFD4FF4A453094809931D
:1018D80009A9CDE90A54CDE90C4601F091FD0EB0F5
:1018E80070BD00F079F9C3E7003C004000380240C1
:1018F800000002400008024000230449044A016035
:1019080043608360C3600361426170470000C8425E
:10191800000060400000000010B504462DED028B69
:101928000068B0EE408AFEF7C1FE61A3D3E9002348
:10193800FEF72EFC60A3D3E90023FEF729FC5A4BDF
:101948000022FEF725FCFEF791FF584900EE100A29
:101958004FF40060FFF7BAFEF7EE006A70EE267AE1
:1019680094ED036AD4ED044A94ED017A94ED054AA6
:10197800C6EEA73AD4ED027A20EE235AF8EE081AFA
:10198800E6EE054A25EE053AB4EEE18AE3EE274A8B
:1019980023EE052AF1EE10FA62EE052AE2EE074A76
:1019A80022EE883AB0EE662AA4EE222AA4EEA33AE2
:1019B800F0EE405A83EE020A72D4F0EE084AB4EE12
:1019C800E48AF1EE10FA55DD64EE004AB8EE084AF2
:1019D800F4EEC44AF1EE10FA5FD4B0EE084AF4EE21
:1019E800C44AF1EE10FA42DCB3EE0B4AF2EE022AD8
:1019F80064EEA22AB0EE442AA4EEA42AA4EEA24AD7
:101A080064EE824AB0EE443A84EE834ABDEC028B1F
:101A180076EEC46A27EE237A67EEA37AA5EE267AD5
:101A280026EE236AE5EE077A76EEC76AF0EE474AB5
:101A3800E6EEA54AF0EE466AE5EE276A37EE677AE3
:101A4800B0EE676A77EEE67AA7EE256A36EEC07AD8
:101A5800E7EEA56AF0EE407AE7EE257AC4ED014A92
:101A680084ED026AC4ED036AC4ED047A10BDB7EED2
:101A7800004ACBE7F3EE0B6AB2EE023A28EE033ADD
:101A8800F0EE662AE8EE082AE8EE036A28EE228AD3
:101A9800F0EE664AC8EE246A96E7BFEE004AB5E75C
:101AA800FFEE006A90E700BF0000A040C89400085D
:101AB800EA2E4454FB210940000000C067D8F53ED7
:101AC80030B5002395B0CDE90A33CDE90C33CDE923
:101AD8000333CDE90533224901930793086C214A62
:101AE80040F080500864096C01F08051019101991F
:101AF8000293136843F480431360136801204FF482
:101B0800803103F48043CDE9080102934FF480014A
:101B18000224CDE90E41029807210220CDE91201E5
:101B280008224FF4A87308A81092119303F014FC2C
:101B380008B172B6FEE70F220346CDE903244FF43D
:101B4800A0554FF4805203A80521CDE90535079229
:101B580003F01AFE08B172B6FEE715B030BD00BF3B
:101B6800003802400070004000B583B001F0A4F9CD
:101B7800FFF7A6FFFFF7E0FCFFF7D0FDFFF740FEF9
:101B880000F042F91049114C0020FFF72DF900220E
:101B98001346114600921046FFF766FA00220C49D8
:101BA8000A4804F013FD0B49084804F03FFD0748B4
:101BB80004F0DAFFFFF746F8FFF7D6FBFEF7E6FF7B
:101BC800204604F0DBFFF9E7CCB40008F000002061
:101BD800790D00080C00002072B6FEE7DFED087AE8
:101BE80080ED000A60EEA70A0023C0ED010A8360B9
:101BF80080ED031AC0ED041A836180ED052A704751
:101C08008D7E7F3F9FED2C7AD0ED017AD0ED026A70
:101C180090ED000A67EE877AF0EE005A37EEA67A62
:101C2800BFEE006AB5EEC07AF1EE10FAA6EEA56A2C
:101C380044BFF7EE005A37EE257AF7EE005AB4EEB5
:101C4800E57AF1EE10FAA8BF37EE657AF4EEE67A97
:101C5800F1EE10FA80ED027A12DD86EEA77AF0EE48
:101C6800005A67EE477AF7EE006AE7EE257A77EED4
:101C7800E67A36EE676A20EE060A80ED060A7047B5
:101C8800F7EE005A35EEE77AF4EEC76AF1EE10FA8D
:101C9800F1DD76EEE56A86EEA77AF0EE477AE7EEB2
:101CA800077A37EE277A37EE257A36EE476A20EE3E
:101CB800060A80ED060A7047DF6AAE37DFED506A24
:101CC80090ED017AD0ED027A90ED056A27EE267A3A
:101CD800F4EEC67A77EE276AF1EE10FAF7EE005ABC
:101CE800F5EEC06ABFEE000AB8BFB0EE650AF1EEC5
:101CF80010FA48BF76EEA56AF7EE005AF4EEE56AE8
:101D0800F1EE10FAA8BF76EEE56AB4EEE77AF1EEE6
:101D180010FAC0ED026A3BDDC7EE875AF0EE004AC2
:101D280065EEE56AB7EE005AE5EEA46A76EEC56A96
:101D380077EEC67A30EE260AF5EEC07AF1EE10FAA2
:101D480044BFF7EE006A77EEA67AF7EE006AF4EE83
:101D5800E67AF1EE10FAA8BF77EEE67AB4EEE77A03
:101D6800F1EE10FA2ADDC7EE876AB0EE006A66EE79
:101D7800E67AB7EE007AE6EE867A77EEC77A30EE44
:101D8800670AD0ED007A20EE270A80ED060A704730
:101D9800F7EE005A75EEC76AF4EEE67AF1EE10FA3D
:101DA8002ADD37EEE55AC5EE076AB0EE665AA6EEAA
:101DB800A65A76EE856A76EEA56AB9E7B7EE006AA6
:101DC80076EE476AF4EEE67AF1EE10FAD9DD77EEB0
:101DD800C67AC7EE876AF0EE667AE6EEA67A76EEFF
:101DE800A76AD0ED007A76EE866A30EE660A20EEB3
:101DF800270A80ED060A7047DFED026A98E700BF00
:101E0800DF6AAE370000000010B50E480E4C4FF4E4
:101E180082720023C0E900424FF400710A22C0E92F
:101E28000233C0E90433C0E90613C0E90833C0E946
:101E38000A3203F035FE00B910BDBDE81040FFF7C7
:101E4800CBBE00BF680D002000300140000000003C
:101E580000B51B4A016889B000239142CDE90233DD
:101E6800CDE90433069302D009B05DF804FB02F50E
:101E780084320093506C40F480505064506C00F4ED
:101E88008050009000980193136B0E4843F00103B3
:101E98001363136B9FED087B03F00103019302A901
:101EA80005238DED027B019A069301F0A9FA09B08A
:101EB8005DF804FBAFF30080E000000002000000C2
:101EC800003001400000024010B5094B094A0A4C95
:101ED8001C600A4C0A4802F5FA41C3E90124D9609A
:101EE800FFF7ECFABDE810400648FFF7E7BA00BF75
:101EF800A0010010C08D0020C00D0020806B0020C4
:101F0800B00000109C000010F8B5504C23682DED6F
:101F1800028B0746B0EE408A4D4893ED000A0E4604
:101F2800FFF7DEFA63684B48F0EE408A93ED000A4B
:101F3800FFF7D6FA484B93ED007AF0EE487AE7EED1
:101F4800287AF8EE086AF4EEE67AF1EE10FA73D41D
:101F5800F0EE086AF4EEE67AF1EE10FA69DCF3EED8
:101F68000B6AF0EE665AB2EE026A27EE866AE7EE70
:101F7800A75AE7EE866A67EEA57A87EEA66AF0EEBC
:101F8800487AE7EE007AB8EE087AF4EEC77AF1EE0E
:101F980010FA54D4B0EE087AF4EEC77AF1EE10FADB
:101FA80050DCB3EE0B7AF0EE475AF2EE026A67EEB7
:101FB800A66AE7EEA75AA7EEA67A67EEA57AC7EE55
:101FC800876A264B2648D4E9025247F6FC7C93EDF3
:101FD800007AE5EC016AF7EE007A77EEC77AD4E981
:101FE800001327EE880AA2EC016AF0EE407AE7EEC9
:101FF800067A0431BDEC028BA7EE260A0433C7ED3E
:10200800007A86ED000A174EAF1B6745C8BF3546F4
:10201800A5608D1B6545C8BF31462160111A614511
:10202800C8BF0246E2601A1A6245C8BF0346636029
:10203800F8BDB7EE006AA2E7BFEE006A9FE7FFEEC1
:10204800006ABEE7F7EE006ABBE700BFA001001018
:10205800B00000109C0000100400002000000020C8
:10206800C08D0020C00D002082B00D4B00210091D2
:102078005A6C42F480425A645A6C02F480420092CC
:10208800009A01911A6C42F080521A641B6C03F09A
:1020980080530193019B072002B000F04BBF00BFA3
:1020A80000380240FEE700BFFEE700BFFEE700BFC2
:1020B800FEE700BFFEE700BF704700BF704700BFE4
:1020C800704700BF00F012BF014801F085BC00BF97
:1020D800C00D0120034AD2F8883043F47003C2F8D7
:1020E8008830704700ED00E008B50221D0F81836B6
:1020F8009847002008BD00BF0020704738B5D0F8C9
:10210800C835DD69A978044651B9697891B9284676
:1021180005F040FED4F8C8350022DA61002038BD49
:1021280005F07CFDA978204605F0D2FD69780023EA
:10213800AB7041B1204605F071FD6978204605F085
:10214800C7FD00236B70D4F8C835DD69002DDED1DA
:10215800002038BD70B5FF2384B003220121054655
:1021680004F07CFAFF2863D00146284604F06CFA94
:102178001C20D5F8C86505F005FEF06195F82032F9
:102188005A2202FB0352044692F94A0292F84A1272
:10219800B2F84C220028B4BF2281E2804FF05A02E4
:1021A80002FB0353B8BF217193F95222A8BFE17013
:1021B800002A93F85212B3F8543235DBE170E38009
:1021C800284605F031FD217903462846A37005F01D
:1021D8002BFDE38895F81D2200920226CDE90163C4
:1021E800E27895F81C32A1786070284605F006FD63
:1021F800238995F81D122279CDE90163284695F8BF
:102208001C3200910026617805F0F8FC6178267090
:102218003246284600F0DAF9A1783246284600F01E
:10222800D5F9304604B070BD21712381E178C7E744
:10223800022004B070BD00BF38B503780B2B01D065
:10224800002038BDD0F8C825D569002369782B70DF
:10225800044605F0E3FCA978204605F0DFFC0020E1
:1022680038BD00BF02780B2A01D00020704708B59E
:10227800D0F8C835DB69597800F05AF980B208BD42
:10228800D0F8C835DB691878012801D901207047D2
:102298004FF0010C032058761961DA8283F800C0E8
:1022A80000207047704700BF70B5D0F8C835DE69A8
:1022B8003478012C82B006D0022C34D004B1012429
:1022C800204602B070BD337E012B05463BD0022B61
:1022D8000AD1B17800F05EF9012844D0022808BF7D
:1022E8003476D5F8C835DE69737E032B22D0042BEB
:1022F800E5D17178284600F04DF901280446DED171
:102308007178284600F014F9F38A82B2934242DDCC
:10231800318991423FD231699B1AF38211440323D8
:1023280031617376CCE7002105F032FB0028C6D175
:102338003070C4E7737832893169284605F04EFC5D
:1023480004237376BCE7B38AF288F168934298BF96
:102358001A46B378009405F029FC02233376D5F8A1
:10236800C835DE69C0E7B38AF288934209D80023EA
:10237800B38233762846FFF795FFD5F8C835DE696E
:10238800B2E79B1A3476B382F368D5F8C8151344BC
:10239800F360CE69A8E7002373762846FEF714FC9D
:1023A8008EE700BF0368B3F1A04F00D0704770B547
:1023B8008AB02B4C2B4800250195236B43F0010371
:1023C8002363236B03F001030193019B0295236BA5
:1023D80043F004032363236B03F0040302934FF4D5
:1023E800C0520223CDE904230A26002204A90323AC
:1023F800CDE906230896029B01F002F84FF48062AB
:102408001223CDE9042304A90122032315480896C1
:10241800CDE9062300F0F4FF01220123CDE90423CE
:1024280004A9002202231048CDE9062300F0E8FFA2
:10243800636B43F0800363630395636C43F48043E9
:102448006364636C03F480432A46062103934320A4
:10245800039B00F081FD432000F0BCFD0AB070BD75
:10246800003802400000024000080240D0F8000393
:1024780004F022BDD0F8000304F036BDD0F8000304
:1024880004F048BDD0F8000304F026BDD0F80003DE
:1024980004F026BD704700BF002270B51146124CEB
:1024A80005464FF0FF3000F057FD4FF0A043236082
:1024B800022200230026C4E90623C5F814460B228D
:1024C80001232046C4E9022326612662E662C4F895
:1024D800005301F0C7F9204601F07AFE014628466C
:1024E80004F0E6FC304670BDC00D012008B5D0F8F8
:1024F800140601F035FE002008BD00BF08B5D0F86D
:10250800140601F043FE002008BD00BF08B5D0F84E
:10251800140601F061FE032828BF0120C0B208BDDF
:1025280008B5D0F8140601F043FE002008BD00BF2E
:10253800D0F8140601F046BE10B584B0D0F81406E1
:102548009DF8184000949DF81C400194BDF8204067
:10255800029401F035F9002004B010BD08B5D0F898
:10256800140601F06DF9002008BD00BF10B584B055
:10257800D0F814069DF818400094079C0194BDF803
:10258800204002949DF82440039401F0BDF90020F6
:1025980004B010BDD0F8140601F00EBE08B549B954
:1025A80001221146084801F007F9C82000F0B0FCE4
:1025B800002008BD00220121034801F0FDF8C820D1
:1025C80000F0A6FC002008BD00080240074B2C20A4
:1025D80000FB013191F83B301BB181F854200020F9
:1025E800704781F855200020704700BFC00D0120BA
:1025F80000F08EBC002070470020704700B56429A9
:1026080083B022D8124AC1EB0121A2FB013245F660
:102618003B23C2F34712994202F119020FDDD2B2ED
:10262800C0B2CDE90020202100F03EFA0198009ABE
:10263800212100F039FA002003B05DF804FBC0B294
:10264800D2B2CDE900202021EEE71822E8E700BF4A
:102658001F85EB5100F026BA10B5044600F0E8F9E2
:102668000121E0B200F046FA00F0F80010BD00BF0A
:1026780010B5012982B013D0C0B2002222210190E6
:1026880000F012FA01980022232100F00DFA0E4BF7
:1026980001981A78042100F007FA002002B010BD52
:1026A8000C46C0B20421FF22019000F0FDF9019808
:1026B8002246222100F0F8F901982246232100F051
:1026C800F3F9002002B010BDC4100120013908B58B
:1026D800032921D8DFE801F0160C0220AA220421E0
:1026E800C0B200F0E1F9114BAA221A70002008BD0F
:1026F800AF220421C0B200F0D7F90C4BAF221A70F8
:10270800002008BDFA220421C0B200F0CDF9074B21
:10271800FA221A70002008BD05220421C0B200F078
:10272800C3F9024B05221A70002008BDC41001200D
:1027380000B583B0C0B2FF220421019000F0B4F9C3
:1027480001980122222100F0AFF9019801222321EA
:1027580000F0AAF901980122022100F0A5F9002051
:1027680003B05DF804FB00BF00B583B0C0B2FF2220
:102778000421019000F098F901980122222100F02B
:1027880093F901980122232100F08EF9019804227F
:102798000E2100F089F901989F22022100F084F9A6
:1027A800034B012200201A7003B05DF804FB00BF40
:1027B8002C00002030B5002485B0C0B2222122466A
:1027C800134D0190039400F06FF9019822462321DC
:1027D80000F06AF901982A78042100F065F9039459
:1027E800039B0198FE2B05D8039B01330393039B9E
:1027F800FE2BF9D92A780190042100F055F90198A7
:102808009E22022100F050F9002005B030BD00BF23
:10281800C410012010B5144C2378012B82B002D0CB
:10282800002002B010BDC0B206220E21019000F0B7
:102838003BF901980022222100F036F90198002284
:10284800232100F031F9094B01981A78042100F08E
:102858002BF901989E22022100F026F9002300207E
:10286800237002B010BD00BF2C000020C41001204E
:1028780070B5C4B282B00D46164600F0D9F80122F0
:102888000221204600F010F96B1E032B68D8DFE800
:1028980003F0635F0267374BAA221A701A78042183
:1028A800204600F001F981220521204600F0FCF8BD
:1028B80004220621204600F0F7F8642E54D82E4B47
:1028C800C6EB0626A3FB0623C3F3471345F63B22B4
:1028D80019339642DAB249DD01922021204600F0F0
:1028E800E3F8019A2121204600F0DEF8022D0ED0EF
:1028F80006220F21204600F0D7F800222421204686
:1029080000F0D2F800222521204600F0CDF820461C
:1029180000220A2100F0C8F8204604220E2100F007
:10292800C3F820460022272100F0BEF820460F22D7
:102938001F2100F0B9F820460A221A2100F0B4F845
:1029480020460A221B2100F0AFF8002002B070BD1B
:10295800084BAF221A70A1E7064BFA221A709DE7BE
:10296800044B05221A7099E71822B5E72021204662
:102978000192B4E7C41001201F85EB5170B588B0EF
:10298800264C274D274B2B6000260096236B264AA2
:1029980043F002032363236B6A6003F0020300938E
:1029A8004FF480432B6133224FF41070122104231B
:1029B800CDE90201C5E902620099069302A9002245
:1029C80002231A48CDE9042300F01AFD0196236C6E
:1029D80043F400132364236C03F400130193019B55
:1029E800236A43F400132362236A23F40013236247
:1029F800324631461F2000F0AFFA1F2000F0EAFAF5
:102A080032463146202000F0A7FA202000F0E2FAF2
:102A1800284608B0BDE8704001F02CBE00380240DE
:102A2800C810012000540040A086010000040240A4
:102A380000B589B0184B1948002201921A6B42F070
:102A480008021A631B6B03F0080301931022012389
:102A5800CDE9022302A900220223CDE90423019B28
:102A680000F0CEFC0E4802F087F990B10022102148
:102A78000A4800F0A1FE052000F04AFA01221021C0
:102A8800064800F099FE052000F042FA09B05DF80A
:102A980004FBFFF773FFE9E700380240000C02402F
:102AA800C8100120704700BF10B5104B86B01B68D6
:102AB8000293144601238DF817400DF117040A46B6
:102AC8000193014600940A4801F0B6FE08B906B021
:102AD80010BD074801F096FE054802F04DF90028A0
:102AE800F5D1FFF74BFF06B010BD00BF6000002016
:102AF800C810012000B5134B87B01B6802938446A9
:102B08000A4600200DF117010123CDE900138DF8C5
:102B1800170061460C4801F081FF20B99DF81700A5
:102B280007B05DF804FB084801F06CFE064802F0A7
:102B380023F90028F2D1FFF721FF9DF8170007B00D
:102B48005DF804FB60000020C810012010B50E4B92
:102B580082B01B6801900C46DB680146A2B2942043
:102B6800984768B9B4F5003F0199084834BFC4F3E1
:102B78004F024FF6FF7202F0A7F9002002B010BD15
:102B8800012002B010BD00BF0C1201206411012009
:102B980010B5B1F5FA5F86B047D042F611339942C5
:102BA8001BD1012445F22263994238D0B1F5FA4F7E
:102BB80008BF042417D1204B99421AD102A80190CA
:102BC80002F030FF01989FED1A7B03238DED027B05
:102BD800049302F087FE06B010BDB1F57A5F18BF06
:102BE800FF24DFD102244AF64443994208BF052452
:102BF80016D102A8019002F015FF14F0070F0198F2
:102C0800E1D10E4A0E4B52F8242053F82430049395
:102C18000121CDE9021202F065FE06B010BD0324C1
:102C28004BF680339942C9D0C5E70024BAE700BF04
:102C380001000000020100000077010010B5000843
:102C480030B5000870B58CB0414C00250195236C57
:102C580043F400432364236C03F400430193019B72
:102C68000295236B43F004032363236B03F00403EF
:102C78000293029B0395236B43F001032363236BA9
:102C880003F0010303934FF4A0520223CDE9062376
:102C980000220223CDE90823064606A92D4806236B
:102CA8000A93039B00F0ACFB10232B48069306A95C
:102CB80000F0A6FB0495236B264843F00403236326
:102CC800236B03F00403049306A98023049A069354
:102CD80000F096FB0595236B204A43F40013236309
:102CE800236B03F40013059333680599934209D0C5
:102CF80000220E212F2000F02FF92F2000F06AF972
:102D08000CB070BD164C174BB4634022C4E9015295
:102D18004FF48062C4E903524FF400614FF400524B
:102D2800C4E905124FF480704FF40032C4E9070279
:102D38004FF0040C03222046C4E909C2C4E90B552C
:102D48002360A66300F006FA204600F06BF9CFE78F
:102D5800003802400008024000000240003C0040E9
:102D6800AC110120B86002402DE9F041214C154614
:102D78000646002220460F462946FFF709FF1E4B4C
:102D88002360204602F0B4F978B31B4B6561DA6919
:102D9800236022F48062DA610023C4E90633C4E9BF
:102DA800023314484FF400732361636001F0E8FFB5
:102DB800044648B9DFF848809420D8F80830984786
:102DC80000F0F800E02803D001242046BDE8F08197
:102DD8000A482B46C0F80080D8F800503A463146D9
:102DE8009420A8472046BDE8F08101462046FFF719
:102DF80029FFCAE764110120003C00400C120120A1
:102E08003000002008B50268034B9A4200D008BD84
:102E1800FEF710FB08BD00BF003C004008B5026883
:102E2800034B9A4200D008BDFEF7FEFA08BD00BF6A
:102E3800003C0040704700BF08B5FFF7FBFF08BD26
:102E4800704700BF084A0368934210B506D0074A86
:102E5800934200D010BDFFF7F3FF10BD0446FEF704
:102E6800EFFA2368F3E700BF003C00400038004059
:102E780038B50E4A0E4B12781B6805464FF47A7027
:102E8800B0FBF2F0B3FBF0F000F0B2F808B90F2D88
:102E980001D9012038BD0446024629464FF0FF30CB
:102EA80000F05AF8034B20461D6038BD640000202E
:102EB800080000206800002008B50B4B1A6842F48F
:102EC80000721A601A6842F480621A601A6842F442
:102ED80080721A60032000F02DF80020FFF7C8FF69
:102EE800FFF7C2F8002008BD003C0240034A044B2B
:102EF80011681B780B441360704700BF1012012043
:102F080064000020014B1868704700BF10120120B0
:102F180038B50446FFF7F6FF631C054602D0044B9C
:102F28001B781C44FFF7EEFF431BA342FAD338BDBE
:102F3800640000200749CA6803024FF6FF0003F443
:102F4800E0630240134343F0BF6343F40033CB60B4
:102F5800704700BF00ED00E01C4BDB68C3F30223A1
:102F680000B5C3F1070EBEF1040F03F1040C28BF2E
:102F78004FF0040EBCF1060F1BD9033B4FF0FF3C8A
:102F88000CFA03FC22EA0C024FF0FF3C0CFA0EFC90
:102F980021EA0C019940002841EA02010CDB00F10A
:102FA8006040090100F56140C9B280F800135DF87E
:102FB80004FB00221346E7E7054B00F00F00090168
:102FC8000344C9B219765DF804FB00BF00ED00E0C8
:102FD800FCEC00E0002807DB4109044A00F01F0070
:102FE8000123834042F82130704700BF00E100E030
:102FF8000138B0F1807F10D210B44FF0E023084CB4
:1030080058614FF0F00C84F823C0002207211046C5
:103018009A615DF8044B196170470120704700BF41
:1030280000ED00E038B50446FFF76CFF002C52D0E5
:1030380023680022022184F8351084F834201A68A5
:1030480022F0010205461A6005E0FFF75BFF431B0B
:10305800052B39D823681A68D107F6D4D4E901209A
:10306800E16802430A43D4E90451A0692A430A43A8
:10307800E1691D6802430A4333492940256A2A4306
:103088000A43616A042928D01A605A6922F00702A3
:103098001143D8B22D4A59611038A2FB00521209C7
:1030A8002B4923F47F73895CE16523F003035F28D0
:1030B80088BF04333F228A40A36500209A60012319
:1030C800606584F8353038BD03232022626584F8B2
:1030D8003530184638BD012038BDD4E90B51294395
:1030E800114319605969A26A21F00701114341F09F
:1030F8000401002DCDD078B1B0F5005F16D0022ABA
:1031080003D9032AC5D1EA01C3D501234022626548
:1031180084F83530184638BD012A03D032F002024F
:10312800B7D1F0E7B5F1C07FB3D1EEE7032AB0D845
:1031380001A050F822F000BF133100080F31000839
:10314800133100082D3100083F8010F0ABAAAAAA5D
:1031580050B50008002836D090F83520022A0346DA
:10316800D0B232D01A681949D0B2103830B4A1FBA5
:10317800004109091468164D24F001046D5C1460BF
:103188000021116051609160D1601161212151616C
:1031980022F47F7222F003025F2888BF04323F24A2
:1031A8000021AC40DD65C3E90F11C3E91111C3E982
:1031B80013119A659460596583F8341083F83510B3
:1031C800084630BC7047012070477047ABAAAAAACE
:1031D80050B5000870B490F83440856D012C35D096
:1031E80090F835404FF0010C644580F834C005D0A4
:1031F800002380F8343070BC02207047022680F823
:103208003560046800264665266826F48026266010
:1032180063608368402B0EBFA260A160E260C26D4C
:1032280008BFE1603F239340AB602368026C43F022
:10323800160323601AB1236843F008032360236848
:1032480043F001030020236070BC7047022070BC6B
:10325800704700BFF0B583B0674A876D16680023D2
:103268000193C36D3D6808229A402A42044603D060
:1032780001680868400778D401229A402A4203D09E
:103288002168496908066AD404229A402A4203D070
:103298002168096889075CD410229A402A4203D021
:1032A80021680868000741D420229A402A4214D095
:1032B80021680868C00610D5BA6094F83520052A38
:1032C80063D00B6813F4802F0B687ED0190340F18C
:1032D8008980E36B0BB120469847636D23B3636D18
:1032E800DA071AD522684549052384F8353013686A
:1032F800A1FB061623F00103B60A136002E0136867
:10330800DB0704D5019B0133B3420193F7D90122AE
:10331800002384F8352084F83430E36C23B1204648
:1033280003B0BDE8F040184703B0F0BDBA600A68C2
:1033380012F4802F0A6822D1D20503D40A6822F039
:1033480008020A60226C002AAED020469047E36D3E
:10335800AAE7BA60626D42F0040262659CE7BA604F
:10336800626D42F0020262658EE7086820F0040090
:103378000860BA60626D42F0010262657CE7110381
:10338800E0D5A26C002AE0D18EE70A6822F0160286
:103398000A604A6922F080024A61226C3AB30A68DC
:1033A80022F008020A603F2202FA03F3216DBB6093
:1033B8000122002384F8352084F834300029B3D062
:1033C800204603B0BDE8F040084713F4807380D16D
:1033D8000A6822F010020A60012284F8352084F875
:1033E800343076E7636C002B7FF475AF75E7A26C19
:1033F800002AD4D1D7E700BF08000020B5814E1BB2
:103408002DE9F04F00220C68DFF830A2844E85B019
:103418001346894605E00133102B02F1020200F041
:103428008A800121994001EA040BA143F3D1D9F81C
:1034380004C00CF003014D1E012D7FD9032940F073
:10344800C0809140CD4307683D4029431CF4403F6C
:103458000160E0D000210391DAF8441041F4804182
:10346800CAF84410DAF8441001F480410391039932
:1034780023F0030101F1804101F59C3103F00307BA
:103488008D68BF004FF00F0E0EFA07FE25EA0E08F2
:10349800644DA84224D005F58065A84200F09580C7
:1034A800614DA84200F09880604DA84200F09B80D2
:1034B8005F4DA84200F09E805E4DA84200F0A180BA
:1034C8005D4DA84200F0A480DFF874E170450CBFA0
:1034D8004FF0070E4FF0080E0EFA07F748EA0708F4
:1034E800C1F80880B1686FEA0B051CF4801F0CBF97
:1034F80029404BEA0101B160F1681CF4001F0CBFC0
:1035080029404BEA0101F16071681CF4003F0CBFCF
:1035180029404BEA0101716031681CF4803F03F1D6
:1035280001030CBF29404BEA0101102B316002F165
:1035380002027FF476AF05B0BDE8F08FD9F80C50E1
:10354800D0F808E005FA02F7032505FA02F82EEA92
:10355800080E47EA0E078760476827EA0B0ECCF388
:1035680000179F4047EA0E076FEA08054760C768DB
:1035780007EA050ED9F80870974047EA0E070229AE
:10358800C76001FA02F17FF45EAF4FEAD30E00EB99
:103598008E0E03F00708DEF820700097D9F8107037
:1035A8004FEA880807FA08F701970F2707FA08F87B
:1035B800009F27EA0808019F47EA0807CEF820700D
:1035C80041E703259540ED43D1E74FF0010E0EFA90
:1035D80007F748EA070883E74FF0020E0EFA07F7E5
:1035E80048EA07087CE74FF0030E0EFA07F748EAA7
:1035F800070875E74FF0040E0EFA07F748EA0708C0
:103608006EE74FF0050E0EFA07F748EA070867E776
:103618004FF0060E0EFA07F748EA070860E700BF02
:10362800003C01400000024000080240000C02403B
:103638000010024000140240001802400038024006
:10364800001C02402DE9F04F0023DFF85C91DFF801
:103658005C81DFF85CA1DFF85CB183B002E0013384
:10366800102B76D04FF0010E0EFA03F232EA010465
:1036780002EA0107F3D123F0030505F1804505F5BA
:103688009C3503F00304D5F808C0A4000F26A64013
:103698004845019606EA0C0C17D0504512D05845FB
:1036A8005AD03C4EB0425CD03B4EB0425ED03B4E0E
:1036B800B04260D03A4EB04262D03A4EB04264D086
:1036C8004FF0080E0EFA04F400E00024A4451CD1C3
:1036D800D8F80040019E24EA0704C8F80040D8F84A
:1036E800044024EA0704C8F80440D8F80C4024EA47
:1036F8000704C8F80C40D8F8084024EA0704C8F8BA
:103708000840AC6824EA0604AC6005685E0003243F
:10371800B44025EA04050560DD0800EB850503F0E3
:10372800070C2E6A4FEA8C0C0F2707FA0CF726EACB
:1037380007062E62C56825EA0405C560456825EABE
:10374800020242608268013322EA0402102B82607E
:1037580088D103B0BDE8F08F4FF0020E0EFA04F4E2
:10376800B4E74FF0030E0EFA04F4AFE74FF0040E7F
:103778000EFA04F4AAE74FF0050E0EFA04F4A5E7D2
:103788004FF0060E0EFA04F4A0E74FF0070E0EFAFB
:1037980004F49BE7000C02400010024000140240B1
:1037A80000180240001C024000000240003C01409A
:1037B800000402400008024002B909048161704710
:1037C8002DE9F04390F8F85285B0012D9DF830703E
:1037D8009DF834E0BDF838802ED00026354663F3D6
:1037E80007054FF02C0909FB01FC61F30F2502F0D6
:1037F8007F09044669F31745D00960F31F6504EB98
:103808000C000CF1380C4FF0010984F8F89280F89C
:103818003D6080F83FE0A0F8408044F80C5080F804
:103828003C70CDE901E80097206802F01DFC84F89F
:10383800F86205B0BDE8F083022005B0BDE8F0836A
:1038480090F8F832012B0BD010B50446012300681C
:1038580084F8F83202F064FD002084F8F80210BD04
:103868000220704700284DD02DE9F04190F8F93238
:1038780004688AB0064603F0FF02002B3CD02046BD
:10388800032386F8F932E36B344613F4807308BFD8
:10389800336102F0F1F954F810CB0FCC6D460FC527
:1038A8000FCC0FC594E8030085E80300371D97E89F
:1038B8000E00604602F056F93068012102F0E4F982
:1038C800B446EE465CF8108BBCE80F00AEE80F007B
:1038D800BCE80F00AEE80F0094E8030085E8030099
:1038E800404697E80E0002F087FA0123002086F888
:1038F800F9320AB0BDE8F08180F8F822FEF752FDEF
:103908003068BDE70120704770B58C462C2101FB5B
:103918000C019DF81060059DBDF818409DF81CE04D
:1039280081F83B2081F83F304EBB81F83DE04FF0F5
:10393800030E2C2101FB0C0181F842E0032B09D86E
:10394800DFE803F02C0220202C2303FB0C030022C9
:1039580083F842202C2101FB0CF3C2186033D46495
:10396800002482F839C055641465C45201FB0C0167
:10397800027C0068BDE87040383102F005BC4FF0A9
:10398800020ED6E72C2303FB0C03C2B993F855109B
:103998000029DDD0022283F84220DBE7012ED9D1AD
:1039A800002AD7D12C2303FB0C0384B983F8556074
:1039B8002C2303FB0C03022283F84220CAE793F866
:1039C8005420002AC4D0022283F84220C2E793F888
:1039D80055100029BCD0EBE72DE9F04F056885B0FC
:1039E8000446284602F004FA012802D005B0BDE8D2
:1039F800F08F206802F0F8F90028F7D0206802F06C
:103A0800F3F910F4001F20681CBF4FF40013436142
:103A180002F0EAF910F4801F20681CBF4FF48013ED
:103A2800436102F0E1F910F0806F20681CBF4FF08D
:103A38008063436102F0D8F910F0020F20681CBFC0
:103A48000223436102F0D0F910F0005F206840F0D3
:103A5800BD8002F0C9F9C60100F1EA80206802F0D1
:103A6800C3F9000700F1DD80206802F0BDF9C10646
:103A7800266800F1C780304602F0B6F98201B5D554
:103A8800206802F047FCA26807462068002A00F078
:103A9800B58005F5A06500264FF02C0864E05FFAB4
:103AA80086F900F5A06B0BEB491A4FEA4913DAF8CF
:103AB80008200193520700F16C81DAF80820D30539
:103AC80000F19F81DAF80820910640F187812022D1
:103AD800CAF80820DAF80820920500F16781DAF8B8
:103AE8000820D30740F10481206958B1DAF8102082
:103AF80008FB094CC2F3120EDCF84820A2EB0E02B8
:103B0800CCF8502008FB094C012200238CF86120D6
:103B1800CCF85C30CAF808209CF83F2012F0FD026F
:103B280000F07D81012A0DD1019B5BF8030040F074
:103B380000504BF80300494620468CF86020FEF7F9
:103B4800A9FC2069012808FB094100F0A68191F829
:103B5800543083F0010381F85430A268206801369C
:103B6800964205F1200549D206F00F0327FA03F320
:103B7800DB07F4D52B68190491D4F1B200F5A06CD9
:103B88000CEB411A4FEA411EDAF8083013F004032F
:103B980040F01781DAF808B01BF0200F00F082809F
:103BA8004FF0200CCAF808C008FB014C9CF83DE017
:103BB800BEF1010FD3D18CF83D304FF002038CF8E1
:103BC800603002F0ADFBA2682068C8E74FF00053F0
:103BD8004361D5F84034DF073FF53BAF1021284655
:103BE80002F08AF8284602F0B1F80121206802F0B4
:103BF800C7F92046FEF742FC20682AE74FF0007319
:103C08004361F3E6B36923F01003B361376AC7F37E
:103C18004342022A00F02581B36943F01003B361DF
:103C280029E72046FEF722FC2068082343611CE7A9
:103C38002668D6F840340293D6F840340393039BA1
:103C480023F02E030393029B980707D5029BD907FD
:103C580000F15A81039B43F002030393029B1A0766
:103C680015D5039B43F008030393029B5B0740F1C0
:103C78004F81A169022900F05F81E368012B04BF2D
:103C88004EF66022C6F804242046FEF7FBFB029B92
:103C98009F0603D5039B43F020030393039BC6F8B9
:103CA8004034DBE6DAF8083013F4007B40F0238177
:103CB800DAF8083013F0010300F0FA80DAF8082087
:103CC80008FB01435206C3F85CB005D5012283F80E
:103CD8003D204023CAF8083008FB01420123CAF8F6
:103CE800083082F8613002F01BFBA268206836E7D2
:103CF800DAF8082012F0020200F09A8008FB094066
:103D080090F86120012A00F01481D01E05283BD8C4
:103D1800DFE800F0203A1A03310308FB0940C26DBE
:103D28000132022AC26540F2B5810422002380F8DC
:103D38006020C36502232046CAF808304946FEF7CA
:103D4800A9FBA26820680AE708FB0943052083F855
:103D58006000EFE708FB09424FF0020382F8603089
:103D6800019B5BF8032022F0804242F000424BF8AE
:103D780003200222DEE708FB09400422C36D80F815
:103D880060200133C365D5E708FB094393F8602039
:103D9800D0E708FB094204234FF0060CCAF80830A4
:103DA800494682F861C002F0BBFA93E620684946AA
:103DB80002F0B6FA4FF40073CAF80830A268206817
:103DC800CDE608FB01430422CAF80820062283F83E
:103DD800612002F0A5FAA2682068C0E6DAF8082097
:103DE800120700F19980DAF80820530500F1AF8036
:103DF800DAF8082011067FF56DAE08FB094280232A
:103E0800CAE708FB09424FF480734FF0070CCAF861
:103E18000830494682F861C002F082FA5AE6206802
:103E2800494602F07DFA10232069CAF8083089E66D
:103E3800DAF80830D90638D508FB094090F83F3041
:103E4800032B00F0E68013F0FD0304D1C36523695A
:103E5800002B00F0E4801023CAF80830A26820681C
:103E68007DE6C7F30A12002A3FF4D6AE07F00F0723
:103E78004FF02C0808FB0748D8F8441000293FF4F5
:103E8800CBAED8F85030D8F84C001344834240F2F7
:103E9800A480042388F86030BEE6B1F840208B6C1B
:103EA800B3FBF2F3D8073FF552AEA268206856E696
:103EB800DAF808B01BF0400F57D1DAF8083013F0E1
:103EC80008037DD1DAF808B01BF0100F5ED008FBAC
:103ED80001424FF0030CD36592F83D3082F861C07F
:103EE80033B9134692F83C2012B9012283F83D20D9
:103EF80002F016FAAFE74FF40073CAF8083002F080
:103F08000FFAA26820682AE62046FEF7B3FAA1E66F
:103F18002046FEF7BBFABAE608FB094208234FF031
:103F2800050CCAF80830494682F861C002F0F8F971
:103F3800D0E580F86020FDE6029B206803F4C023EA
:103F4800B3F5802F18BF012102F01AF89CE608FB90
:103F580009424FF480634FF0080CCAF8083049460C
:103F680082F861C002F0DCF9B4E508FB0142D365D0
:103F7800042382F86130012382F83D3002F0D0F941
:103F88004023CAF80830A2682068E8E5DAF8083063
:103F98001B064AD52369002B00F0A08008FB0143CB
:103FA800DA6D0132022ADA6500F2A0804FF00202CF
:103FB80083F860208023CAF80830A2682068CEE51C
:103FC80008FB01430822CAF80820052283F861206B
:103FD80002F0A6F9A2682068C1E53046019201F016
:103FE800DDFE019AD8F84430B8F84000134406F5CD
:103FF800A066C8F84430D8F8503006EB471113448F
:104008008242C8F8503009694FEA471347D02668FA
:1040180002E6C2654946206802F082F91BE70323DD
:1040280080F861302068494662E7DAF808305B05B5
:1040380046D4DAF808309B077FF591AD08FB0143B9
:1040480093F86120012A5AD0033A052A0AD8DFE8F2
:1040580002F003037314091408FB01434FF0020232
:1040680083F860200223CAF8083008FB0143204681
:1040780093F86020FEF70EFA17E708FB0142D36DAC
:104088000133022BD3655DD90023D365042382F85D
:104098006030E7E74FF0020380F8603060E6C1F374
:1040A800C9410029B3D0F25822F0804242F00042C0
:1040B800F25098F8543083F0010388F85430A6E79A
:1040C80008FB0143082283F8612002F029F94FF424
:1040D8008063CAF80830A268206840E508FB0143FD
:1040E800062283F8612002F01BF963E7042200200E
:1040F800D86583F860202046FEF7CCF95AE783F8A4
:10410800602093F83F20023A012AABD8226962B1B5
:10411800012AA7D1DA6C002AA4D0B3F84000013AEA
:104128000244B2FBF0F2D2079CD593F8552082F0F6
:10413800010283F8552095E708FB0143052283F81F
:1041480060208FE74FF0020382F860305CF80E3091
:1041580023F0804343F000434CF80E3082E700BF61
:1041680090F8F832012B0ED010B5044601210068F2
:1041780084F8F81201F042FF206801F075FD002074
:1041880084F8F80210BD0220704700BF90F8F8329A
:10419800012B0BD010B504460123006884F8F832CF
:1041A80002F022F9002084F8F80210BD02207047BE
:1041B800006801F003BF00BF2C2303FB010191F845
:1041C800600070472C2303FB0101086D704700BF96
:1041D800006801F043BF00BF006801F033BF00BFB3
:1041E8002DE9F04F046883B098462368DDF83090D5
:1041F800DDF834B043F4807306468A4617462360D8
:10420800B9F1FF3F36D16569E807FCD50AF0FE032E
:104218002361B9F1FF3F03D04FE061694D055DD4DB
:1042280061698B07F9D50023019363690193A36939
:104238000193019BB9F1FF3F40F0888063691A063A
:1042480064D463695B05F9D500236FF4806120228B
:104258006161336386F83D2086F83E30336C43F065
:1042680004033364336C0022042B86F83C2066D0A8
:1042780001201FE06369D907C8D4FEF743FEA0EB0D
:104288000B00814504D3B9F1000F01D03468B7E7BA
:1042980000232022336386F83D2086F83E30326CB6
:1042A800316886F83C3042F0200232640B68DC0545
:1042B80035D4032003B0BDE8F08F63699807B2D402
:1042C80063695A050AD4FEF71DFEA0EB0B00814571
:1042D8004ED3B9F1000F4BD034689AE7236843F402
:1042E8000073236000226FF48061202361613263D0
:1042F80086F83D3086F83E20336C86F83C2043F043
:1043080004030120336403B0BDE8F08FB8F1010F56
:1043180009D1FFB20020276103B0BDE8F08F4FF448
:1043280000733364C5E73B0A2361B9F1FF3F2ED11F
:1043380063691906EDD463695A05F9D584E73268CB
:10434800136843F4007301201360B3E763691D0623
:10435800DCD4636959053FF577AFFEF7D3FDA0EBD1
:104368000B00814525D3B9F1000F22D0346861E7ED
:1043780000222023326386F83D3086F83E20336CD5
:1043880086F83C2043F020033364012092E76369F8
:104398001B06BED4636958053FF556AFFEF7B2FD5C
:1043A800A0EB0B00814504D3B9F1000F01D03468AC
:1043B800BBE700232022336386F83D2086F83E3091
:1043C800336C134333644DE72DE9F04F0468984686
:1043D800236843F480632360236883B043F48073C5
:1043E800DDF830A0DDF83490236006468B4617468A
:1043F800BAF1FF3F3AD16569EB07FCD50BF0FE0334
:1044080023615FFA8BFBBAF1FF3F03D069E065696E
:104418006A054ED46569A907F9D500230193636934
:104428000193A3690193019BBAF1FF3F40F0BD805E
:104438006369180668D463695905F9D500236FF4D0
:10444800806120226161336386F83D2086F83E3022
:10445800336C43F004033364336C0022042B86F876
:104468003C2070D0012003B0BDE8F08F6369DD0700
:10447800C4D4FEF747FDA0EB0900824504D3BAF186
:10448800000F01D03468B3E700232022336386F895
:104498003D2086F83E30326C316886F83C3042F078
:1044A800200232640B68DC053DD4032003B0BDE86C
:1044B800F08F236843F40073236000226FF4806157
:1044C80020236161326386F83D3086F83E20336CE4
:1044D80086F83C2043F004030120336403B0BDE8B0
:1044E800F08F63699B0798D463695805E1D4FEF798
:1044F80009FDA0EB09008245C0F08F80BAF1000FDA
:1045080000F08B8034687EE7B8F1010F0FD1FFB25D
:104518002761BAF1FF3F6ED163691B061AD463693C
:104528005F05F9D58AE74FF400733364BDE73B0AAA
:104538002361BAF1FF3F7ED163691D06E7D4636941
:104548005805F9D57AE73268136843F400730120F7
:104558001360ABE7236843F480732360BAF1FF3F2D
:1045680013D16369D807FCD54BF001032361BAF175
:10457800FF3F03D02BE063695B059AD46369DB4393
:1045880013F00203F7D1184690E76369D907EBD413
:10459800FEF7B8FCA0EB09008245FFF475AFBAF14D
:1045A800000F3FF471AF3468D8E763691A06ABD4DB
:1045B80063695D053FF542AFFEF7A4FCA0EB090077
:1045C80082454BD3BAF1000F48D034682CE76369B1
:1045D800DB4313F00203D6D063695A053FF569AF90
:1045E800FEF790FCA0EB0900824516D3BAF1000F44
:1045F80013D03468BBE763691D06ABD463695A05F9
:104608003FF51CAFFEF77EFCA0EB0900824525D3E1
:10461800BAF1000F22D034687BE7002220233263EE
:1046280086F83D3086F83E20336C86F83C2043F00F
:104638002003336416E7636919063FF568AF6369B9
:104648005B053FF5FBAEFEF75DFCA0EB090082457C
:1046580004D3BAF1000F01D034686AE7002320229E
:10466800336386F83D2086F83E30336C1343336459
:10467800F2E600BF002800F0B98070B590F83D3030
:10468800044603F0FF02002B00F0988023682422E0
:1046980084F83D201A6822F001021A601A6842F470
:1046A80000421A601A6822F400421A6001F00AF9FE
:1046B80065684F4B9D424FD84E4B98427CD94E4B24
:1046C8006A00A3FB0035431EB3FBF2F3226851686E
:1046D80021F03F0141EA95415160116A4FEA954C3A
:1046E8000CF1010C21F03F0141EA0C011162D16982
:1046F80040F6FC70013321F44F41034221F0FF01E1
:1047080061D104230B43D361D4E907301168034313
:1047180021F0C0010B4313609168D4E9030321F42D
:104728000341034321F0FF010B439360D4E90530B3
:10473800D168034321F0FF010B43D36011680023C4
:1047480041F0010120201160236484F83D002363B7
:1047580084F83E30184670BD284B98422CD9226800
:10476800254B5168264EA3FB003C21F03F0141EA4E
:104778009C4151604FEA9C434FF4967101FB03F34F
:10478800A6FB0363116A9B0921F03F0101330B4328
:104798001362D169A36821F44F4121F0FF01ABB93D
:1047A800431E05EB4505B3FBF5F30133C3F30B03D8
:1047B800D3B143F40043A5E7012070BD80F83C2045
:1047C800FCF7CAFF62E7C3F30B039BE705EB85051C
:1047D800431E05EB8505B3FBF5F30133C3F30B0368
:1047E80013B143F440438DE701238BE70120704761
:1047F800A08601007F841E0083DE1B43FF083D0066
:10480800D34D6210B0B10268242310B580F83D3052
:10481800136823F0010304461360FCF7D5FF002357
:10482800236484F83C3084F83D30236384F83E30B8
:10483800184610BD012070472DE9F04F044683B09B
:104848009946BDF834A00E9E0F469046FEF75AFBD7
:1048580094F83D30202B04D00227384603B0BDE839
:10486800F08F054605E0FEF74DFB401B192800F2C6
:10487800A880206883696FEA030C1CF0020BF2D051
:1048880094F83C30012BE7D0012384F83C300368CE
:10489800DB0772D53946076827F4006707600C986C
:1048A80060622120CDE9006584F83D00402084F84D
:1048B8003E0000202064A4F82AA0608D2085564878
:1048C800E0624B4642462046FFF78AFC074600BB9B
:1048D800238D002B00F09E802368721C59D15A69E1
:1048E80010061BD45A695105F9D500226FF480606F
:1048F80020215861226384F83D1084F83E20236CFF
:1049080043F004032364236C0022042B84F83C2026
:1049180038D00127384603B0BDE8F08FD4F824C05A
:10492800B4F828E061460EF1FF3011F8012B1A6146
:10493800628D6162013A92B2628582B258692285BB
:10494800400717D542B9721C56D15A69500746D448
:104958005A695105F9D5C8E79CF8011019610CF19D
:1049680002016162618DAEF10202013992B289B22F
:1049780022856185002AB0D1E5E7036843F0010389
:10498800036087E72268136843F400730127136004
:1049980063E75A691206C1D45A695105A5D4FEF7CE
:1049A800B1FA401B864201D3002E95D10023202264
:1049B800236384F83D2084F83E30236C134323643A
:1049C800A1E72023C4F830B084F83D3084F83EB025
:1049D800236C84F83CB043F0200323643CE71A6856
:1049E800002142F4007220201A6084F83D0084F807
:1049F8003C1084F83E1030E75A695207EFD45A69E0
:104A080051053FF572AFFEF77DFA401B8642CDD3C4
:104A1800002ECBD0236896E70000FFFF2DE9F04F6A
:104A2800044687B09946BDF844A0129D0F469046AB
:104A3800FEF768FA94F83D30202B04D00227384658
:104A480007B0BDE8F08F064605E0FEF75BFA801B6D
:104A5800192800F2D280D4F800C0DCF81800C0434E
:104A680010F0020BF1D094F83C30012BE6D0012372
:104A780084F83C30DCF80030D90737D5DCF8000082
:104A880020F40060CCF80000109860622220CDE984
:104A9800005684F83D00402084F83E000020206441
:104AA800A4F82AA0608D20859348E06239464B46D9
:104AB80042462046FFF788FC0746002840F0AB80B6
:104AC800228DD2B9236802905A6902929A69029299
:104AD800029A1A6842F400721A600023202284F8AD
:104AE8003D2084F83C3084F83E30A8E7DCF80030FC
:104AF80043F00103CCF80030C0E7012A00F02C8114
:104B0800022A00F0BD8023680590596905919969CA
:104B180005910599032A49D8012A00F0EB80022A59
:104B280000F08980691C40F0BB805A695207FCD5A7
:104B38001A68616A22F480621A601B690B70638DBF
:104B4800616A228D013B0131013A9BB26162228583
:104B58006385691C226840F0AF8053695B07FCD508
:104B68001368616A43F40073136013690B70638DF3
:104B7800228D606A2168013B9BB263850969531ED7
:104B880000F1010C2385C4F824C04170228D638D87
:104B9800616A013A013B013192B29BB2616222859E
:104BA8006385002A99D0032A2368B5D95DB9C5E081
:104BB8005A69D00600F1B280FEF7A4F9801B85423D
:104BC800C0F0868023685A695206F1D5626A1B696B
:104BD8001370638D2068228D616A013B9BB26385E7
:104BE8004369013A92B201F1010C5B072285C4F8CE
:104BF80024C0D6D503694B7036E02023C4F830B002
:104C080084F83D3084F83EB0236C84F83CB043F01F
:104C18002003236412E70127384607B0BDE8F08F68
:104C28005A6950070CD4FEF76DF9801B85424FD3A3
:104C3800002D4DD02368691CF2D15A695207FCD562
:104C48001A6842F400721A601A69636A1A70638DEE
:104C5800626A013B9BB26385238D013B23852368F0
:104C6800511C1B6961625370636A228D0133636250
:104C7800638D013A013B92B29BB22285638590E72E
:104C88002368196821F480611960196841F400618A
:104C9800196004905969049199690491049939E754
:104CA8005A6950073FF544AFFEF72CF9801B85423F
:104CB8000ED36DB1236835E7536958073FF550AFF8
:104CC800FEF720F9801B854202D3002D7FF441AF07
:104CD80000222023226384F83D3084F83E20236C90
:104CE80084F83C20012743F020033846236407B0AA
:104CF800BDE8F08F5DB92BE00000FFFF5A69D206CE
:104D08000CD4FEF7FFF8801B8542E1D323685A696B
:104D18005106F3D51A69636A1A70A5E700226FF085
:104D2800100020215861226384F83D1084F83E2049
:104D3800236C236484F83C20012780E65A695206D4
:104D48003FF544AF5A69D106E8D4FEF7DBF8BFE770
:104D58005A695006F6D5DDE72368196821F48061A1
:104D68001960039059690391996903910399196826
:104D780041F400711960CDE690F83D00704700BF1E
:104D8800002800F09080F8B590F84130044603F010
:104D9800FF02002B7CD021686069022284F8412040
:104DA800CB6923F47B6323F00F039042CB610A6243
:104DB8006CD0D4E90223002B0BBF202340231025FD
:104DC80020250120202A98BF1D4600F043FE2269B5
:104DD800B2F5007F63D0B0FBF5F000EB80006169AD
:104DE8004300B3FBF1F332490533A1FB0313180960
:104DF800811EFD29C3F3C00305D9636C43F010037A
:104E080001206364F8BD216840EA032002430A6276
:104E1800D4E90120CB69DFF8ACC0E668A76903EAEA
:104E28000C0342EA00052B4333433B4343F400633E
:104E3800CB61236A012B23D11E4B1F4D994218BF0A
:104E48004FF040251D4B6363EB69B2F5007F03EA21
:104E58000C03EB6118BFB2FA82F24FF002032B6227
:104E680018BF5209EB6914BF12024FF48072304325
:104E780002439BB23A4313439BB243F40063EB6192
:104E880000200123606484F84130F8BD2269BDE741
:104E98000B4B80F840204363FCF7D0FC7BE7E368CA
:104EA8001BB1AD0097E701207047ED0093E700BF05
:104EB800CDCCCCCC0038004000340040055100086F
:104EC800C54F000840F0FFFF00293FD0002A3DD021
:104ED80038B590F84030012B044639D0012380F8CA
:104EE800403090F84130012B39D1032380F841300C
:104EF800056800234364E869616200F0070028231D
:104F0800C340D80726D422856285A06B1C4B036456
:104F18001C4BC3631C4BC364238D05F10C029BB26D
:104F2800FEF758F900BB2368DA69510503D4DA693A
:104F380042F48062DA615A68920703D45A6842F0F0
:104F480002025A60002384F8403038BD01207047BF
:104F5800022038BD53009BB223856385D5E7002323
:104F680080F84030022038BD636C012243F008030A
:104F78000021636484F8412084F84010104638BD4D
:104F8800954F0008A14F0008CD50000808B5806B68
:104F9800FDF744FF08BD00BF08B5C369806B4BB976
:104FA80001684A684FF0010C22F002024A6043850A
:104FB80080F841C0FDF726FF08BD00BF10B50368A3
:104FC80084B09A68019290F84120042A044605D0DA
:104FD80094F84130032B31D004B010BD019AD107A9
:104FE8000FD55A6852060CD5C16ADA6821F8022B27
:104FF800428EC162013A92B24286428E92B2002A31
:105008004AD0019B5906E3D523685A689206DFD532
:105018005A68002122F060025A600291DA6802920E
:105028009B6802930123029A84F84130636C43F031
:10503800020320466364FDF705FFC9E7019B9B0750
:105048000FD523685A6810060BD5616A31F8022B10
:10505800DA60628D6162013A92B26285628D92B2C3
:1050680022B3019B1907B7D523685A689206B3D5AE
:105078005A68002122F0A0025A6003919B680393AA
:105088000123039A84F84130636C43F004032046FB
:105098006364FDF7D7FE9FE75A68012122F060029A
:1050A8005A6080F84110FDF7C7FEAAE75A68012147
:1050B80022F0A0025A60204684F84110FDF7A2FEB3
:1050C800CFE700BF806B016808B54B6800224FF03E
:1050D800010C23F003034B604285428680F841C0EF
:1050E800436C43F008034364FDF7ACFE08BD00BF02
:1050F80090F84100704700BF704700BF10B50168C5
:10510800934A8B6886B004460093924B914218BF2D
:105118004FF040239A6801924A6802925A680392B3
:10512800426832F4007278D0019A92071AD5039A2D
:10513800110617D5426A911C12884162DA60428DC5
:10514800013A92B24285428D92B25AB95A6822F017
:10515800A0025A60438E9BB223B9012380F84130E4
:10516800FFF7CAFF009BDA071CD5029B5B0619D51F
:10517800E36A2268981CD168E0621980638E013B5B
:105188009BB26386638E9BB263B9536823F0600356
:105198005360638D9BB22BB9012384F841302046BC
:1051A800FFF7AAFF009B58061BD5029B990618D546
:1051B800226867485168674B21F06001824218BF36
:1051C8004FF0402351605A68012122F0A0025A6032
:1051D80084F84110636C43F0020320466364FDF7D2
:1051E80031FE019B1A0771D5039B9B066ED5226879
:1051F8005749584B8A4218BF4FF040234FF0010CD3
:10520800596821F0A0015960536823F06003536086
:1052180084F841C0636C204650E0009B9A0702D591
:10522800029B1B0654D4019BD80702D5039B590641
:1052380069D4019B5A0622D5039B9B061FD5236878
:105248004349444A8B4218BF4FF04022002051681E
:1052580021F0600151605A6822F0A0025A6004905F
:10526800DA6804929B6804930121049B84F8411036
:10527800636C43F0020320466364FDF7E3FD009B83
:10528800180723D5029B990620D52368304859680A
:10529800304A21F0A001834218BF4FF040225960E4
:1052A8005168002021F06001516005909B680593CA
:1052B8000123059A84F84130636C204643F00403C7
:1052C800636406B0BDE81040FDF7BCBD06B010BD74
:1052D800436A9A1C1B884262CB60438D013B9BB298
:1052E8004385438D9BB2002B9DD14B6823F0A003CF
:1052F8004B60438E9BB2002B95D1012380F841303F
:10530800FFF7FAFE8FE720681149124AE36A8842DC
:1053180018BF4FF04022981CD168E0621980638E54
:10532800013B9BB26386638E9BB2002B81D153688D
:1053380023F060035360638D9BB2002B7FF479AF39
:10534800012384F841302046FFF7D6FE71E700BFFD
:105358000038004000340040002800F0A2812DE908
:10536800F0410368DD0782B004462FD59E498A685C
:1053780002F00C02042A00F0ED808A6802F00C02A8
:10538800082A00F0E3806368B3F5803F00F0EC8002
:10539800B3F5A02F00F07581934D2A6822F480326E
:1053A8002A602A6822F480222A60002B40F0E180DB
:1053B800FDF7A8FD064605E0FDF7A4FD801B64285F
:1053C80000F201812B689B03F6D423689F0728D538
:1053D800854A916811F00C0F00F09080916801F0F7
:1053E8000C01082900F08680E368002B00F00E818C
:1053F8007E4B7D4E01221A60FDF784FD054605E0CF
:10540800FDF780FD401B022800F2DD803368980715
:10541800F6D53368226923F0F80343EAC203336000
:1054280023681A0751D458072FD56F4A136C13F005
:1054380080537FD000256E4E3368D90540F1B38084
:10544800A368012B00F0C380052B00F02C81664E69
:10545800326F22F001023267326F22F004023267A3
:10546800002B40F0B980FDF74DFD41F28838074622
:1054780005E0FDF747FDC01B404500F2A480336FEF
:105488009807F6D4002D40F00681A069C8B1564DA2
:10549800AB6803F00C03082B00F0C980534B0022C3
:1054A80002281A6600F00981FDF72CFD044605E084
:1054B800FDF728FD001B022800F285802B689B0160
:1054C800F6D4002002B0BDE8F08163690BB3474B06
:1054D800454E0122C3F8802EFDF714FD054604E071
:1054E800FDF710FD401B02286DD8736F9B07F7D599
:1054F800236898E7526856023FF576AF3A4A126831
:10550800950744D5E268012A41D0012002B0BDE8E0
:10551800F081364A344EC2F8803EFDF7F3FC05466A
:1055280004E0FDF7EFFC401B02284CD8736F9F077F
:10553800F7D4DDE70193136C43F080531364136CC5
:1055480003F080530193019B012574E74A685002D8
:105558007FF519AF244A126891037FF537AF626867
:10556800002A7FF433AFD0E71F4A136843F480332F
:105578001360FDF7C7FC1C4E054604E0FDF7C2FCAE
:10558800401B64281FD833689A03F7D51DE71649CE
:1055980020690A6822F0F80242EAC0020A601A0783
:1055A8007FF541AF91E7336843F480733360FDF7CB
:1055B800A9FC07463368DA053FF542AFFDF7A2FCC0
:1055C800C01B0228F6D9032002B0BDE8F081064AC4
:1055D800136F43F001031367FDF794FC024F06466F
:1055E80041F288380BE000BF003802400000474213
:1055F80000700040FDF786FC801B4045E3D83B6FF8
:105608009B07F7D5002D3FF440AF44E0424A434E94
:105618001360FDF777FC054604E0FDF773FC401BBB
:105628000228D0D833689907F7D42368F9E6012807
:105638003FF448AF6B68E26903F4800191427FF45C
:1056480064AF226A03F03F0191427FF45EAF616A62
:1056580047F6C0721A40B2EB811F7FF456AFA26AB8
:10566800520803F44031013AB1EB024F7FF44DAFD9
:10567800E26A03F07063B3EB026F14BF01200020ED
:1056880020E7264B1A6842F480221A601A6842F40E
:1056980080321A606DE7214A136C23F0805313643B
:1056A800F3E6012070471D4B1A6F42F004021A6797
:1056B8001A6F42F001021A678EE7FDF723FC0646CF
:1056C80005E0FDF71FFC801B02283FF67CAF2B6826
:1056D8009901F6D4D4E90731626A0B4343EA82138D
:1056E800D4E90A21520843EA0163013A0A4943EA24
:1056F800024301226B600A66FDF704FC074D04466D
:1057080005E0FDF7FFFB001B02283FF65CAF2B68A6
:105718009A01F6D5D5E600BF00004742003802409E
:10572800164908B58B6803F00C03042B1BD0082B13
:1057380017D14A684B68496813F4800302F03F02A6
:1057480013D10F48C1F38811A1FB0001FBF7DEF864
:105758000A4B5B68C3F3014301335B00B0FBF3F012
:1057680008BD074808BD074808BD0648C1F38811A9
:105778000023A1FB0001FBF7C9F8E9E70038024064
:105788000024F40000127A00002800F08780484ABC
:10579800136803F007038B422DE9F0410D460446D8
:1057A80009D2CBB21370136803F007038B4202D0FF
:1057B8000120BDE8F0812368980714D5590704D55E
:1057C8003C498A6842F4E0528A601A0704D539498C
:1057D8008A6842F460428A603649A0688A6822F082
:1057E800F00202438A60DF0721D56268012A57D098
:1057F800931E012B2F4B1B684DD99907D8D52D4ED9
:10580800B36823F003031343B360FDF77BFB41F256
:105818008838074604E0FDF775FBC01B404544D8AF
:10582800B368626803F00C03B3EB820FF3D1204A2C
:10583800136803F00703AB4206D9EBB21370136881
:1058480003F00703AB42B3D123685A0706D51949B9
:10585800E0688A6822F4E05202438A601B0707D591
:10586800144A2169936823F4604343EAC1039360AF
:10587800FFF756FF0F4A104C92681049C2F3031203
:105888000346A25C0E48D34000680B60FDF7F0FAAF
:105898000020BDE8F0819801B1D489E70120704764
:1058A800044B1B689E03AAD482E7032081E700BF4C
:1058B800003C024000380240F0B400080800002014
:1058C80068000020044B05499B68054A0868C3F333
:1058D8008223D35CD840704700380240080000207B
:1058E80000B50008F0B5036813F0050F83B004464F
:1058F80005D113F002033BD1184603B0F0BD464B67
:10590800464E00229A66FDF7FDFA054604E0FDF7CB
:10591800F9FA431B022B28D833681F01F7D4D4E9BE
:1059280001131B0743EA81133B4AC6F8843001235D
:105938009366FDF7E7FA394E054604E0FDF7E2FA0B
:10594800401B022811D833681801F7D52368D0E71F
:10595800FDF7D8FA41F2883706462B6F9B073CD4EF
:10596800FDF7D0FA801BB842F7D9032003B0F0BD89
:105978002A4B2B4D002201921A6C42F080521A6475
:105988001B6C03F080530193019B2B6843F48073D5
:105998002B60FDF7B7FA064604E0FDF7B3FA831B60
:1059A800022BE2D82B68D905F7D51C4DE3682A6F7E
:1059B80012F4407212D003F44071914210D02B6F50
:1059C800154A0121C2F8401E23F440730021C2F891
:1059D800401E2B672B6FDA07BAD4E36803F44072D2
:1059E800B2F5407F0DD00D498A6822F4F8128A601A
:1059F8000A4A116FC3F30B0300200B43136703B06C
:105A0800F0BD0648826823F0704121F4407122F409
:105A1800F8120A438260EBE7000047420038024070
:105A2800007000400A4B03220260D3F88420C2F3BE
:105A380088124260D3F88420C2F3027282609A68A6
:105A48001B6F02F4F81203F440731343C3607047EA
:105A580000380240012801D0002070470D4B9A6899
:105A68001102F9D45A685B6852024CBF0A4A0B4AC1
:105A780003F03F03B2FBF3F2064BD3F88400D3F8EC
:105A88008430C0F3881002FB00F0C3F30273B0FB4C
:105A9800F3F070470038024000127A000024F40046
:105AA80000285CD070B50446406A002847D000231F
:105AB800C4E9043394F851300022A26203F0FF01D4
:105AC800002B42D094462168A568A269266A022361
