:020000040800F2
:1000000000000220E51A03087D2B0008812B000860
:10001000852B0008892B00088D2B000800000000AC
:10002000000000000000000000000000912B00080C
:10003000952B000800000000992B00089D2B00085C
:10004000351B0308351B0308351B0308351B030844
:10005000351B0308351B0308B92B0008351B0308A3
:10006000351B0308351B0308351B0308351B030824
:10007000351B0308351B0308011D0008351B030849
:10008000351B0308351B0308351B0308351B030804
:10009000351B0308351B0308351B0308351B0308F4
:1000A000351B0308351B0308351B0308351B0308E4
:1000B000351B0308C12B0008351B0308351B03083B
:1000C000351B0308351B0308351B0308D92B000813
:1000D000351B0308351B0308351B0308351B0308B4
:1000E000351B0308351B0308351B0308351B0308A4
:1000F000351B0308351B0308351B0308F51C0008D6
:10010000351B0308351B0308351B0308351B030883
:10011000351B0308351B0308351B0308351B030873
:10012000351B0308351B0308351B0308E52B0008A6
:10013000351B0308351B0308351B0308351B030853
:10014000351B0308351B0308351B0308CD2B00089E
:10015000351B0308351B0308351B0308351B030833
:10016000351B0308351B0308351B0308351B030823
:10017000351B0308351B0308351B0308000000006E
:08018000351B0308351B0308C1
:1001880010F8012B11F8013B012A28BF9A42F7D039
:10019800D01A7047034613F8012B002AFBD1181A0E
:1001A8000138704770B54FF0FF0C4CF4E06C1CEA56
:1001B80011541DBF1CEA135594EA0C0F95EA0C0F55
:1001C80000F0DEF82C4481EA030621EA4C5123EAC8
:1001D8004C5350EA013518BF52EA033541F48011F7
:1001E80043F4801338D0A0FB02CE4FF00005E1FBAA
:1001F80002E506F00042E0FB03E54FF00006E1FBF4
:1002080003569CF0000F18BF4EF0010EA4F1FF0436
:10021800B6F5007F64F5407404D25FEA4E0E6D4176
:1002280046EB060642EAC62141EA55514FEAC52087
:1002380040EA5E504FEACE2EB4F1FD0C88BFBCF503
:10024800E06F1ED8BEF1004F08BF5FEA500E50F1B4
:10025800000041EB045170BD06F0004646EA01017A
:1002680040EA020081EA0301B4EB5C04C2BFD4EBAC
:100278000C0541EA045170BD41F480114FF0000EA5
:10028800013C00F3AB8014F1360FDEBF002001F013
:10029800004170BDC4F10004203C35DA0C341BDC8D
:1002A80004F11404C4F1200500FA05F320FA04F05F
:1002B80001FA05F240EA020001F0004221F0004193
:1002C80010EBD37021FA04F642EB06015EEA430E06
:1002D80008BF20EAD37070BDC4F10C04C4F1200536
:1002E80000FA04F320FA05F001FA04F240EA0200E9
:1002F80001F0004110EBD37041F100015EEA430EBA
:1003080008BF20EAD37070BDC4F1200500FA05F2D9
:100318004EEA020E20FA04F301FA05F243EA020358
:1003280021FA04F001F0004121FA04F220EA020067
:1003380000EBD3705EEA430E08BF20EAD37070BDAD
:1003480094F0000F0FD101F00046400041EB01018D
:1003580011F4801F08BF013CF7D041EA060195F06F
:10036800000F18BF704703F00046520043EB030329
:1003780013F4801F08BF013DF7D043EA0603704716
:1003880094EA0C0F0CEA135518BF95EA0C0F0CD021
:1003980050EA410618BF52EA4306D1D181EA030167
:1003A80001F000414FF0000070BD50EA410606BF61
:1003B8001046194652EA430619D094EA0C0F02D1A6
:1003C80050EA013613D195EA0C0F05D152EA0336EB
:1003D8001CBF104619460AD181EA030101F0004109
:1003E80041F0FE4141F470014FF0000070BD41F052
:1003F800FE4141F4780170BD81F0004102E000BF88
:1004080083F0004330B54FEA41044FEA430594EACC
:10041800050F08BF90EA020F1FBF54EA000C55EA07
:10042800020C7FEA645C7FEA655C00F0E2804FEAD8
:100438005454D4EB5555B8BF6D420CDD2C4480EABA
:10044800020281EA030382EA000083EA010180EAEA
:10045800020281EA0303362D88BF30BD11F0004F38
:100468004FEA01314FF4801C4CEA113102D040426E
:1004780061EB410113F0004F4FEA03334CEA1333A9
:1004880002D0524263EB430394EA050F00F0A780C1
:10049800A4F10104D5F1200E0DDB02FA0EFC22FABC
:1004A80005F2801841F1000103FA0EF2801843FAB0
:1004B80005F359410EE0A5F120050EF1200E012AA1
:1004C80003FA0EFC28BF4CF0020C43FA05F3C018DF
:1004D80051EBE37101F0004507D54FF0000EDCF158
:1004E800000C7EEB00006EEB0101B1F5801F1BD301
:1004F800B1F5001F0CD349085FEA30004FEA3C0C05
:1005080004F101044FEA445212F5800F80F09A80FA
:10051800BCF1004F08BF5FEA500C50F1000041EBFE
:10052800045141EA050130BD5FEA4C0C404141EB02
:100538000101013C28BFB1F5801FE9D291F0000FFD
:1005480004BF01460020B1FA81F308BF2033A3F1AC
:100558000B03B3F120020CDA0C3208DD02F1140CA3
:10056800C2F10C0201FA0CF021FA02F10CE002F1DE
:100578001402D8BFC2F1200C01FA02F120FA0CFCD7
:10058800DCBF41EA0C019040E41AA2BF01EB045120
:10059800294330BD6FEA04041F3C1CDA0C340EDC1E
:1005A80004F11404C4F1200220FA04F001FA02F361
:1005B80040EA030021FA04F345EA030130BDC4F11F
:1005C8000C04C4F1200220FA02F001FA04F340EA14
:1005D8000300294630BD21FA04F0294630BD94F0C5
:1005E800000F83F4801306BF81F480110134013DAC
:1005F8004EE77FEA645C18BF7FEA655C29D094EA1D
:10060800050F08BF90EA020F05D054EA000C04BF9A
:100618001946104630BD91EA030F1EBF0021002085
:1006280030BD5FEA545C05D14000494128BF41F024
:10063800004130BD14F580043CBF01F5801130BD88
:1006480001F0004545F0FE4141F470014FF0000013
:1006580030BD7FEA645C1ABF194610467FEA655CC4
:100668001CBF0B46024650EA013406BF52EA033566
:1006780091EA030F41F4002130BD00BF90F0000F54
:1006880004BF0021704730B54FF4806404F1320490
:100698004FF000054FF0000150E700BF90F0000F49
:1006A80004BF0021704730B54FF4806404F1320470
:1006B80010F0004548BF40424FF000013EE700BF40
:1006C80042004FEAE2014FEA31014FEA02701FBFD0
:1006D80012F07F4393F07F4F81F06051704732F002
:1006E8007F4208BF704793F07F4F04BF41F4002159
:1006F800704730B54FF4607401F0004521F00041B7
:100708001CE700BF50EA010208BF704730B54FF040
:1007180000050AE050EA010208BF704730B511F041
:10072800004502D5404261EB41014FF4806404F179
:1007380032045FEA915C3FF4D8AE4FF003025FEAFF
:10074800DC0C18BF03325FEADC0C18BF033202EB83
:10075800DC02C2F1200300FA03FC20FA02F001FADD
:1007680003FE40EA0E0021FA02F11444BDE600BF80
:100778004FF0FF3C06E000BF4FF0010C02E000BF65
:100788004FF0010C4DF804CD4FEA410C7FEA6C5C48
:100798004FEA430C18BF7FEA6C5C1BD001B050EAEB
:1007A800410C0CBF52EA430C91EA030F02BF90EAD6
:1007B800020F0020704710F1000F91EA030F58BF95
:1007C800994208BF90422CBFD8176FEAE37040F0F7
:1007D800010070474FEA410C7FEA6C5C02D150EA95
:1007E800013C07D14FEA430C7FEA6C5CD6D152EA50
:1007F800033CD3D05DF8040B704700BF8446104615
:1008080062468C461946634600E000BF01B5FFF713
:10081800B7FF002848BF10F1000F01BD4DF808EDE3
:10082800FFF7F4FF0CBF012000205DF808FB00BFB4
:100838004DF808EDFFF7EAFF34BF012000205DF80E
:1008480008FB00BF4DF808EDFFF7E0FF94BF01205B
:1008580000205DF808FB00BF4DF808EDFFF7CEFF5C
:1008680094BF012000205DF808FB00BF4DF808ED9B
:10087800FFF7C4FF34BF012000205DF808FB00BF6C
:100888004FEA4102B2F1E04324BFB3F5001CDCF1AA
:10089800FE5C0DD901F0004C4FEAC0024CEA5070E2
:1008A800B2F1004F40EB830008BF20F00100704711
:1008B80011F0804F21D113F13872BCBF01F0004014
:1008C800704741F480114FEA5252C2F11802C2F146
:1008D800200C10FA0CF320FA02F018BF40F00100C7
:1008E8004FEAC1234FEAD32303FA0CFC40EA0C0079
:1008F80023FA02F34FEA4303CCE77FEA625307D1B6
:1009080050EA01331EBF4FF0FE4040F440007047EC
:1009180001F0004040F0FE4040F40000704700BF86
:1009280053B94AB9002908BF00281CBF4FF0FF314E
:100938004FF0FF3000F00CB8ADF1080C6DE904CEB3
:1009480031F062FADDF804E0DDE9022304B0704713
:10095800704700BF10B5054C237833B9044B13B169
:100968000448AFF300800123237010BD6C210020E0
:1009780000000000D820030808B5034B1BB1034949
:100988000348AFF3008008BD00000000702100207C
:10099800D820030838B50446394A3A4BDFF804C171
:1009A80039499FED3A0A2DED088B00206260E3601B
:1009B800374AC4F810C04FF0804304256261A36130
:1009C8002060A5604FF4806001F026FBDFED31AABE
:1009D8002D49DFED319A9FED31AAB0EE408A4FF4F0
:1009E8008060B0EE6A0A01F017FB9FED2D7A264968
:1009F80094ED049A38EE400AF7EE008AC0EE077AC2
:100A08004FF4806094ED050A77EEA87A20EE290A63
:100A1800C4ED077A01F000FB1B49B0EE408A4FF4A1
:100A28008060B0EE690A01F0F7FA29EE0A9A38EE0A
:100A3800400A154994ED05BAC0EE097A4FF4806072
:100A4800B0EE6A0A77EEA87A94ED069AC4ED087AB1
:100A580001F0E2FA0C49B0EE408A4FF480602BEEC8
:100A6800290A01F0D9FA29EE0A9A38EE400AC0EEAE
:100A7800097A77EEA87ABDEC088BC4ED097A38BDFF
:100A88006666A63F6F12833A082103086666A64485
:100A9800CDCCCC3D17B7D13D0000804400442C4755
:100AA8006766304200004040034A02604FF07E51C2
:100AB800002341608360704717B7D13800220323B1
:100AC80042608360704700BF08B52DED048BDFEDF1
:100AD800129A1249B0EE409A4FF4806020EEA90AAB
:100AE800B0EE418A01F098FA0C49F0EE408A4FF4D2
:100AF800806029EE290A01F08FFADFED097A78EE95
:100B0800C08A28EE271AF7EE007A88EE810ABDEC33
:100B1800048B30EE270A08BD000080440821030832
:100B280000442C470000000010B58368012B2DED10
:100B3800028B044690ED008A07D0032B35D0E3B131
:100B4800B0EE480ABDEC028B10BD90ED087AD0EDEE
:100B5800057A28EE078AB4EEE78AF1EE10FA80EDFE
:100B6800008AEDD8B0EE678AB0EE480ABDEC028B79
:100B78000223C0ED007A836010BD90ED077A28EE5D
:100B8800078AF7EE007AB4EEE78AF1EE10FA1ADB7C
:100B9800B0EE678AB0EE480ABDEC028B4269C0ED40
:100BA800007A01234260836010BDD0ED097A28EEF7
:100BB800278A18EE100AFFF783FD0EA3D3E9002356
:100BC800FFF740FE30B9B0EE480A84ED008ABDEC6C
:100BD800028B10BDDFED067AB0EE678AB0EE480AE8
:100BE800BDEC028B0423C4ED007AA36010BD00BFE6
:100BF800000000002D431CEBE2361A3F2DE9F041BE
:100C0800B1F90440B1F90650B1F90080B1F90270A8
:100C1800ABB21646B9B2A2B21FFA88F002F05CFF76
:100C280011480022042103F087FF0F480122022106
:100C380003F082FFED1BA4EB0803013301350B4CD5
:100C480013FB05F35B0031469AB2204606F0E4F93F
:100C5800A16C91F83530012BDAB2FAD1BDE8F04138
:100C68000148042103F068BF00000240EC63002043
:100C780038B50C4D0C4C02F057FF0C4A0C494FF498
:100C88004863284623F076FA204623F04FFA094BAA
:100C9800094A226020466361E560BDE8384023F0D8
:100CA80077BA00BFD853002088530020883A002024
:100CB80088210020050C00084001F000014823F0BD
:100CC8003DBB00BF8853002010B50B4C2378022B86
:100CD80009D0042B00D010BD002323700748BDE8BD
:100CE800104002F0A3B806490448402202F0C2F8B6
:100CF8000323237010BD00BF345400203854002053
:100D0800F4530020F8B5194802F0A6F803282CD9A6
:100D1800174C184EC0F38F00013880B2271D07EB1F
:100D2800800704E0284600F035F8BC421DD014F8CE
:100D3800030C14F8021C14F8012C14F8043C60F39A
:100D48000F2561F3174562F31F65043463F3070544
:100D5800002BE7D001224FF40041304603F0ECFEAF
:100D6800284600F017F8BC42E1D1F8BD38540020FD
:100D7800F8530020000C024008B5FFF7C3FFBDE898
:100D8800084002490248402202F074B8F453002097
:100D98003854002038B5C0F30742C0F30761030E8A
:100DA800C0F3072000F0F0009028144623D0E02874
:100DB8001CD0802800D038BD354D364A29780139F5
:100DC800002349B29942135529704BDD324D2978D9
:100DD800A142F0D101E0802B56D012F8011B012965
:100DE800D8B203F10103F6D1287038BD2B4A04EBC1
:100DF800C313138038BD2A480170C3B9244D254A4E
:100E080011552978013949B2002929702ADD224D66
:100E18002978A14202D038BD802B35D012F8011BA9
:100E28000129D8B203F10103F6D12870DDE71A4889
:100E38001C4B02701C481970FFF736FE1B48FFF761
:100E480033FE1B48FFF730FE1A4801224FF4804159
:100E580003F072FE0E4A0F49137801200344085527
:100E6800137038BD1048FFF729FE1048FFF726FE1B
:100E78000F48FFF723FE00222A70BDE838400D48CE
:100E88004FF4804103F058BE18462870ADE700BF04
:100E9800555A0020585A002035540020D85A0020AE
:100EA800DA5A0020545A0020500000102800001080
:100EB80000000010000C0240042906D0052910B5D6
:100EC8000B4620D0022908D010BD174B1748012225
:100ED8004FF400411A7003F02FBE134C13482370CF
:100EE80001224FF4805103F027FE104800224FF4EE
:100EF800004103F021FEBDE810400C4800224FF4E9
:100F0800804103F019BE084B084800224FF4805175
:100F180004241C7003F010FEBDE8104003480022B2
:100F28004FF4004103F008BE34540020000C024086
:100F38002DE9F8430F4CDFF84C90DFF84C800E4F4A
:100F480004F180064846002504F8015FFFF7B6FD66
:100F58004046FFF7B3FD3846FFF7B0FDB442F1D184
:100F6800064B07481D702A464FF48041BDE8F843F8
:100F780003F0E2BD575A002000000010555A002027
:100F8800000C024050000010280000102DE9F84322
:100F9800C568D0F80890A9EB0508904504461646A0
:100FA80009D94068284430F0F7FDBFF35F8F354416
:100FB800E560BDE8F8834068424628440F4630F0B3
:100FC800EBFDAA19A2EB090560682A4607EB0801A0
:100FD80030F0E2FDBFF35F8FE560BDE8F88300BF46
:100FE8002DE9F8430646D0E90204894617464FF032
:100FF800000833699C4203F1FF3228BF03F1FF3335
:10100800A0EB04052ABF1B18131B1B1BBD4228BFDE
:101018003D469D42706828BF1D46494620442A46E1
:1010280030F0BAFDB0682C44A844A9447F1BA04204
:1010380008BF0024BFF35F8FF460002FD9D140466A
:10104800BDE8F88310B5164CA8220021204630F0E0
:10105800CBFD03212161134A61611348A2614FF45A
:101068008061E061002321621048A362102163625D
:10107800E36222666066A1662367E3666367BFF37F
:101088005F8F0B4B5321A3F10F0C184601E013F8A7
:101098000119C21A6345A154F9D1BFF35F8F10BD7E
:1010A800DC5A00200C310308945B0020845B00208C
:1010B8002631030838B5204B00EB400403EBC40E7F
:1010C8000130DEF82C4000EB4000012C8C46154620
:1010D80003EBC00005D0022C2AD0B4B1002420466E
:1010E80038BDDEF82830DEF82440A3429CBFDEF885
:1010F80020105B18013B1C1B944228BF1446224653
:101108006146FFF743FF204638BDDEF82830DEF899
:10111800242093429CBFDEF820105B18013B9A1AEA
:101128009542DCD82A466146FFF730FF2C46D6E7C1
:10113800BDE83840FFF754BFDC5A002070B50546BB
:1011480082B008460C46FFF725F80B4B1B78024681
:101158006BB1EFF311864FF0200181F3118821461E
:101168002846FFF7A7FF86F3118802B070BD0190EB
:10117800FFF768FF019AECE7DC5A00202DE9F041FF
:10118800194D1E462B780446884617462BB3022C69
:1011980026D8EFF3118C4FF0200181F3118854B950
:1011A8002246131905EBC305069BEB628CF31188E5
:1011B8000020BDE8F081601C00EB4000C00004EB9B
:1011C800440345F8008005EBC30328440021476029
:1011D80062001E6299625962E3E7FFF733FFD6E7C0
:1011E8004FF0FF30E5E700BFDC5A00202DE9F0475B
:1011F80082B023F06BF806F08FFE27F0D7F8554E33
:10120800554D30604822114608F080FF6FF01303F7
:101218006FF0590209213068504C09F041F823F069
:1012280055F806F079FE27F0C1F8482211462860E3
:1012380008F06CFF6FF013035A220921286809F09F
:101248002FF823F043F806F067FE27F0AFF848229E
:101258001146206008F05AFF3C232068002209212B
:1012680009F01EF83068872127F032FE30684FF405
:101278008772002127F020FE2868872127F028FEA2
:1012880028684FF48772002127F016FE206887210E
:1012980027F01EFE20684FF48772002127F00CFE0D
:1012A80030684FF4403200210CF074FA30680221A3
:1012B80008F004F928684FF4403200210CF06AFA6B
:1012C8002868022108F0FAF84FF44032206800211B
:1012D8000CF060FA0221206808F0F0F822F0F6FF1E
:1012E80006F01AFE2BF0BEFF1D4982462CF02CF8A2
:1012F80022F0ECFF06F010FE2BF0B4FF19498146EE
:101308002CF022F822F0E2FF06F006FE2BF0AAFFEE
:101318004FF00F08144907462CF016F83168CDF83D
:1013280000805046002305220AF088F92968CDF884
:1013380000804846002305220AF080F92168CDF88C
:1013480000800023052238460AF078F902B0BDE88B
:10135800F08700BF945F0020985F00209C5F00200A
:101368002C310308343103083C31030808B522F056
:10137800ADFF06F0D1FD00224CF601210CF0FEFD78
:1013880022F0A4FF06F0C8FD00224FF0FF310CF058
:101398000FFEBDE80840FFF729BF00BF08B51A4B8C
:1013A8002DED028BD3ED007A9FED188A184B67EE6E
:1013B800887A1868FCEEE77A002117EE903A9AB21C
:1013C80027F0CEFC134A144BD2ED007A186867EE6A
:1013D800887A0021FCEEE77A17EE903A9AB227F065
:1013E800BFFC0E4A0E4BD2ED007A186867EE887A79
:1013F800BDEC028BFCEEE77A002117EE903A9AB228
:10140800BDE8084027F0ACBCA85F00200000874377
:10141800945F0020AC5F0020985F0020B05F002040
:101428009C5F00200000000030B5474CDFED470A04
:10143800474D83B02046CDED010A02F085FD4FF0FF
:10144800FF31204602F014FE204602F069FE414BAF
:10145800024620461A8002F063FE00EE100ADDED17
:10146800010A3D483D4CB8EE400A00F0CDFCFCEEC8
:10147800C07A17EE900AC0F38D00FFF70FF930A37A
:10148800D3E90023FEF78EFEFFF7FAF9286020461D
:1014980002F05AFD4FF0FF31204602F0E9FD2046E8
:1014A80002F03EFE2E4B2F4D024620461A8002F0D7
:1014B80037FE00EE100ADDED010A2B482B4CB8EE82
:1014C800400A00F0A1FCFCEEC07A17EE900AC0F3C7
:1014D8008D00FFF7E3F81AA3D3E90023FEF762FEB5
:1014E800FFF7CEF92860204602F02EFD4FF0FF31BD
:1014F800204602F0BDFD204602F012FE1C4B0246BB
:1015080020461A8002F00CFE00EE100ADDED010AFA
:101518001848194CB8EE400A00F076FCFCEEC07A88
:1015280017EE900AC0F38D00FFF7B8F804A3D3E9CB
:101538000023FEF737FEFFF7A3F9206003B030BDA4
:10154800BE963C000104503FBC5F002048E17A3F52
:10155800A85F0020B45F0020CC6200200460002057
:10156800B65F0020AC5F0020D06200204C600020F5
:10157800B85F0020D4620020B05F0020064B074A05
:101588005B6A11880648C3F38F039942038002D02F
:10159800044913800B80704700040040A65F0020B8
:1015A800A25F0020A45F002008B58021094803F04D
:1015B800BDFA094A0949138880B29842088018BFC1
:1015C800B3FA83F30649108014BF5B0900230B703C
:1015D80008BD00BF000402400200002000000020F7
:1015E800A05F002010B51848184901604FF48031F9
:1015F80041601749002384B00122CDE90033CDE9C9
:101608000233C0E90A1383600361037680F820304F
:10161800C360C26180F83030426102F0E9FB60B912
:101628000E2401220023084802936946CDE90042AE
:1016380002F07AFD20B904B010BD00F087FFEFE793
:1016480000F084FF04B010BDBC5F00200020014002
:101658000100000F10B51848184901604FF4803197
:1016680041601749002384B00122CDE90033CDE958
:101678000233C0E90A1383600361037680F82030DF
:10168800C360C26180F83030426102F0B1FB60B9DA
:101698000F2401220023084802936946CDE900423D
:1016A80002F042FD20B904B010BD00F04FFFEFE793
:1016B80000F04CFF04B010BD046000200021014080
:1016C8000100000F10B51848184901604FF4803127
:1016D80041601749002384B00122CDE90033CDE9E8
:1016E8000233C0E90A1383600361037680F820306F
:1016F800C360C26180F83030426102F079FB60B9A2
:101708000C2401220023084802936946CDE90042CF
:1017180002F00AFD20B904B010BD00F017FFEFE792
:1017280000F014FF04B010BD4C60002000220140FE
:101738000100000F30B5026836498DB000238A4297
:10174800CDE90733CDE909330B9307D032498A42F3
:1017580023D032498A423FD00DB030BD304A019380
:10176800516C41F480715164506C00F480700190A8
:1017780001980293136B2B4843F004031363136B14
:1017880003F004030293102507A90324029B07957D
:10179800089402F0EFFF0DB030BD214A0393516C5D
:1017A80041F400715164506C00F400700390039888
:1017B8000493136B1B4843F004031363136B03F088
:1017C80004030493202507A90324049B0795089480
:1017D80002F0D0FF0DB030BD114A0593516C41F4B1
:1017E80080615164506C00F4806005900598069300
:1017F800136B0C4804252B431363136B07952B407D
:10180800069307A90324069B089402F0B3FF0DB0C2
:1018180030BD00BF002001400021014000220140EE
:10182800003802400008024008B54AF644422DED4F
:10183800048B5A21022002F057F89FED2F8A9FED62
:101848002F9A2F48DFED2F8A4FF4007101F06AFFBD
:10185800B6EE002AF0EE481AB0EE481AF0EE490A41
:10186800B0EE420A284800F073FEB6EE002AB0EE49
:10187800481AF0EE680AB0EE420ADFED241A24484E
:1018880000F066FEB6EE002AF0EE481AB0EE481AEE
:10189800F0EE490AB0EE420A1E4800F059FEB6EED4
:1018A800002AF0EE481AB0EE481AF0EE680AB0EED8
:1018B800420A194800F04CFEB6EE002AF0EE481A2B
:1018C800B0EE481AF0EE680AB0EE420A134800F08B
:1018D8003FFE1348FFF75EF81248FFF75BF812481F
:1018E800FFF758F8114800F0AFFCBDEC048BBDE8D9
:1018F800084001F031B800BF0000000000007A4441
:10190800946000200000DC4378000010F4FDB43F30
:101918009400001004010010E8000010CC00001032
:101928005000001028000010000000107463002010
:10193800C94ACA4BD2ED007A1B882DE9F04F27EE31
:10194800A77A2DED068B27EE277A83B067EE277AE4
:1019580003F00103044617EE900A00930F46019125
:10196800FEF7AEFEB8A3D3E90023FEF74BFDBC4B50
:10197800BC4EBD4D0022FEF715FCFEF781FFD6EDEB
:10198800050A306101EE100AB7EE000A2861FFF778
:101998009BF895ED041A86ED080AD5ED050AB7EE11
:1019A800000AFFF791F885ED080A002F00F046813C
:1019B800AE4EDFEDAFAADFEDAF9A9FEDAF9ADFF83D
:1019C80004A3DFF8DC92AD4FDFF8FC82DFF8FCB24D
:1019D8009FEDABAADFEDAB8A0234002556E0F0EEAE
:1019E800086AB4EEE67AF1EE10FA00F3FE80F3EE40
:1019F8000B6AF2EE025A67EE255AF0EE664AE7EEF7
:101A0800074AE7EE256A27EE247AB0EE666AC7EE43
:101A1800066A9FED9D5A26EE857ABDEEC77A17EEC7
:101A2800103A1AB2B8EE087AF4EEC77AF1EE10FA64
:101A380000F1D980B0EE087AF4EEC77AF1EE10FA28
:101A480000F3D680B3EE0B7AB2EE026A27EE866A0E
:101A5800B0EE475AA7EEA75AA7EE867A67EE857AC0
:101A6800F0EE476A87EEA67ADFED875A67EE257AA9
:101A7800FDEEE77A17EE903A1BB224F8022C24F810
:101A8800043B019B01359D4200F0D88097ED007A18
:101A98007E4B27EE2A7AF7EE007A83ED017A7C4BAB
:101AA8001B7806EB830292ED007A7A4A8AED007A77
:101AB80077EE276A77EE677A66EEAA6A67EEAA7A01
:101AC800C2ED016A744AC2ED017A06EB8302D2EDD7
:101AD800077A724A67EEAA7A27EE2A6AC2ED017A75
:101AE800009A89ED016A002A40F085800C2B8ABF94
:101AF80006EB83031AEE103A53F8303C68483B6013
:101B080000F0A8FD6348B0EE408A00F0A3FD6248EB
:101B180038EE008A00F09EFD604838EE008A00F03A
:101B280099FD5A4838EE008A00F0F0FD38EE008A38
:101B3800F5EE007A28EE278A4A48FEF7F5FF98ED79
:101B4800007A9FED4C1A67EE297AF3EE040A67EEE5
:101B5800877A67EE877A67EE877AE0EE097AB0EEE1
:101B6800670A00F073FA4F4B83ED000A1846B0EE8F
:101B7800480A00F075FB4C48B0EE408AFEF7D4FFE7
:101B8800DBED007A494BDFED4A0AC3ED007AB5EE8A
:101B9800007A20EE088AB0EE681A37EE870A00F05D
:101BA80055FA444B44494548F0EE407AB0EE480AAD
:101BB800C3ED007A00F0FAFE404B93ED007A3E4BFD
:101BC800F8EE086AB4EEE67AF1EE10FAD3ED007A90
:101BD8007FF505AFB8EE087AF4EEC77AF1EE10FAA1
:101BE800374A7FF527AF364B47E747F6FF7219E7C5
:101BF80047F6FF7341E71C48FEF796FF98ED007A19
:101C080067EE077AF0EE406A67EE877A9AED000A87
:101C180067EE877A67EEA67AC9ED037A00F0E8FCEA
:101C280010EE100AFEF74CFD09A3D3E90023FEF7D6
:101C3800B9FAFEF725FE08EE100A7DE703B0BDEC01
:101C4800068BBDE8F08F00BFFCA9F1D24D62803F42
:101C58009A9999999999E93FAC5F0020A45F00206F
:101C68000000244028000010000000104431030840
:101C78008D3B803F0044AC4600C0DA45A06200209E
:101C880013D00241CDCC8C3F00FEFF46CC000010A3
:101C9800355400209400001004010010E8000010E2
:101CA8007800001074630020500000100820002005
:101CB800000000000C2000209862002094620020A0
:101CC8000180FFFF9C620020A85F0020B05F002019
:101CD80001484021FFF72CBE9460002001484021B4
:101CE800FFF726BE94610020FEE700BF014B986B0A
:101CF80002F06ABCD8C00120014BD86B02F064BC6A
:101D080090C0012000B583B000220A4B0192196BE4
:101D180041F4800119631B6B03F4800301933B209A
:101D28001146019B02F0C0FA3B2003B05DF804EBBA
:101D380002F0F8BA0038024000230349034A03605E
:101D480043608160C26070476666263F0000964423
:101D580010B504462DED028BC068B0EE408AFEF740
:101D6800AFFC25A3D3E90023FEF71CFA24A3D3E98B
:101D78000023FEF717FA1E4B0022FEF713FAFEF7B0
:101D88007FFD1C4900EE100A4FF4006000F044F992
:101D980094ED026A94ED007A36EE066AF7EE006A70
:101DA800A6EE478AE6EE006AF0EE407AA7EE678A6A
:101DB80094ED010AC4ED047AE7EEA76A38EE408A8A
:101DC80088EE266ABDEC028BA6EE277AA7EE270AD4
:101DD800F0EE475AF0EE406AE6EE275AE7EE276A39
:101DE800C4ED005AC4ED016A10BD00BFAFF3008016
:101DF8000000A04004000020EA2E4454FB210940C2
:101E0800000000C0F8C6F73EF7EE007A77EEE07AF9
:101E180090ED007A27EE800AA7EE200A80ED000AEE
:101E2800704700BF2DE9F04F00248DB0CDE907447D
:101E3800CDE90944734B01940B941A6B724FDFF888
:101E4800D081DFF8D0A1714E42F010021A631A6BEC
:101E580002F010020192019A02941A6B42F00402F5
:101E68001A631A6B02F004020292029A03941A6B24
:101E780042F080021A631A6B02F080020392039AFE
:101E880004941A6B42F001021A631A6B02F0010201
:101E98000492049A05941A6B42F002021A631A6BB0
:101EA80002F002020592059A06941A6B42F00802A3
:101EB8001A631B6B03F00803069322463846082171
:101EC800069B02F039FE01221146404602F034FE1C
:101ED800504622464FF2100102F02EFE22463846A6
:101EE8000A2102F029FE01223046042102F024FED4
:101EF800012507A930460A230793CDE90944089527
:101F080002F038FC042307A9304607934FF008096C
:101F1800CDE908540A9402F02DFC07A93846CDF8FB
:101F28001C90CDE908540A9402F024FC07A9404605
:101F3800CDE90755CDE9094402F01CFC0522CDF88E
:101F48001C9040464FF0020907A90B92A8F580683B
:101F58004FF4901BCDE90944CDF8209002F00AFC1B
:101F680007A9304607950994CDF820B002F002FC85
:101F7800042307A94046CDE90734099402F0FAFB87
:101F8800052207A940464FF480630B920793CDE9D9
:101F980008940A9402F0EEFB07A950464FF210038A
:101FA8000793CDE908540A9402F0E4FB2023504635
:101FB80007A90793CDE9084402F0DCFB384607A9D6
:101FC800CDE9079B099402F0D5FB304607A94FF4E9
:101FD800881308930795099402F0CCFB80234046A8
:101FE80007A9CDE90734099502F0C4FB224621462A
:101FF800062002F059F9062002F094F90DB0BDE868
:10200800F08F00BF0038024000100240000002407C
:1020180000080240000C0240FCEEC07A17EE903A2D
:10202800F8EE677A834270EE677A02D91B1A834208
:10203800FCD8013301EB830111ED010A91ED007A1F
:1020480037EE407AA7EE870A704700BFB4EEC10AA0
:10205800F1EE10FA58BFB0EE410AB4EEE00AF1EE24
:1020680010FA48BFB0EE600A704700BF10B50B48C1
:102078000B4C0C4900234FF48042C0E90041C0E9F1
:102088000233C0E90423C0E90633036203F076FC97
:1020980000B910BDBDE8104000F058BAD862002061
:1020A80000540040A086010030B5184B026889B082
:1020B80000249A42CDE90344CDE90544079401D0B0
:1020C80009B030BD124D01942B6B124843F0020346
:1020D8002B632B6B03F0020301934FF41073019AE7
:1020E800039312220123CDE9042303A904230793B0
:1020F80002F040FB02942B6C43F400132B642B6C0E
:1021080003F400130293029B09B030BD0054004051
:10211800003802400004024008B50268094B9A42A0
:1021280000D008BD084A0948136C23F40013402165
:10213800136402F041FCBDE8084004484FF4007104
:1021480002F03ABC0054004000380240000402404B
:1021580010B50C480C4C00234FF400724BF680313C
:10216800C0E90042C0E90233C0E90421C0E90633EE
:10217800036203F00DFF00B910BDBDE8104000F088
:10218800E5B900BF2C630020003C004070B52A4A26
:1021980001688CB000239142CDE90733CDE90933BA
:1021A8000B93069301D00CB070BD0121CB22022302
:1021B80003A8CDE90312059304F09AFC002838D14E
:1021C8001E4B1F48002400941A6C42F400421A6403
:1021D8001A6C02F400420092009A01941A6B42F0C1
:1021E80001021A631A6B02F001020192019A029429
:1021F8001A6B42F004021A631B6B03F00403029388
:102208000225062607A910230793CDE90944029B56
:1022180008950B9602F0AEFA4FF4A45309480793B9
:1022280007A9CDE90854CDE90A4602F0A3FA0CB093
:1022380070BD00F08BF9C3E7003C00400038024055
:1022480000000240000802400023044A0260436084
:102258008360C36003614361704700BF0000C842E8
:1022680010B504462DED028B0068B0EE408AFEF7EB
:1022780027FA61A3D3E90023FDF794FF60A3D3E90C
:102288000023FDF78FFF5A4B0022FDF78BFFFEF767
:10229800F7FA584900EE100A4FF40060FFF7BCFE49
:1022A800F7EE006A70EE267A94ED036AD4ED044ADC
:1022B80094ED017A94ED054AC6EEA73AD4ED027A78
:1022C80020EE235AF8EE081AE6EE054A25EE053AFE
:1022D800B4EEE18AE3EE274A23EE052AF1EE10FA7E
:1022E80062EE052AE2EE074A22EE883AB0EE662A46
:1022F800A4EE222AA4EEA33AF0EE405A83EE020A94
:1023080072D4F0EE084AB4EEE48AF1EE10FA55DD24
:1023180064EE004AB8EE084AF4EEC44AF1EE10FA48
:102328005FD4B0EE084AF4EEC44AF1EE10FA42DC8B
:10233800B3EE0B4AF2EE022A64EEA22AB0EE442A69
:10234800A4EEA42AA4EEA24A64EE824AB0EE443A6D
:1023580084EE834ABDEC028B76EEC46A27EE237ABC
:1023680067EEA37AA5EE267A26EE236AE5EE077ACB
:1023780076EEC76AF0EE474AE6EEA54AF0EE466A00
:10238800E5EE276A37EE677AB0EE676A77EEE67AA7
:10239800A7EE256A36EEC07AE7EEA56AF0EE407A37
:1023A800E7EE257AC4ED014A84ED026AC4ED036ABA
:1023B800C4ED047A10BDB7EE004ACBE7F3EE0B6A22
:1023C800B2EE023A28EE033AF0EE662AE8EE082A60
:1023D800E8EE036A28EE228AF0EE664AC8EE246A1E
:1023E80096E7BFEE004AB5E7FFEE006A90E700BF48
:1023F8000000A04004000020EA2E4454FB21F93FCD
:10240800000000C0F8C6F73E30B5002395B0CDE90E
:102418000A33CDE90C33CDE90333CDE9053321493E
:1024280001930793086C204A40F080500864096CB7
:1024380001F08051019101990293136843F480439C
:102448001360136803F48043012202934FF480332E
:10245800CDE9082308230224029810934FF4800141
:102468004FF4A872072308A8CDE90E41CDE911243D
:10247800139304F077F808B172B6FEE70F2203460B
:10248800CDE903244FF4A0554FF4805203A8052149
:10249800CDE90535079204F07DFA08B172B6FEE77A
:1024A80015B030BD003802400070004000B583B060
:1024B80001F060FCFFF7A8FFFFF7B4FCFFF792F804
:1024C800FFF7C8F8FFF7FEF8FFF71CFCFFF7CEFD93
:1024D800FFF73EFE00F0C0F900F090FB1649174CDC
:1024E8000020FEF72BFE00221346114600921046EC
:1024F800FEF744FE3C21124804F0D2FE06F05AFFD3
:10250800FEF7B6FBFEF732FF00220E490B482EF00D
:102518000DFD0D4909482EF039FD08482EF072FDD1
:10252800FFF782F924F0C2FCFEF738FFFEF7CCFB78
:1025380020462EF071FDF5E7443303083854002097
:10254800ECBC0120C10E00081420002072B6FEE782
:10255800DFED087A80ED000A60EEA70A0023C0EDDF
:10256800010A836080ED031AC0ED041A836180EDCF
:10257800052A70478D3B803FD0ED027A9FED190AFE
:102588001949F5EEC07AF1EE10FA44BFB7EE007AB9
:1025980077EE877A10B5B7EE007AF4EEC77AF1EEE7
:1025A80010FAA8BF77EEC77A04462DED028B27EE06
:1025B800800AC0ED027A4FF4806094ED008AFFF73C
:1025C8002BFDD4ED027AD4ED016A9FED087A28EE4E
:1025D800000ABDEC028BE6EE877A84ED060AC4EDAC
:1025E800027A10BD00008044683303084590BE3766
:1025F80010B5144CDFED147A94ED0B7ADFED136A05
:1026080027EE277A04F11C00C7EE267A9FED107A90
:1026180067EE807A20EE077AC4ED087A84ED017AB5
:10262800FFF7AAFFD4ED027AD4ED036A94ED0D7A90
:10263800E6EE877A2046C4ED027AFFF79DFF94ED17
:10264800060A10BD7800001000442C4700F42B4700
:102658008D3B803F9FED2C7AD0ED017AD0ED026A58
:1026680090ED000A67EE877AF0EE005A37EEA67A08
:10267800BFEE006AB5EEC07AF1EE10FAA6EEA56AD2
:1026880044BFF7EE005A37EE257AF7EE005AB4EE5B
:10269800E57AF1EE10FAA8BF37EE657AF4EEE67A3D
:1026A800F1EE10FA80ED027A12DD86EEA77AF0EEEE
:1026B800005A67EE477AF7EE006AE7EE257A77EE7A
:1026C800E67A36EE676A20EE060A80ED060A70475B
:1026D800F7EE005A35EEE77AF4EEC76AF1EE10FA33
:1026E800F1DD76EEE56A86EEA77AF0EE477AE7EE58
:1026F800077A37EE277A37EE257A36EE476A20EEE4
:10270800060A80ED060A70474590BE37DFED506A2D
:1027180090ED017AD0ED027A90ED056A27EE267ADF
:10272800F4EEC67A77EE276AF1EE10FAF7EE005A61
:10273800F5EEC06ABFEE000AB8BFB0EE650AF1EE6A
:1027480010FA48BF76EEA56AF7EE005AF4EEE56A8D
:10275800F1EE10FAA8BF76EEE56AB4EEE77AF1EE8C
:1027680010FAC0ED026A3BDDC7EE875AF0EE004A68
:1027780065EEE56AB7EE005AE5EEA46A76EEC56A3C
:1027880077EEC67A30EE260AF5EEC07AF1EE10FA48
:1027980044BFF7EE006A77EEA67AF7EE006AF4EE29
:1027A800E67AF1EE10FAA8BF77EEE67AB4EEE77AA9
:1027B800F1EE10FA2ADDC7EE876AB0EE006A66EE1F
:1027C800E67AB7EE007AE6EE867A77EEC77A30EEEA
:1027D800670AD0ED007A20EE270A80ED060A7047D6
:1027E800F7EE005A75EEC76AF4EEE67AF1EE10FAE3
:1027F8002ADD37EEE55AC5EE076AB0EE665AA6EE50
:10280800A65A76EE856A76EEA56AB9E7B7EE006A4B
:1028180076EE476AF4EEE67AF1EE10FAD9DD77EE55
:10282800C67AC7EE876AF0EE667AE6EEA67A76EEA4
:10283800A76AD0ED007A76EE866A30EE660A20EE58
:10284800270A80ED060A7047DFED026A98E700BFA5
:102858004590BE37000000000F4810494FF48272BF
:1028680010B5C0E900124FF4007200234FF4004481
:10287800082182610A22C0E90243C0E90433C0E9A1
:102888000713C0E90933C26204F09EFA00B910BD0B
:10289800BDE81040FFF75ABEEC630020003001404D
:1028A80070B5294B026888B000249A42CDE90344E8
:1028B800CDE90544079401D008B070BD03F5843311
:1028C80001945A6C214E42F480525A645A6C02F4B4
:1028D80080520192019A02941A6B42F001021A6323
:1028E8001B6B03F001030293E0230393029B022373
:1028F8000493054605231648079303A901F03AFFF8
:10290800144A74624FF0C063C6E90023304640227F
:102918004FF48063C6E90224C6E90544C6E90744C2
:10292800336101F027FD58B9002211462320AE6417
:10293800B56301F0B9FC232001F0F4FC08B070BDC8
:10294800FFF704FEF0E700BF003001408C63002071
:10295800000002405864024038B50A4C0A4A0B4D40
:102968000B4B25600B490C4C14600C480C4C0D4A61
:102978000C601A60FFF7E0F9BDE838400A48FFF735
:10298800DBB900BFDCBC0120E0BC012044640020AE
:10299800E8BC0120E4BC012090100120A4620020C2
:1029A80088100120D4BC0120B86200202DE9F0472E
:1029B800574F584E3B682DED028B8146F0EE408A0A
:1029C800554893ED000A0D46FFF7C2F9336853489E
:1029D800B0EE408A93ED000AFFF7BAF9504B93ED39
:1029E800007A67EE087AF8EE086AF4EEE67AF1EE15
:1029F80010FA00F18480F0EE086AF4EEE67AF1EE5F
:102A080010FA79DCF3EE0B6AF0EE665AB2EE026A5F
:102A180027EE866AE7EEA75AE7EE866A67EEA57A9A
:102A280087EEA66AF0EE687AE7EE007AB8EE087AE2
:102A3800F4EEC77AF1EE10FA64D4B0EE087AF4EE48
:102A4800C77AF1EE10FA60DCB3EE0B7AF0EE475A73
:102A5800F2EE026A67EEA66AE7EEA75AA7EEA67A32
:102A680067EEA57AC7EE876ADFF8C0A0DFF8C080F6
:102A7800DAF80040D8F800202A4B3968DFF8B4E0CB
:102A880004314AF6404CA1EB0E006045C8BF7146C0
:102A98003960E4EC016AA2EC016AD3ED005AF7EE62
:102AA800007A37EEE57A27EE287AA5EE867A89ED60
:102AB800007A93ED007A336877EEC77A043327EE0D
:102AC800A80ABDEC028BA7EE260AA4EB0E09E14585
:102AD800C8BF7446CAF8004085ED000A124D511B64
:102AE8006145C8BF2A46C8F800205A1B6245C8BFBE
:102AF8002B463360BDE8F087B7EE006A92E7BFEE79
:102B0800006A8FE7FFEE006AAEE7F7EE006AABE710
:102B1800DCBC0120E0BC0120A4620020B8620020D7
:102B28000C2000200820002090100120E4BC012087
:102B3800E8BC01204464002082B00D4B00210091C4
:102B48005A6C42F480425A645A6C02F480420092F1
:102B5800009A01911A6C42F080521A641B6C03F0BF
:102B680080530193019B072002B001F08BBB00BF8B
:102B780000380240FEE700BFFEE700BFFEE700BFE7
:102B8800FEE700BFFEE700BF704700BF704700BF09
:102B9800704700BF08B5012021F0EEFB01F004F9F1
:102BA800FEF742FCFEF7EAFCBDE80840FEF7FCBC75
:102BB800012001F0C5BF00BF014804F0DDBB00BF24
:102BC800ECBC0120014802F0C9B800BF34BD0120A7
:102BD800014804F0DBBA00BFEC630020014801F0B3
:102BE800F3BC00BF8C630020034AD2F8883043F45A
:102BF8007003C2F88830704700ED00E000B58DB072
:102C08002022002104A82EF0EFFF15481549016085
:102C18004FF6FF71C160032100230122039103A92C
:102C2800CDE90133C0E9013303618361059209925B
:102C380004F0B8FC58B920220023094801A9CDE9BD
:102C4800012304F005FD28B90DB05DF804FBFFF77A
:102C58007DFCF0E7FFF77AFC0DB05DF804FB00BFE0
:102C6800ECBC01200004004030B51A4B026889B062
:102C780000249A42CDE90344CDE90544079401D0E4
:102C880009B030BD03F50D3301941A6C02200243DC
:102C98001A641A6C02400192019A02941A6B024358
:102CA8001A631B6B04900340029303A90123079046
:102CB8003022094805930392029D01F05BFD2246EC
:102CC80021461D2001F0F0FA1D2001F02BFB09B070
:102CD80030BD00BF000400400004024008B50221D6
:102CE800D0F818369847002008BD00BF002070476C
:102CF80038B5D0F8C835DD69A978044651B969787E
:102D080091B928462EF040FFD4F8C8350022DA6180
:102D1800002038BD2EF0B2FEA97820462EF0D2FE53
:102D280069780023AB7041B120462EF0A7FE697880
:102D380020462EF0C7FE00236B70D4F8C835DD6935
:102D4800002DDED1002038BD70B5FF2384B00322EA
:102D5800012105462EF032F9FF2863D001462846A6
:102D68002EF022F91C20D5F8C8652EF005FFF06179
:102D780095F820325A2202FB0352044692F94A027D
:102D880092F84A12B2F84C220028B4BF2281E2809D
:102D98004FF05A0202FB0353B8BF217193F9522234
:102DA800A8BFE170002A93F85212B3F8543235DB09
:102DB800E170E38028462EF067FE21790346284615
:102DC800A3702EF061FEE38895F81D22009202267A
:102DD800CDE90163E27895F81C32A1786070284645
:102DE8002EF03CFE238995F81D122279CDE9016366
:102DF800284695F81C320091002661782EF02EFEA8
:102E0800617826703246284600F0D8F9A178324613
:102E1800284600F0D3F9304604B070BD21712381F3
:102E2800E178C7E7022004B070BD00BF38B5037869
:102E38000B2B01D0002038BDD0F8C825D569002358
:102E480069782B7004462EF019FEA97820462EF0DA
:102E580015FE002038BD00BF02780B2A01D00020E3
:102E6800704708B5D0F8C835DB69597800F058F9CB
:102E780080B208BDD0F8C835DB691878012801D9B7
:102E8800012070474FF0010C032058761961DA824F
:102E980083F800C000207047704700BF70B5D0F8B5
:102EA800C835DE693478012C82B006D0022C34D0C3
:102EB80004B10124204602B070BD337E012B0546C3
:102EC8003BD0022B0AD1B17800F05CF9012844D03C
:102ED800022808BF3476D5F8C835DE69737E032B1F
:102EE80022D0042BE5D17178284600F04BF901284F
:102EF8000446DED17178284600F012F9F38A82B2CE
:102F0800934242DD318991423FD231699B1AF38263
:102F18001144032331617376CCE700212EF010FDB4
:102F28000028C6D13070C4E77378328931692846E1
:102F38002EF084FD04237376BCE7B38AF288F16827
:102F4800934298BF1A46B37800942EF05FFD02238F
:102F58003376D5F8C835DE69C0E7B38AF28893427C
:102F680009D80023B38233762846FFF795FFD5F8B2
:102F7800C835DE69B2E79B1AB382F3683476134426
:102F8800D5F8C825F360D669A8E7002373762846E4
:102F9800FDF7F2FE8EE700BF0368B3F1A04F00D043
:102FA80070472DE9F04188B0294C2A480025009542
:102FB800236B43F001032363236B03F001030093A6
:102FC800009B0195236B43F004032363236B03F0F9
:102FD80004030193032602274FF4C0534FF00A0855
:102FE80003A9019A06960393CDE90475CDF81C80D0
:102FF80001F0C0FB4FF480621223CDE9066803A9F3
:10300800012614480596CDE9032301F0B3FB03A973
:1030180011480396CDE90465069701F0ABFB636B95
:1030280043F0800363630295636C43F480436364F5
:10303800636C03F480432A46062102934320029BD3
:1030480001F032F9432001F06DF908B0BDE8F081D4
:10305800003802400000024000080240D0F8000397
:103068002EF078B9D0F800032EF08CB9D0F8000310
:103078002EF09EB9D0F800032EF07CB9D0F80003EA
:103088002EF07CB9704700BF002270B51146124C73
:1030980006464FF0FF3001F007F94FF0A0420B232E
:1030A80000252260A36002220123C6F814462046A8
:1030B800C4E90625E36025612562E562C4F800637A
:1030C80001F096FD204602F045FA014630462EF002
:1030D8003DF9284670BD00BF34BD012008B5D0F8C1
:1030E800140602F0FFF9002008BD00BF08B5D0F8AB
:1030F800140602F00DFA002008BD00BF08B5D0F88C
:10310800140602F02BFA032828BF0120C0B208BD1C
:1031180008B5D0F8140602F00DFA002008BD00BF6B
:10312800D0F8140602F010BA10B584B0D0F814061E
:103138009DF8184000949DF81C400194BDF820406B
:10314800029401F009FD002004B010BD08B5D0F8C4
:10315800140601F03BFD002008BD00BF10B584B087
:10316800D0F814069DF818400094079C0194BDF807
:10317800204002949DF82440039401F08BFD002028
:1031880004B010BDD0F8140602F0D8B908B549B992
:1031980001221146084801F0CFFCC82000F016FEB5
:1031A800002008BD00220121034801F0C5FCC82009
:1031B80000F00CFE002008BD00080240074B2C2040
:1031C80000FB013191F83B301BB181F854200020FD
:1031D800704781F855200020704700BF34BD01209A
:1031E80000F0F4BD002070470020704700B5642946
:1031F80083B022D8124AC1EB0121A2FB013245F665
:103208003B23C2F34712994202F119020FDDD2B2F1
:10321800C0B2CDE90020202100F032FA0198009ACE
:10322800212100F02DFA002003B05DF804FBC0B2A4
:10323800D2B2CDE900202021EEE71822E8E700BF4E
:103248001F85EB51F8B5C4B20D460646174600F087
:10325800DDF902210122204600F012FA691E032935
:1032680065D8DFE801F060480264334BAA221A707F
:103278001A780421204600F003FA8122052120460D
:1032880000F0FEF904220621204600F0F9F939463B
:103298003046FFF7ABFF06220F210546204600F017
:1032A800EFF920460022242100F0EAF90022252126
:1032B800204600F0E5F9204600220A2100F0E0F956
:1032C800204604220E2100F0DBF9204600222721A7
:1032D80000F0D6F920460F221F2100F0D1F9204630
:1032E8000A221A2100F0CCF920460A221B2100F0FC
:1032F800C7F92846F8BD104BAF221A701A78042176
:10330800204600F0BDF981220521204600F0B8F9D9
:1033180004220621204600F0B3F939463046FFF76B
:1033280065FF0546C7E7044BFA221A70A0E7024B6F
:1033380005221A709CE700BF38C00120013908B582
:10334800032921D8DFE801F0160C0220AA22042163
:10335800C0B200F095F9114BAA221A70002008BDDE
:10336800AF220421C0B200F08BF90C4BAF221A70C7
:10337800002008BDFA220421C0B200F081F9074BF1
:10338800FA221A70002008BD05220421C0B200F0FC
:1033980077F9024B05221A70002008BD38C00120B9
:1033A80000F06CB910B5044600F030F90121E0B224
:1033B80000F08CF900F0F80010BD00BF10B501292D
:1033C80082B013D0C0B200222221019000F058F937
:1033D80001980022232100F053F90E4B01981A7826
:1033E800042100F04DF9002002B010BD0C46C0B217
:1033F8000421FF22019000F043F90198224622217E
:1034080000F03EF901982246232100F039F9002006
:1034180002B010BD38C0012000B583B0C0B2FF2291
:103428000421019000F02CF901980122222100F0DA
:1034380027F901980122232100F022F9019801229D
:10344800022100F01DF9002003B05DF804FB00BF65
:1034580000B583B0C0B2FF220421019000F010F93A
:1034680001980122222100F00BF901980122232161
:1034780000F006F9019804220E2100F001F90198E4
:103488009F22022100F0FCF8034B012200201A7051
:1034980003B05DF804FB00BF3420002030B50024E1
:1034A80085B0C0B222212246134D0190039400F04A
:1034B800E7F801982246232100F0E2F801982A78DB
:1034C800042100F0DDF80394039B0198FE2B05D836
:1034D800039B01330393039BFE2BF9D92A780190B0
:1034E800042100F0CDF801989E22022100F0C8F8CE
:1034F800002005B030BD00BF38C0012010B5144C05
:103508002378012B82B002D0002002B010BDC0B2D7
:1035180006220E21019000F0B3F801980022222122
:1035280000F0AEF801980022232100F0A9F8094B19
:1035380001981A78042100F0A3F801989E2202212C
:1035480000F09EF800230020237002B010BD00BFD9
:103558003420002038C0012070B588B0264C274E92
:10356800274B336000250195236B2648264A43F0F4
:1035780002032363236B726003F0020301934FF489
:1035880010730393122304930223069304234FF02A
:10359800330C079303A94FF48043C6E903C3019A88
:1035A800B560059501F0E6F80295236C43F4001325
:1035B8002364236C03F400130293029B236A43F4ED
:1035C80000132362236A23F4001323622A46294640
:1035D8001F2000F069FE1F2000F0A4FE2A4629469D
:1035E800202000F061FE202000F09CFE304608B04C
:1035F800BDE8704002F0C2B9003802403CC001206A
:103608000054004000040240A086010030B587B095
:10361800174B1848002400941A6B42F008021A63EA
:103628001B6B03F00803009310220123CDE901234B
:1036380001A90223CDE90343009D01F09BF80E4840
:1036480002F0A2FC88B1002210210A4801F074FAA5
:10365800052000F0BBFB01221021064801F06CFA9E
:10366800052000F0B3FB07B030BDFFF775FFEAE7B0
:1036780000380240000C02403CC00120704700BFE7
:1036880010B5104B86B01B680293144601238DF8C1
:1036980017400DF117040A460193014600940A48A1
:1036A80002F04EFA08B906B010BD074802F02EFA2B
:1036B800054802F069FC0028F5D1FFF74DFF06B078
:1036C80010BD00BF682000203CC0012000B5134B8E
:1036D80087B01B68029384460A4600200DF1170143
:1036E8000123CDE900138DF8170061460C4802F05C
:1036F800D5FA20B99DF8170007B05DF804FB084813
:1037080002F004FA064802F03FFC0028F2D1FFF765
:1037180023FF9DF8170007B05DF804FB6820002020
:103728003CC0012010B50E4B82B01B6801900C46BE
:10373800DB680146A2B29420984768B9B4F5003F07
:103748000199084834BFC4F34F024FF6FF7202F0E4
:10375800C1FC002002B010BD012002B010BD00BFA6
:1037680080C10120D8C0012030B50023134D85B099
:103778004FF4FA52FF2401E055F8042BD8B2013374
:10378800914208BF0446082BF6D1684603F050FA68
:1037980063070ED10A4A0B4B52F8242053F8243001
:1037A80001216846CDE90012029303F0A1F905B0A2
:1037B80030BD012140F225120223F2E790430308AD
:1037C800AC430308CC43030870B58AB0404C0025CD
:1037D8000095236C43F400432364236C03F40043F3
:1037E8000093009B0195236B43F004032363236B31
:1037F80003F004030193019B0295236B43F001033B
:103808002363236B03F0010302934FF4A0530222B6
:1038180002990593064606232E48069205A9CDE986
:103828000752099300F0A6FF10232B48059305A91A
:1038380000F0A0FF0395236B264843F0040323639D
:10384800236B03F00403039305A98023039A0593CC
:1038580000F090FF0495236B204A43F40013236380
:10386800236B03F40013049333680499934209D03B
:1038780000220E212F2000F017FD2F2000F052FD0E
:103888000AB070BD164C174BB4634022C4E901520C
:103898004FF48062C4E903524FF400614FF40052C0
:1038A800C4E905124FF480704FF40032C4E90702EE
:1038B8004FF0040C03222046C4E909C2C4E90B55A1
:1038C8002360A66300F0EEFD204600F053FDCFE72D
:1038D800003802400008024000000240003C00405E
:1038E80020C10120B86002402DE9F041214C154665
:1038F8000646002220460F462946FFF735FF1E4B95
:103908002360204602F0FAFC78B31B4B6561DA6944
:10391800236022F48062DA610023C4E90633C4E933
:10392800023314484FF400732361636002F030FBE4
:10393800044648B9DFF848809420D8F808309847FA
:1039480000F0F800E02803D001242046BDE8F0810B
:103958000A482B46C0F80080D8F800503A4631464D
:103968009420A8472046BDE8F08101462046FFF78D
:103978002BFFCAE7D8C00120003C004080C10120CD
:103988003820002008B50268034B9A4200D008BDD1
:10399800FEF7A4F908BD00BF003C004008B5026866
:1039A800034B9A4200D008BDFEF792F908BD00BF4C
:1039B800003C0040704700BF08B5FFF7FBFF08BD9B
:1039C800704700BF084A0368934210B506D0074AFB
:1039D800934200D010BDFFF7F3FF10BD0446FEF779
:1039E80083F92368F3E700BF003C0040003800403B
:1039F80010B50F4C82B003460022204604218DF8F2
:103A0800073001F099F820460022022101F094F8CD
:103A18000DF107014FF0FF330122064803F036FA93
:103A280001220421204601F087F802B010BD00BF32
:103A380000000240EC63002010B50F4C82B0034632
:103A48000022204604218DF8073001F075F8204641
:103A58000122022101F070F80DF107014FF0FF3348
:103A68000122064803F012FA01220421204601F03F
:103A780063F802B010BD00BF00000240EC630020F4
:103A88002DE9F04100220D4606460421104801F0B8
:103A980053F80F480122022101F04EF885B1DFF8F2
:103AA80034804FF6FF77BD422C4628BF3C4631464E
:103AB8000A23A2B2404603F0E9F92D1B2644F2D1AD
:103AC800BDE8F04102480122042101F035B800BFE9
:103AD80000000240EC630020F0B5074683B02A20BE
:103AE8001C4616460D46FFF783FF042172BA0DEBFC
:103AF80001007FBAADF80620ADF80470FFF7C0FFEB
:103B08002B20FFF775FF6DBA01A864BA0421ADF840
:103B18000450ADF80640FFF7B3FF2C2003B0BDE812
:103B2800F040FFF765BF00BF10B57F4C322000F0B2
:103B38004DF901220221204600F0FEFF322000F05C
:103B480045F900220821204600F0F6FF192000F070
:103B58003DF901220821204600F0EEFF192000F06F
:103B680035F93620FFF744FF0020FFF765FF3A20BC
:103B7800FFF73EFF0520FFF75FFF2120FFF738FF23
:103B88002A20FFF735FF0020FFF756FF0020FFF738
:103B980053FF0120FFF750FF3F20FFF74DFF2B2079
:103BA800FFF726FF0020FFF747FF0020FFF744FF3D
:103BB8000020FFF741FFEF20FFF73EFFB220FFF79D
:103BC80017FF0C20FFF738FF0C20FFF735FF002008
:103BD800FFF732FF3320FFF72FFF3320FFF72CFFCB
:103BE800B720FFF705FF3520FFF726FFB720FFF7BF
:103BF800FFFE1F20FFF720FFC020FFF7F9FE2C2053
:103C0800FFF71AFFC220FFF7F3FE0120FFF714FFAA
:103C1800C320FFF7EDFE1220FFF70EFFC420FFF7C9
:103C2800E7FE2020FFF708FFC620FFF7E1FE0F2080
:103C3800FFF702FFD020FFF7DBFEA420FFF7FCFE12
:103C4800A120FFF7F9FEE020FFF7D2FED020FFF712
:103C5800F3FE0820FFF7F0FE1120FFF7EDFE082025
:103C6800FFF7EAFE0C20FFF7E7FE1520FFF7E4FE5A
:103C78003920FFF7E1FE3320FFF7DEFE5020FFF783
:103C8800DBFE3620FFF7D8FE1320FFF7D5FE142001
:103C9800FFF7D2FE2920FFF7CFFE2D20FFF7CCFE3D
:103CA800E120FFF7A5FED020FFF7C6FE0820FFF7AA
:103CB800C3FE1020FFF7C0FE0820FFF7BDFE062058
:103CC800FFF7BAFE0620FFF7B7FE3920FFF7B4FE6C
:103CD8004420FFF7B1FE5120FFF7AEFE0B20FFF79F
:103CE800ABFE1620FFF7A8FE1420FFF7A5FE2F2035
:103CF800FFF7A2FE3120FFF79FFE2120FFF778FE95
:103D08001120FFF775FE1320FFF772FE2920FFF739
:103D18006FFE322000F05AF83620FFF769FEBDE842
:103D280010406020FFF788BE0000024038B50E4AF8
:103D38000E4B12781B6805464FF47A70B0FBF2F010
:103D4800B3FBF0F000F0FCFA08B90F2D01D90120FF
:103D580038BD0446024629464FF0FF3000F0A4FA69
:103D6800034B20461D6038BD6C2000201020002029
:103D78007020002008B50B4B1A6842F400721A60D4
:103D88001A6842F480621A601A6842F480721A60F3
:103D9800032000F077FA0020FFF7C8FFFEF7CCFEFB
:103DA800002008BD003C0240034A044B11681B7800
:103DB8000B441360704700BF84C101206C200020B1
:103DC800014B1868704700BF84C1012038B504460C
:103DD800FFF7F6FF631C054602D0044B1B781C4412
:103DE800FFF7EEFF431BA342FAD338BD6C20002037
:103DF800002800F09E8038B5056C04463DB1236C60
:103E0800DB060CD5002384F83C30012038BDFDF7D3
:103E180091FC6564236C84F83C50DB06F2D4236C77
:103E2800474A23F4885323F0020343F00203236430
:103E38005168236821F4403151605168606801433A
:103E480051605A682069A16822F480725A605A68E1
:103E580042EA00225A605A68E06822F040725A60CA
:103E68005A680A435A609A68A16A22F400629A6002
:103E78009A6802439A60334A91429A6851D022F074
:103E88007062E06A9A609A68114399609A6822F0B1
:103E980040529A609A6802439A609A6822F0020235
:103EA8009A609A68217E42EA41029A6094F820203A
:103EB800002A40D05A68616A42F400625A605A681F
:103EC80022F460425A605A68013942EA41325A6023
:103ED800DA6AE16922F47002DA62DA6A013942EADE
:103EE8000152DA629A68616922F400729A609A68EB
:103EF80094F8300042EA40229A609A6822F480627C
:103F08009A609A68002042EA81229A606064236C71
:103F180023F0030343F001032364002384F83C30B7
:103F280038BD22F070629A609A6822F040529A6016
:103F3800B3E7012070475A6822F400625A60C7E765
:103F4800002301400100000F10B490F83C3083B00A
:103F58000021012B019177D00123016880F83C30C2
:103F68008B68DC07024614D43C4B3D4C1B688868C0
:103F7800A4FB03439B0C03EB430340F00100886060
:103F88000193019B2BB1019B013B0193019B002BEA
:103F9800F9D18868136C10F0010031D023F4E06384
:103FA80023F0010343F4807313644B68580505D567
:103FB800136C23F4405343F480531364136C294C5B
:103FC80013F480531CBF536C23F006035364002082
:103FD8006FF0220382F83C000B60636813F01F0344
:103FE80019D1214A914226D002F5807291421FD000
:103FF8001E4A91422DD0002003B05DF8044B704753
:1040080043F010031364536C43F00103536403B08B
:104018005DF8044B7047144B9942F8D18B6813F044
:104028004053F4D18A6842F0804218468A60EEE72D
:104038006268D206DFD1886810F04050DBD18B6807
:1040480043F080438B60E2E7022003B05DF8044B45
:1040580070476268D306CED4EDE700BF1020002079
:1040680083DE1B4300230140002001400022014061
:1040780003689A68520570B505460C4602D59B68D8
:10408800DE0543D4FFF79CFE2A68064601E0601C63
:1040980024D113689907FAD56FF0120313602B6CBB
:1040A80043F400732B64936813F0405F14D1287EA7
:1040B80090B9D36A13F4700F02D093685A050BD4E1
:1040C8002B6C23F480732B642B6CDB0404D42B6CD3
:1040D80043F001032B6470BD002070BD5CB9136808
:1040E80013F00203D5D12A6C85F83C3042F0040263
:1040F8002A64032070BDFFF763FE801BA0422A6874
:10410800C7D9136813F00203C3D1ECE7036C00228C
:1041180043F0200380F83C200364012070BD00BFF9
:104128000368D86C704700BF30B590F83C3083B056
:104138000022012B019200F09B80012380F83C3083
:104148000C680368092C2CD81A6904EB44054FF055
:10415800070C0CFA05FC22EA0C021A618A68AA40CC
:104168001D692A431A614A68062AA4462FD802EB19
:104178008202596B053A4FF01F0E0CFA02FC0EFA38
:1041880002F221EA02025A635A6B4CEA02025A63AB
:10419800394A934230D0002380F83C30184603B0A7
:1041A80030BD1FFA84FC0CEB4C0EDA68AEF11E0E23
:1041B800072505FA0EF522EA0502DA608A68DD6845
:1041C80002FA0EF22A43DA604A68062ACFD90C2A84
:1041D80002EB820236D8196B233A1F250CFA02FC2F
:1041E80005FA02F221EA02021A631A6B4CEA020289
:1041F8001A63214A9342CED1122C32D0A4F1100373
:10420800012BC8D81D4A5368102C43F4000353608F
:10421800C1D11B4B02F146721B6802F52E3202F225
:104228008332A2FB03239B0C03EB83035B00019304
:10423800019B002BAFD0019B013B0193019B002BFD
:10424800F9D1A8E7D96A413A1F250CFA02FC05FA08
:1042580002F221EA0202DA62DA6A4CEA0202DA625D
:1042680096E7D2F8043343F48003C2F8043392E7A4
:10427800022003B030BD00BF0020014000230140F0
:10428800102000200749CA6803024FF6FF0003F414
:10429800E0630240134343F0BF6343F40033CB6051
:1042A800704700BF00ED00E01C4BDB68C3F302233E
:1042B80000B5C3F1070EBEF1040F03F1040C28BFCB
:1042C8004FF0040EBCF1060F1BD9033B4FF0FF3C27
:1042D8000CFA03FC22EA0C024FF0FF3C0CFA0EFC2D
:1042E80021EA0C019940002841EA02010CDB00F1A7
:1042F8006040090100F56140C9B280F800135DF81B
:1043080004FB00221346E7E7054B00F00F00090104
:104318000344C9B219765DF804FB00BF00ED00E064
:10432800FCEC00E0002807DB4109044A00F01F000C
:104338000123834042F82130704700BF00E100E0CC
:104348000138B0F1807F10D210B44FF0E023084C50
:1043580058614FF0F00C84F823C000220721104662
:104368009A615DF8044B196170470120704700BFDE
:1043780000ED00E038B50446FFF722FD002C67D0B9
:1043880023680022022184F8351084F834201A6842
:1043980022F0010205461A6005E0FFF711FD431BF4
:1043A800052B39D823681A68D107F6D4D4E9012037
:1043B800E16802430A43D4E90451A0692A430A4345
:1043C800E1691D6802430A4333492940256A2A43A3
:1043D8000A43616A042926D01A605A6922F0070242
:1043E8001143D8B22D4A59611038A2FB0052120964
:1043F8002B4923F47F73895CE16523F003035F286D
:1044080088BF04333F228A40A36500209A600123B5
:10441800606584F8353038BD03232022626584F84E
:104428003530184638BDD4E90B512943114319607A
:104438005969A26A21F00701114341F00401002DD6
:10444800CFD038B9012A23D032F00202C9D108E00E
:10445800012038BDB0F5005F0CD0022A03D9032A29
:10446800BFD1EA01BDD501234022626584F8353009
:10447800184638BD032AB4D801A050F822F000BF6E
:104488006F4400086B4400086F4400089944000812
:10449800B5F1C07FA5D1E6E73F8010F0ABAAAAAA84
:1044A800EC430308002837D090F83520022A034649
:1044B800D0B230D01A681949D0B2103830B4A1FB44
:1044C800004109091468164D24F001046D5C14605C
:1044D8000021116051609160D16011612121516109
:1044E80022F47F7222F003025F2888BF04323F243F
:1044F8000021AC40DD65C3E90F11C3E91111C3E91F
:1045080013119A659460596583F8341083F835104F
:10451800084630BC7047704701207047ABAAAAAA6A
:10452800EC43030870B490F83440856D012C35D005
:1045380090F835404FF0010C644580F834C005D040
:10454800002380F8343070BC02207047022680F8BF
:104558003560046800264665266826F480262660AD
:1045680063608368402B0EBFA260A160E260C26DE9
:1045780008BFE1603F239340AB602368026C43F0BF
:10458800160323601AB1236843F0080323602368E5
:1045980043F001030020236070BC7047022070BC08
:1045A800704700BF90F83530022B03D08023436555
:1045B800012070470268052380F83530136823F01E
:1045C8000103002013607047F0B583B0674A876D18
:1045D800166800230193C36D3D6808229A402A4259
:1045E800044603D001680868400778D401229A403D
:1045F8002A4203D02168496908066AD404229A40ED
:104608002A4203D02168096889075CD410229A409D
:104618002A4203D021680868000741D420229A4022
:104628002A4214D021680868C00610D5BA6094F8E8
:104638003520052A63D00B6813F4802F0B687ED0D1
:10464800190340F18980E36B0BB120469847636DED
:1046580023B3636DDA071AD522684549052384F820
:1046680035301368A1FB061623F00103B60A136060
:1046780002E01368DB0704D5019B0133B3420193C1
:10468800F7D90122002384F8352084F83430E36C0C
:1046980023B1204603B0BDE8F040184703B0F0BD91
:1046A800BA600A6812F4802F0A6822D1D20503D4AE
:1046B8000A6822F008020A60226C002AAED020465E
:1046C8009047E36DAAE7BA60626D42F00402626542
:1046D8009CE7BA60626D42F0020262658EE7086884
:1046E80020F004000860BA60626D42F00102626561
:1046F8007CE71103E0D5A26C002AE0D18EE70A68B6
:1047080022F016020A604A6922F080024A61226C8D
:104718003AB30A6822F008020A603F2202FA03F359
:10472800216DBB600122002384F8352084F83430E1
:104738000029B3D0204603B0BDE8F040084713F481
:10474800807380D10A6822F010020A60012284F87E
:10475800352084F8343076E7636C002B7FF475AF2E
:1047680075E7A26C002AD4D1D7E700BF102000203B
:10477800B5814E1B2DE9F04F00220C68DFF830A2FE
:10478800844E85B01346894605E00133102B02F1AB
:10479800020200F08A800121994001EA040BA1433A
:1047A800F3D1D9F804C00CF003014D1E012D7FD9B7
:1047B800032940F0C0809140CD4307683D4029431C
:1047C8001CF4403F0160E0D000210391DAF8441066
:1047D80041F48041CAF84410DAF8441001F48041E9
:1047E8000391039923F0030101F1804101F59C3104
:1047F80003F003078D68BF004FF00F0E0EFA07FE97
:1048080025EA0E08644DA84224D005F58065A84223
:1048180000F09580614DA84200F09880604DA84254
:1048280000F09B805F4DA84200F09E805E4DA8423C
:1048380000F0A1805D4DA84200F0A480DFF874E18B
:1048480070450CBF4FF0070E4FF0080E0EFA07F731
:1048580048EA0708C1F80880B1686FEA0B051CF43C
:10486800801F0CBF29404BEA0101B160F1681CF4BC
:10487800001F0CBF29404BEA0101F16071681CF46C
:10488800003F0CBF29404BEA0101716031681CF4FC
:10489800803F03F101030CBF29404BEA0101102BB3
:1048A800316002F102027FF476AF05B0BDE8F08F07
:1048B800D9F80C50D0F808E005FA02F7032505FAF4
:1048C80002F82EEA080E47EA0E078760476827EACB
:1048D8000B0ECCF300179F4047EA0E076FEA080556
:1048E8004760C76807EA050ED9F80870974047EA95
:1048F8000E070229C76001FA02F17FF45EAF4FEAA2
:10490800D30E00EB8E0E03F00708DEF82070009738
:10491800D9F810704FEA880807FA08F701970F27A7
:1049280007FA08F8009F27EA0808019F47EA0807DE
:10493800CEF8207041E703259540ED43D1E74FF0CD
:10494800010E0EFA07F748EA070883E74FF0020E50
:104958000EFA07F748EA07087CE74FF0030E0EFA4D
:1049680007F748EA070875E74FF0040E0EFA07F74D
:1049780048EA07086EE74FF0050E0EFA07F748EA0F
:10498800070867E74FF0060E0EFA07F748EA070828
:1049980060E700BF003C0140000002400008024000
:1049A800000C0240001002400014024000180240AF
:1049B80000380240001C02402DE9F04F0023DFF8C8
:1049C8005C91DFF85C81DFF85CA1DFF85CB183B053
:1049D80002E00133102B76D04FF0010E0EFA03F2ED
:1049E80032EA010402EA0107F3D123F0030505F1D5
:1049F800804505F59C3503F00304D5F808C0A400EC
:104A08000F26A6404845019606EA0C0C17D05045DB
:104A180012D058455AD03C4EB0425CD03B4EB042C2
:104A28005ED03B4EB04260D03A4EB04262D03A4E71
:104A3800B04264D04FF0080E0EFA04F400E00024EF
:104A4800A4451CD1D8F80040019E24EA0704C8F800
:104A58000040D8F8044024EA0704C8F80440D8F80D
:104A68000C4024EA0704C8F80C40D8F8084024EAA7
:104A78000704C8F80840AC6824EA0604AC60056876
:104A88005E000324B44025EA04050560DD0800EB58
:104A9800850503F0070C2E6A4FEA8C0C0F2707FADE
:104AA8000CF726EA07062E62C56825EA0405C560E4
:104AB800456825EA020242608268013322EA04025C
:104AC800102B826088D103B0BDE8F08F4FF0020E42
:104AD8000EFA04F4B4E74FF0030E0EFA04F4AFE74D
:104AE8004FF0040E0EFA04F4AAE74FF0050E0EFA82
:104AF80004F4A5E74FF0060E0EFA04F4A0E74FF011
:104B0800070E0EFA04F49BE7000C02400010024066
:104B18000014024000180240001C0240000002403D
:104B2800003C0140000402400008024003691942A9
:104B380014BF01200020704702B909048161704741
:104B4800044A5169014200D1704708B55061FCF729
:104B5800EFF908BD003C01402DE9F04F90F8F852FC
:104B680085B0012D9DF838609DF83C70BDF84080F7
:104B780027D04FF02C0C0CFB010C04460025D00963
:104B880002F07F0A4FF0010B84F8F8B28CF8383045
:104B98008CF839108CF83AA08CF83B008CF83D5012
:104BA8008CF83F708CF83C60ACF84080CDE9017817
:104BB8000096206802F0ACFF84F8F85205B0BDE812
:104BC800F08F022005B0BDE8F08F00BF90F8F832F2
:104BD800012B0BD010B504460123006884F8F83285
:104BE80003F0F2F8002084F8F80210BD02207047A4
:104BF80000284DD02DE9F04190F8F93204688AB0C8
:104C0800064603F0FF02002B3CD02046032386F81B
:104C1800F932E36B344613F4807308BF336102F052
:104C2800D1FD54F810CB0FCC6D460FC50FCC0FC576
:104C380094E8030085E80300371D97E80E006046F6
:104C480002F074FD3068012102F0C4FDB446EE465E
:104C58005CF8108BBCE80F00AEE80F00BCE80F0052
:104C6800AEE80F0094E8030085E80300404697E8A3
:104C78000E0002F063FE0123002086F8F9320AB024
:104C8800BDE8F08180F8F822FEF786F93068BDE7C4
:104C98000120704770B54FF02C0C0CFB010C9DF8EF
:104CA8001040059EBDF818509DF81CE08CF83B207C
:104CB8008CF83F30ECB90324022B8CF83DE08CF8DB
:104CC800424020D0A3421ED0012B27D02C2202FB29
:104CD8000103002483F83910A3F860401946027CC8
:104CE8005E640068DD641C653831BDE8704002F020
:104CF8009FBF4FF0020E8CF842E0032BE6D8DFE8A6
:104D080003F01C0D02022C2303FB01036AB993F87C
:104D180055403CB1022283F84220D7E72C2303FBFD
:104D28000103002283F84220D0E793F85420002A98
:104D3800F8D0022283F84220C8E7012CC6D1002A05
:104D4800C4D12C2303FB010315B983F85540BDE7F3
:104D580093F85540002CE5D0B8E700BF2DE9F04F97
:104D6800056885B00446284602F0E4FD012802D013
:104D780005B0BDE8F08F206802F0D8FD0028F7D014
:104D8800206802F0D3FD10F4001F20681CBF4FF408
:104D98000013436102F0CAFD10F4801F20681CBF95
:104DA8004FF48013436102F0C1FD10F0806F20685A
:104DB8001CBF4FF08063436102F0B8FD10F0020F92
:104DC80020681CBF0223436102F0B0FD10F0005FB1
:104DD800206840F0BD8002F0A9FDC60100F1EA801C
:104DE800206802F0A3FD000700F1DD80206802F0D2
:104DF8009DFDC106266800F1C780304602F096FD89
:104E08008201B5D5206802F0D9FFA268074620685C
:104E1800002A00F0B58005F5A06500264FF02C08A3
:104E280064E05FFA86F900F5A06B0BEB491A4FEACC
:104E38004913DAF808200193520700F16C81DAF877
:104E48000820D30500F19F81DAF80820910640F187
:104E580087812022CAF80820DAF80820920500F194
:104E68006781DAF80820D30740F10481206958B136
:104E7800DAF8102008FB094CC2F3120EDCF84820BF
:104E8800A2EB0E02CCF8502008FB094C01220023AB
:104E98008CF86120CCF85C30CAF808209CF83F20D8
:104EA80012F0FD0200F07D81012A0DD1019B5BF813
:104EB800030040F000504BF80300494620468CF8A8
:104EC8006020FEF7DFF82069012808FB094100F09F
:104ED800A68191F8543083F0010381F8543020689A
:104EE800A2680136B24205F1200549D906F00F0340
:104EF80027FA03F3DB07F4D52B68190491D4F1B230
:104F080000F5A06C0CEB411A4FEA411EDAF80830A4
:104F180013F0040340F01781DAF808B01BF0200FF3
:104F280000F082804FF0200CCAF808C008FB014C42
:104F38009CF83DE0BEF1010FD3D18CF83D304FF025
:104F480002038CF8603002F03FFF2068A268C8E7CF
:104F58004FF000534361D5F84034DF073FF53BAFCE
:104F68001021284602F06EFC284602F095FC01212B
:104F7800206802F059FD2046FEF778F820682AE7F5
:104F88004FF000734361F3E6B36923F01003B36194
:104F9800376AC7F34342022A00F02581B36943F018
:104FA8001003B36129E72046FEF758F82068082364
:104FB80043611CE72668D6F840340293D6F840349B
:104FC8000393039B23F02E030393029B980707D5B3
:104FD800029BD90700F15A81039B43F00203039314
:104FE800029B1A0715D5039B43F008030393029B02
:104FF8005B0740F14F81A169022900F05F81E368F6
:10500800012B04BF4EF66022C6F804242046FEF7A2
:1050180031F8029B9F0603D5039B43F020030393BB
:10502800039BC6F84034DBE6DAF8083013F4007B5B
:1050380040F02381DAF8083013F0010300F0FA8019
:10504800DAF8082008FB01435206C3F85CB005D51E
:10505800012283F83D204023CAF8083008FB0142AA
:105068000123CAF8083082F8613002F0ADFE2068EA
:10507800A26836E7DAF8082012F0020200F09A80F7
:1050880008FB094090F86120012A00F01481D01E25
:1050980005283BD8DFE800F0203A1A03310308FB63
:1050A8000940C26D0132022AC26540F2B58104226C
:1050B800002380F86020C36502232046CAF8083020
:1050C8004946FDF7DFFF2068A2680AE708FB0943A5
:1050D800052083F86000EFE708FB09424FF0020360
:1050E80082F86030019B5BF8032022F0804242F096
:1050F80000424BF803200222DEE708FB09400422A5
:10510800C36D80F860200133C365D5E708FB094308
:1051180093F86020D0E708FB094204234FF0060CFF
:10512800CAF80830494682F861C002F04DFE93E69D
:105138002068494602F048FE4FF40073CAF8083068
:105148002068A268CDE608FB01430422CAF80820BB
:10515800062283F8612002F037FE2068A268C0E6C4
:10516800DAF80820120700F19980DAF808205305C8
:1051780000F1AF80DAF8082011067FF56DAE08FB64
:1051880009428023CAE708FB09424FF480734FF0B5
:10519800070CCAF80830494682F861C002F014FECC
:1051A8005AE62068494602F00FFE10232069CAF823
:1051B800083089E6DAF80830D90638D508FB0940FE
:1051C80090F83F30032B00F0E68013F0FD0304D184
:1051D800C3652369002B00F0E4801023CAF8083067
:1051E8002068A2687DE6C7F30A12002A3FF4D6AE0B
:1051F80007F00F074FF02C0808FB0748D8F84410B1
:1052080000293FF4CBAED8F85030D8F84C001344FE
:10521800834240F2A480042388F86030BEE6B1F8E7
:1052280040208B6CB3FBF2F3D8073FF552AE2068F1
:10523800A26856E6DAF808B01BF0400F57D1DAF842
:10524800083013F008037DD1DAF808B01BF0100F0E
:105258005ED008FB01424FF0030CD36592F83D3055
:1052680082F861C033B9134692F83C2012B9012282
:1052780083F83D2002F0A8FDAFE74FF40073CAF8A9
:10528800083002F0A1FD2068A2682AE62046FDF752
:10529800E9FEA1E62046FDF7F1FEBAE608FB094261
:1052A80008234FF0050CCAF80830494682F861C057
:1052B80002F08AFDD0E580F86020FDE6029B2068B8
:1052C80003F4C023B3F5802F18BF012102F0ACFB13
:1052D8009CE608FB09424FF480634FF0080CCAF8BB
:1052E8000830494682F861C002F06EFDB4E508FB5B
:1052F8000142D365042382F86130012382F83D30EE
:1053080002F062FD4023CAF808302068A268E8E588
:10531800DAF808301B064AD52369002B00F0A08074
:1053280008FB0143DA6D0132022ADA6500F2A08037
:105338004FF0020283F860208023CAF80830206802
:10534800A268CEE508FB01430822CAF80820052216
:1053580083F8612002F038FD2068A268C1E5304674
:10536800019202F0C1FA019AD8F84430B8F8400026
:10537800134406F5A066C8F84430D8F8503006EB58
:10538800471113448242C8F8503009694FEA47135D
:1053980047D0266802E6C2654946206802F014FD37
:1053A8001BE7032380F861302068494662E7DAF892
:1053B80008305B0546D4DAF808309B077FF591ADD5
:1053C80008FB014393F86120012A5AD0033A052AC1
:1053D8000AD8DFE802F003037314091408FB014339
:1053E8004FF0020283F860200223CAF8083008FB55
:1053F8000143204693F86020FDF744FE17E708FBB9
:105408000142D36D0133022BD3655DD90023D365E7
:10541800042382F86030E7E74FF0020380F8603039
:1054280060E6C1F3C9410029B3D0F25822F08042A6
:1054380042F00042F25098F8543083F0010388F8A3
:105448005430A6E708FB0143082283F8612002F0E4
:10545800BBFC4FF48063CAF808302068A26840E5B6
:1054680008FB0143062283F8612002F0ADFC63E7E4
:1054780004220020D86583F860202046FDF702FE4C
:105488005AE783F8602093F83F20023A012AABD804
:10549800226962B1012AA7D1DA6C002AA4D0B3F834
:1054A8004000013A0244B2FBF0F2D2079CD593F8CF
:1054B800552082F0010283F8552095E708FB014347
:1054C800052283F860208FE74FF0020382F86030EE
:1054D8005CF80E3023F0804343F000434CF80E3064
:1054E80082E700BF90F8F832012B0ED010B50446C1
:1054F8000121006884F8F81202F0D4FA206802F05A
:1055080059F9002084F8F80210BD0220704700BF46
:1055180090F8F832012B0BD010B50446012300682F
:1055280084F8F83202F0B4FC002084F8F80210BDC8
:1055380002207047006802F095BA00BF2C2303FBD5
:10554800010191F8600070472C2303FB0101086DED
:10555800704700BF006802F0D5BA00BF006802F0CB
:10556800C5BA00BF2DE9F84381460E46174698464E
:10557800D9F8005004E06C6962050AD47B1C22D17A
:105588006C6926EA0404A4B2002CF4D12046BDE8D4
:10559800F8832B6843F400732B6000226FF480615A
:1055A80020236961C9F8302089F83D3089F83E2008
:1055B800D9F8403089F83C2043F00403C9F840305A
:1055C8000120BDE8F883FEF7FBFBA0EB0800B8421A
:1055D80001D8002FCCD100222023C9F8302089F827
:1055E8003D3089F83E20D9F8403089F83C2043F016
:1055F8002003C9F840300120C9E700BFF8B50646C6
:105608000D46174608E06269D2061BD4FEF7D8FBA0
:10561800C01BA84207D835B13468636913F040034A
:10562800F1D00020F8BD00222023326386F83D30F7
:1056380086F83E20336C86F83C2043F02003336420
:105648000120F8BD6FF0100120226161336386F8F4
:105658003D2086F83E30326C86F83C3032640120BA
:10566800F8BD00BFF8B505460E4617462C6801E0A0
:10567800731C19D1636913F0800313D16069420563
:10568800F6D56FF48061202261612B6385F83D2097
:1056980085F83E302A6C85F83C3042F004022A64D2
:1056A8000120F8BD0020F8BDFEF78AFBC01BB04200
:1056B80001D8002EDAD1002220232A6385F83D3054
:1056C80085F83E202B6C85F83C2043F020032B64A2
:1056D8000120F8BDF8B505460E4617462C6801E0CE
:1056E800731C19D1636913F0040313D1606942056F
:1056F800F6D56FF48061202261612B6385F83D2027
:1057080085F83E302A6C85F83C3042F004022A6461
:105718000120F8BD0020F8BDFEF752FBC01BB042C7
:1057280001D8002EDAD1002220232A6385F83D30E3
:1057380085F83E202B6C85F83C2043F020032B6431
:105748000120F8BD2DE9F04F05689B462B6883B012
:1057580043F480730C9EDDF834A02B60074688461E
:10576800914601E0711C10D16C69E307FAD508F085
:10577800FE032B612D49534632463846FFF7F2FEA9
:1057880060B1012003B0BDE8F08FFEF719FBA0EB74
:105798000A00864219D3C6B13D68E5E73B68019027
:1057A800596901919B690193524631463846019BDC
:1057B800FFF758FF78BBBBF1010F3B681DD15FFABB
:1057C80089F21A6103B0BDE8F08F002320223B6301
:1057D80087F83D2087F83E303A6C396887F83C30C6
:1057E80042F020023A640B68DA0502D54FF40073E0
:1057F8003B64032003B0BDE8F08F4FEA192018611D
:10580800524631463846FFF72DFF20B93A685FFA0D
:1058180089F31361B6E73B6C042BB2D13A6813687D
:1058280043F4007301201360ACE700BF02000100DD
:105838002DE9F04F05689B462B6843F480632B6085
:105848002B6883B043F480730C9EDDF834902B6092
:1058580007468846924601E0741C12D16C69E0073D
:10586800FAD508F0FE032B6143494B4632463846C9
:105878005FFA88F8FFF776FE68B1012003B0BDE84B
:10588800F08FFEF79DFAA0EB0900864237D3002E71
:1058980035D03D68E2E73B680190596901919B6901
:1058A80001934A4631463846019BFFF7DBFE002844
:1058B8003DD1BBF1010F44D13B685FFA8AF21A610E
:1058C8004A4631463846FFF7CDFE00282FD13A68C0
:1058D800136843F48073136001E0711C41D153696C
:1058E800DB07FAD548F00103136123494B463246DA
:1058F8003846FFF737FE003818BF0120BEE70023FF
:1059080020223B6387F83D2087F83E303A6C39689F
:1059180087F83C3042F020023A640B68DA0502D579
:105928004FF400733B64032003B0BDE8F08F3B6C79
:10593800042BA2D13A68136843F400730120136062
:105948009CE73B684FEA1A221A6131464A463846B4
:10595800FFF788FE0028EAD13A685FFA8AF31361F4
:10596800AEE7FEF72DFAA0EB09008642C7D3002E5A
:10597800C5D03A68B3E700BF02000100002800F074
:10598800B98070B590F83D30044603F0FF02002B53
:1059980000F098802368242284F83D201A6822F0B9
:1059A80001021A601A6842F400421A601A6822F466
:1059B80000421A6001F08CF865684F4B9D424FD841
:1059C8004E4B98427CD94E4B6A00A3FB0035431ED0
:1059D800B3FBF2F32268516821F03F0141EA954197
:1059E8005160116A4FEA954C0CF1010C21F03F010E
:1059F80041EA0C011162D16940F6FC70013321F4CF
:105A08004F41034221F0FF0161D104230B43D361CD
:105A1800D4E907301168034321F0C0010B43136038
:105A28009168D4E9030321F40341034321F0FF0102
:105A38000B439360D4E90530D168034321F0FF019B
:105A48000B43D3601168002341F00101202011604D
:105A5800236484F83D00236384F83E30184670BD03
:105A6800284B98422CD92268254B5168264EA3FB17
:105A7800003C21F03F0141EA9C4151604FEA9C43C0
:105A88004FF4967101FB03F3A6FB0363116A9B09AC
:105A980021F03F0101330B431362D169A36821F45C
:105AA8004F4121F0FF01ABB9431E05EB4505B3FBA0
:105AB800F5F30133C3F30B03D3B143F40043A5E774
:105AC800012070BD80F83C20FCF7EEFA62E7C3F3D2
