:020000040800F2
:1000000000000220AD6D0008FD200008012100085D
:1000100005210008092100080D210008000000004A
:100020000000000000000000000000001121000896
:100030001521000800000000192100081D210008FA
:10004000FD6D0008FD6D0008FD6D0008FD6D0008E8
:10005000FD6D0008FD6D0008FD6D0008FD6D0008D8
:10006000FD6D0008FD6D0008FD6D0008FD6D0008C8
:10007000FD6D0008FD6D0008F1160008FD6D00081B
:10008000FD6D0008FD6D0008FD6D0008FD6D0008A8
:10009000FD6D0008FD6D0008FD6D0008FD6D000898
:1000A000FD6D0008FD6D0008FD6D0008FD6D000888
:1000B000FD6D0008FD6D0008FD6D0008FD6D000878
:1000C000FD6D0008FD6D0008FD6D0008FD6D000868
:1000D000FD6D0008FD6D0008FD6D0008FD6D000858
:1000E000FD6D0008FD6D0008FD6D0008FD6D000848
:1000F000FD6D0008FD6D0008FD6D0008E5160008A7
:10010000FD6D0008FD6D0008FD6D0008FD6D000827
:10011000FD6D0008FD6D0008FD6D0008FD6D000817
:10012000FD6D0008FD6D0008FD6D0008FD6D000807
:10013000FD6D0008FD6D0008FD6D0008FD6D0008F7
:10014000FD6D0008FD6D0008FD6D0008212100080F
:10015000FD6D0008FD6D0008FD6D0008FD6D0008D7
:10016000FD6D0008FD6D0008FD6D0008FD6D0008C7
:10017000FD6D0008FD6D0008FD6D00080000000029
:08018000FD6D0008FD6D000893
:10018800034613F8012B002AFBD1181A01387047CF
:1001980070B54FF0FF0C4CF4E06C1CEA11541DBF15
:1001A8001CEA135594EA0C0F95EA0C0F00F0DEF8E0
:1001B8002C4481EA030621EA4C5123EA4C5350EAC5
:1001C800013518BF52EA033541F4801143F4801316
:1001D80038D0A0FB02CE4FF00005E1FB02E506F0A7
:1001E8000042E0FB03E54FF00006E1FB03569CF0FC
:1001F800000F18BF4EF0010EA4F1FF04B6F5007F02
:1002080064F5407404D25FEA4E0E6D4146EB060673
:1002180042EAC62141EA55514FEAC52040EA5E50FC
:100228004FEACE2EB4F1FD0C88BFBCF5E06F1ED8A6
:10023800BEF1004F08BF5FEA500E50F1000041EBDD
:10024800045170BD06F0004646EA010140EA02008A
:1002580081EA0301B4EB5C04C2BFD4EB0C0541EAAC
:10026800045170BD41F480114FF0000E013C00F3C1
:10027800AB8014F1360FDEBF002001F0004170BDE5
:10028800C4F10004203C35DA0C341BDC04F11404FE
:10029800C4F1200500FA05F320FA04F001FA05F28A
:1002A80040EA020001F0004221F0004110EBD37057
:1002B80021FA04F642EB06015EEA430E08BF20EA83
:1002C800D37070BDC4F10C04C4F1200500FA04F326
:1002D80020FA05F001FA04F240EA020001F00041B8
:1002E80010EBD37041F100015EEA430E08BF20EA2B
:1002F800D37070BDC4F1200500FA05F24EEA020E73
:1003080020FA04F301FA05F243EA020321FA04F0A1
:1003180001F0004121FA04F220EA020000EBD37058
:100328005EEA430E08BF20EAD37070BD94F0000F58
:100338000FD101F00046400041EB010111F4801F8C
:1003480008BF013CF7D041EA060195F0000F18BF3D
:10035800704703F00046520043EB030313F4801F79
:1003680008BF013DF7D043EA0603704794EA0C0F33
:100378000CEA135518BF95EA0C0F0CD050EA410649
:1003880018BF52EA4306D1D181EA030101F00041C6
:100398004FF0000070BD50EA410606BF10461946EE
:1003A80052EA430619D094EA0C0F02D150EA0136FA
:1003B80013D195EA0C0F05D152EA03361CBF10463B
:1003C80019460AD181EA030101F0004141F0FE41DA
:1003D80041F470014FF0000070BD41F0FE4141F45E
:1003E800780170BD81F0004102E000BF83F0004356
:1003F80030B54FEA41044FEA430594EA050F08BFB8
:1004080090EA020F1FBF54EA000C55EA020C7FEA7B
:10041800645C7FEA655C00F0E2804FEA5454D4EBF8
:100428005555B8BF6D420CDD2C4480EA020281EAC2
:10043800030382EA000083EA010180EA020281EAFA
:100448000303362D88BF30BD11F0004F4FEA01314C
:100458004FF4801C4CEA113102D0404261EB41015B
:1004680013F0004F4FEA03334CEA133302D05242E1
:1004780063EB430394EA050F00F0A780A4F101049D
:10048800D5F1200E0DDB02FA0EFC22FA05F28018D7
:1004980041F1000103FA0EF2801843FA05F35941BD
:1004A8000EE0A5F120050EF1200E012A03FA0EFC3C
:1004B80028BF4CF0020C43FA05F3C01851EBE37166
:1004C80001F0004507D54FF0000EDCF1000C7EEB83
:1004D80000006EEB0101B1F5801F1BD3B1F5001FC1
:1004E8000CD349085FEA30004FEA3C0C04F10104E0
:1004F8004FEA445212F5800F80F09A80BCF1004F09
:1005080008BF5FEA500C50F1000041EB045141EA8A
:10051800050130BD5FEA4C0C404141EB0101013C53
:1005280028BFB1F5801FE9D291F0000F04BF014642
:100538000020B1FA81F308BF2033A3F10B03B3F114
:1005480020020CDA0C3208DD02F1140CC2F10C02A4
:1005580001FA0CF021FA02F10CE002F11402D8BF02
:10056800C2F1200C01FA02F120FA0CFCDCBF41EACE
:100578000C019040E41AA2BF01EB0451294330BD9D
:100588006FEA04041F3C1CDA0C340EDC04F114047A
:10059800C4F1200220FA04F001FA02F340EA030051
:1005A80021FA04F345EA030130BDC4F10C04C4F197
:1005B800200220FA02F001FA04F340EA0300294677
:1005C80030BD21FA04F0294630BD94F0000F83F4C1
:1005D800801306BF81F480110134013D4EE77FEAA4
:1005E800645C18BF7FEA655C29D094EA050F08BFF0
:1005F80090EA020F05D054EA000C04BF19461046D1
:1006080030BD91EA030F1EBF0021002030BD5FEA14
:10061800545C05D14000494128BF41F0004130BD3C
:1006280014F580043CBF01F5801130BD01F0004590
:1006380045F0FE4141F470014FF0000030BD7FEA03
:10064800645C1ABF194610467FEA655C1CBF0B46FE
:10065800024650EA013406BF52EA033591EA030F15
:1006680041F4002130BD00BF90F0000F04BF00210D
:10067800704730B54FF4806404F132044FF0000540
:100688004FF0000150E700BF90F0000F04BF0021B9
:10069800704730B54FF4806404F1320410F000451F
:1006A80048BF40424FF000013EE700BF42004FEA1A
:1006B800E2014FEA31014FEA02701FBF12F07F4397
:1006C80093F07F4F81F06051704732F07F4208BF4E
:1006D800704793F07F4F04BF41F40021704730B555
:1006E8004FF4607401F0004521F000411CE700BFA1
:1006F80050EA010208BF704730B54FF000050AE024
:1007080050EA010208BF704730B511F0004502D524
:10071800404261EB41014FF4806404F132045FEA26
:10072800915C3FF4D8AE4FF003025FEADC0C18BFCF
:1007380003325FEADC0C18BF033202EBDC02C2F1C1
:10074800200300FA03FC20FA02F001FA03FE40EA53
:100758000E0021FA02F11444BDE600BF4FF0FF3C41
:1007680006E000BF4FF0010C02E000BF4FF0010CA3
:100778004DF804CD4FEA410C7FEA6C5C4FEA430C1C
:1007880018BF7FEA6C5C1BD001B050EA410C0CBF6B
:1007980052EA430C91EA030F02BF90EA020F0020CD
:1007A800704710F1000F91EA030F58BF994208BF34
:1007B80090422CBFD8176FEAE37040F001007047F1
:1007C8004FEA410C7FEA6C5C02D150EA013C07D148
:1007D8004FEA430C7FEA6C5CD6D152EA033CD3D093
:1007E8005DF8040B704700BF8446104662468C468D
:1007F8001946634600E000BF01B5FFF7B7FF0028C0
:1008080048BF10F1000F01BD4DF808EDFFF7F4FFE8
:100818000CBF012000205DF808FB00BF4DF808ED73
:10082800FFF7EAFF34BF012000205DF808FB00BF96
:100838004DF808EDFFF7E0FF94BF012000205DF8B8
:1008480008FB00BF4DF808EDFFF7CEFF94BF01206D
:1008580000205DF808FB00BF4DF808EDFFF7C4FF66
:1008680034BF012000205DF808FB00BF4FEA4102B9
:10087800B2F1E04324BFB3F5001CDCF1FE5C0DD9F6
:1008880001F0004C4FEAC0024CEA5070B2F1004F40
:1008980040EB830008BF20F00100704711F0804F43
:1008A80021D113F13872BCBF01F00040704741F408
:1008B80080114FEA5252C2F11802C2F1200C10FA0C
:1008C8000CF320FA02F018BF40F001004FEAC123F0
:1008D8004FEAD32303FA0CFC40EA0C0023FA02F394
:1008E8004FEA4303CCE77FEA625307D150EA01336A
:1008F8001EBF4FF0FE4040F44000704701F000403A
:1009080040F0FE4040F40000704700BF53B94AB9B8
:10091800002908BF00281CBF4FF0FF314FF0FF30FF
:1009280000F00CB8ADF1080C6DE904CE06F0AEFB92
:10093800DDF804E0DDE9022304B07047704700BF2A
:1009480010B5054C237833B9044B13B10448AFF301
:1009580000800123237010BDC800002000000000A3
:100968005C73000808B5034B1BB103490348AFF398
:10097800008008BD00000000CC0000205C73000867
:1009880010B5044600232DED088B9FED389A23609F
:100998000423374A3748A360B7EE008A364B2261F2
:1009A8006361364984ED018AB0EE490AE06084ED5E
:1009B800068A4FF4806001F06FF8DFED31AA2F4905
:1009C8009FED30AAF0EE408A4FF48060B0EE6A0ADC
:1009D80001F062F89FED2C7A284994ED01BAD4ED24
:1009E800049A78EEC08A94ED050AC8EE877A4FF427
:1009F800806020EE090A77EE887AC4ED077A01F064
:100A08004BF81E49F0EE408A4FF480602BEE090A3D
:100A180001F042F869EE8A9A38EEC00A174994ED57
:100A280005BAC0EE297A4FF48060B0EE6A0A77EE14
:100A3800887AD4ED069AC4ED087A01F02DF80F49AA
:100A4800F0EE408A4FF480602BEE090A01F024F89A
:100A580069EE8A9A38EEC00AC0EE297A77EE887A6B
:100A6800BDEC088BC4ED097A10BD00BF00008044BE
:100A7800CDCCCC3D0AD7233CCDCC4C3F7473000879
:100A880017B7D13D00803B470000F043034A02609E
:100A98004FF07E51002341608360704717B7D1380B
:100AA8000022032342608360704700BF00000000FB
:100AB80010B58368012B2DED028B044690ED008A5A
:100AC80007D0032B37D0E3B1B0EE480ABDEC028B58
:100AD80010BD90ED087AD0ED057A28EE078AB4EEBD
:100AE800E78AF1EE10FA80ED008AEDD8B0EE678A59
:100AF800B0EE480ABDEC028B0223C0ED007A836099
:100B080010BD90ED077AD0ED017A28EE078AB4EE91
:100B1800E78AF1EE10FA80ED008AD5DBB0EE678A3D
:100B2800B0EE480ABDEC028B4269C0ED007A0123A1
:100B38004260836010BDD0ED097A28EE278A18EE4E
:100B4800100AFFF7B3FD0FA3D3E90023FFF770FEE8
:100B580060B1DFED0B7AB0EE678AB0EE480ABDEC03
:100B6800028B0423C4ED007AA36010BDB0EE480ADE
:100B780084ED008ABDEC028B10BD00BFAFF300808E
:100B8800000000002D431CEBE2361A3F10B50B4C59
:100B98002378022B09D0042B00D010BD002323702A
:100BA8000748BDE8104001F06FBB064904484022E1
:100BB80001F08EFB0323237010BD00BF2401002029
:100BC80028010020E4000020F8B5194801F072FB64
:100BD80003282CD9174C184EC0F38F00013880B267
:100BE800271D07EB800704E0284600F03DF8BC42CB
:100BF8001DD014F8030C14F8021C14F8012C14F876
:100C0800043C60F30F2561F3174562F31F65043454
:100C180063F30705002BE7D001224FF4004130466B
:100C280002F0B8FD284600F01FF8BC42E1D1F8BD3B
:100C380028010020E8000020000C024008B5FFF75A
:100C4800C3FFBDE8084002490248402201F040BB0A
:100C5800E400002028010020024B4FF400521A80C3
:100C6800704700BFC8070020F8B5C0F30743C0F3BA
:100C78000766040EC0F3072000F0F00090281D4618
:100C880025D0E0281ED0802800D0F8BD334E344B44
:100C98003278013A002452B2A2425C55327046DDE5
:100CA800304E3278AA42F0D11A46234601E0802B12
:100CB8004ED012F8011B0129D8B203F10103F6D175
:100CC8003070F8BD284B05EBC4121A80F8BD274ACE
:100CD8001670CCB9214F224B3A785E55013A52B280
:100CE800002A3A7028DD1F4E3278AA42CDD122461A
:100CF80001E0802A2FD013F8011B0129D0B202F19C
:100D08000102F6D13070DCE7164919480B70012250
:100D18004FF4804102F03EFD1648FFF7B7FE0F4A38
:100D28000F4913780120034448551370F8BD114842
:100D3800FFF7B6FE3470F8BD0E48FFF7B1FE224645
:100D48003E700B48BDE8F8404FF4804102F022BDE8
:100D580018463070B5E710463070B2E744070020F7
:100D68004807002025010020C8070020CA070020E6
:100D7800000C024000000010042906D0052910B517
:100D88000B4620D0022908D010BD174B1748012266
:100D98004FF400411A7002F0FDBC134C1348237045
:100DA80001224FF4805102F0F5FC104800224FF464
:100DB800004102F0EFFCBDE810400C4800224FF45F
:100DC800804102F0E7BC084B084800224FF48051EC
:100DD80004241C7002F0DEFCBDE810400348002229
:100DE8004FF4004102F0D6BC24010020000C024060
:100DF8002DE9F843C568D0F80890A9EB0508904597
:100E08000446164609D94068284406F029F8BFF375
:100E18005F8F3544E560BDE8F88340684246284462
:100E28000F4606F01DF8AA19A2EB090560682A46C4
:100E380007EB080106F014F8BFF35F8FE560BDE823
:100E4800F88300BF2DE9F8430646D0E90204894635
:100E580017464FF0000833699C4203F1FF3228BF60
:100E680003F1FF33A0EB04052ABF1B18131B1B1B40
:100E7800BD4228BF3D469D42706828BF1D46494671
:100E880020442A4605F0ECFFB0682C44A844A94445
:100E98007F1BA04208BF0024BFF35F8FF460002FC0
:100EA800D9D14046BDE8F88310B5164CA8220021D8
:100EB800204605F0E3FF03212161134A61611348CD
:100EC800A2614FF48061E061002321621048A362AF
:100ED80010216362E36222666066A1662367E366A7
:100EE8006367BFF35F8F0B4B5321A3F10F0C1846B9
:100EF80001E013F80119C21A6345A154F9D1BFF3EF
:100F08005F8F10BDCC07002078830008840800207C
:100F1800740800209283000838B5204B00EB400489
:100F280003EBC40E0130DEF82C4000EB4000012C2E
:100F38008C46154603EBC00005D0022C2AD0B4B16C
:100F48000024204638BDDEF82830DEF82440A342CD
:100F58009CBFDEF820105B18013B1C1B944228BF85
:100F6800144622466146FFF743FF204638BDDEF8A7
:100F78002830DEF8242093429CBFDEF820105B184E
:100F8800013B9A1A9542DCD82A466146FFF730FFA2
:100F98002C46D6E7BDE83840FFF754BFCC07002001
:100FA80030B50C4B1B7883B00C4663B1EFF3118559
:100FB8004FF0200181F311882146FFF7ADFF85F33B
:100FC800118803B030BDCDE90002FFF76DFFDDE900
:100FD8000002EBE7CC07002070B5054682B0084652
:100FE8000C46FFF7CDF80B4B1B7802466BB1EFF3BD
:100FF80011864FF0200181F3118821462846FFF71A
:101008008BFF86F3118802B070BD0190FFF74CFF8B
:10101800019AECE7CC0700202DE9F041194D1E4656
:101028002B780446884617462BB3022C26D8EFF3B4
:10103800118C4FF0200181F3118854B922461319FD
:1010480005EBC305069BEB628CF311880020BDE815
:10105800F081601C00EB4000C00004EB440345F83D
:10106800008005EBC30328440021476062001E622C
:1010780099625962E3E7FFF717FFD6E74FF0FF30B1
:10108800E5E700BFCC070020D0E9012310B50446EE
:10109800581C904207D82268D154E3686268A0605F
:1010A8000133E36003469A4200D010BD21682069ED
:1010B800FFF776FFA368984215BF4FF0FF33002370
:1010C800E360A36010BD00BF2DE9F84F1546A942A3
:1010D800DDF828900B9A0F4683461E4661D30B46CF
:1010E8004FF00108B3FBF5F39D4208F10108F9D967
:1010F800B04538BFB04612F0010A02D1B9F1000F6D
:1011080036D1DBF80C30002B30DB012402E0013E45
:1011180005FB04F4012EFAD8B7FBF4F39D42F7D986
:10112800214E06E0AC42B4FBF5F30CD31C46B7FBEA
:10113800F3F3F15C584604FB1377FFF7A5FFDBF8E0
:101148000C30002BEEDABAF1000F0FD0B9F1000F16
:101158000CD0C8454FF02001584609F1FF3905D297
:10116800FFF792FFDBF80C30002BEFDABDE8F88FC1
:10117800930711D420240AE0FFF786FFDBF80C3030
:10118800002B09F1FF39F1DBB9F1000FBDD0C845DB
:1011980021465846F0D3B4E7002E0CBF3024202453
:1011A800F5E74FF00108A3E7988300082DE9F04F11
:1011B8009BB040230DF1280ACDE905A30023CDE912
:1011C8000830DFF8CC92079380460D46174605E0B5
:1011D80005A8FFF759FF089B002B64DB15F8011BD6
:1011E800002964D02529F3D1294600260D4611F897
:1011F800013BA3F123020D2A08D8DFE802F04607D5
:10120800070707070707430749070740A3F1300205
:10121800092A4FF000040BD804EB840403EB4404C0
:1012280015F8013FA3F13002092AA4F13004F3D9DB
:101238002E2B00F0D5802978002201E015F8011F37
:1012480001F0FB03682BF9D0252924D05839CBB2FB
:10125800202B23D8202921D8DFE801F035202020B1
:1012680020202020202020B9642020202020202099
:10127800202020205620204620422020350046F0FD
:101288000206B3E746F00406B0E746F00806ADE705
:1012980046F00106AAE705A8FFF7F6FE089B002B13
:1012A80005F101059ADA18461BB0BDE8F08F089BD6
:1012B800002BF8DD079C002C40F0A9802344184639
:1012C8001BB0BDE8F08F386813461022016804305F
:1012D800CDE90046386005A8FFF7F6FE089BDEE773
:1012E800134638680A22F1E73B681A1D3A601C6801
:1012F80004E0FFF7C9FE089B002BD0DB14F8011BA4
:1013080005A80029F5D1C9E73A68116804323A609E
:10131800082300220093019205A81022FFF7D4FEAB
:10132800089BBCE73B68D3F800B004333B608BEA0A
:10133800EB73A3EBEB73092B4FF0010008DD1946A3
:101348006329A9FB03C300F101004FEAD303F6DCCC
:101358009042034638BF134603938CB3BBF1000F8A
:101368005EDB73075CD4B00700D54AB3F10727D416
:1013780034B3039BA3424FF0200105A820D2029268
:10138800FFF782FEDDF820C0BCF1000F04F1FF3446
:10139800634684DB029A002CEBD1BBF1000F41DBE2
:1013A80073074FD406F00303022B52D01346CDE93E
:1013B800004659460A2205A8FFF786FE089B6EE7F5
:1013C800DDF820C0BCF1000F6346E6DA67E73B684A
:1013D8001A1D19783A6005A8FFF756FE089B5EE7C4
:1013E8006978A1F13003092B05F101054FF00002DE
:1013F8003FF626AF02EB820201EB420215F8011F0D
:10140800A1F13003092BA2F13002F3D918E72246E3
:10141800514640460293FFF7C3FD029B23444EE723
:10142800013CA0E72D2105A80292FFF72DFE029AA4
:10143800CBF1000BDDF820C0BCF1000F6346FFF6CE
:101448002EAFAFE72B2105A80292FFF71DFE029AE7
:10145800F0E7002AAAD1C4B1039BA3424FF03001A0
:1014680005A80DD20292FFF70FFEDDF820C0BCF1EF
:10147800000F04F1FF346346FFF611AF029AEAE762
:101488006346002BFFF60BAF90E700248EE700BF02
:10149800CDCCCCCC0EB400B582B003AB01AA53F8C6
:1014A800041B0193FFF782FE02B05DF804EB03B062
:1014B800704700BF00B52DED028B4BF6803283B02C
:1014C8004121022001F03EFCDFED1E1A1E48CDED41
:1014D800011A4FF4806101F053FBDDED011ADFEDD5
:1014E8001B0A1B489FED1B8AB6EE002AB0EE420A83
:1014F800B0EE611A00F074FCDDED011A1648B6EE84
:10150800002AB0EE420AB0EE611AF0EE480A00F086
:1015180067FCDDED011A1148B6EE002AB0EE611A3B
:10152800F0EE480AB0EE420A00F05AFC0C48FFF709
:1015380027FA0C4803B0BDEC028B5DF804EB00F011
:1015480005B900BF00000000840C002000007A44A8
:10155800440000100000DC43600000107C00001014
:10156800000000102C0000102DE9F04F2DED028B2B
:1015780085B0CDE9011000297FD003460FF2301B5A
:10158800DBE900AB0233DFF83091DFF830819FED03
:10159800408A404DDFED408A039300243F48FFF71F
:1015A80087FA3F4B89ED000A93F9006008EB860340
:1015B80018686860FFF77AF833A3D3E90023FEF7C9
:1015C80017FFFFF753F9374B374A58600C2E08EBD3
:1015D8008606D4BF18EE903A56F8303C5360284639
:1015E80000F012FC2F4810EE106A00F00DFC304697
:1015F80010EE107AFFF75AF85B465246FEF7C8FD20
:101608000246384616460F46FFF750F852465B46E4
:10161800FEF7BEFD02460B4630463946FEF7E8FEA9
:10162800064621480F4600F04BFC10EE100AFFF763
:101638003DF852465B46FEF7ABFD32463B46FEF7A9
:10164800D7FEFFF713F999ED000A07EE900A17483D
:1016580027EE800A00F088F820EE080A029ABDEE0C
:10166800C00A10EE103A9BB222F82430039A22F8EE
:101678002430019B01349C4290D105B0BDEC028B13
:10168800BDE8F08FAFF300809A9999999999B93F7D
:1016980000FEFF464400001013D002410000001075
:1016A80025010020600000107C0000102C000010B4
:1016B8009A9999999999C93F28000010A883000818
:1016C80001488021FFF750BF840C00200148802189
:1016D800FFF74ABF840E0020FEE700BF014B986B5E
:1016E80001F0A6BD20160020014BD86B01F0A0BD6B
:1016F800D815002008B500F01DF8094800F01CF8BE
:10170800084800F019F8084800F016F8074B084890
:10171800002119604FF48072BDE8084005F0AEBBA7
:10172800A88500081CA60008F08500088411002080
:10173800841000200020704708B5024602490020A6
:10174800FFF7A8FE002008BDF4850008002304491F
:10175800044A016043608360C3600361426170476B
:101768000000FA430000604010B504462DED028BDE
:101778000068B0EE408AFEF799FF61A3D3E9002321
:10178800FEF706FD60A3D3E90023FEF701FD5A4BDF
:101798000022FEF7FDFCFFF769F8584900EE100A31
:1017A8004FF4006000F078F9F7EE007A70EE274AFF
:1017B80094ED034AD4ED046AD4ED023A94ED013A6B
:1017C80094ED056AC0EE245A87EEA41AE4EE256A61
:1017D80025EEA55AF8EE081AE5EE236A25EE252A25
:1017E800B4EEE18A62EE252AE2EE036A22EE885A16
:1017F800B0EE672AA6EE222AA1EE265AF1EE10FADA
:10180800B0EE407A85EE020A70D4F0EE086AB4EEC3
:10181800E68AF1EE10FA53DD66EE006AB8EE086A61
:10182800F4EEC66AF1EE10FA5DD4B0EE086AF4EE92
:10183800C66AF1EE10FA40DCB3EE0B6AF0EE462A07
:10184800B2EE025AE6EEA62A26EE855AA6EE856A7A
:1018580066EEA26AC6EE862ABDEC028B83EE246A87
:10186800C3EEA46A84EE245A77EEE27AA5EEA76A5C
:10187800E5EE866A77EEC67AF0EE464AE7EE874AE4
:10188800F0EE457AE5EEA67A36EE666AF0EE665A2E
:1018980076EEE76AE6EE075A37EEC06AE6EE877A32
:1018A800F0EE406AE6EE076AC4ED014AC4ED025A5A
:1018B800C4ED037AC4ED046A10BDF7EE002ACBE745
:1018C800F3EE0B7AB2EE025A28EE055AF0EE672ACA
:1018D800E8EE082AE8EE057A28EE228AF0EE676A32
:1018E800C8EE267A98E7FFEE002AB5E7FFEE007A01
:1018F80092E700BFAFF300800000A040F885000821
:10190800EA2E4454FB210940000000C067D8F53E88
:101918002DE9F04F00248DB0CDE90744CDE9094405
:10192800574B01940B941A6B564F574EDFF8608152
:10193800DFF860A142F010021A631A6B02F010027D
:101948000192019A02941A6B42F004021A631A6B0C
:1019580002F004020292029A03941A6B42F0800287
:101968001A631A6B02F080020392039A04941A6BAA
:1019780042F001021A631A6B02F001020492049AFF
:1019880005941A6B42F002021A631A6B02F0020203
:101998000592059A06941A6B42F008021A631B6BAB
:1019A80003F008030693224638460821069B01F0F7
:1019B800F1FE01221146304601F0ECFE2246404677
:1019C8004FF2100101F0E6FE01254FF0080907A9C2
:1019D8003846CDE90795CDE9094401F0FFFC07A990
:1019E80030464FF0050BCDE90755CDE9094401F024
:1019F800F5FC304607A90226CDF81C90CDE909442C
:101A08004FF490190896CDF82CB001F0E7FC07A91F
:101A18001E4807950994CDF8209001F0DFFC07A92E
:101A2800504604230793CDE9084401F0D7FC5046FB
:101A380007A94FF480630793CDE90864CDF82CB06B
:101A48000A9401F0CBFC07A940464FF21003079314
:101A5800CDE908540A9401F0C1FC2023404607A9A7
:101A68000793CDE9084401F0B9FC07A93846CDE948
:101A78000769099401F0B2FC0DB0BDE8F08F00BF12
:101A880000380240001002400008024000000240F6
:101A9800000C024000040240FCEEC07A17EE903AB7
:101AA800F8EE677A834270EE677A02D91B1A83428E
:101AB800FCD8013898420BD0013301EB830111EDBA
:101AC800010A91ED007A37EE407AA7EE270A7047AF
:101AD80001EB830393ED000A91ED007A37EE407A2B
:101AE800A7EE270A704700BF10B50B480B4C0C49EE
:101AF80000234FF48042C0E90041C0E90233C0E945
:101B08000423C0E90633036202F05AFD00B910BD90
:101B1800BDE8104000F062B9881100200054004070
:101B2800A086010030B5184B026889B000249A429B
:101B3800CDE90344CDE90544079401D009B030BD8F
:101B4800124D01942B6B124843F002032B632B6B4D
:101B580003F0020301934FF41073019A03931222C6
:101B68000123CDE9042303A90423079301F036FCDC
:101B780002942B6C43F400132B642B6C03F40013B6
:101B88000293029B09B030BD005400400038024067
:101B98000004024008B50268094B9A4200D008BD0B
:101BA800084A0948136C23F400134021136401F018
:101BB80037FDBDE8084004484FF4007101F030BD1E
:101BC80000540040003802400004024010B50C48A0
:101BD8000C4C00234FF400724BF68031C0E90042F0
:101BE800C0E90233C0E90421C0E90633036202F008
:101BF800F1FF00B910BDBDE8104000F0EFB800BF1C
:101C0800DC110020003C004070B52A4A01688CB005
:101C180000239142CDE90733CDE909330B930693AD
:101C280001D00CB070BD0121C522022303A8CDE963
:101C38000312059303F07EFD002838D11E4B1F4880
:101C4800002400941A6C42F400421A641A6C02F4DC
:101C580000420092009A01941A6B42F001021A6342
:101C68001A6B02F001020192019A02941A6B42F077
:101C780004021A631B6B03F0040302930225062671
:101C880007A910230793CDE90944029B08950B96F1
:101C980001F0A4FB4FF4A4530948079307A9CDE921
:101CA8000854CDE90A4601F099FB0CB070BD00F06C
:101CB80095F8C3E7003C00400038024000000240AD
:101CC8000008024030B5002395B0CDE90A33CDE9CC
:101CD8000C33CDE90333CDE905332149019307934B
:101CE800086C204A40F080500864096C01F080516B
:101CF800019101990293136843F4804313601368B8
:101D080003F48043012202934FF48033CDE9082382
:101D180008230224029810934FF480014FF4A8720C
:101D2800072308A8CDE90E41CDE91124139303F048
:101D38003BFA08B172B6FEE70F220346CDE9032449
:101D48004FF4A0554FF4805203A80521CDE905357D
:101D5800079203F041FC08B172B6FEE715B030BD3A
:101D6800003802400070004000B583B001F092F8DE
:101D7800FFF7A8FFFFF7CCFDFFF7B6FEFFF726FF3A
:101D880000F044F91149124C0020FFF725F9002210
:101D98001346114600921046FFF73EF900220D49FE
:101DA8000B4804F027FA0C49094804F053FA08488C
:101DB80004F08CFAFEF750FFFFF77CFBFFF79AFC64
:101DC800FEF7E4FE204604F08BFAF9E7FCA50008CC
:101DD80028010020810D00080400002072B6FEE7EB
:101DE800DFED087A80ED000A60EEA70A0023C0ED57
:101DF800010A836080ED031AC0ED041A836180ED47
:101E0800052A70478D7E7F3F9FED2C7AD0ED017AB1
:101E1800D0ED026A90ED000A67EE877AF0EE005A7C
:101E280037EEA67ABFEE006AB5EEC07AF1EE10FA88
:101E3800A6EEA56A44BFF7EE005A37EE257AF7EE0C
:101E4800005AB4EEE57AF1EE10FAA8BF37EE657ADB
:101E5800F4EEE67AF1EE10FA80ED027A12DD86EE03
:101E6800A77AF0EE005A67EE477AF7EE006AE7EED7
:101E7800257A77EEE67A36EE676A20EE060A80ED76
:101E8800060A7047F7EE005A35EEE77AF4EEC76AAD
:101E9800F1EE10FAF1DD76EEE56A86EEA77AF0EE5D
:101EA800477AE7EE077A37EE277A37EE257A36EE65
:101EB800476A20EE060A80ED060A7047DF6AAE37E9
:101EC800DFED506A90ED017AD0ED027A90ED056A67
:101ED80027EE267AF4EEC67A77EE276AF1EE10FA44
:101EE800F7EE005AF5EEC06ABFEE000AB8BFB0EED2
:101EF800650AF1EE10FA48BF76EEA56AF7EE005AC9
:101F0800F4EEE56AF1EE10FAA8BF76EEE56AB4EEF3
:101F1800E77AF1EE10FAC0ED026A3BDDC7EE875AA8
:101F2800F0EE004A65EEE56AB7EE005AE5EEA46AFF
:101F380076EEC56A77EEC67A30EE260AF5EEC07AF6
:101F4800F1EE10FA44BFF7EE006A77EEA67AF7EEE4
:101F5800006AF4EEE67AF1EE10FAA8BF77EEE67AB8
:101F6800B4EEE77AF1EE10FA2ADDC7EE876AB0EE32
:101F7800006A66EEE67AB7EE007AE6EE867A77EEE3
:101F8800C77A30EE670AD0ED007A20EE270A80ED96
:101F9800060A7047F7EE005A75EEC76AF4EEE67A5D
:101FA800F1EE10FA2ADD37EEE55AC5EE076AB0EE13
:101FB800665AA6EEA65A76EE856A76EEA56AB9E75F
:101FC800B7EE006A76EE476AF4EEE67AF1EE10FABA
:101FD800D9DD77EEC67AC7EE876AF0EE667AE6EE66
:101FE800A67A76EEA76AD0ED007A76EE866A30EEAB
:101FF800660A20EE270A80ED060A7047DFED026ABE
:1020080098E700BFDF6AAE370000000010B50E4841
:102018000E4C4FF482720023C0E900424FF4007165
:102028000A22C0E90233C0E90433C0E90613C0E953
:102038000833C0E90A3203F05BFC00B910BDBDE803
:102048001040FFF7CBBE00BF241200200030014033
:1020580030B5174A016889B000239142CDE90333AE
:10206800CDE90533079301D009B030BD02F58432BC
:102078000193516C41F480515164506C00F48050CC
:10208800019001980293136B0A4843F0010313630C
:10209800136B03F001030293E025052303A902242F
:1020A800029A03950494079301F098F909B030BD9A
:1020B800003001400000024082B00D4B0021009129
:1020C8005A6C42F480425A645A6C02F4804200927C
:1020D800009A01911A6C42F080521A641B6C03F04A
:1020E80080530193019B072002B000F011BF00BF8D
:1020F80000380240FEE700BFFEE700BFFEE700BF72
:10210800FEE700BFFEE700BF704700BF704700BF93
:10211800704700BF00F0D8BE014801F041BC00BFC5
:102128007C120020034AD2F8883043F47003C2F8C6
:102138008830704700ED00E008B50221D0F8183665
:102148009847002008BD00BF0020704738B5D0F878
:10215800C835DD69A978044651B9697891B9284626
:1021680004F076FED4F8C8350022DA61002038BDC4
:1021780004F0E8FDA978204604F008FE69780023F9
:10218800AB7041B1204604F0DDFD6978204604F0CB
:10219800FDFD00236B70D4F8C835DD69002DDED154
:1021A800002038BD70B5FF2384B003220121054605
:1021B80004F068F8FF2863D00146284604F058F870
:1021C8001C20D5F8C86504F03BFEF06195F8203274
:1021D8005A2202FB0352044692F94A0292F84A1222
:1021E800B2F84C220028B4BF2281E2804FF05A0294
:1021F80002FB0353B8BF217193F95222A8BFE170C3
:10220800002A93F85212B3F8543235DBE170E380B8
:10221800284604F09DFD217903462846A37004F062
:1022280097FDE38895F81D2200920226CDE9016307
:10223800E27895F81C32A1786070284604F072FDA7
:10224800238995F81D122279CDE90163284695F86E
:102258001C3200910026617804F064FD61782670D4
:102268003246284600F0D8F9A1783246284600F0D0
:10227800D3F9304604B070BD21712381E178C7E7F6
:10228800022004B070BD00BF38B503780B2B01D015
:10229800002038BDD0F8C825D569002369782B708F
:1022A800044604F04FFDA978204604F04BFD0020B9
:1022B80038BD00BF02780B2A01D00020704708B54E
:1022C800D0F8C835DB69597800F058F980B208BDF4
:1022D800D0F8C835DB691878012801D90120704782
:1022E8004FF0010C032058761961DA8283F800C098
:1022F80000207047704700BF70B5D0F8C835DE6958
:102308003478012C82B006D0022C34D004B10124D8
:10231800204602B070BD337E012B05463BD0022B10
:102328000AD1B17800F05CF9012844D0022808BF2E
:102338003476D5F8C835DE69737E032B22D0042B9A
:10234800E5D17178284600F04BF901280446DED122
:102358007178284600F012F9F38A82B2934242DD7E
:10236800318991423FD231699B1AF3821144032388
:1023780031617376CCE7002104F046FC0028C6D111
:102388003070C4E7737832893169284604F0BAFCA2
:1023980004237376BCE7B38AF288F168934298BF46
:1023A8001A46B378009404F095FC02233376D5F8E6
:1023B800C835DE69C0E7B38AF288934209D800239A
:1023C800B38233762846FFF795FFD5F8C835DE691E
:1023D800B2E79B1AB382F36834761344D5F8C8255C
:1023E800F360D669A8E7002373762846FEF726FC33
:1023F8008EE700BF0368B3F1A04F00D070472DE906
:10240800F04188B0294C2A4800250095236B43F0F9
:1024180001032363236B03F001030093009B0195E1
:10242800236B43F004032363236B03F0040301933A
:10243800032602274FF4C0534FF00A0803A9019A54
:1024480006960393CDE90475CDF81C8000F0C6FF0D
:102458004FF480621223CDE9066803A901261448C7
:102468000596CDE9032300F0B9FF03A911480396A7
:10247800CDE90465069700F0B1FF636B43F0800374
:1024880063630295636C43F480436364636C03F491
:1024980080432A46062102934320029B00F04AFD0E
:1024A800432000F085FD08B0BDE8F0810038024007
:1024B8000000024000080240D0F8000304F0AEB863
:1024C800D0F8000304F0C2B8D0F8000304F0D4B880
:1024D800D0F8000304F0B2B8D0F8000304F0B2B8A2
:1024E800704700BF002270B51146124C06464FF0E7
:1024F800FF3000F01FFD4FF0A0420B2300252260A3
:10250800A36002220123C6F814462046C4E9062522
:10251800E36025612562E562C4F8006301F08AF989
:10252800204601F039FE0146304604F073F828468B
:1025380070BD00BF7C12002008B5D0F8140601F069
:10254800F3FD002008BD00BF08B5D0F8140601F05F
:1025580001FE002008BD00BF08B5D0F8140601F040
:102568001FFE032828BF0120C0B208BD08B5D0F857
:10257800140601F001FE002008BD00BFD0F81406C3
:1025880001F004BE10B584B0D0F814069DF81840C8
:1025980000949DF81C400194BDF82040029401F07D
:1025A800FDF8002004B010BD08B5D0F8140601F0FD
:1025B8002FF9002008BD00BF10B584B0D0F814066C
:1025C8009DF818400094079C0194BDF8204002949F
:1025D8009DF82440039401F07FF9002004B010BD59
:1025E800D0F8140601F0CCBD08B549B9012211464E
:1025F800084801F0CFF8C82000F078FC002008BD9A
:1026080000220121034801F0C5F8C82000F06EFC43
:10261800002008BD00080240074B2C2000FB0131B8
:1026280091F83B301BB181F854200020704781F8A5
:1026380055200020704700BF7C12002000F056BCD7
:10264800002070470020704700B5642983B022D865
:10265800124AC1EB0121A2FB013245F63B23C2F32A
:102668004712994202F119020FDDD2B2C0B2CDE988
:102678000020202100F032FA0198009A212100F070
:102688002DFA002003B05DF804FBC0B2D2B2CDE948
:1026980000202021EEE71822E8E700BF1F85EB5154
:1026A800F8B5C4B20D460646174600F0DDF902211A
:1026B8000122204600F012FA691E032965D8DFE8D6
:1026C80001F060480264334BAA221A701A78042178
:1026D800204600F003FA81220521204600F0FEF989
:1026E80004220621204600F0F9F939463046FFF762
:1026F800ABFF06220F210546204600F0EFF92046E1
:102708000022242100F0EAF900222521204600F0C9
:10271800E5F9204600220A2100F0E0F920460422CB
:102728000E2100F0DBF920460022272100F0D6F91F
:1027380020460F221F2100F0D1F920460A221A2133
:1027480000F0CCF920460A221B2100F0C7F92846E0
:10275800F8BD104BAF221A701A780421204600F0F9
:10276800BDF981220521204600F0B8F9042206218E
:10277800204600F0B3F939463046FFF765FF0546B5
:10278800C7E7044BFA221A70A0E7024B05221A7019
:102798009CE700BF80150020013908B5032921D81E
:1027A800DFE801F0160C0220AA220421C0B200F0D2
:1027B80095F9114BAA221A70002008BDAF220421F6
:1027C800C0B200F08BF90C4BAF221A70002008BD84
:1027D800FA220421C0B200F081F9074BFA221A70DC
:1027E800002008BD05220421C0B200F077F9024B91
:1027F80005221A70002008BD8015002000F06CB971
:1028080010B5044600F030F90121E0B200F08CF96F
:1028180000F0F80010BD00BF10B5012982B013D038
:10282800C0B200222221019000F058F9019800223C
:10283800232100F053F90E4B01981A78042100F077
:102848004DF9002002B010BD0C46C0B20421FF2291
:10285800019000F043F901982246222100F03EF948
:1028680001982246232100F039F9002002B010BD5A
:102878008015002000B583B0C0B2FF22042101906A
:1028880000F02CF901980122222100F027F9019883
:102898000122232100F022F901980122022100F0EF
:1028A8001DF9002003B05DF804FB00BF00B583B03C
:1028B800C0B2FF220421019000F010F90198012212
:1028C800222100F00BF901980122232100F006F9DA
:1028D800019804220E2100F001F901989F2202219B
:1028E80000F0FCF8034B012200201A7003B05DF8D9
:1028F80004FB00BF2400002030B5002485B0C0B21E
:1029080022212246134D0190039400F0E7F8019824
:102918002246232100F0E2F801982A78042100F0E9
:10292800DDF80394039B0198FE2B05D8039B013324
:102938000393039BFE2BF9D92A780190042100F018
:10294800CDF801989E22022100F0C8F8002005B0B9
:1029580030BD00BF8015002010B5144C2378012B22
:1029680082B002D0002002B010BDC0B206220E21F3
:10297800019000F0B3F801980022222100F0AEF88F
:1029880001980022232100F0A9F8094B01981A7830
:10299800042100F0A3F801989E22022100F09EF87D
:1029A80000230020237002B010BD00BF24000020C7
:1029B8008015002070B588B0264C274E274B336011
:1029C80000250195236B2648264A43F0020323631A
:1029D800236B726003F0020301934FF410730393A7
:1029E800122304930223069304234FF0330C079316
:1029F80003A94FF48043C6E903C3019AB56005955E
:102A080000F0ECFC0295236C43F400132364236C60
:102A180003F400130293029B236A43F40013236216
:102A2800236A23F4001323622A4629461F2000F054
:102A380081FA1F2000F0BCFA2A462946202000F01F
:102A480079FA202000F0B4FA304608B0BDE87040AA
:102A580001F0B6BD00380240841500200054004043
:102A680000040240A086010030B587B0174B184813
:102A7800002400941A6B42F008021A631B6B03F0DF
:102A88000803009310220123CDE9012301A90223A1
:102A9800CDE90343009D00F0A1FC0E4802F096F832
:102AA80088B1002210210A4800F074FE052000F0C9
:102AB8001DFA01221021064800F06CFE052000F0E6
:102AC80015FA07B030BDFFF775FFEAE70038024096
:102AD800000C024084150020704700BF10B5104B51
:102AE80086B01B680293144601238DF817400DF138
:102AF80017040A460193014600940A4801F042FE71
:102B080008B906B010BD074801F022FE054802F0DA
:102B18005DF80028F5D1FFF74DFF06B010BD00BFE6
:102B2800580000208415002000B5134B87B01B689F
:102B3800029384460A4600200DF117010123CDE9CE
:102B480000138DF8170061460C4801F0C9FE20B942
:102B58009DF8170007B05DF804FB084801F0F8FD80
:102B6800064802F033F80028F2D1FFF723FF9DF85A
:102B7800170007B05DF804FB5800002084150020FA
:102B880010B50E4B82B01B6801900C46DB680146FD
:102B9800A2B29420984768B9B4F5003F0199084853
:102BA80034BFC4F34F024FF6FF7202F0B5F80020AD
:102BB80002B010BD012002B010BD00BFC816002031
:102BC8002016002030B50023134D85B04FF4FA527B
:102BD800FF2401E055F8042BD8B20133914208BF15
:102BE8000446082BF6D1684602F044FE63070ED16E
:102BF8000A4A0B4B52F8242053F824300121684626
:102C0800CDE90012029302F095FD05B030BD012117
:102C18004FF481720323F2E744A6000860A6000877
:102C280080A6000870B58AB0404C00250095236C3A
:102C380043F400432364236C03F400430093009B94
:102C48000195236B43F004032363236B03F0040310
:102C58000193019B0295236B43F001032363236BCC
:102C680003F0010302934FF4A05302220299059343
:102C7800064606232E48069205A9CDE90752099370
:102C880000F0ACFB10232B48059305A900F0A6FB28
:102C98000395236B264843F004032363236B03F057
:102CA8000403039305A98023039A059300F096FB78
:102CB8000495236B204A43F400132363236B03F426
:102CC8000013049333680499934209D000220E211B
:102CD8002F2000F02FF92F2000F06AF90AB070BDFC
:102CE800164C174BB4634022C4E901524FF480627A
:102CF800C4E903524FF400614FF40052C4E90512CD
:102D08004FF480704FF40032C4E907024FF0040C0E
:102D180003222046C4E909C2C4E90B552360A6630F
:102D280000F006FA204600F06BF9CFE700380240C1
:102D38000008024000000240003C004068160020E5
:102D4800B86002402DE9F041214C154606460022A4
:102D580020460F462946FFF735FF1E4B23602046C5
:102D680002F0EEF878B31B4B6561DA69236022F450
:102D78008062DA610023C4E90633C4E902331448E7
:102D88004FF400732361636001F024FF044648B9DF
:102D9800DFF848809420D8F80830984700F0F80009
:102DA800E02803D001242046BDE8F0810A482B46DC
:102DB800C0F80080D8F800503A4631469420A84719
:102DC8002046BDE8F08101462046FFF72BFFCAE701
:102DD80020160020003C0040C816002028000020D3
:102DE80008B50268034B9A4200D008BDFEF76EFC96
:102DF80008BD00BF003C004008B50268034B9A427A
:102E080000D008BDFEF75CFC08BD00BF003C0040D8
:102E1800704700BF08B5FFF7FBFF08BD704700BF4C
:102E2800084A0368934210B506D0074A934200D077
:102E380010BDFFF7F3FF10BD0446FEF74DFC2368F5
:102E4800F3E700BF003C00400038004038B50E4AA8
:102E58000E4B12781B6805464FF47A70B0FBF2F0FF
:102E6800B3FBF0F000F0B2F808B90F2D01D901203A
:102E780038BD0446024629464FF0FF3000F05AF8A4
:102E8800034B20461D6038BD5C0000200000002078
:102E98006000002008B50B4B1A6842F400721A60F3
:102EA8001A6842F480621A601A6842F480721A60E2
:102EB800032000F02DF80020FFF7C8FFFFF7FCF80B
:102EC800002008BD003C0240034A044B11681B78EF
:102ED8000B441360704700BFCC1600205C00002034
:102EE800014B1868704700BFCC16002038B504465F
:102EF800FFF7F6FF631C054602D0044B1B781C4401
:102F0800FFF7EEFF431BA342FAD338BD5C00002055
:102F18000749CA6803024FF6FF0003F4E063024062
:102F2800134343F0BF6343F40033CB60704700BFE3
:102F380000ED00E01C4BDB68C3F3022300B5C3F1CE
:102F4800070EBEF1040F03F1040C28BF4FF0040E66
:102F5800BCF1060F1BD9033B4FF0FF3C0CFA03FCF6
:102F680022EA0C024FF0FF3C0CFA0EFC21EA0C019D
:102F78009940002841EA02010CDB00F16040090198
:102F880000F56140C9B280F800135DF804FB002227
:102F98001346E7E7054B00F00F0009010344C9B2E7
:102FA80019765DF804FB00BF00ED00E0FCEC00E0E2
:102FB800002807DB4109044A00F01F000123834071
:102FC80042F82130704700BF00E100E00138B0F15D
:102FD800807F10D210B44FF0E023084C58614FF0B6
:102FE800F00C84F823C00022072110469A615DF88E
:102FF800044B196170470120704700BF00ED00E0E5
:1030080038B50446FFF76CFF002C67D02368002210
:10301800022184F8351084F834201A6822F001025D
:1030280005461A6005E0FFF75BFF431B052B39D8FF
:1030380023681A68D107F6D4D4E90120E16802436D
:103048000A43D4E90451A0692A430A43E1691D6887
:1030580002430A4333492940256A2A430A43616ADD
:10306800042926D01A605A6922F007021143D8B2FF
:103078002D4A59611038A2FB005212092B4923F43A
:103088007F73895CE16523F003035F2888BF0433FD
:103098003F228A40A36500209A600123606584F876
:1030A800353038BD03232022626584F83530184650
:1030B80038BDD4E90B512943114319605969A26AF3
:1030C80021F00701114341F00401002DCFD038B998
:1030D800012A23D032F00202C9D108E0012038BD0C
:1030E800B0F5005F0CD0022A03D9032ABFD1EA0148
:1030F800BDD501234022626584F83530184638BDB5
:10310800032AB4D801A050F822F000BFFB30000811
:10311800F7300008FB30000825310008B5F1C07F02
:10312800A5D1E6E73F8010F0ABAAAAAAA0A600089E
:10313800002837D090F83520022A0346D0B230D084
:103148001A681949D0B2103830B4A1FB00410909F6
:103158001468164D24F001046D5C146000211160A0
:1031680051609160D16011612121516122F47F7217
:1031780022F003025F2888BF04323F240021AC40BC
:10318800DD65C3E90F11C3E91111C3E913119A658C
:103198009460596583F8341083F83510084630BCBC
:1031A8007047704701207047ABAAAAAAA0A60008DA
:1031B80070B490F83440856D012C35D090F83540C6
:1031C8004FF0010C644580F834C005D0002380F826
:1031D800343070BC02207047022680F835600468DD
:1031E80000264665266826F4802626606360836884
:1031F800402B0EBFA260A160E260C26D08BFE16013
:103208003F239340AB602368026C43F016032360AE
:103218001AB1236843F008032360236843F00103CD
:103228000020236070BC7047022070BC704700BF4C
:10323800F0B583B0674A876D166800230193C36DA4
:103248003D6808229A402A42044603D0016808686B
:10325800400778D401229A402A4203D0216849695C
:1032680008066AD404229A402A4203D021680968D1
:1032780089075CD410229A402A4203D02168086842
:10328800000741D420229A402A4214D021680868B5
:10329800C00610D5BA6094F83520052A63D00B68AB
:1032A80013F4802F0B687ED0190340F18980E36BFB
:1032B8000BB120469847636D23B3636DDA071AD5BF
:1032C80022684549052384F835301368A1FB0616A2
:1032D80023F00103B60A136002E01368DB0704D584
:1032E800019B0133B3420193F7D90122002384F8EB
:1032F800352084F83430E36C23B1204603B0BDE8B0
:10330800F040184703B0F0BDBA600A6812F4802F85
:103318000A6822D1D20503D40A6822F008020A609A
:10332800226C002AAED020469047E36DAAE7BA6027
:10333800626D42F0040262659CE7BA60626D42F019
:10334800020262658EE7086820F004000860BA602F
:10335800626D42F0010262657CE71103E0D5A26C60
:10336800002AE0D18EE70A6822F016020A604A694C
:1033780022F080024A61226C3AB30A6822F00802FD
:103388000A603F2202FA03F3216DBB600122002389
:1033980084F8352084F834300029B3D0204603B0AF
:1033A800BDE8F040084713F4807380D10A6822F022
:1033B80010020A60012284F8352084F8343076E758
:1033C800636C002B7FF475AF75E7A26C002AD4D12B
:1033D800D7E700BF00000020B5814E1B2DE9F04F54
:1033E80000220C68DFF830A2844E85B01346894667
:1033F80005E00133102B02F1020200F08A8001215E
:10340800994001EA040BA143F3D1D9F804C00CF0A8
:1034180003014D1E012D7FD9032940F0C080914042
:10342800CD4307683D4029431CF4403F0160E0D08C
:1034380000210391DAF8441041F48041CAF844109D
:10344800DAF8441001F480410391039923F0030151
:1034580001F1804101F59C3103F003078D68BF003D
:103468004FF00F0E0EFA07FE25EA0E08644DA8422B
:1034780024D005F58065A84200F09580614DA842EA
:1034880000F09880604DA84200F09B805F4DA842F4
:1034980000F09E805E4DA84200F0A1805D4DA842DC
:1034A80000F0A480DFF874E170450CBF4FF0070E00
:1034B8004FF0080E0EFA07F748EA0708C1F8088027
:1034C800B1686FEA0B051CF4801F0CBF29404BEA5A
:1034D8000101B160F1681CF4001F0CBF29404BEAE0
:1034E8000101F16071681CF4003F0CBF29404BEAF0
:1034F8000101716031681CF4803F03F101030CBFC6
:1035080029404BEA0101102B316002F102027FF4DD
:1035180076AF05B0BDE8F08FD9F80C50D0F808E0C8
:1035280005FA02F7032505FA02F82EEA080E47EA1B
:103538000E078760476827EA0B0ECCF300179F40F9
:1035480047EA0E076FEA08054760C76807EA050EED
:10355800D9F80870974047EA0E070229C76001FAB0
:1035680002F17FF45EAF4FEAD30E00EB8E0E03F04C
:103578000708DEF820700097D9F810704FEA88081D
:1035880007FA08F701970F2707FA08F8009F27EAB4
:103598000808019F47EA0807CEF8207041E703258D
:1035A8009540ED43D1E74FF0010E0EFA07F748EAD0
:1035B800070883E74FF0020E0EFA07F748EA0708F4
:1035C8007CE74FF0030E0EFA07F748EA070875E79D
:1035D8004FF0040E0EFA07F748EA07086EE74FF0B7
:1035E800050E0EFA07F748EA070867E74FF0060ED8
:1035F8000EFA07F748EA070860E700BF003C0140F9
:103608000000024000080240000C02400010024086
:10361800001402400018024000380240001C02401A
:103628002DE9F04F0023DFF85C91DFF85C81DFF8CB
:103638005CA1DFF85CB183B002E00133102B76D0D7
:103648004FF0010E0EFA03F232EA010402EA010712
:10365800F3D123F0030505F1804505F59C3503F00A
:103668000304D5F808C0A4000F26A64048450196D3
:1036780006EA0C0C17D0504512D058455AD03C4E8B
:10368800B0425CD03B4EB0425ED03B4EB04260D0C0
:103698003A4EB04262D03A4EB04264D04FF0080E73
:1036A8000EFA04F400E00024A4451CD1D8F8004028
:1036B800019E24EA0704C8F80040D8F8044024EA28
:1036C8000704C8F80440D8F80C4024EA0704C8F8EE
:1036D8000C40D8F8084024EA0704C8F80840AC6849
:1036E80024EA0604AC6005685E000324B44025EAB9
:1036F80004050560DD0800EB850503F0070C2E6A5C
:103708004FEA8C0C0F2707FA0CF726EA07062E62F9
:10371800C56825EA0405C560456825EA02024260D5
:103728008268013322EA0402102B826088D103B038
:10373800BDE8F08F4FF0020E0EFA04F4B4E74FF034
:10374800030E0EFA04F4AFE74FF0040E0EFA04F479
:10375800AAE74FF0050E0EFA04F4A5E74FF0060E9F
:103768000EFA04F4A0E74FF0070E0EFA04F49BE7F4
:10377800000C0240001002400014024000180240F1
:10378800001C024000000240003C014000040240CE
:103798000008024002B90904816170472DE9F04F21
:1037A80090F8F85285B0012D9DF838609DF83C706E
:1037B800BDF8408027D04FF02C0C0CFB010C0446C0
:1037C8000025D00902F07F0A4FF0010B84F8F8B207
:1037D8008CF838308CF839108CF83AA08CF83B000B
:1037E8008CF83D508CF83F708CF83C60ACF8408009
:1037F800CDE901780096206802F0F8FA84F8F852CA
:1038080005B0BDE8F08F022005B0BDE8F08F00BF1D
:1038180090F8F832012B0BD010B50446012300684C
:1038280084F8F83202F03EFC002084F8F80210BD5B
:103838000220704700284DD02DE9F04190F8F93268
:1038480004688AB0064603F0FF02002B3CD02046ED
:10385800032386F8F932E36B344613F4807308BF08
:10386800336102F01DF954F810CB0FCC6D460FC52B
:103878000FCC0FC594E8030085E80300371D97E8CF
:103888000E00604602F0C0F83068012102F010F91D
:10389800B446EE465CF8108BBCE80F00AEE80F00AB
:1038A800BCE80F00AEE80F0094E8030085E80300C9
:1038B800404697E80E0002F0AFF90123002086F891
:1038C800F9320AB0BDE8F08180F8F822FEF792FDDF
:1038D8003068BDE70120704770B54FF02C0C0CFB29
:1038E800010C9DF81040059EBDF818509DF81CE08D
:1038F8008CF83B208CF83F30ECB90324022B8CF871
:103908003DE08CF8424020D0A3421ED0012B27D0A6
:103918002C2202FB0103002483F83910A3F860402D
:103928001946027C5E640068DD641C653831BDE8B8
:10393800704002F0EBBA4FF0020E8CF842E0032B15
:10394800E6D8DFE803F01C0D02022C2303FB010379
:103958006AB993F855403CB1022283F84220D7E770
:103968002C2303FB0103002283F84220D0E793F8BD
:103978005420002AF8D0022283F84220C8E7012CFC
:10398800C6D1002AC4D12C2303FB010315B983F83F
:103998005540BDE793F85540002CE5D0B8E700BF87
:1039A8002DE9F04F056885B00446284602F030F945
:1039B800012802D005B0BDE8F08F206802F024F994
:1039C8000028F7D0206802F01FF910F4001F2068C3
:1039D8001CBF4FF40013436102F016F910F4801F66
:1039E80020681CBF4FF48013436102F00DF910F0FA
:1039F800806F20681CBF4FF08063436102F004F9B8
:103A080010F0020F20681CBF0223436102F0FCF88B
:103A180010F0005F206840F0BD8002F0F5F8C601A4
:103A280000F1EA80206802F0EFF8000700F1DD807D
:103A3800206802F0E9F8C106266800F1C780304620
:103A480002F0E2F88201B5D5206802F025FBA268F1
:103A580007462068002A00F0B58005F5A065002615
:103A68004FF02C0864E05FFA86F900F5A06B0BEBC9
:103A7800491A4FEA4913DAF808200193520700F16E
:103A88006C81DAF80820D30500F19F81DAF8082064
:103A9800910640F187812022CAF80820DAF8082028
:103AA800920500F16781DAF80820D30740F1048114
:103AB800206958B1DAF8102008FB094CC2F3120E3D
:103AC800DCF84820A2EB0E02CCF8502008FB094C89
:103AD800012200238CF86120CCF85C30CAF8082059
:103AE8009CF83F2012F0FD0200F07D81012A0DD1E3
:103AF800019B5BF8030040F000504BF80300494677
:103B080020468CF86020FEF7EBFC2069012808FBB2
:103B1800094100F0A68191F8543083F0010381F83F
:103B280054302068A2680136B24205F1200549D90F
:103B380006F00F0327FA03F3DB07F4D52B68190403
:103B480091D4F1B200F5A06C0CEB411A4FEA411E7A
:103B5800DAF8083013F0040340F01781DAF808B0F7
:103B68001BF0200F00F082804FF0200CCAF808C02C
:103B780008FB014C9CF83DE0BEF1010FD3D18CF855
:103B88003D304FF002038CF8603002F08BFA206869
:103B9800A268C8E74FF000534361D5F84034DF0707
:103BA8003FF53BAF1021284601F0BAFF284601F047
:103BB800E1FF0121206802F0A5F82046FEF784FC09
:103BC80020682AE74FF000734361F3E6B36923F0F6
:103BD8001003B361376AC7F34342022A00F0258114
:103BE800B36943F01003B36129E72046FEF764FC8C
:103BF8002068082343611CE72668D6F840340293FE
:103C0800D6F840340393039B23F02E030393029BBF
:103C1800980707D5029BD90700F15A81039B43F007
:103C280002030393029B1A0715D5039B43F008036D
:103C38000393029B5B0740F14F81A169022900F0C1
:103C48005F81E368012B04BF4EF66022C6F80424A6
:103C58002046FEF73DFC029B9F0603D5039B43F0DD
:103C680020030393039BC6F84034DBE6DAF80830F8
:103C780013F4007B40F02381DAF8083013F00103D5
:103C880000F0FA80DAF8082008FB01435206C3F86E
:103C98005CB005D5012283F83D204023CAF80830DE
:103CA80008FB01420123CAF8083082F8613002F0AB
:103CB800F9F92068A26836E7DAF8082012F002025B
:103CC80000F09A8008FB094090F86120012A00F072
:103CD8001481D01E05283BD8DFE800F0203A1A03EB
:103CE800310308FB0940C26D0132022AC26540F265
:103CF800B5810422002380F86020C3650223204692
:103D0800CAF808304946FEF7EBFB2068A2680AE7C4
:103D180008FB0943052083F86000EFE708FB094228
:103D28004FF0020382F86030019B5BF8032022F019
:103D3800804242F000424BF803200222DEE708FBF3
:103D480009400422C36D80F860200133C365D5E7BC
:103D580008FB094393F86020D0E708FB09420423D5
:103D68004FF0060CCAF80830494682F861C002F0E4
:103D780099F993E62068494602F094F94FF40073E4
:103D8800CAF808302068A268CDE608FB014304227F
:103D9800CAF80820062283F8612002F083F9206817
:103DA800A268C0E6DAF80820120700F19980DAF86C
:103DB8000820530500F1AF80DAF8082011067FF5D6
:103DC8006DAE08FB09428023CAE708FB09424FF49D
:103DD80080734FF0070CCAF80830494682F861C072
:103DE80002F060F95AE62068494602F05BF91023B0
:103DF8002069CAF8083089E6DAF80830D90638D5D3
:103E080008FB094090F83F30032B00F0E68013F0E0
:103E1800FD0304D1C3652369002B00F0E48010235F
:103E2800CAF808302068A2687DE6C7F30A12002A9B
:103E38003FF4D6AE07F00F074FF02C0808FB0748F1
:103E4800D8F8441000293FF4CBAED8F85030D8F851
:103E58004C001344834240F2A480042388F8603065
:103E6800BEE6B1F840208B6CB3FBF2F3D8073FF500
:103E780052AE2068A26856E6DAF808B01BF0400F88
:103E880057D1DAF8083013F008037DD1DAF808B012
:103E98001BF0100F5ED008FB01424FF0030CD365F6
:103EA80092F83D3082F861C033B9134692F83C204D
:103EB80012B9012283F83D2002F0F4F8AFE74FF47D
:103EC8000073CAF8083002F0EDF82068A2682AE604
:103ED8002046FEF7F5FAA1E62046FEF7FDFABAE617
:103EE80008FB094208234FF0050CCAF80830494678
:103EF80082F861C002F0D6F8D0E580F86020FDE6CF
:103F0800029B206803F4C023B3F5802F18BF01215A
:103F180001F0F8FE9CE608FB09424FF480634FF07D
:103F2800080CCAF80830494682F861C002F0BAF8AD
:103F3800B4E508FB0142D365042382F8613001230C
:103F480082F83D3002F0AEF84023CAF80830206805
:103F5800A268E8E5DAF808301B064AD52369002B81
:103F680000F0A08008FB0143DA6D0132022ADA650D
:103F780000F2A0804FF0020283F860208023CAF884
:103F880008302068A268CEE508FB01430822CAF879
:103F98000820052283F8612002F084F82068A268CE
:103FA800C1E53046019201F00DFE019AD8F844307F
:103FB800B8F84000134406F5A066C8F84430D8F8AD
:103FC800503006EB471113448242C8F85030096953
:103FD8004FEA471347D0266802E6C265494620687B
:103FE80002F060F81BE7032380F861302068494637
:103FF80062E7DAF808305B0546D4DAF808309B0740
:104008007FF591AD08FB014393F86120012A5AD04E
:10401800033A052A0AD8DFE802F0030373140914E7
:1040280008FB01434FF0020283F860200223CAF81C
:10403800083008FB0143204693F86020FEF750FA49
:1040480017E708FB0142D36D0133022BD3655DD915
:104058000023D365042382F86030E7E74FF00203BA
:1040680080F8603060E6C1F3C9410029B3D0F25846
:1040780022F0804242F00042F25098F8543083F027
:10408800010388F85430A6E708FB0143082283F8A7
:10409800612002F007F84FF48063CAF808302068FE
:1040A800A26840E508FB0143062283F8612001F07D
:1040B800F9FF63E704220020D86583F860202046D2
:1040C800FEF70EFA5AE783F8602093F83F20023A89
:1040D800012AABD8226962B1012AA7D1DA6C002A79
:1040E800A4D0B3F84000013A0244B2FBF0F2D20780
:1040F8009CD593F8552082F0010283F8552095E766
:1041080008FB0143052283F860208FE74FF0020384
:1041180082F860305CF80E3023F0804343F00043AF
:104128004CF80E3082E700BF90F8F832012B0ED021
:1041380010B504460121006884F8F81201F020FE49
:10414800206801F0A5FC002084F8F80210BD0220C8
:10415800704700BF90F8F832012B0BD010B5044619
:104168000123006884F8F83202F000F8002084F88F
:10417800F80210BD02207047006801F0E1BD00BFE1
:104188002C2303FB010191F8600070472C2303FBEB
:104198000101086D704700BF006801F021BE00BF33
:1041A800006801F011BE00BF2DE9F84381460E46B4
:1041B80017469846D9F8005004E06C6962050AD49D
:1041C8007B1C22D16C6926EA0404A4B2002CF4D129
:1041D8002046BDE8F8832B6843F400732B60002267
:1041E8006FF4806120236961C9F8302089F83D3077
:1041F80089F83E20D9F8403089F83C2043F0040380
:10420800C9F840300120BDE8F883FEF769FEA0EB4D
:104218000800B84201D8002FCCD100222023C9F8C9
:10422800302089F83D3089F83E20D9F8403089F8A7
:104238003C2043F02003C9F840300120C9E700BF03
:10424800F8B506460D46174608E06269D2061BD443
:10425800FEF746FEC01BA84207D835B1346863692B
:1042680013F04003F1D00020F8BD00222023326370
:1042780086F83D3086F83E20336C86F83C2043F0C3
:10428800200333640120F8BD6FF010012022616122
:10429800336386F83D2086F83E30326C86F83C3031
:1042A80032640120F8BD00BFF8B505460E46174632
:1042B8002C6801E0731C19D1636913F0800313D1D2
:1042C80060694205F6D56FF48061202261612B6335
:1042D80085F83D2085F83E302A6C85F83C3042F060
:1042E80004022A640120F8BD0020F8BDFEF7F8FD9D
:1042F800C01BB04201D8002EDAD1002220232A6345
:1043080085F83D3085F83E202B6C85F83C2043F03D
:1043180020032B640120F8BDF8B505460E46174664
:104328002C6801E0731C19D1636913F0040313D1DD
:1043380060694205F6D56FF48061202261612B63C4
:1043480085F83D2085F83E302A6C85F83C3042F0EF
:1043580004022A640120F8BD0020F8BDFEF7C0FD64
:10436800C01BB04201D8002EDAD1002220232A63D4
:1043780085F83D3085F83E202B6C85F83C2043F0CD
:1043880020032B640120F8BD2DE9F04F05689B46FA
:104398002B6883B043F480730C9EDDF834A02B6047
:1043A80007468846914601E0711C10D16C69E30705
:1043B800FAD508F0FE032B612D495346324638469C
:1043C800FFF7F2FE60B1012003B0BDE8F08FFEF701
:1043D80087FDA0EB0A00864219D3C6B13D68E5E720
:1043E8003B680190596901919B6901935246314696
:1043F8003846019BFFF758FF78BBBBF1010F3B68BC
:104408001DD15FFA89F21A6103B0BDE8F08F00236D
:1044180020223B6387F83D2087F83E303A6C3968A4
:1044280087F83C3042F020023A640B68DA0502D57E
:104438004FF400733B64032003B0BDE8F08F4FEAEC
:1044480019201861524631463846FFF72DFF20B92A
:104458003A685FFA89F31361B6E73B6C042BB2D173
:104468003A68136843F4007301201360ACE700BF97
:10447800020001002DE9F04F05689B462B6843F4C4
:1044880080632B602B6883B043F480730C9EDDF847
:1044980034902B6007468846924601E0741C12D17E
:1044A8006C69E007FAD508F0FE032B6143494B46D7
:1044B800324638465FFA88F8FFF776FE68B1012081
:1044C80003B0BDE8F08FFEF70BFDA0EB09008642B4
:1044D80037D3002E35D03D68E2E73B680190596933
:1044E80001919B6901934A4631463846019BFFF783
:1044F800DBFE00283DD1BBF1010F44D13B685FFAD8
:104508008AF21A614A4631463846FFF7CDFE00283E
:104518002FD13A68136843F48073136001E0711C6B
:1045280041D15369DB07FAD548F0010313612349E8
:104538004B4632463846FFF737FE003818BF012091
:10454800BEE7002320223B6387F83D2087F83E30F2
:104558003A6C396887F83C3042F020023A640B68BC
:10456800DA0502D54FF400733B64032003B0BDE8BD
:10457800F08F3B6C042BA2D13A68136843F40073A4
:10458800012013609CE73B684FEA1A221A61314602
:104598004A463846FFF788FE0028EAD13A685FFAAB
:1045A8008AF31361AEE7FEF79BFCA0EB0900864295
:1045B800C7D3002EC5D03A68B3E700BF0200010098
:1045C800002800F0B98070B590F83D30044603F03B
:1045D800FF02002B00F098802368242284F83D20F5
:1045E8001A6822F001021A601A6842F400421A603E
:1045F8001A6822F400421A6001F08CF865684F4B83
:104608009D424FD84E4B98427CD94E4B6A00A3FB33
:104618000035431EB3FBF2F32268516821F03F01D5
:1046280041EA95415160116A4FEA954C0CF1010C31
:1046380021F03F0141EA0C011162D16940F6FC709A
:10464800013321F44F41034221F0FF0161D10423DA
:104658000B43D361D4E907301168034321F0C0014B
:104668000B4313609168D4E9030321F40341034326
:1046780021F0FF010B439360D4E90530D16803436F
:1046880021F0FF010B43D3601168002341F00101C1
:1046980020201160236484F83D00236384F83E30B1
:1046A800184670BD284B98422CD92268254B516872
:1046B800264EA3FB003C21F03F0141EA9C4151609A
:1046C8004FEA9C434FF4967101FB03F3A6FB036387
:1046D800116A9B0921F03F0101330B431362D16931
:1046E800A36821F44F4121F0FF01ABB9431E05EB4C
:1046F8004505B3FBF5F30133C3F30B03D3B143F41F
:104708000043A5E7012070BD80F83C20FDF70AFAB8
:1047180062E7C3F30B039BE705EB8505431E05EB37
:104728008505B3FBF5F30133C3F30B0313B143F46E
:1047380040438DE701238BE701207047A0860100E5
:104748007F841E0083DE1B43FF083D00D34D6210AB
:10475800B0B10268242310B580F83D30136823F007
:10476800010304461360FDF715FA0023236484F857
:104778003C3084F83D30236384F83E30184610BD41
:10478800012070472DE9F04F044683B09946BDF8E3
:1047980034A00E9E0F469046FEF7A2FB94F83D30DB
:1047A800202B03D0022003B0BDE8F08F054604E0BB
:1047B800FEF796FB401B192878D8206883696FEAB2
:1047C800030C1CF0020BF3D094F83C30012BE9D019
:1047D800012384F83C300368DB0762D53946076853
:1047E80027F4006707600C9860622120CDE9006516
:1047F80084F83D00402084F83E0000202064A4F89E
:104808002AA0608D20853548E0624B464246204606
:10481800FFF7BAFD002840D1238D5BB32A46314605
:104828002046FFF741FD00284ED1676A2068B4F89A
:1048380028C039460CF1FF3211F8013B0361638D42
:10484800013B9BB26385D0F814E0616293B21EF01D
:10485800040F2385E1D06BB17A780261628DACF1E7
:10486800020C013A1FFA8CF3023792B26762238571
:104878006285D2E72A4631462046FFF74DFD18BB30
:1048880022681368202143F40073136084F83D10F4
:1048980084F83C0084F83E0085E7012003B0BDE8B9
:1048A800F08F036843F00103036097E72023C4F8FF
:1048B80030B084F83D3084F83EB0236C84F83CB0C6
:1048C80043F0200323646DE7236C042BE5D12268B1
:1048D800136843F400730120136064E70000FFFFCE
:1048E8002DE9F04F044687B09946BDF844A0129DC3
:1048F8000F469046FEF7F4FA94F83D30202B04D08A
:104908000227384607B0BDE8F08F064605E0FEF7F7
:10491800E7FA801B192800F2E080D4F800C0DCF820
:104928001800C04310F0020BF1D094F83C30012B72
:10493800E6D0012384F83C30DCF80030DA074DD5A6
:10494800DCF8000020F40060CCF8000010986062E9
:104958002220CDE9005684F83D00402084F83E002E
:1049680000202064A4F82AA0608D20859648E06283
:1049780039464B4642462046FFF77CFD074640BB7A
:10498800238D93BB236802905A6902929A69029216
:10499800029A1A6842F400721A600023202284F8EE
:1049A8003D2084F83C3084F83E30AAE7FEF798FAB8
:1049B800801B854200D365BB00222023226384F834
:1049C8003D3084F83E20236C84F83C2043F02003DB
:1049D80023640127384607B0BDE8F08FDCF80030C3
:1049E80043F00103CCF80030AAE7012B00F0DC808B
:1049F800022B00F0B28022680590516905919269F6
:104A08000592059A032B49D8012B00F0C080022B90
:104A18007AD0226801E0691CC8D153695B07FAD5CE
:104A28001368616A23F48063136013690B70638DE4
:104A3800616A228D013B0131013A9BB26162228594
:104A48006385226802E0681C40F097805369590723
:104A5800F9D51368616A43F40073136013690B7026
:104A6800638D228D606A2168013B9BB26385096969
:104A7800531E00F1010CC4F824C023854170238D16
:104A8800628D616A013B013A01319BB292B2616267
:104A980023856285002B80D0032BB5D93246294661
:104AA8002046FFF7CDFB002893D12268636A12697C
:104AB8001A70628D2068238D616A013A92B262850C
:104AC8004269013B9BB201F1010C52072385C4F8EE
:104AD80024C0DFD503694B7031E02023C4F830B01F
:104AE80084F83D3084F83EB0236C84F83CB043F041
:104AF8002003236404E7FEF7F3F9801B8542FFF4E3
:104B08005BAF002D3FF458AF226801E06B1CF2D177
:104B180053695807FAD5136843F400731360636A3E
:104B280012691A70638D626A013B9BB26385238D9B
:104B3800013B23852368511C1B6961625370636ABA
:104B4800628D01336362238D013A013B9BB292B2BD
:104B580023856285002B9FD11FE72268116821F405
:104B680080611160116841F400611160049051691D
:104B7800049192690492049A44E7FEF7B1F9801B04
:104B88008542FFF419AF002D7FF45BAF14E732467E
:104B980029462046FFF754FB00287FF41AAF236804
:104BA8001A69636A1A70CAE72268116821F4806179
:104BB80011600390516903919169039103991168F8
:104BC80041F4007111601DE70000FFFF90F83D00FF
:104BD800704700BF002800F08E80F8B590F841308B
:104BE800044603F0FF02002B7AD021686069022294
:104BF80084F84120CB6923F47B6323F00F039042B0
:104C0800CB610A626AD0D4E90232002A0CBF1025AF
:104C180020250120202B98BF6D0000F043FE22695B
:104C2800B2F5007F63D0B0FBF5F000EB800061695E
:104C38004300B3FBF1F332490533A1FB0313180911
:104C4800811EFD29C3F3C00305D9636C43F010032B
:104C580001206364F8BD216840EA032002430A6228
:104C6800D4E90120CB69DFF8ACC0E668A76903EA9C
:104C78000C0342EA00052B4333433B4343F40063F0
:104C8800CB61236A012B23D11E4B1F4D994218BFBC
:104C98004FF040251D4B6363EB69B2F5007F03EAD3
:104CA8000C03EB6118BFB2FA82F24FF002032B62D9
:104CB80018BF5209EB6914BF12024FF480723043D7
:104CC80002439BB23A4313439BB243F40063EB6144
:104CD80000200123606484F84130F8BD2269BDE7F3
:104CE8000B4B80F840204363FCF78EFF7DE7E368B9
:104CF8001BB1AD0097E701207047ED0093E700BFB7
:104D0800CDCCCCCC0038004000340040554F0008D2
:104D1800154E000840F0FFFF00293FD0002A3DD083
:104D280038B590F84030012B044639D0012380F87B
:104D3800403090F84130012B39D1032380F84130BD
:104D4800056800234364E869616200F007002823CE
:104D5800C340D80726D422856285A06B1C4B036408
:104D68001C4BC3631C4BC364238D05F10C029BB21F
:104D7800FEF71EFA00BB2368DA69510503D4DA6925
:104D880042F48062DA615A68920703D45A6842F0A2
:104D980002025A60002384F8403038BD0120704771
:104DA800022038BD53009BB223856385D5E70023D5
:104DB80080F84030022038BD636C012243F00803BC
:104DC8000021636484F8412084F84010104638BDFF
:104DD800E54D0008F14D00081D4F000808B5806B2F
:104DE800FEF70AF808BD00BF08B5C369806B4BB968
:104DF80001684A684FF0010C22F002024A604385BC
:104E080080F841C0FDF7ECFF08BD00BF10B503688E
:104E180084B09A68019290F84120042A044605D08B
:104E280094F84130032B31D004B010BD019AD1075A
:104E38000FD55A6852060CD5C16ADA6821F8022BD8
:104E4800428EC162013A92B24286428E92B2002AE2
:104E58004AD0019B5906E3D523685A689206DFD5E4
:104E68005A68002122F060025A600291DA680292C0
:104E78009B6802930123029A84F84130636C43F0E3
:104E8800020320466364FDF7CBFFC9E7019B9B073C
:104E98000FD523685A6810060BD5616A31F8022BC2
:104EA800DA60628D6162013A92B26285628D92B275
:104EB80022B3019B1907B7D523685A689206B3D560
:104EC8005A68002122F0A0025A6003919B6803935C
:104ED8000123039A84F84130636C43F004032046AD
:104EE8006364FDF79DFF9FE75A68012122F0600285
:104EF8005A6080F84110FDF78DFFAAE75A68012132
:104F080022F0A0025A60204684F84110FDF768FF9D
:104F1800CFE700BF806B016808B54B6800224FF0EF
:104F2800010C23F003034B604285428680F841C0A0
:104F3800436C43F008034364FDF772FF08BD00BFEC
:104F480090F84100704700BF704700BF10B5016876
:104F5800934A8B6886B004460093924B914218BFDF
:104F68004FF040239A6801924A6802925A68039265
:104F7800426832F4007278D0019A92071AD5039ADF
:104F8800110617D5426A911C12884162DA60428D77
:104F9800013A92B24285428D92B25AB95A6822F0C9
:104FA800A0025A60438E9BB223B9012380F8413096
:104FB800FFF7CAFF009BDA071CD5029B5B0619D5D1
:104FC800E36A2268981CD168E0621980638E013B0D
:104FD8009BB26386638E9BB263B9536823F0600308
:104FE8005360638D9BB22BB9012384F8413020466E
:104FF800FFF7AAFF009B58061BD5029B990618D5F8
:10500800226867485168674B21F06001824218BFE7
:105018004FF0402351605A68012122F0A0025A60E3
:1050280084F84110636C43F0020320466364FDF783
:10503800F7FE019B1A0771D5039B9B066ED5226864
:105048005749584B8A4218BF4FF040234FF0010C84
:10505800596821F0A0015960536823F06003536038
:1050680084F841C0636C204650E0009B9A0702D543
:10507800029B1B0654D4019BD80702D5039B5906F3
:1050880069D4019B5A0622D5039B9B061FD523682A
:105098004349444A8B4218BF4FF0402200205168D0
:1050A80021F0600151605A6822F0A0025A60049011
:1050B800DA6804929B6804930121049B84F84110E8
:1050C800636C43F0020320466364FDF7A9FE009B6E
:1050D800180723D5029B990620D5236830485968BC
:1050E800304A21F0A001834218BF4FF04022596096
:1050F8005168002021F06001516005909B6805937C
:105108000123059A84F84130636C204643F0040378
:10511800636406B0BDE81040FDF782BE06B010BD5E
:10512800436A9A1C1B884262CB60438D013B9BB249
:105138004385438D9BB2002B9DD14B6823F0A00380
:105148004B60438E9BB2002B95D1012380F84130F0
:10515800FFF7FAFE8FE720681149124AE36A88428E
:1051680018BF4FF04022981CD168E0621980638E06
:10517800013B9BB26386638E9BB2002B81D153683F
:1051880023F060035360638D9BB2002B7FF479AFEB
:10519800012384F841302046FFF7D6FE71E700BFAF
:1051A8000038004000340040002800F0A2812DE9BA
:1051B800F0410368DD0782B004462FD59E498A680E
:1051C80002F00C02042A00F0ED808A6802F00C025A
:1051D800082A00F0E3806368B3F5803F00F0EC80B4
:1051E800B3F5A02F00F07581934D2A6822F4803220
:1051F8002A602A6822F480222A60002B40F0E1808D
:10520800FDF76EFE064605E0FDF76AFE801B642882
:1052180000F201812B689B03F6D423689F0728D5E9
:10522800854A916811F00C0F00F09080916801F0A8
:105238000C01082900F08680E368002B00F00E813D
:105248007E4B7D4E01221A60FDF74AFE054605E0B9
:10525800FDF746FE401B022800F2DD803368980700
:10526800F6D53368226923F0F80343EAC2033360B2
:1052780023681A0751D458072FD56F4A136C13F0B7
:1052880080537FD000256E4E3368D90540F1B38036
:10529800A368012B00F0C380052B00F02C81664E1B
:1052A800326F22F001023267326F22F00402326755
:1052B800002B40F0B980FDF713FE41F2883807460D
:1052C80005E0FDF70DFEC01B404500F2A480336FDA
:1052D8009807F6D4002D40F00681A069C8B1564D54
:1052E800AB6803F00C03082B00F0C980534B002275
:1052F80002281A6600F00981FDF7F2FD044605E070
:10530800FDF7EEFD001B022800F285802B689B014B
:10531800F6D4002002B0BDE8F08163690BB3474BB7
:10532800454E0122C3F8802EFDF7DAFD054604E05C
:10533800FDF7D6FD401B02286DD8736F9B07F7D584
:10534800236898E7526856023FF576AF3A4A1268E2
:10535800950744D5E268012A41D0012002B0BDE892
:10536800F081364A344EC2F8803EFDF7B9FD054655
:1053780004E0FDF7B5FD401B02284CD8736F9F076A
:10538800F7D4DDE70193136C43F080531364136C77
:1053980003F080530193019B012574E74A6850028A
:1053A8007FF519AF244A126891037FF537AF626819
:1053B800002A7FF433AFD0E71F4A136843F48033E1
:1053C8001360FDF78DFD1C4E054604E0FDF788FDD2
:1053D800401B64281FD833689A03F7D51DE7164980
:1053E80020690A6822F0F80242EAC0020A601A0735
:1053F8007FF541AF91E7336843F480733360FDF77D
:105408006FFD07463368DA053FF542AFFDF768FDE3
:10541800C01B0228F6D9032002B0BDE8F081064A75
:10542800136F43F001031367FDF75AFD024F064659
:1054380041F288380BE000BF0038024000004742C4
:1054480000700040FDF74CFD801B4045E3D83B6FE2
:105458009B07F7D5002D3FF440AF44E0424A434E46
:105468001360FDF73DFD054604E0FDF739FD401BDF
:105478000228D0D833689907F7D42368F9E60128B9
:105488003FF448AF6B68E26903F4800191427FF40E
:1054980064AF226A03F03F0191427FF45EAF616A14
:1054A80047F6C0721A40B2EB811F7FF456AFA26A6A
:1054B800520803F44031013AB1EB024F7FF44DAF8B
:1054C800E26A03F07063B3EB026F14BF012000209F
:1054D80020E7264B1A6842F480221A601A6842F4C0
:1054E80080321A606DE7214A136C23F080531364ED
:1054F800F3E6012070471D4B1A6F42F004021A6749
:105508001A6F42F001021A678EE7FDF7E9FC0646BA
:1055180005E0FDF7E5FC801B02283FF67CAF2B6811
:105528009901F6D4D4E90731626A0B4343EA82133E
:10553800D4E90A21520843EA0163013A0A4943EAD5
:10554800024301226B600A66FDF7CAFC074D044658
:1055580005E0FDF7C5FC001B02283FF65CAF2B6891
:105568009A01F6D5D5E600BF000047420038024050
:10557800164908B58B6803F00C03042B1BD0082BC5
:1055880017D14A684B68496813F4800302F03F0258
:1055980013D10F48C1F38811A1FB0001FBF7B6F93D
:1055A8000A4B5B68C3F3014301335B00B0FBF3F0C4
:1055B80008BD074808BD074808BD0648C1F388115B
:1055C8000023A1FB0001FBF7A1F9E9E7003802403D
:1055D8000024F40000127A00002800F08780484A6E
:1055E800136803F007038B422DE9F0410D4604468A
:1055F80009D2CBB21370136803F007038B4202D0B1
:105608000120BDE8F0812368980714D5590704D50F
:105618003C498A6842F4E0528A601A0704D539493D
:105628008A6842F460428A603649A0688A6822F033
:10563800F00202438A60DF0721D56268012A57D049
:10564800931E012B2F4B1B684DD99907D8D52D4E8A
:10565800B36823F003031343B360FDF741FC41F241
:105668008838074604E0FDF73BFCC01B404544D89A
:10567800B368626803F00C03B3EB820FF3D1204ADE
:10568800136803F00703AB4206D9EBB21370136833
:1056980003F00703AB42B3D123685A0706D519496B
:1056A800E0688A6822F4E05202438A601B0707D543
:1056B800144A2169936823F4604343EAC103936061
:1056C800FFF756FF0F4A104C92681049C2F30312B5
:1056D8000346A25C0E48D34000680B60FDF7B6FB9A
:1056E8000020BDE8F0819801B1D489E70120704716
:1056F800044B1B689E03AAD482E7032081E700BFFE
:10570800003C02400038024020A6000800000020AB
:1057180060000020044B05499B68054A0868C3F3EC
:105728008223D35CD8407047003802400000002034
:1057380030A60008F0B5036813F0050F83B00446DF
:1057480005D113F002033BD1184603B0F0BD464B18
:10575800464E00229A66FDF7C3FB054604E0FDF7B6
:10576800BFFB431B022B28D833681F01F7D4D4E9A9
:1057780001131B0743EA81133B4AC6F8843001230F
:105788009366FDF7ADFB394E054604E0FDF7A8FB2F
:10579800401B022811D833681801F7D52368D0E7D1
:1057A800FDF79EFB41F2883706462B6F9B073CD4DA
:1057B800FDF796FB801BB842F7D9032003B0F0BD74
:1057C8002A4B2B4D002201921A6C42F080521A6427
:1057D8001B6C03F080530193019B2B6843F4807387
:1057E8002B60FDF77DFB064604E0FDF779FB831B84
:1057F800022BE2D82B68D905F7D51C4DE3682A6F30
:1058080012F4407212D003F44071914210D02B6F01
:10581800154A0121C2F8401E23F440730021C2F842
:10582800401E2B672B6FDA07BAD4E36803F4407283
:10583800B2F5407F0DD00D498A6822F4F8128A60CB
:105848000A4A116FC3F30B0300200B43136703B01D
:10585800F0BD0648826823F0704121F4407122F4BB
:10586800F8120A438260EBE7000047420038024022
:10587800007000400A4B03220260D3F88420C2F370
:1058880088124260D3F88420C2F3027282609A6858
:105898001B6F02F4F81203F440731343C36070479C
:1058A80000380240012801D0002070470D4B9A684B
:1058B8001102F9D45A685B6852024CBF0A4A0B4A73
:1058C80003F03F03B2FBF3F2064BD3F88400D3F89E
:1058D8008430C0F3881002FB00F0C3F30273B0FBFE
:1058E800F3F070470038024000127A000024F400F8
:1058F80000285CD070B50446406A002847D00023D1
:10590800C4E9043394F851300022A26203F0FF0185
:10591800002B42D094462168A568A269266A022312
:1059280084F851300B6823F040030B60636805F47A
:10593800044503F482732B43E56805F400652B43A3
:10594800256905F002052B43656905F001052B4320
:10595800E56906F0800E02F4007605F03805334359
:105968002B43120C00F0100043EA0E0302F004026D
:1059780043EA0C0302430B604A60CB69002023F41E
:1059880000630122CB61606584F8512070BD6368B3
:10599800B3F5827FB6D0E061B4E7204684F85010B2
:1059A800FCF756FBD4E9090303F4005CB3E70120D4
:1059B800704700BF82B00023124A019302E00369D6
:1059C800002B08DB019B01330193019B9342F6D91D
:1059D800032002B07047002301930369094A43F08A
:1059E8000103036103E0036913F0010306D0019B7F
:1059F80001330193019B9342F5D9E9E7184602B0B8
:105A0800704700BF400D030084B010B50DF10C0CB9
:105A18008CE80E00089B012B044622D1836B0F9A59
:105A280023F480338363C36823F4840323F040039F
:105A3800C360C368012A23F44013C36023D02046FF
:105A4800FFF7B8FF069B012B07D1A36843F00603B5
:105A5800A360A36843F02003A360BDE8104004B02E
:105A68007047C36843F04003C360FFF7A3FF0C9B74
:105A780023B9A36B43F48033A363E3E7A36B23F455
:105A88008033A363DEE7C36843F48013C360D6E7BB
:105A9800034600209A6842F001029A60704700BFEE
:105AA800034600209A6822F001029A60704700BFFE
:105AB80038B5C368012923F0C0430546C36018D030
:105AC800A9B9C36843F080430C46C36001E0322C97
